:100000000C94AB060C94F2060C94F2060C94AD1210
:100010000C94F2060C94F2060C94F2060C94F20680
:100020000C94F2060C94F2060C94FD250C94CF2649
:100030000C94B11E0C94F2060C94F2060C94F20689
:100040000C94F2060C94F2060C94F2060C94F20650
:100050000C94F2060C940A1F0C94F2060C94F2060F
:100060000C94F2060C94F2060C94F2060C94F20630
:100070000C94F2060C94F2060C94F2060C94F20620
:100080000C94F2060C94F2060C94F2060C94F20610
:100090000C94F2060C94F2060C94F2060C94F20600
:1000A0000C94F2060C94F2060C94F206160727073D
:1000B0001A0727071E0727072707270722072707EB
:1000C000220727072207270722076B156B159D15A7
:1000D0009D15FE16EA15FE16FE16F5158E169F16D0
:1000E0009F1696179617A817A8179F17A817A8174F
:1000F000A81796179617A417A817A817A4173C2790
:1001000063275B2863275B28AF27D2275B28292832
:10011000382800000000000000000000000000007F
:1001200000000000000000000000000000000000CF
:1001300000000000000000000000000000000000BF
:1001400000000000000000000000000000000000AF
:10015000000000000000000000000000000000009F
:10016000000000000000000000000000000000008F
:10017000000000000000000000000000000000007F
:10018000000000000000000000000000000000006F
:10019000000000000000000000000000000000005F
:1001A000000000808080C0C0E060703038180C0C07
:1001B0001E0C80000000000000000080C0E0F0384D
:1001C0001C0E07000000000000000000008080807E
:1001D000000000000000000000000000000000001F
:1001E00000000000008080808080808000008040CF
:1001F000000000000000000000008080800000007F
:10020000008080C0C060603010000000000000006E
:10021000000000000000001030307078787C7C7E98
:100220003E3F3F3B3B3939383838383838383C382E
:10023000188FDFF87CBEDFF7FBFDFEEF733B1B1F63
:10024000EFF7FF7E6F6F6F6F6DBDE1F93F3F39795B
:10025000797DEDEDCDC7C787C7E3E0F87E3F373343
:100260003B1B19190DEDFFBFC7E7E3F07CDEE7FB91
:100270003E3FFCE0F83ECFF3FC3F1F1F3C7E76F391
:10028000E381010000000000000000000000000009
:10029000000000000000000000000000000000005E
:1002A0000000000000000000000000002030181EC8
:1002B0000F03010000000103030100000000000023
:1002C0000000000000000000000307000000000024
:1002D000000000000001E1793E1F0701000000005E
:1002E0000000000001010100000101010000000008
:1002F00000000000000000010000000000000000FD
:1003000000010103020604081810302060000000FC
:1003100000000000000000000000000000000000DD
:1003200000000000000000000002000000000000CB
:1003300000000000000000000000000000000000BD
:1003400000000000000000000000000000000000AD
:10035000000000000001000000000000000000009C
:10036000000000000000000000000000000000008D
:10037000000000000000000000000000000000007D
:10038000000000000000000000000000000000006D
:10039000000000000000000000000000000000005D
:1003A000000000000000000000000000000000004D
:1003B000000000000000000000000000000000003D
:1003C000000000000000000000000000000000002D
:1003D000000000000000000000000000000000001D
:1003E000000000000000000000000000000000000D
:1003F00000000000000000000000000000000000FD
:1004000000000000000000000000000000000000EC
:1004100000000000000000000000000000000000DC
:1004200000000000000000000000000000000000CC
:1004300000000000000000000000000000000000BC
:1004400000000000000000000000000000000000AC
:10045000000000000000000000000000000000009C
:10046000000000000000000000000000000000008C
:10047000000000000000000000000000000000007C
:10048000000000000000000000000000000000006C
:10049000000000000000000000000000000000005C
:1004A000000000000000000000000000000000004C
:1004B000000000000000000000000000000000003C
:1004C000000000000000000000000000000000002C
:1004D000000000000000000000000000000000001C
:1004E000000000000000000000000000000000000C
:1004F00000000000000000000000000000000000FC
:1005000000000000000000000000000000000000EB
:10051000000041646A757374005261697365004C30
:100520006F7765720044656661756C74004C617923
:1005300065723A20002B0014001A000800150017FD
:1005400000E00004001600070009000A00E1001D99
:10055000001B00060019000500000000000000E379
:100560000001512C002A00130012000C0018001C7E
:1005700000340033000F000E000D000B00E50038C2
:10058000003700360010001100000000000000E6F7
:10059000000251280035001E001F0020002100220B
:1005A0000001000401160100000901000001001D06
:1005B000011B0106011901290000000000000001D3
:1005C00000010001004C0027002600250024002324
:1005D0000000004F005200510050000B010100319B
:1005E000000000000000000000000000000000010A
:1005F00000035101002B001E021F022002210222D3
:10060000020100010001004600470048000100010E
:1006100000010001000100010000000000000001D5
:1006200000035101000100270226022502240223B3
:1006300002000030002F0031022E002D000100309A
:10064000022F0235022E022D0200000000000001E0
:10065000000100010039003A003B003C003D003E33
:100660000001000000000000000000000001000088
:100670000000000000000029000000000000000150
:100680000001000100440043004200410040003FDF
:10069000004500000000004B004A00490000000037
:1006A0000000004E004D004C000000000000000162
:1006B000000100010000AE00AF00DA0281FFD9F1B5
:1006C000DB20A4A62EAF00A0C000A1C800AED5803C
:1006D000A81FD300408D1420000000000000003E41
:1006E0005B4F5B3E003E6B4F6B3E001C3E7C3E1CF6
:1006F00000183C7E3C18001C577D571C001C5E7F78
:100700005E1C0000183C180000FFE7C3E7FF000074
:100710001824180000FFE7DBE7FF0030483A060E18
:1007200000262979292600407F05050700407F051E
:10073000253F005A3CE73C5A007F3E1C1C0800083D
:100740001C1C3E7F0014227F2214005F5F005F5F4D
:100750000006097F017F00006689956A006060607D
:1007600060600094A2FFA2940008047E04080010B8
:10077000207E20100008082A1C0800081C2A0808EF
:10078000001E10101010000C1E0C1E0C0030383E05
:10079000383000060E3E0E0600000000000000008B
:1007A000005F000000000700070000147F147F14A2
:1007B00000242A7F2A120023130864620036495657
:1007C000205000000807030000001C224100000028
:1007D00041221C00002A1C7F1C2A0008083E080831
:1007E0000000807030000008080808080000006061
:1007F0006000002010080402003E5149453E000000
:10080000427F4000007249494946002141494D3329
:10081000001814127F10002745454539003C4A490D
:10082000493100412111090700364949493600463E
:100830004949291E00000014000000004034000057
:100840000000081422410014141414140000412262
:100850001408000201590906003E415D594E007C12
:100860001211127C007F49494936003E4141412224
:10087000007F4141413E007F49494941007F0909CC
:100880000901003E41415173007F0808087F0000C4
:10089000417F4100002040413F01007F0814224178
:1008A000007F40404040007F021C027F007F040820
:1008B000107F003E4141413E007F09090906003E8C
:1008C0004151215E007F09192946002649494932D4
:1008D0000003017F0103003F4040403F001F2040D4
:1008E000201F003F4038403F00631408146300039A
:1008F00004780403006159494D4300007F414141A0
:1009000000020408102000004141417F0004020160
:10091000020400404040404000000307080000205F
:1009200054547840007F28444438003844444428D4
:1009300000384444287F0038545454180000087E7E
:100940000902001824241C78007F080404780000A1
:10095000447D4000002040403D00007F10284400BE
:100960000000417F4000007C04780478007C08048B
:100970000478003844444438007C182424180018B3
:100980002424187C007C080404080048545454248F
:100990000004043F4424003C4040207C001C2040D4
:1009A000201C003C4030403C004428102844004CAF
:1009B0009090907C004464544C4400000836410000
:1009C000000000770000000041360800000201022C
:1009D0000402003C2623263C00000000000000002A
:1009E000000000000000000000C0E0F0F8F818006F
:1009F000C0F0FCFEFFFFFFFFFFFFFF7E00000000D6
:100A0000000000000080C0E0E0E0E0E0E0E0E0C0E6
:100A1000800000000080C0E0E0E0E0E0E0E0E0C056
:100A200080000000E0E0C0C0E0E0E0E00000E0E0C6
:100A3000C0C0E0E0E0E0E0C0800000000080C0E076
:100A4000E0E0E0E0E0E0E0C0800000000000000046
:100A500000000000000000E0F0F0F0E0ECEEF7F342
:100A60007020007C7C7C7E007E7E7E7F7F7F00000D
:100A700080C0E07E5B4F5BFEC00000C000DCD7DEC4
:100A8000DEDED7DC00C00000000000000000000037
:100A90000000000000000000000000000000000056
:100AA0000000F8FCFEFFE000FFFFFFFFFFFF80FFFC
:100AB000FFFFFFFFFFFFFFFF1F0701000000000017
:100AC00000000000FFFFFF8100000000000081C364
:100AD000C3C30000FFFFFF8100000000000081FF92
:100AE000FFFF0000FFFFFF01000000000000FFFF0C
:100AF000FF010000000001FFFFFF0000FFFFFF9D5E
:100B00001C1C1C1C1C1C9DDFDFDF00000000000003
:100B1000000000000000000F1F3F7F7F7F7F7F3FAE
:100B20001E0C001F1F1F3F003F3F3F7F7F7F003095
:100B30007B7F7830202030787F3B0003000F7F0FD1
:100B40000F0F7F0F000300000000000000000000F6
:100B50000000000000000000000000000000000095
:100B60000000030F1F3F3F3F3F1F1F3F3F7F7F7F1F
:100B70003F3F1F3F7F7F7F7F7C7878381C0F0000CE
:100B80000000000000010307070707070707070326
:100B90000100000000010307070707070707070315
:100BA0000100000007070700000000000000070721
:100BB000070000000000000707070000000103070E
:100BC00007070707070707030100000000000000F0
:100BD0000000000000000000000000000000000015
:100BE0000000000000000000000000000000000005
:100BF00000000000000000000000000000000000F5
:100C000000000000000000000000000000000000E4
:100C1000000000000000000000480343006F007265
:100C2000006E00650020004B006500790062006FD7
:100C30000061007200640020005200650076002E02
:100C400000310020002800530070006C006900741F
:100C500000200043006F006D006D006F006E0029E2
:100C6000000000100366006F006F007300740061E5
:100C7000006E0000000403090409023B00020100A9
:100C8000A0FA09040000010301010009211101007B
:100C9000012240000705810308000A090401000140
:100CA00003000000092111010001224F0007058205
:100CB0000320000A12011001000000085346010041
:100CC00001000102000105010902A10185020901DB
:100CD000A1000509190129051500250195057501D2
:100CE00081029501750381010501093009311581E2
:100CF000257F95027508810609381581257F9501A4
:100D000075088106050C0A38021581257F95017545
:100D1000088106C0C005010906A101050719E029DF
:100D2000E715002501950875018102950175088177
:100D3000010507190029FF150026FF009506750813
:100D40008100050819012905950575019102950194
:100D500075039101C00011241FBECFEFDAE0DEBFA2
:100D6000CDBF04B603FE27C080919C0490919D04E2
:100D7000A0919E04B0919F048730904BA740B04B48
:100D8000D1F410929C0410929D0410929E04109233
:100D90009F0414BE84B7877F84BF0FB6F894A895CC
:100DA00080916000886180936000109260000FBEA7
:100DB000E0E0F8E3099511E0A0E0B1E0E6E3F8E552
:100DC00002C005900D92A838B107D9F724E0A8E831
:100DD000B1E001C01D92AC39B207E1F70E943D239A
:100DE0000C94192C0C9400000C94050ACF93C82F76
:100DF0000E94470B882311F08C2F01C082E0CF9115
:100E0000089560E08DE295E00E942C0D80914302F0
:100E100090914402A0914502B09146028F30910515
:100E2000B0F4FC01EA5AFF4F0C94C32860E085E25D
:100E300095E00BC060E08FE195E007C060E089E1DC
:100E400095E003C060E082E195E00C943E0D0895CA
:100E50009C013056211540E2340720F0305E211508
:100E6000304108F499278C33910528F4FC01EA5CA1
:100E7000FE4F208101C020E21F922F939F938F93FA
:100E8000FB0180811F928F9381811F928F9385E256
:100E900091E09F938F931F9288E18F9388E891E070
:100EA0009F938F930E94DF288DB79EB70E960FB643
:100EB000F8949EBF0FBE8DBF089560E088E891E072
:100EC0000C94100D60E074E082E191E00C94430D0D
:100ED0000E94470B882321F00E9401070C945D07B4
:100EE0000C946207FB01228121110E94280781E0F6
:100EF000089581E008950C94720708950C947D077D
:100F00001F93CF93DF9300D000D01F92CDB7DEB7F1
:100F100049835A836B833091EC0189819A81311125
:100F200014C0662359F0222349F00E943A1C182F5E
:100F3000682F89819A810E94E11B03C00E940D1CC9
:100F4000182F69817A81812F04C00E943A1C69811F
:100F50007A810F900F900F900F900F90DF91CF91AB
:100F60001F910C942E08FC01262F40815181628133
:100F7000738184810C948007CF93DF93EC0160E050
:100F80000E94B307BE01DF91CF910C947E070E94AF
:100F90005F1D811102C00E94061E0C94F4060C9481
:100FA000030A08950E9484170E94D1072FEF84E35B
:100FB0009CE0215080409040E1F700C000000C947C
:100FC000301F0F931F93CF93DF93EC0161E00E94DA
:100FD000B3078C01BE010E947B07882349F1BE0143
:100FE000C8010E946F0F882319F1BE01C8010E9439
:100FF000C10F8823E9F0BE01C8010E94EC108823CC
:10100000B9F08A81882369F001158CE5180731F061
:101010000F3D1C4531F40E94061E0AC00E94D207F3
:1010200007C0CE01DF91CF911F910F910C947907EA
:1010300080E0DF91CF911F910F91089508950C9456
:101040001E0881E008950C942108CF93C82F0E94B8
:101050001F088C2F0E942308CF91089520E3829FC0
:10106000C0011124FC0126E0729FE00DF11D112446
:10107000E60FF11DEE0FFF1FEB5CFA4F8591949187
:101080000895CF93DF930E942E080E941E09EC0161
:101090008115924580F5C11581E5D80708F095C006
:1010A000CF3FD10509F0B8F4C03FD10508F06CC0BE
:1010B000C53AD10548F4C430D10508F0BBC0C130F1
:1010C000D10509F4B7C0B4C0CE01805E910908977C
:1010D00008F4B0C0ADC0C11590E5D90708F059C0FB
:1010E000C11520E4D20708F051C0C11580E2D8072D
:1010F00008F4A0C09DC0C11596E5D90718F5C11523
:1011000025E5D20708F07AC0C11584E5D80708F0B4
:1011100070C09E01237033278C2F86958695C1154C
:10112000D34508F057C0C1E0D0E002C0CC0FDD1FAE
:101130002A95E2F720E2829FC0011124C82BD92B07
:10114000DC6878C0C1152AE5D20778F4C11589E5B5
:10115000D80708F05DC0C11598E5D90708F468C044
:10116000DC2FCC27C06FD06A65C0CE0190568115A8
:10117000904208F05DC08D2F8F710E94B209DD276B
:10118000D0628F71D82B56C0D06554C0DF70D06A42
:1011900051C0CE0174E0969587957A95E1F78370FA
:1011A0009C2F937021E030E002C0220F331F9A95EC
:1011B000E2F73C68382BCF70C695C69580E2C89F91
:1011C000E0011124C22BD32B35C0DC2FCC27C16FFB
:1011D000D06A30C0C1E0D0E002C0CC0FDD1F2A953C
:1011E000E2F720E2829FC0011124C82BD92BDA68D4
:1011F00021C0DC2FCC27C46FD06A1CC08C2F0E946A
:10120000B2098F71C82FD0E0DC2FCC27D06212C07A
:101210008C2F8F700E94B20994E0D695C7959A954D
:10122000E1F7CF70D0E0DC2FCC27D069C82B02C00B
:10123000C0E0D0E0CE01DF91CF91089582389105D2
:1012400069F1B0F48133910509F46DC048F4893235
:10125000910509F463C08A32910509F469C00895C3
:101260008533910509F455C089339105B9F0089586
:10127000833E910569F138F4803E9105B1F0823EDC
:10128000910509F10895863E9105A9F1873E9105E2
:10129000B9F1843E910509F064C023C020918D040A
:1012A00020FD4FC021FD4DC0089580918D0480FD2B
:1012B00044C080918E0480FF44C080918D0484FDE1
:1012C00042C083EE4DC080918D0482FF38C0F5CFBF
:1012D00080918D0482FD33C080918E0480FD31C0E9
:1012E000ECCF80918E0481FF32C080918D0484FD0B
:1012F0002AC087EE35C080918D0483FF26C0F5CFCC
:1013000080918D0483FD21C080918E0481FD1FC0DA
:10131000ECCF80918D0485FD1CC01DC080918D0493
:1013200085FD19C016C080918D0486FD16C017C0BA
:1013300080918D0486FD13C010C089E311C082EE38
:101340000FC080EE0DC080E00BC086EE09C084EEB9
:1013500007C089E205C085E303C08AE201C081E3DA
:1013600090E0089590918D0492FF0DC0282F287170
:10137000283019F4877F846006C0282F2471243018
:1013800011F48B7F886093FF0DC0282F28712831BE
:1013900019F4877E846106C0282F2471243111F44A
:1013A0008B7E886120918E0420FF0DC0382F38710C
:1013B000383019F4877F816006C0382F31713130A1
:1013C00011F48E7F886021FF0DC0282F28712831ED
:1013D00019F4877E816106C0282F2171213111F413
:1013E0008E7E886194FD877E0895E82FF0E0E758AF
:1013F000FD4F80810895089580EA8A95F1F7089558
:1014000008950C94000A0C94010A0C94000AF894B4
:10141000E82FE295EF70F0E031A1282F2F7081E0E6
:1014200090E001C0880F2A95EAF7982F90959323B2
:1014300091A392A1892B82A37894089508950F9384
:101440001F93CF93DF930E94660B809100018091E0
:101450000001811102C094E001C090E090938202EB
:1014600084E0891B8093810284E90E94070A86E652
:101470000E94070A87E90E94070A86EC0E94070A71
:10148000C2E7D1E008E711E089910E94070A0C1732
:101490001D07D1F7E1E7F2E0A9E7B2E011921D9252
:1014A00082E0E937F807D1F784E00E94100B0E9430
:1014B000C707DF91CF911F910F910C94700B0E9481
:1014C000470B8823F1F08091810290E087589D4F6F
:1014D0000E94830B811111C08091A0018F5F8093C6
:1014E000A001863060F0E0918102F0E0E758FD4F06
:1014F000108211821282138202C01092A0010C94F9
:10150000CF078091820290E087589D4F0E949E0BEA
:101510000C941E0A8F929F92AF92BF92CF92DF924D
:10152000EF92FF920F931F93CF93DF9388E7A82E3C
:1015300081E0B82EC1E7D2E09CE7E92E91E0F92ED8
:10154000912C01E010E06501F5018081F894E82F0D
:10155000E295EF70F0E021A18F70A80102C0440F66
:10156000551F8A95E2F7CA01922F982B91A392A159
:101570008095892382A378940E94FC09E2E7F1E038
:1015800020E030E0812C4191A42FA295AF70B0E013
:1015900090968C9190E04F7002C0959587954A95F2
:1015A000E2F780FD07C0802F022E01C0880F0A9449
:1015B000EAF701C080E0882A2F5F3F4F26303105CF
:1015C00011F75FEFA51AB50AF60180810E94070A9C
:1015D0008881881619F0888281E001C080E0982A0D
:1015E0002196EA14FB0409F0AECF6091820270E00C
:1015F00067587D4F292D44E081E792E00E94110B4E
:101600000E945F0A892DDF91CF911F910F91FF906A
:10161000EF90DF90CF90BF90AF909F908F90089504
:101620000895FF920F931F93CF93DF938C01F62EB3
:10163000D72FC42F222349F081E08093A3010E9479
:10164000E31E9093A2018093A1018091A3018823BE
:10165000C1F08091A1019091A2010E94FB1E06970A
:1016600080F0EF2DFD2FD8014C2F50E0CD01801BD5
:10167000910B841795071CF48D918193F7CF1092ED
:10168000A301DF91CF911F910F91FF900895809159
:10169000A401811112C08091D80080618093D8008C
:1016A0008AE18A95F1F700C08091D90080FD02C0DF
:1016B00082E001C081E08093A40181E09091A401C7
:1016C000913009F080E008950C94470B0E94640B60
:1016D000809300010E94470B81110C94770B0895B1
:1016E0000E94470B811102C00C947D0B089561E0AC
:1016F00070E081E091E00C945F1261E070E081E0C5
:1017000091E00C946612CF93DF93D82FC92F0E94DB
:10171000FE12892B79F4ED2FFC2F80E090E0DC01A4
:10172000AA55BE4F2C912193019684309105B9F7AB
:1017300081E001C080E0DF91CF91089520E030E0AA
:10174000FC014191CF01F901EA55FE4F40832F5F23
:101750003F4F24303105A1F70895EF92FF920F9388
:101760001F93CF93DF93EC017B0164E670E088E781
:101770000E9423118C01EC0EFD1ECE15DF0561F0D9
:1017800017FD0AC0FE01849164E670E00E947A11A0
:101790008C012196892B89F30E94FE11C801DF91EB
:1017A000CF911F910F91FF90EF900895E3E8F2E041
:1017B00080E092E0DF019C011D9221503040E1F772
:1017C000F0938804E09387048FEF9FEF9093D60106
:1017D0008093D50108950E94F6068093D10180FD83
:1017E00002C080E801C080E28093D0010E941D11F8
:1017F0006DE070E08CEC96E00E94AD0B892B11F04F
:1018000080E008958091D10163E070E081FD03C024
:1018100089EC96E002C086EC96E00E94AD0B892B25
:1018200079F76DE070E089EB96E00E94AD0B892BB3
:1018300039F70E94EF1EDC01CB01805A9541AF4F72
:10184000BF4F8093830490938404A0938504B09346
:1018500086040E94D60B81E08093D4018093D3014B
:101860001092D20108952091D00136E0839FC001EB
:101870001124629F800D911D1124811522E0920791
:1018800014F080E090E08D579D4F909388048093F2
:101890008704089520918704309188042D573240A1
:1018A0004091D001642F70E0C9010E949B28481B21
:1018B000463010F4240F311D211582E0380710F056
:1018C00020E030E02D573D4F30938804209387046B
:1018D0000895CF93DF938A3011F481E003C08D30F7
:1018E00029F480E0DF91CF910C94DF0CC62F682F94
:1018F000809187049091880426E0FC01AAEAB1E077
:1019000001900D922A95E1F7603E30F026E0FC014F
:1019100011922A95E9F70AC0F6E06F9FB0011124F1
:101920006752794F46E050E00E94C928C11135C086
:10193000C0918704D091880446E050E0BE018AEA55
:1019400091E00E94D228892BB1F1C358D2409E0168
:1019500085E0369527958A95E1F781E090E0AC0126
:1019600002C0440F551F2A95E2F72091D50130910E
:10197000D601242B352B259645E0D695C7954A955B
:10198000E1F702C0880F991FCA95E2F7822B932BCB
:101990009093D6018093D5010EC0E0918704F09119
:1019A00088049F012A5F3F4F2E173F0709F280816D
:1019B00080958193F9CFDF91CF910C944A0CCF930E
:1019C000E82F2091870430918804235832404091B9
:1019D000D001642F70E0C9010E949B28481B842F0E
:1019E000EE2359F066E00E948F28C82FC150B0F056
:1019F00060E080E20E94690CF9CFA901480F511DF7
:101A00004115524018F080E020E030E0280F311DF1
:101A10002D573D4F3093880420938704CF9108952C
:101A2000FF920F931F93CF93DF93EC01F62EFC01EF
:101A300001900020E9F78F0101501109C017D1076B
:101A400028F46F2D89910E94690CF8CFDF91CF9116
:101A50001F910F91FF9008951F93CF93DF93EC0197
:101A6000162FFE018491882329F0612F0E94690CB2
:101A70002196F7CFDF91CF911F9108950E942C0DF1
:101A800081E00C94DF0CEF92FF920F931F93CF93A2
:101A9000DF93209187043091880423583240A901B4
:101AA000460F571F4130524020F060E072E0621B49
:101AB000730BC091D501D091D601D901AD57BD4F5F
:101AC000A901620F731F01E010E046175707E8F401
:101AD000FA01E21BF30BE80FF91FE491FC91EF17F9
:101AE00081F0EC93FA01689414F8F695E795169452
:101AF000E1F7780102C0EE0CFF1CEA95E2F7CE296F
:101B0000DF294F5F5F4F1196E0CFD093D601C0938E
:101B1000D501DF91CF911F910F91FF90EF90089524
:101B20008091D4018823F9F00E94EF1EDC01CB01E3
:101B3000805A9541AF4FBF4F8093830490938404A4
:101B4000A0938504B09386048091D30181110BC0CA
:101B500062E070E087EB96E00E94AD0B892B19F4F0
:101B600081E08093D3018091D30108956F927F9299
:101B70008F929F92AF92BF92CF92DF92EF92FF929D
:101B80000F931F93CF93DF938091D401882309F49F
:101B9000DCC02091D5013091D6012115310509F421
:101BA000D4C08091D2018111D0C061E070E0082FD3
:101BB00010E03B01082E02C0660C771C0A94E2F785
:101BC000A90146215721452B11F48F5FF0CF909149
:101BD000D101980165E0220F331F6A95E1F790FD6E
:101BE00012C08295880F807680930B01220F232FDD
:101BF000221F330B319520930E01815E80930C01DF
:101C000010920F0112C045E0369527954A95E1F7ED
:101C1000220F220F220F20930B0110920E01295F39
:101C200020930C0183E080930F0124E630E047E02D
:101C300050E069E071E088E70E94AA11892B09F061
:101C400084C08091D10180FD23C0A80195E0440F9C
:101C5000551F9A95E1F74D575D4F04E610E020E2DD
:101C600030E060E488E70E94D111892B09F06DC053
:101C70000E94900DE301C095D0958091D50190917F
:101C8000D601C823D923D093D601C093D5015DC016
:101C900080E2E0EBF1E0DF011D928A95E9F785E053
:101CA000000F111F8A95E1F7A4E8B1E040E851E088
:101CB000992493942D91EA018991AE01B801680F9E
:101CC000711D6D577D4F30E020553E4FF90197E073
:101CD0007F01E21AF30AA92C01C0AA0CEA94EAF7E0
:101CE0007B01B12CE70189917E018A21892E8B1815
:101CF000D82DD770CD2E0D2E000CDD08C82F01C0B9
:101D0000CC0FDA95EAF7D194C194D108D7E0CD226F
:101D1000DD2401C08695CA94EAF78C2BD0808D29EA
:101D20008083B39488E0B812DDCF915031969F3F05
:101D300079F6C1E0A838BC0709F0BCCF04E610E092
:101D400020E230E040EB51E08CCFDF91CF911F914A
:101D50000F91FF90EF90DF90CF90BF90AF909F904A
:101D60008F907F906F9008958091D4019091D301CE
:101D7000882389F0992369F062E070E085EB96E0B2
:101D80000E94AD0B892B19F08091D3010895109218
:101D9000D3019091D30181E0892708950F931F9378
:101DA0008091D401882329F160E080E00E94330C07
:101DB0000E9468070E94B60D8091D3018823C9F064
:101DC0000E94EF1E009183041091840420918504E9
:101DD00030918604DC01CB01801B910BA20BB30B6D
:101DE0008F3F9F4FAF4FBF4720F41F910F910C942F
:101DF000B40E1F910F9108950F931F93CF93DF930C
:101E0000C42FD22FFC0182818823C9F04093D901CD
:101E10000E94E31E9093D8018093D70180E28C0F3B
:101E2000883008F057C0C77081E001C0880FCA959C
:101E3000EAF7DF91CF911F910F910C9423158091B8
:101E4000D901481330C08091D7019091D8010E94E8
:101E5000FB1E8436910538F510E21D0FCD17B9F041
:101E600080E28C0F883040F4C77081E001C0880F99
:101E7000CA95EAF70E942A15183028F581E09D2FAF
:101E8000977001C0880F9A95EAF70E942315802F5A
:101E90000E9410151830F0F4D77081E001C0880F4F
:101EA000DA95EAF70AC080E28C0F883098F4C770A0
:101EB00081E001C0880FCA95EAF7DF91CF911F91A9
:101EC0000F910C942A15802FDF91CF911F910F91C4
:101ED0000C941015DF91CF911F910F9108950F93DE
:101EE0009C01CB01243F4CE5340731F188F4293DB6
:101EF000FCE53F07D9F02A3D4CE5340779F1283D50
:101F00003C45A9F506E221EE41EE68ED7CE52BC0EB
:101F1000263FFCE53F07E1F0A8F0273F3C4539F5B7
:101F200007E225EE46EE67EF7CE51DC007E225EEF1
:101F300045EE69ED7CE517C006E221EE40EE64EF68
:101F40007CE511C007E225EE44EE65EF7CE50BC0B1
:101F500006E221EE42EE66EF7CE505C008E221E0F4
:101F600045EE6AED7CE50E94FC0E80E008C0FC01B5
:101F70008281882319F01092D90101C081E00F916C
:101F80000895CF93DF93EC01FB018281882309F44C
:101F90001FC1C230FCE5DF0708F41BC1C6319CE558
:101FA000D90738F09E012B5F3C452930310508F0F8
:101FB00010C10E94721D90938E0480938D04C031D5
:101FC000ECE5DE0709F4C3C008F041C0C8308CE579
:101FD000D80709F49AC0F0F4C430ECE5DE0709F440
:101FE00087C068F4C2308CE5D80709F477C0C330E5
:101FF000DC4509F0E3C080918D04826076C0C63074
:10200000ECE5DE0709F46EC008F07BC080918D041A
:1020100088606BC0CC308CE5D80709F485C068F4C3
:10202000CA30ECE5DE0709F474C008F079C00E94FC
:10203000841780918D04806858C0CE308CE5D80715
:1020400009F476C008F07FC080918D048BC0CC3F2E
:10205000ECE5DE0709F44FC018F5C3318CE5D8076D
:1020600009F47DC078F4C131ECE5DE0709F473C0F2
:10207000C231DC4509F0A2C00E94841780918D0412
:102080008F7733C0C5318CE5D80709F472C008F4E6
:1020900086C0CB3FDC4509F091C080918E043EC0E4
:1020A000C115FDE5DF0709F45FC058F4CE3F9CE59C
:1020B000D90709F444C008F43FC080918E048260BF
:1020C0002DC0C230FDE5DF0709F475C008F45DC01E
:1020D000C330DD4509F072C080E06EC080918D0490
:1020E000816003C080918D04806180938D0466C0FF
:1020F00080918D0411C080918E04826080938E0443
:102100005DC080918D048062F0CF80918D048064E9
:10211000ECCF80918D0488608460E7CF8160EECF42
:1021200080918D048E7FE1CF80918D048D7FDDCFF6
:1021300080918D04877FD9CF80918E0418C08091C3
:102140008E048D7FDBCF80918D048F7ECECF8091EA
:102150008D048F7DCACF80918D048F7BC6CF8091F7
:102160008D04877F8B7FC1CF80918E048D7F8E7F82
:10217000C5CF80918D0482FB222720F991E0922720
:1021800090FB82F990FB83F9B0CF80918E04982F59
:10219000909591708E7F892B90FB81F9AFCF0E9433
:1021A000841780918D0487FB222720F991E09227E4
:1021B00090FB87F99ACF81E00E94081E80918D04E0
:1021C00090918E040E94831D0E94841780E001C0BC
:1021D00081E0DF91CF910895CF93DF9386319C45C5
:1021E00041F5EB010E94BB1C982F8A8120911001C0
:1021F00030911101882379F09A7A81E009F480E026
:102200008093DA01911102C069E201C065E3C9015E
:102210000E944F1E0AC08091DA01811102C069E25A
:1022200001C065E3C9010E94511E0E94FC1C80E0B0
:1022300001C081E0DF91CF9108951092B9008CE048
:102240008093B8000895EF92FF920F931F93CF935E
:10225000DF93182FEB011092BC0084EA8093BC003E
:102260000E94E31E7C018091BC0087FD0EC0CF3F21
:102270008FEFD807C1F30E94E31E8E199F098C17B8
:102280009D0788F38EEF9FEF2EC08091B900887F65
:10229000883041F08091B900887F803119F08FEF4C
:1022A0009FEF21C01093BB0084E88093BC000E9484
:1022B000E31E8C018091BC0087FD0CC0CF3F8FEFE7
:1022C000D807C1F30E94E31E801B910B8C179D075A
:1022D00088F3D8CF8091B900887F883111F080349D
:1022E000F1F680E090E0DF91CF911F910F91FF9088
:1022F000EF9008950F931F93CF93DF93EB0180939B
:10230000BB0084E88093BC000E94E31E8C01809196
:10231000BC0087FD0EC0CF3F8FEFD807C1F30E94EE
:10232000E31E801B910B8C179D0788F38EEF9FEFA8
:102330000CC02091B900287F81E090E0283211F490
:1023400080E090E0919581959109DF91CF911F9167
:102350000F910895CF92DF92EF92FF920F931F9308
:10236000CF93DF936B018A017901B9010E94231198
:10237000E6010C0D1D1DC017D10761F424E920935F
:10238000BC00DF91CF911F910F91FF90EF90DF90F4
:10239000CF90089597FDF2CFB70189910E947A11ED
:1023A000EACFCF92DF92EF92FF920F931F93CF93DA
:1023B000DF93C62F6A017901B8010E94231197FDAE
:1023C00011C0B8018C2F0E947A11E601EC0CFD1CA3
:1023D000CE15DF0539F097FD05C0B80189910E943F
:1023E0007A11F6CF24E92093BC00DF91CF911F91A1
:1023F0000F91FF90EF90DF90CF90089584E9809344
:10240000BC0008958EE14A9B02C08150E1F74A9BCF
:10241000FECF08955A9880E28A95F1F75A9A089566
:10242000FC012AE02A95F1F728E090E080E031E015
:1024300040E14A95F1F7880F4A9B02C081609327DB
:1024400000C0000040E14A95F1F7215089F720E1F2
:102450002A95F1F729B100C0000030E13A95F1F773
:1024600022FB222720F992272081920F9083089542
:10247000EF92FF920F931F93CF93DF931F92CDB7ED
:10248000DEB719828C017C01E60EF11C0E151F05CA
:1024900051F00E940212CE0101960E941012F80122
:1024A00081938F01F3CF81E09981911180E00F90AA
:1024B000DF91CF911F910F91FF90EF90089590932E
:1024C000DC018093DB01529A5A9A08959093DC01C3
:1024D0008093DB0152985A9AEA9AE9E6F0E080810B
:1024E0008F7C80830895615091E001C0990F6A95B7
:1024F000EAF720E031E0992361F0492F482319F0F1
:102500005A9A232701C05A9840E24A95F1F79695C6
:10251000F2CF222311F05A9A01C05A9880E28A958C
:10252000F1F75A980895FF920F931F93CF93DF937B
:10253000EC018C01060F111DC017D10741F0F99075
:102540000E940A1268E08F2D0E947312F5CFDF916E
:10255000CF911F910F91FF9008951F920F920FB688
:102560000F9211242F933F934F935F936F937F9319
:102570008F939F93AF93BF93CF93DF93EF93FF938B
:102580005A98529AC091DB01D091DC016D8166238B
:1025900021F08E819F810E9493120E940A1280E195
:1025A0008A95F1F75A9852985A9A80E18A95F1F7EC
:1025B0006A81662351F08B819C810E943812E881E8
:1025C000F981811104C082E003C0E881F98188E0CB
:1025D00080830E940212FF91EF91DF91CF91BF9112
:1025E000AF919F918F917F916F915F914F913F91AB
:1025F0002F910F900FBE0F901F901895CF93DF93E0
:10260000C091DB01D091DC01F894529A5A9885E090
:102610008A95F1F7000052985A9A80E28A95F1F76C
:102620004A9B0AC0529A5A9AE881F98181E08083D4
:10263000789481E090E02CC06D81662381F08E81DA
:102640009F810E94381281110AC0529A5A9AE881D9
:10265000F98182E08083789482E090E019C00E9442
:10266000021280E28A95F1F75A98529A80E18A958F
:10267000F1F76A81662321F08B819C810E9493127D
:102680000E940A12E881F9811082789480E090E03B
:10269000DF91CF9108959093E2018093E101089535
:1026A000E091E101F091E201309721F00190F08199
:1026B000E02D099480E00895E091E101F091E201BC
:1026C000309721F00280F381E02D09940895E09184
:1026D000E101F091E201309739F022E0DC012C9326
:1026E0000480F581E02D099408952091DF01309157
:1026F000E0012817390771F09093E0018093DF0122
:10270000E091E101F091E201309721F00680F7813C
:10271000E02D099408952091DD013091DE01281704
:10272000390771F09093DE018093DD01E091E101C2
:10273000F091E201309721F00084F185E02D0994B9
:10274000089585B7806885BF85B7806885BF08957F
:102750000C94470B08950C94AA130C94AA130C9490
:10276000AD130C94AA130C94B1130C94AA130E94E9
:10277000A1130E94B5130C94B3130E94DA1E0E9499
:102780001F0A80E00E94EB0B0E94411F0C94AF13C4
:102790009F92AF92BF92CF92DF92EF92FF920F93F0
:1027A0001F93CF93DF93CDB7DEB72A970FB6F89478
:1027B000DEBF0FBECDBF0E94AB130E94AA130E94C2
:1027C0008A0AC82E0E94A813811111C08FEF898335
:1027D0008A831B820E94E31E8160782F9D838C83F5
:1027E00049815A816B818D810E946D1440C084EEB5
:1027F000A82E81E0B82E00E010E0902E802F0E94DD
:10280000F509E82EF501D1905F01D82631F40F5F6C
:102810001F4F0830110589F7D9CF8091580281FDEB
:102820000E94FB0980E0FF24F3949D2D9F21D1F0AD
:102830008E839F82EF2081E009F480E088870E94E8
:10284000E31E8160782F9A8789874E815F81688532
:102850008A850E946D14F801EC51FE4F8081F826A4
:10286000F08205C08F5FFF0C8630F9F6D0CF0E9452
:10287000CE0EC1100E94900D0E94F0200E945013B5
:102880009091E3018917B9F00E9450138093E301FE
:102890002A960FB6F894DEBF0FBECDBFDF91CF9161
:1028A0001F910F91FF90EF90DF90CF90BF90AF906E
:1028B0009F900C9425082A960FB6F894DEBF0FBEA1
:1028C000CDBFDF91CF911F910F91FF90EF90DF90DF
:1028D000CF90BF90AF909F900895CF93DF93CDB7E7
:1028E000DEB72B970FB6F894DEBF0FBECDBF4F8378
:1028F000588769877A878B87DE01119686E0FD010C
:1029000011928A95E9F785E0FE01379601900D92C4
:102910008A95E1F749815A816B817C818D819E8105
:102920000E94231A2B960FB6F894DEBF0FBECDBFC0
:10293000DF91CF910895FC01808191810E947C1CE0
:102940000895CF938823B1F1C82F8CEF8C0F813A73
:10295000D0F46C2F80911001909111010E94191EEA
:10296000882349F06C2F80911001909111010E94F1
:10297000511E0E94FC1C6C2F80911001909111013E
:102980000E944F1E0CC080E28C0F883058F4C77034
:1029900081E001C0880FCA95EAF70E94BE1CCF9162
:1029A0000C94FC1CC03F30F08C2F0E94E51FCF918F
:1029B0000C94D220CF910895882389F19CEF980F31
:1029C000913A40F4682F80911001909111010E947A
:1029D000511E0DC090E2980F983058F4877091E026
:1029E00001C0990F8A95EAF7892F0E94C41C0C94A4
:1029F000FC1C9BE5980F933020F480E090E00C9451
:102A0000751398E5980F973120F480E090E00C94CE
:102A10008B13803F20F00E944D200C94D22008950B
:102A2000CF93C82F0E94A114C93349F42FEF87EE2A
:102A300093E0215080409040E1F700C000008C2FCF
:102A4000CF910C94DC14882321F00E94BE1C0C94BE
:102A5000FC1C0895882321F00E94C41C0C94FC1CCB
:102A60000895CF92DF92EF92FF920F931F93CF932F
:102A7000DF937C01D62FC72FFC01058102950F70D3
:102A8000128111110E94DB1C0E94B41C882399F052
:102A9000112389F08C2F807F803421F080E28D0F0C
:102AA000883048F082E00E94461D0E94B41C91E0EC
:102AB000D82ED92601C0D12CCC2EC2948FE0C822AA
:102AC0008C2D90E08C30910508F098C1FC01EB59F9
:102AD000FF4F0C94C3288C2F807FCF70882311F078
:102AE000C295C07F112399F0CC2309F473C180E211
:102AF0008D0F883010F0D11104C08C2F0E94BE1CA5
:102B000003C08C2F0E94CE1C0E94FC1C63C18D2F21
:102B10000E94DC14CC2309F471C180E28D0F88304F
:102B200010F0D11104C08C2F0E94C41C03C08C2F44
:102B30000E94D41C0E94FC1C61C18C2F807FCF702E
:102B4000803211F0C295C07FDD2319F0D130C9F079
:102B500022C0112371F0002341F0013031F40E94B2
:102B6000E11C8C2B0E94E91C49C10E94E11C8C2BAA
:102B70001DC0002319F0013009F440C10E94F21C6D
:102B800025C0112321F0063008F038C10EC00530F1
:102B900008F034C11BC0112361F0002331F0F701AC
:102BA000858180FF17C18F7085838C2F0E9423152C
:102BB00025C1002359F0D93309F01DC1FFEF07EEFD
:102BC00013E0F15000401040E1F713C18C2F0E9438
:102BD0002A1514C18D2F112319F00E94E51F02C080
:102BE0000E944D200E94D22011C18C2F837009F0C9
:102BF00047C0111107C12D2F229526952770220F4E
:102C0000220F6D2F6F70862F90E0A0E0B0E0022EB3
:102C100004C0880F991FAA1FBB1F0A94D2F7D4FFC4
:102C200010C04FE050E060E070E004C0440F551F5A
:102C3000661F771F2A95D2F740955095609570953D
:102C400003C040E050E0BA01C695C695C3708A0142
:102C50009B01082B192B2A2B3B2BC901B801C23031
:102C600049F058F4C13019F00E94F71ACBC00E9405
:102C7000E51AC8C00E94091BC5C00E94E31AC2C061
:102C8000112319F08C2F817001C08695882309F4D7
:102C9000B9C02D2F229526952770220F220F6D2F58
:102CA0006F70862F90E0A0E0B0E0022E04C0880F85
:102CB000991FAA1FBB1F0A94D2F7D4FF10C04FE080
:102CC00050E060E070E004C0440F551F661F771F9E
:102CD0002A95D2F7409550956095709503C040E0D5
:102CE00050E0BA01C695C695C3708A019B01082BB6
:102CF000192B2A2B3B2BC901B801C23049F058F4DB
:102D0000C13019F00E94BC1B7DC00E94AA1B7AC072
:102D10000E94CE1B77C00E941D1B74C0CF70112370
:102D200039F08C2F0E94431B8D2F0E9423156AC0FF
:102D30008D2F0E942A158C2F0E94641B63C0D23FE6
:102D400001F128F4D03F41F0D13FA1F03FC0D33F83
:102D5000F9F0D43F39F13AC0112341F0053008F0C1
:102D60004DC08C2F8F710E94891B48C0063008F01F
:102D700045C0F7CF112339F08C2F8F710E94431B70
:102D80003DC01123C9F38C2F8F710E94641B36C084
:102D9000112329F08C2F8F710E942E1B2FC00E94AF
:102DA000291B2CC0112349F0CF718C2F0E94431B8B
:102DB00063E08C2F0E94311D21C081E00E94461DDE
:102DC0000230E0F082E00E94461D18C0112331F06D
:102DD000002391F28D2F0E94A11410C0002399F2BC
:102DE000D93349F41FEF27EE33E011502040304033
:102DF000E1F700C000008D2F0E94DC1488EF8C0DDD
:102E0000843020F40E9450130E942508DD20C9F070
:102E10000E94B01C80FD15C0F70112820E94AA1CFE
:102E20000E94431BC7010E9442170E94AA1CDF9107
:102E3000CF911F910F91FF90EF90DF90CF900C9466
:102E4000641BDF91CF911F910F91FF90EF90DF9066
:102E5000CF9008950F931F93CF93DF93EC01688178
:102E600079818A810E94871C8C010E94E01B0E944C
:102E7000D11AB801CE010E943115DF91CF911F9177
:102E80000F910895CF93DF93EC01988189812B8175
:102E90003C81232B31F08F3F31F481E09F3F19F4C7
:102EA00003C081E001C080E080FD19C0CE010E9416
:102EB000E10781110CC00E94B41C882381F08A8133
:102EC000882369F082E0DF91CF910C94461DCE01FA
:102ED0000E942A17CE01DF91CF910C94BC07DF919D
:102EE000CF9108950E94DB1C0E94DE1C0E94FC1CF6
:102EF0000E9403220C94D220809110019091110124
:102F00000E94531E0C9472170E94CB1C0C947C17C9
:102F1000E92FE295EF704E2F50E0FA013297EE3034
:102F2000F105B0F4EF58FF4F0C94C328803F91F0A7
:102F300018F4883E68F40EC0843F51F40BC0883EFC
:102F400048F0813F29F406C093FB882780F9089553
:102F500080E0089581E008950E947C1C0E948817FB
:102F60000895CF93DF9300D000D01F92CDB7DEB786
:102F70000F900F900F900F900F90DF91CF910895C9
:102F8000CF93DF9300D000D000D0CDB7DEB7269628
:102F90000FB6F894DEBF0FBECDBFDF91CF9108957D
:102FA0001F93CF93DF93C091ED0116E08091EE0166
:102FB000C81799F0D0E01C9FF0011D9FF00D11245F
:102FC000E151FE4F408151816281738184819581FD
:102FD0000E94C0172196C770E9CFDF91CF911F9152
:102FE000089540911F02509120026091210270913A
:102FF000220280912302909124020C94C0170F9317
:103000001F93CF93DF938091240282958F7009F0F4
:103010005DC080912102882309F458C08091ED01A0
:103020001091EE0160911F0270912002C091220266
:10303000D091230291E06F3F09F090E0292F06E044
:10304000811709F443C0209721F07F3F21F030E041
:1030500003C031E001C0322F90E030FD34C0089F42
:10306000F001099FF00D1124DF01A151BE4F11960F
:103070003C911197371327C03C91361324C0129608
:103080003C91129731111FC013964D915C9114978A
:103090004C1B5D0B44365105B0F4809124028F70B7
:1030A000806180932402EC50FE4F80818F7080619C
:1030B00080838FE192E00E944217DF91CF911F91B0
:1030C0000F910C94D01701968770BACFDF91CF91F2
:1030D0001F910F9108959F92AF92BF92CF92DF926E
:1030E000EF92FF920F931F93CF93DF93CDB7DEB78D
:1030F00061970FB6F894DEBF0FBECDBF8C0185E09F
:10310000F801DE011D9601900D928A95E1F7F80114
:1031100040815181E28090911F02609120022091B4
:103120002202309123022115310531F06F3F31F435
:1031300081E09F3F19F403C081E001C080E0F82FD7
:10314000F1709F2E80FD2CC1F801A380B4808FE127
:10315000C82E82E0D82EF0902102F501E21BF30B7D
:10316000FF2009F4EBC080912402E436F10508F059
:10317000A7C0282F207F09F052C0561313C049134F
:1031800011C0FE2CE1100EC08F708061809324026C
:103190000E94F117C6010E94421780912402F80193
:1031A00085833EC1AB2831F05F3F31F481E04F3F72
:1031B00019F403C081E001C080E080FD03C081E01C
:1031C0008E2502C080E090E0F82FF170FF2E80FF86
:1031D0001CC08091ED012091EE0136E0821709F4C8
:1031E000FDC090E0389FF001399FF00D1124E151AE
:1031F000FE4F6181561306C06081461303C0628191
:10320000E61203C001968770E9CFFE2CEE2009F488
:1032100007C18091240281608093240266C0561306
:1032200012C0491310C0E1100EC0F8018583C80117
:103230000E94421786E0F801AFE1B2E001900D92E2
:103240008A95E1F7C8C04D875E878D859E850E946F
:10325000AC17882379F1EE2069F120912402822FA6
:1032600082958F7090E0029774F080911F02909188
:10327000200298878F831986BB86AA862C87CE0169
:1032800007960E94421786E0F801AFE1B2E0019094
:103290000D928A95E1F70E94FF170E94F1170DC069
:1032A000561729F14D875E878D859E850E94AC1744
:1032B00081112CC0C8010E944217FF24F394B0C0B2
:1032C000282F207F69F77A2DB98AA88A6E2D8989DF
:1032D0000E94B1178FE192E00E94421786E0F6014A
:1032E00011928A95E9F70E94F117F12C99C04913C0
:1032F000D9CFE110D7CFF8018583C8010E944217CA
:1033000086E0F60111928A95E9F78AC0EE2091F2E3
:1033100020912402822F82958F7090E002970CF406
:10332000B2CF80911F02909120029A8389831B82E1
:10333000BD82AC822E83CE010196A3CFE436F10587
:1033400010F5FE2CEE2009F4B5CF56130BC049132F
:1033500009C086E0F801AFE1B2E001900D928A95D4
:10336000E1F75EC04D875E878D859E850E94AC1714
:10337000811189CF80912402816080932402C80149
:103380000E9442174DC07A2DB98AA88A6E2D89896C
:103390000E94B11786E0F60111928A95E9F71BC0E9
:1033A000EE2009F487CF4D875E878D859E850E942C
:1033B000AC17F82E882309F47DCF86E0F801AFE141
:1033C000B2E001900D928A95E1F78FE192E00E94C0
:1033D0009B140E94FF170E94F11722C04D875E8741
:1033E0008D859E850E947C1C292F22952F7022306E
:1033F00028F49F7039F0811105C00BC0243028F4E7
:103400009F7049F4805E883020F0C8010E94421706
:103410009F2CF92C05C0F8019581907F99F7F9CF81
:103420008F2D61960FB6F894DEBF0FBECDBFDF9132
:10343000CF911F910F91FF90EF90DF90CF90BF90B1
:10344000AF909F9008951F93CF93DF93CDB7DEB7D2
:103450002C970FB6F894DEBF0FBECDBF4F835887B1
:1034600069877A878B879C87CE0107960E946B18A5
:103470008823D1F09F8188852A853B85232B31F0D5
:103480008F3F31F481E09F3F19F403C081E001C018
:1034900080E080FD47C04F81588569857A858B859E
:1034A0009C850E94C0173EC086E0FE013796DE0173
:1034B000119601900D928A95E1F7FF81E8856A8562
:1034C0007B856115710531F0EF3F31F481E0FF3FFD
:1034D00019F403C081E001C080E080FD23C0209189
:1034E000EE0130E0C9010196877099274091ED0106
:1034F00050E084179507F1F1F983EA837D836C83AB
:1035000096E0929FD001939FB00D1124A151BE4F20
:10351000FE01319601900D929A95E1F78093EE01AC
:103520000E94D01716E08091ED019091EE0189176D
:1035300071F1189FC001112481519E4F0E946B1898
:10354000882329F1E091ED011E9FF0011124E15142
:10355000FE4F4081518162817381848195810E94F7
:10356000C0178091ED0190E00196877099278093B4
:10357000ED01D9CF0E9484171092EE011092ED0157
:10358000EFE1F2E086E0DF011D928A95E9F72C96E3
:103590000FB6F894DEBF0FBECDBFDF91CF911F9164
:1035A0000895089508950C94D21A0C94D31A0E9489
:1035B000D51A609347027093480280934902909312
:1035C0004A020C9472170C94D71A0F931F93009110
:1035D0004702109148022091490230914A02602B23
:1035E000712B822B932B1F910F910C94D71A0F9351
:1035F0001F93009147021091480220914902309197
:103600004A0260237123822393231F910F910C940C
:10361000D71A0F931F9300914702109148022091EF
:10362000490230914A0260277127822793271F9110
:103630000F910C94D71A0C94D21A0E941B1B609302
:1036400043027093440280934502909346020C9487
:10365000721760E070E0CB010C941D1B0F931F9359
:1036600041E050E060E070E08A019B0104C0000F7F
:10367000111F221F331F8A95D2F7C901B8011F916C
:103680000F910C941D1B0F931F9341E050E060E0DD
:1036900070E004C0440F551F661F771F8A95D2F74C
:1036A0008091430290914402A0914502B09146025C
:1036B0008A019B01082B192B2A2B3B2BC901B8012E
:1036C0001F910F910C941D1B0F931F9341E050E02D
:1036D00060E070E004C0440F551F661F771F8A9595
:1036E000D2F74095509560957095809143029091E6
:1036F0004402A0914502B09146028A019B01082331
:1037000019232A233B23C901B8011F910F910C945F
:103710001D1B0F931F9341E050E060E070E004C078
:10372000440F551F661F771F8A95D2F78091430279
:1037300090914402A0914502B09146028A019B01FA
:10374000082719272A273B27C901B8011F910F9184
:103750000C941D1B0F931F93009143021091440280
:103760002091450230914602602B712B822B932BC6
:103770001F910F910C941D1B0F931F9300914302F7
:10378000109144022091450230914602602371233A
:10379000822393231F910F910C941D1B0F931F9352
:1037A000009143021091440220914502309146025B
:1037B00060277127822793271F910F910C941D1B5F
:1037C0000895292F220F920F990F890FE82FE69560
:1037D000E695E695877051E001C0550F8A95EAF7A6
:1037E00085E0E89FF0011124EB5DFD4F20E030E023
:1037F00070E04081CB01022E02C0969587950A9415
:10380000E2F78170819584278523842781932F5F38
:103810003F4F2530310569F70895292F220F920F68
:10382000990F890F682F669566956695982F977002
:1038300085E0689FB001112440E050E080E0FB018A
:10384000E40FF51FEB5DFD4F208130E0092E02C033
:10385000369527950A94E2F721703327042E01C08C
:10386000220F0A94EAF7822B4F5F5F4F45305105D4
:1038700031F70895BF92CF92DF92EF92FF920F93AC
:103880001F93CF93DF938C01C0904302D0904402EA
:10389000E0904502F09046028091470290914802E4
:1038A000A0914902B0914A02C82AD92AEA2AFB2AE1
:1038B000CFE1D0E0D701C6010C2E04C0B695A79584
:1038C000979587950A94D2F780FD04C0219790F7C9
:1038D000B12C07C0BC2EB8018C2F0E944108019763
:1038E000A9F38B2DDF91CF911F910F91FF90EF9056
:1038F000DF90CF90BF900895CF93DF93EC010E94AB
:103900003A1CBE010E944108DF91CF9108951F9398
:10391000CF93DF93EB019091EC01992321F0CB0140
:103920000E947C1C13C0882349F0CB010E943A1CE2
:10393000182F682FCE010E94E11B04C0CB010E940A
:103940000D1C182FBE01812F0E944108DF91CF91DD
:103950001F91089580914B028595859585950895D1
:1039600080914B028770089590914B02977081E08F
:1039700009F480E0089580915702089590915702CC
:10398000892B80935702089580959091570289233F
:10399000809357020895109257020895909156020D
:1039A000892B809356020895809590915602892321
:1039B000809356020895109256020895109255026F
:1039C000089580914C02089508950C94E41C0C9481
:1039D000E51C90914C02981721F080934C020C94B6
:1039E000E71C089580914C02882329F010924C0224
:1039F00080E00C94E71C0895E0911001F091110112
:103A0000809157028083E0911001F0911101908123
:103A100080915602892B8083E0911001F091110171
:103A2000908180915502892B808380914C0288235C
:103A300081F0E0911001F09111019081892B808338
:103A400080911001909111010E940D1E81110E9420
:103A5000F21C80911001909111010C945C130C9454
:103A6000E41C98E0899F90011124262B20934B029F
:103A70000E94431B80914B028595859585950C94FA
:103A80002F1D10924B0280E00C942F1D20914B02B1
:103A90008095822380934B02982F977079F430E0C1
:103AA000482F082E000C550B2417350739F0859543
:103AB000859585950E94641B0C94411D089580E0B6
:103AC00090E00E94A82B21E08C3E9E4F09F020E060
:103AD000822F089582E090E00C94A02B83E090E088
:103AE0000C94A02BCF9384E090E00E94A02BC82FD1
:103AF00081E290E00E94A02B2C2F30E0A901582BEE
:103B0000CA01CF910895CF93C92F682F84E090E028
:103B10000E94AE2B6C2F81E290E0CF910C94AE2BE3
:103B2000AB01BC018FE090E00C94C02BAB01BC0159
:103B300083E190E00C94C02B60E070E0CB010C942A
:103B4000961D60E070E0CB010E94901D0C949C1DBE
:103B50006CEE7EEF80E090E00E94CC2B60E082E093
:103B600090E00E94AE2B60E083E090E00E94AE2BDC
:103B700010924702109248021092490210924A0293
:103B800060E084E090E00E94AE2B60E081E290E093
:103B90000E94AE2B60E085E090E00E94AE2B60E0DA
:103BA00086E090E00E94AE2B6FEF87E090E00E94ED
:103BB000AE2B40E050E0BA0188E090E00E94C02BBC
:103BC00060E08DE090E00E94AE2B40E050E0BA0152
:103BD00088E190E00E94C02B60E087E190E00E94C5
:103BE000AE2B40E050E0BA018CE190E00E94C02B87
:103BF00060E080E290E00E94AE2B40E050E0BA012D
:103C000088E190E00E94C02B0C94A11D0C94A81D8B
:103C1000682F8EE090E00C94AE2BFC01329697E07A
:103C200080E0915029F021912223D9F38F5FF9CFC1
:103C30000895662349F0FC01329608962191621797
:103C400029F0E817F907D1F780E0089581E0089599
:103C50009C01FC0132969FEF80E04191461789F06C
:103C60009F3F19F4411101C0982F8F5F8630A9F74B
:103C70009F3F39F0F901E90FF11D97FDFA95628335
:103C8000089508959C012A5F3F4FFC01428146132D
:103C900001C01282019682179307B9F708950C9418
:103CA000281E0C94421E029626E0FC0111922A95D1
:103CB000E9F7089508950C945A1E0C945A1ECF9358
:103CC0000E945D1E0E948A0A0E945B1EC0E08C2F2B
:103CD0000E94F509811104C0CF5FC830C1F701C04F
:103CE00081E0CF9108950C945A1E0C94731E0E948B
:103CF000751E80919304843049F11092590220E49A
:103D000088E190E00FB6F894A895809360000FBE0C
:103D10002093600080E00E9425080E94751E83B7F2
:103D2000817F846083BF83B7816083BF78948895E7
:103D300083B78E7F83BF0FB6F894A89580916000FB
:103D4000886180936000109260000FBE08950C940B
:103D50005A1E0E9484170E9450130E9425080C943A
:103D6000A71E1F920F920FB60F9211248F939F934D
:103D7000AF93BF9380915902811113C08091890440
:103D800090918A04A0918B04B0918C044196A11D5E
:103D9000B11D8093890490938A04A0938B04B093FF
:103DA0008C04BF91AF919F918F910F900FBE0F9098
:103DB0001F90189582E084BD93E095BD9AEF97BD62
:103DC00080936E0008952FB7F894809189049091A4
:103DD0008A04A0918B04B0918C042FBF08952FB753
:103DE000F8946091890470918A0480918B04909179
:103DF0008C042FBF08959C014FB7F89480918904DB
:103E000090918A04A0918B04B0918C044FBF821BC7
:103E1000930B089578941F920F920FB60F9211246E
:103E20008F939F93AF93BF938091890490918A045D
:103E3000A0918B04B0918C040196A11DB11D8093BB
:103E4000890490938A04A0938B04B0938C04BF914F
:103E5000AF919F918F910F900FBE0F901F9018956B
:103E600087E797E790930108809300089AE088E13C
:103E70000FB6F894A895809360000FBE90936000F1
:103E8000FFCF0E945F1D811102C00E94061E0E948A
:103E90006A1D809358020E94721D90938E04809335
:103EA0008D040E946E1D682F70E080E090E00E94FB
:103EB000E31A60914302709144028091450290910F
:103EC00046020C941B1B8091600280FF0BC0609126
:103ED000170185E0689FB001112475956795759568
:103EE00067952BC081FF09C06091170185E0689F2D
:103EF000B00111247595679520C082FF07C06091BD
:103F0000170185E0689FB001112417C090915F02EE
:103F10009923D1F060911601961788F72091170127
:103F200085E0289F90011124929FA001939F500D3E
:103F3000112470E0CA010E94AF286038710540F476
:103F40006115710519F406C065E070E0862F0895CB
:103F50008FE7089581E008958091600280FF08C096
:103F60006091130170E0759567957595679521C00F
:103F700081FF06C06091130170E07595679519C0C7
:103F800082FF04C06091130170E010C090915E0246
:103F9000992399F0609112019617A0F7809113016F
:103FA000899FC001112470E00E94AF28603871051C
:103FB00040F46115710519F406C061E070E0862FC8
:103FC00008958FE7089581E00895803F21F40E94CD
:103FD000631F819504C0813F29F40E94631F809371
:103FE00064020895823F21F40E94631F819504C0FA
:103FF000833F29F40E94631F809363020895893FE1
:1040000019F40E94AC1F05C08A3F31F40E94AC1F16
:1040100081958093650208958B3F21F40E94AC1F27
:10402000819504C08C3F29F40E94AC1F80936602E6
:104030000895843F21F480916202816017C0853F1A
:1040400021F480916202826011C0863F21F4809148
:10405000620284600BC0873F21F480916202886015
:1040600005C0883F31F480916202806180936202D2
:1040700008958D3F21F48091600281600BC08E3FD6
:1040800021F480916002826005C08F3F29F4809105
:1040900060028460809360020895803F39F48091CB
:1040A000640287FF6AC01092640267C0813F29F4EE
:1040B000809164021816BCF360C090916302823F45
:1040C00029F497FF5AC01092630257C0833F19F436
:1040D0001916CCF352C090916502893F31F419163C
:1040E0000CF04BC01092650248C08A3F19F497FF4C
:1040F00044C0F8CF8B3F39F48091660287FF3DC002
:10410000109266023AC08C3F29F48091660218161C
:10411000BCF333C0843F21F4809162028E7F17C0CC
:10412000853F21F4809162028D7F11C0863F21F48A
:10413000809162028B7F0BC0873F21F480916202E5
:10414000877F05C0883F31F4809162028F7E809323
:10415000620213C08D3F21F4809160028E7F0BC0FC
:104160008E3F21F4809160028D7F05C08F3F29F43E
:10417000809160028B7F8093600280916302811145
:1041800006C080916402811102C010925F0280918A
:104190006502811106C080916602811102C01092F1
:1041A0005E0208950E94E31E20916302211104C063
:1041B00020916402222321F090935D0280935C029F
:1041C00020916502211104C020916602222321F072
:1041D00090935B0280935A0281E692E00C946713FD
:1041E000EF92FF920F931F93CF93DF9300D000D0F5
:1041F00000D0CDB7DEB786E0E1E6F2E0DE01119651
:1042000001900D928A95E1F7E0906302F0906402CC
:10421000009165021091660210926302109264028E
:104220001092650210926602E11003C0FF2009F4AB
:104230005DC080915C0290915D020E94FB1EAC010A
:1042400090915F02992339F02091180130E02417F2
:10425000350758F04BC0209119018AE0289F900142
:1042600011242417350718F041C09F3F19F09F5FB4
:1042700090935F02EE2061F00E94631F1E1414F001
:104280009FEF01C091E0989F902D112490936302BD
:10429000FF2061F00E94631F1F1414F09FEF01C004
:1042A00091E0989F902D11249093640230916302C5
:1042B0003323E1F0209164022223C1F045EB340363
:1042C000C0011124992319F09093630203C081E087
:1042D0008093630235EB2303C0011124992319F065
:1042E0009093640203C081E080936402011103C0D3
:1042F000112309F45DC080915A0290915B020E94E3
:10430000FB1EAC0190915E02992339F020911401BB
:1043100030E02417350758F04BC0209115018AE092
:10432000289F900111242417350718F041C09F3FA2
:1043300019F09F5F90935E02002361F00E94AC1F12
:10434000101614F09FEF01C091E0989F902D11245A
:1043500090936502112361F00E94AC1F111614F0B6
:104360009FEF01C091E0989F902D112490936602D9
:10437000309165023323E1F0209166022223C1F0DF
:1043800045EB3403C0011124992319F09093650281
:1043900003C081E08093650235EB2303C001112443
:1043A000992319F09093660203C081E0809366021E
:1043B0008091630281110BC080916402811107C05A
:1043C00080916502811103C08091660281110E9473
:1043D000D220EB82FC820D831E8386E0FE013196A3
:1043E000A1E6B2E001900D928A95E1F726960FB60C
:1043F000F894DEBF0FBECDBFDF91CF911F910F911B
:10440000FF90EF900895E1E6F2E086E0DF011D9273
:104410008A95E9F710925F0210925E021092600294
:10442000089580916F020895089522E02093E90095
:104430002FEF3091E800215035FD06C035ED3A955B
:10444000F1F700002111F5CF2091E80025FF0BC006
:1044500040E050E066E070E00E94F1238091E800C7
:104460008E778093E8000895CF93DF9321E0209327
:10447000E9002FEF3091E800215035FD06C035ED01
:104480003A95F1F700002111F5CF2091E80025FFC2
:1044900014C0EC0140E050E068E070E00E94F123BD
:1044A0008091E8008E778093E80088E0FE01A7E61F
:1044B000B2E001900D928A95E1F7DF91CF910895D6
:1044C000089580919204811109C00E9482250E9462
:1044D000DF258091E20084608093E20008951092CD
:1044E00092040895089508950C94A91E42E061EC89
:1044F00081E00E94FB2442E261EC82E00C94FB2408
:1045000080919504833009F460C030F4813071F0FB
:10451000823009F499C008958A3009F485C08B303F
:1045200009F46BC0893009F0A7C020C080919404C1
:10453000813A09F0A1C08091E800877F8093E8006C
:104540008091980490919904892B21F468E087E682
:1045500092E003C060E080E090E070E00E943C24C4
:104560008091E8008B778093E8000895809194040F
:10457000813209F081C0809198049091990402974A
:1045800008F07AC08091E800877F8093E8008091EE
:10459000E80082FD05C0809193048111F8CF6CC0C2
:1045A0002091F3008091F20090E0922B029729F481
:1045B0008091F1008B7F813021F48091F100809314
:1045C0006F028091E8008B7753C080919404813A08
:1045D00009F052C08091980490919904892B09F0B8
:1045E0004BC08091E800877F8093E8008091E800CD
:1045F00080FFFCCF8091240136C0809194048132E9
:10460000D9F58091980490919904892BA9F580910E
:10461000E800877F8093E8000E943025809196040F
:10462000809324010C94841780919404813221F5A5
:104630008091E800877F8093E8000E943025809178
:10464000970480937002089580919404813AA1F4B4
:104650008091E800877F8093E8008091E80080FFE8
:10466000FCCF809170028093F1008091E8008E77FA
:104670008093E8000C943025089584B7877F84BF29
:104680000FB6F894A89580916000886180936000CF
:10469000109260000FBE90E080E80FB6F89480930F
:1046A0006100909361000FBE0E94B7130E948225A3
:1046B0000E94DF258091E20084608093E20078947C
:1046C0000E9474280E94BD138AE191E00E944B135E
:1046D00080919304853069F40E94771E8091910443
:1046E0008823B1F30E945F1E882391F30E94DB238D
:1046F000EFCF0E94C8130E94AB130E94AA13E8CF09
:104700000C948223292F332723303105C9F060F41C
:104710002130310581F02230310509F044C08BE3AE
:1047200090E029E73CE043C021323105E1F022323C
:10473000310549F138C082E190E024EB3CE037C01C
:1047400099278130910549F028F0029761F5E9E158
:10475000FCE005C0E5E7FCE002C0E3E6FCE0849194
:1047600090E09F0124C06115710541F06130710531
:10477000D1F489E090E024EA3CE019C089E090E0BF
:104780002BE83CE014C06115710541F06130710502
:1047900051F48FE490E026EC3CE009C080E490E026
:1047A00025E13DE004C080E090E020E030E0FA0147
:1047B00031832083089580E189BD82E189BD09B4F8
:1047C00000FEFDCF8091D8008F7D8093D80080912E
:1047D000E00082608093E0008091E00081FDFCCFEA
:1047E0000895CF92DF92EF92FF920F931F93CF9392
:1047F000DF93EC018B017A010E944F25811133C0B8
:10480000E114F10439F0F70180819181081B190B43
:10481000C80FD91FC12CD12C0115110519F1809198
:10482000E80085FD16C08091E8008E778093E8004F
:10483000E114F10449F0F70180819181C80ED91E7D
:10484000D182C08285E00FC00E944F25882321F3CA
:104850000AC089918093F10001501109FFEFCF1A2E
:10486000DF0ADACF80E0DF91CF911F910F91FF90A7
:10487000EF90DF90CF90089520919A0430919B049F
:104880002617370748F06115710539F42091E800C3
:104890002E772093E80001C0B901FC0120E06115EA
:1048A000710579F1809193048823F1F18530F1F15C
:1048B0008091E80083FD3CC08091E80082FD2EC01D
:1048C0008091E80080FFEBCF2091F3008091F2000F
:1048D00090E0922B6115710551F08830910538F404
:1048E00021912093F100615071090196F3CF21E0ED
:1048F000089709F020E08091E8008E778093E80027
:10490000CECF2111CFCF0AC080919304882361F0CC
:10491000853061F08091E80083FD0AC08091E80055
:1049200082FFF2CF80E0089582E0089583E0089549
:1049300081E0089520919A0430919B04261737074F
:1049400048F06115710539F42091E8002E77209325
:10495000E80001C0B901FC0120E06115710591F189
:1049600080919304882309F440C0853009F43FC046
:104970008091E80083FD3DC08091E80082FD2FC05A
:104980008091E80080FFE9CF2091F3008091F20050
:1049900090E0922B6115710559F08830910540F433
:1049A00024912093F1003196615071090196F2CF64
:1049B00021E0089709F020E08091E8008E7780934D
:1049C000E800CBCF2111CCCF0AC08091930488237B
:1049D00061F0853061F08091E80083FD0AC080912C
:1049E000E80082FFF2CF80E0089582E0089583E03E
:1049F000089581E00895982F973068F59093E90025
:104A0000981739F07091EC002091ED005091F00072
:104A100003C0242F762F50E021FD02C09F5FECCF12
:104A20003091EB003E7F3093EB003091ED003D7F05
:104A30003093ED003091EB0031603093EB007093D8
:104A4000EC002093ED005093F0002091EE0027FD44
:104A5000E5CF80E008958F708093E90081E00895AC
:104A60008091940487FF11C08091E80082FD05C009
:104A7000809193048111F8CF11C08091E8008B7769
:104A80000BC080919304882349F08091E80080FF57
:104A9000F8CF8091E8008E778093E8000895209108
:104AA000E4003091E50095E64091EC00842F8170A0
:104AB00040FF23C08091E80080FD1DC080919304D9
:104AC000882399F0853099F08091EB0085FD11C025
:104AD0004091E4005091E5002417350729F39150E7
:104AE00011F09A01E1CF84E0089582E0089583E017
:104AF000089581E0089580E008954091E80042FF24
:104B0000DDCF08950E94F0250E94F825E0EEF0E048
:104B1000808181608083E8EDF0E080818F77808301
:104B200019BCA7EDB0E08C918E7F8C9380818F7E35
:104B300080831092920408950F931F93CF93DF9375
:104B40000E94F0250E94F825C8EDD0E088818F777B
:104B5000888388818068888388818F7D888319BC59
:104B60001092930410928F0410929104109290046A
:104B700000EE10E0F80180818B7F80838881816066
:104B8000888342E060E080E00E94FB24E1EEF0E0F8
:104B900080818E7F8083E2EEF0E08081816080837F
:104BA000808188608083F80180818E7F8083888106
:104BB00080618883DF91CF911F910F910895E8ED77
:104BC000F0E080818F7E8083E7EDF0E0808181607E
:104BD000808384E082BF81E0809392040C949C25C2
:104BE000E8EDF0E080818E7F80831092E2000895EE
:104BF0001092DA001092E10008951F920F920FB602
:104C00000F9211242F933F934F935F936F937F9352
:104C10008F939F93AF93BF93EF93FF938091E100A6
:104C200082FF0BC08091E20082FF07C08091E1000B
:104C30008B7F8093E1000E9473288091DA0080FFCF
:104C40001FC08091D80080FF1BC08091DA008E7F4A
:104C50008093DA008091D90080FF0DC080E189BD8A
:104C600082E189BD09B400FEFDCF81E08093930409
:104C70000E94612205C019BC109293040E946F2209
:104C80008091E10080FF19C08091E20080FF15C093
:104C90008091E2008E7F8093E2008091E20080614B
:104CA0008093E2008091D80080628093D80019BC84
:104CB00085E0809393040E9473228091E10084FF39
:104CC00030C08091E20084FF2CC080E189BD82E188
:104CD00089BD09B400FEFDCF8091D8008F7D8093FF
:104CE000D8008091E1008F7E8093E1008091E20006
:104CF0008F7E8093E2008091E20081608093E200E9
:104D000080918F04882311F084E007C08091E30034
:104D100087FD02C081E001C083E0809393040E947C
:104D200074228091E10083FF29C08091E20083FF1B
:104D300025C08091E100877F8093E10082E080932D
:104D4000930410928F048091E1008E7F8093E100A4
:104D50008091E2008E7F8093E2008091E20080618A
:104D60008093E20042E060E080E00E94FB248091BA
:104D7000F00088608093F0000E947222FF91EF9112
:104D8000BF91AF919F918F917F916F915F914F9163
:104D90003F912F910F900FBE0F901F9018951F926B
:104DA0000F920FB60F9211242F933F934F935F935F
:104DB0006F937F938F939F93AF93BF93CF93DF9323
:104DC000EF93FF93C091E900CF708091EC00D82F52
:104DD000D17080FDD0E81092E9008091F000877FCB
:104DE0008093F00078940E9413271092E90080913C
:104DF000F00088608093F000CD2BCF70C093E90065
:104E0000FF91EF91DF91CF91BF91AF919F918F91E2
:104E10007F916F915F914F913F912F910F900FBEB6
:104E20000F901F9018951F93CF93DF93CDB7DEB7E8
:104E3000AA970FB6F894DEBF0FBECDBFE4E9F4E049
:104E40008091F100819324E0EC39F207C9F70E94C8
:104E500080228091E80083FF2EC18091940490917C
:104E60009504492F50E04A30510508F024C1FA0159
:104E7000E158FF4F0C94C328803821F0823809F0A4
:104E80001AC108C08091900490919104992389F0EF
:104E900082600FC0809198048F70873008F00BC13A
:104EA0008093E9008091EB0085FB882780F91092C0
:104EB000E9009091E800977F9093E8008093F100DB
:104EC0001092F100D1C0282F2D7F09F0F4C0882363
:104ED00019F0823061F0EFC080919604813009F0C2
:104EE000EAC0933009F080E0809391042EC0809155
:104EF000960481112AC0809198048F702FEF280F9B
:104F0000263008F0D8C08093E9002091EB0020FF04
:104F10001CC0933021F48091EB00806214C090910A
:104F2000EB0090619093EB0021E030E0A90102C01A
:104F3000440F551F8A95E2F74093EA001092EA0069
:104F40008091EB0088608093EB001092E9008091E3
:104F5000E800877F8093E8000E943025ACC0811173
:104F6000AAC0109196041F778091E3008078812B6E
:104F70008093E3008091E800877F8093E8000E949F
:104F800030258091E80080FFFCCF8091E3008068AD
:104F90008093E300111102C082E001C083E080939E
:104FA000930489C08058823008F085C080919604AF
:104FB000909197048C3D53E0950779F583E08A83BF
:104FC0008AE289834FB7F894DE01139620E03EE031
:104FD00051E2E32FF0E050935700E49120FF03C02B
:104FE000E295EF703F5FEF708E2F90E0EA3010F0A7
:104FF000C79601C0C0968D939D932F5F243149F7CA
:105000004FBF8091E800877F8093E8006AE270E0FC
:10501000CE0101960E943C2416C0609198047091C4
:105020009904AE014F5F5F4F0E948023BC01892B22
:1050300009F441C09091E800977F9093E80089813E
:105040009A810E949A248091E8008B778093E800EF
:1050500032C0803881F58091E800877F8093E80036
:1050600080918F048093F1008091E8008E7772CF59
:10507000811121C0809196049091970499270297FD
:10508000D4F48091E800877F8093E80080919604B3
:1050900080938F040E94302580918F04811106C077
:1050A0008091E30087FD02C081E001C084E080932D
:1050B00093040E9476228091E80083FF0AC08091C9
:1050C000E800877F8093E8008091EB008062809306
:1050D000EB00AA960FB6F894DEBF0FBECDBFDF91EE
:1050E000CF911F9108950895CF93809193048823C1
:1050F000A1F0C091E900CF709091EC00892F8170F0
:1051000090FD80E8C82B1092E9008091E80083FDB3
:105110000E941327CF70C093E900CF910895991B87
:1051200079E004C0991F961708F0961B881F7A959E
:10513000C9F780950895AA1BBB1B51E107C0AA1FA0
:10514000BB1FA617B70710F0A61BB70B881F991F28
:105150005A95A9F780959095BC01CD01089597FBCC
:10516000072E16F4009407D077FD09D00E949B28E3
:1051700007FC05D03EF4909581959F4F089570955A
:1051800061957F4F0895EE0FFF1F0590F491E02D7C
:105190000994FB01DC0102C005900D924150504082
:1051A000D8F70895FB01DC0104C08D9101908019AE
:1051B00021F441505040C8F7881B990B0895AEE088
:1051C000B0E0E5EEF8E20C94F02B0D891E898F8992
:1051D000988D26E02C831A83098397FF02C080E014
:1051E00090E801979E838D83AE01455E5F4F698D88
:1051F0007A8DCE0101960E940F294D815E8157FD67
:105200000AC02F813885421753070CF49A01F80120
:10521000E20FF31F10822E96E4E00C940C2CABE00E
:10522000B0E0E5E1F9E20C94E22B6C017B018A012C
:10523000FC0117821682838181FFCCC1CE010196C9
:105240003C01F6019381F70193FD859193FF8191D4
:105250007F01882309F4BAC1853239F493FD859121
:1052600093FF81917F01853229F4B60190E00E947D
:10527000062BE7CF912C212C312CFFE1F315D8F030
:105280008B3279F038F4803279F08332A1F4232D17
:1052900020611DC08D3261F0803369F4232D2160BF
:1052A00016C0832D8260382EE32DE4603E2E2AC086
:1052B000F32DF8601DC037FC2DC020ED280F2A30DB
:1052C00040F08E32B9F436FC81C1232D2064322E99
:1052D00019C036FE06C08AE0989E200D1124922E39
:1052E00011C0EAE02E9E200D1124222EF32DF06233
:1052F0003F2E08C08C3621F4832D8068382E02C0E2
:10530000883641F4F70193FD859193FF81917F01E8
:105310008111B3CF982F9F7D9554933028F40C5F63
:105320001F4F9FE399830DC0833631F0833771F0AF
:10533000833509F059C021C0F801808189830E5F4F
:105340001F4F88248394912C530113C02801F2E04D
:105350004F0E511CF801A080B18036FE03C0692DAC
:1053600070E002C06FEF7FEFC5010E94FB2A4C0185
:105370008201F32DFF773F2E16C0280122E0420E56
:10538000511CF801A080B18036FE03C0692D70E089
:1053900002C06FEF7FEFC5010E94F02A4C01F32D90
:1053A000F0683F2E820133FC1BC0822D90E08816EE
:1053B0009906B0F4B60180E290E00E94062B2A9490
:1053C000F4CFF50137FC859137FE81915F01B6017D
:1053D00090E00E94062B21102A9421E0821A910865
:1053E0008114910471F7E8C0843611F0893641F5D3
:1053F000F80137FE07C060817181828193810C5F63
:105400001F4F08C060817181072E000C880B990B1B
:105410000E5F1F4FF32DFF763F2E97FF09C090952B
:105420008095709561957F4F8F4F9F4FF0683F2E0D
:105430002AE030E0A3010E94422B882E861845C046
:10544000853731F4232D2F7EB22E2AE030E025C09F
:10545000932D997FB92E8F36C1F018F4883579F0E5
:10546000B5C0803719F0883721F0B0C0E92FE0616E
:10547000BE2EB4FE0DC0FB2DF460BF2E09C034FE5D
:105480000AC0292F2660B22E06C028E030E005C0F1
:1054900020E130E002C020E132E0F801B7FE07C0B1
:1054A00060817181828193810C5F1F4F06C0608192
:1054B000718180E090E00E5F1F4FA3010E94422B9C
:1054C000882E8618FB2DFF773F2E36FE0DC0232D2C
:1054D0002E7FA22E891458F434FE0BC032FC09C072
:1054E000832D8E7EA82E05C0B82CA32C03C0B82C0B
:1054F00001C0B92CA4FE0FC0FE01E80DF11D808192
:10550000803321F49A2D997EA92E09C0A2FE06C0EF
:10551000B394B39404C08A2D867809F0B394A3FCA5
:1055200011C0A0FE06C0B21488F4280C922C9B185F
:105530000EC0B21460F4B60180E290E00E94062B27
:10554000B394F7CFB21418F42B1802C0982C212C66
:10555000A4FE10C0B60180E390E00E94062BA2FEDC
:1055600017C0A1FC03C088E790E002C088E590E086
:10557000B6010CC08A2D867859F0A1FE02C08BE2DC
:1055800001C080E2A7FC8DE2B60190E00E94062BEC
:10559000891438F4B60180E390E00E94062B9A94B7
:1055A000F7CF8A94F301E80DF11D8081B60190E0F8
:1055B0000E94062B8110F5CF222009F442CEB601BD
:1055C00080E290E00E94062B2A94F6CFF6018681B5
:1055D000978102C08FEF9FEF2B96E2E10C94FE2B98
:1055E000FC010590615070400110D8F780959095AE
:1055F0008E0F9F1F0895FC016150704001900110B3
:10560000D8F7809590958E0F9F1F08950F931F9345
:10561000CF93DF93FB01238121FD03C08FEF9FEF29
:105620002CC022FF16C04681578124813581421744
:10563000530744F4A081B1819D012F5F3F4F318317
:1056400020838C93268137812F5F3F4F37832683BA
:1056500014C08B01EC01FB010084F185E02D09955C
:10566000892BE1F6D80116968D919C91179701969A
:1056700017969C938E931697CE01DF91CF911F9131
:105680000F910895FA01AA27283051F1203181F1B4
:10569000E8946F936E7F6E5F7F4F8F4F9F4FAF4F3A
:1056A000B1E03ED0B4E03CD0670F781F891F9A1F4D
:1056B000A11D680F791F8A1F911DA11D6A0F711D01
:1056C000811D911DA11D20D009F468943F912AE00D
:1056D000269F11243019305D3193DEF6CF010895F5
:1056E000462F4770405D4193B3E00FD0C9F7F6CF26
:1056F000462F4F70405D4A3318F0495D31FD4052EE
:10570000419302D0A9F7EACFB4E0A6959795879583
:1057100077956795BA95C9F7009761057105089562
:105720009B01AC010A2E069457954795379527950E
:10573000BA95C9F7620F731F841F951FA01D0895A6
:10574000F999FECF92BD81BDF89A992780B5089549
:10575000A8E1B0E042E050E00C94D42B262FF99958
:10576000FECF92BD81BDF89A019700B4021639F0C0
:105770001FBA20BD0FB6F894FA9AF99A0FBE089591
:105780000396272F0E94AF2B0E94AE2B252F0E943D
:10579000AF2B242F0C94AF2B0196272F0E94AF2BF9
:1057A0000C94AE2BDC01CB01FC01F999FECF06C0B5
:1057B000F2BDE1BDF89A319600B40D9241505040CF
:1057C000B8F708952F923F924F925F926F927F9217
:1057D0008F929F92AF92BF92CF92DF92EF92FF9201
:1057E0000F931F93CF93DF93CDB7DEB7CA1BDB0BAD
:1057F0000FB6F894DEBF0FBECDBF09942A88398852
:1058000048885F846E847D848C849B84AA84B98458
:10581000C884DF80EE80FD800C811B81AA81B98164
:10582000CE0FD11D0FB6F894DEBF0FBECDBFED0178
:065830000895F894FFCF7B
:1058360001A50100A60104A6010021007F220003A4
:105846004D022808641E140A321E11223422152223
:10585600602214220125647825642C206B2532648D
:10586600203A20256300202020206162636465665B
:105876006768696A6B6C6D6E6F707172737475763A
:105886007778797A3132333435363738393052458C
:1058960042545F2D3D5B5D5C233B27602C2E2F2001
:1058A6002020F4F5F6F73133946697C60000000021
:0858B60000081018181008008A
:00000001FF
