:100000000C9478060C94BF060C94BF060C944A120C
:100010000C94BF060C94BF060C94BF060C94BF064C
:100020000C94BF060C94BF060C941A250C94EE2574
:100030000C94E21D0C94BF060C94BF060C94BF06F2
:100040000C94BF060C94BF060C94BF060C94BF061C
:100050000C94BF060C94391E0C94BF060C94BF067A
:100060000C94BF060C94BF060C94BF060C94BF06FC
:100070000C94BF060C94BF060C94BF060C94BF06EC
:100080000C94BF060C94BF060C94BF060C94BF06DC
:100090000C94BF060C94BF060C94BF060C94BF06CC
:1000A0000C94BF060C94BF060C94BF060000000021
:1000B0000000000000000000000000000000000040
:1000C0000000000000000000000000000000000030
:1000D0000000000000000000000000000000000020
:1000E0000000000000000000000000000000000010
:1000F0000000000000000000000000000000000000
:1001000000000000000000000000000000000000EF
:1001100000000000000000000000000000000000DF
:1001200000000000000000000000000000000000CF
:10013000000000000000000000000000008080803F
:10014000C0C0E060703038180C0C1E0C800000003D
:10015000000000000080C0E0F0381C0E0700000026
:10016000000000000000008080800000000000000F
:1001700000000000000000000000000000000080FF
:1001800080808080808000008040000000000000AF
:1001900000000000808080000000008080C0C060FF
:1001A00060301000000000000000000000000000AF
:1001B000001030307078787C7C7E3E3F3F3B3B398E
:1001C00039383838383838383C38188FDFF87CBE42
:1001D000DFF7FBFDFEEF733B1B1FEFF7FF7E6F6F3B
:1001E0006F6F6DBDE1F93F3F3979797DEDEDCDC799
:1001F000C787C7E3E0F87E3F37333B1B19190DED86
:10020000FFBFC7E7E3F07CDEE7FB3E3FFCE0F83EE4
:10021000CFF3FC3F1F1F3C7E76F3E381010000001B
:1002200000000000000000000000000000000000CE
:1002300000000000000000000000000000000000BE
:100240000000000000002030181E0F030100000015
:100250000103030100000000000000000000000096
:100260000000000307000000000000000000000183
:10027000E1793E1F070100000000000000000101BD
:10028000010000010101000000000000000000006A
:100290000001000000000000000000010103020650
:1002A000040818103020600000000000000000006A
:1002B000000000000000000000000000000000003E
:1002C000000000020000000000000000000000002C
:1002D000000000000000000000000000000000001E
:1002E000000000000000000000000000000000010D
:1002F00000000000000000000000000000000000FE
:1003000000000000000000000000000000000000ED
:1003100000000000000000000000000000000000DD
:1003200000000000000000000000000000000000CD
:1003300000000000000000000000000000000000BD
:1003400000000000000000000000000000000000AD
:10035000000000000000000000000000000000009D
:10036000000000000000000000000000000000008D
:10037000000000000000000000000000000000007D
:10038000000000000000000000000000000000006D
:10039000000000000000000000000000000000005D
:1003A000000000000000000000000000000000004D
:1003B000000000000000000000000000000000003D
:1003C000000000000000000000000000000000002D
:1003D000000000000000000000000000000000001D
:1003E000000000000000000000000000000000000D
:1003F00000000000000000000000000000000000FD
:1004000000000000000000000000000000000000EC
:1004100000000000000000000000000000000000DC
:1004200000000000000000000000000000000000CC
:1004300000000000000000000000000000000000BC
:1004400000000000000000000000000000000000AC
:10045000000000000000000000000000000000009C
:10046000000000000000000000000000000000008C
:10047000000000000000000000000000000000007C
:10048000000000000000000000000000000000006C
:10049000000000000000000000000000000000005C
:1004A00000000000000000000000000041646A75C8
:1004B0007374005261697365004C6F776572004414
:1004C000656661756C74004C617965723A20002B29
:1004D0000014001A00080015001700E000040016C0
:1004E00000070009000A00E1001D001B00060019BA
:1004F000000500000000000000E30001512C002A6C
:1005000000130012000C0018001C00340033000F10
:10051000000E000D000B00E500380037003600101B
:10052000001100000000000000E600025128003524
:10053000001E001F002000210022000100040116FF
:100540000100000901000001001D011B0106011945
:100550000129000000000000000100010001004C22
:10056000002700260025002400230000004F005231
:1005700000510050000B010100310000000000009C
:100580000000000000000000000100035101002BEA
:10059000001E021F022002210222020100010001AE
:1005A0000046004700480001000100010001000171
:1005B00000010000000000000001000351010001E3
:1005C0000027022602250224022302000030002F09
:1005D0000031022E002D00010030022F0235022EC4
:1005E000022D02000000000000010001000100399E
:1005F000003A003B003C003D003E000100000000CE
:1006000000000000000000010000000000000000E9
:10061000002900000000000000010001000100446A
:100620000043004200410040003F00450000000040
:10063000004B004A0049000000000000004E004D41
:10064000004C00000000000000010001000100005B
:10065000AE00AF00DA0281FFD9F1DB20A4A62EAFF5
:1006600000A0C000A1C800AED580A81FD300408D57
:100670001420000000000000003E5B4F5B3E003E87
:100680006B4F6B3E001C3E7C3E1C00183C7E3C18B1
:10069000001C577D571C001C5E7F5E1C0000183C30
:1006A000180000FFE7C3E7FF00001824180000FF50
:1006B000E7DBE7FF0030483A060E002629792926B5
:1006C00000407F05050700407F05253F005A3CE7B5
:1006D0003C5A007F3E1C1C0800081C1C3E7F001476
:1006E000227F2214005F5F005F5F0006097F017FA9
:1006F00000006689956A0060606060600094A2FFF7
:10070000A2940008047E04080010207E2010000837
:10071000082A1C0800081C2A0808001E10101010C7
:10072000000C1E0C1E0C0030383E383000060E3E09
:100730000E060000000000000000005F0000000046
:100740000700070000147F147F1400242A7F2A1258
:100750000023130864620036495620500000080741
:10076000030000001C224100000041221C00002A5E
:100770001C7F1C2A0008083E08080000807030001A
:100780000008080808080000006060000020100849
:100790000402003E5149453E0000427F4000007285
:1007A00049494946002141494D33001814127F1030
:1007B000002745454539003C4A494931004121114E
:1007C000090700364949493600464949291E0000B3
:1007D0000014000000004034000000000814224112
:1007E00000141414141400004122140800020159CA
:1007F0000906003E415D594E007C1211127C007FBB
:1008000049494936003E41414122007F4141413E34
:10081000007F49494941007F09090901003E4141E2
:100820005173007F0808087F0000417F41000020CD
:1008300040413F01007F08142241007F404040407A
:10084000007F021C027F007F0408107F003E4141B0
:10085000413E007F09090906003E4151215E007FAB
:10086000091929460026494949320003017F01033D
:10087000003F4040403F001F2040201F003F4038C5
:10088000403F00631408146300030478040300610C
:1008900059494D4300007F414141000204081020A6
:1008A00000004141417F0004020102040040404039
:1008B0004040000003070800002054547840007FA7
:1008C0002844443800384444442800384444287FAD
:1008D0000038545454180000087E090200182424DB
:1008E0001C78007F080404780000447D400000204C
:1008F00040403D00007F102844000000417F400040
:10090000007C04780478007C0804047800384444AF
:100910004438007C1824241800182424187C007CF7
:10092000080404080048545454240004043F442498
:10093000003C4040207C001C2040201C003C4030FB
:10094000403C004428102844004C9090907C004487
:1009500064544C4400000836410000000077000059
:10096000000041360800000201020402003C262378
:10097000263C000000000000000000000000000015
:10098000000000C0E0F0F8F81800C0F0FCFEFFFF27
:10099000FFFFFFFFFF7E000000000000000000805E
:1009A000C0E0E0E0E0E0E0E0E0C0800000000080C7
:1009B000C0E0E0E0E0E0E0E0E0C080000000E0E077
:1009C000C0C0E0E0E0E00000E0E0C0C0E0E0E0E067
:1009D000E0C0800000000080C0E0E0E0E0E0E0E097
:1009E000E0C08000000000000000000000000000E7
:1009F00000E0F0F0F0E0ECEEF7F37020007C7C7C9F
:100A00007E007E7E7E7F7F7F000080C0E07E5B4F29
:100A10005BFEC00000C000DCD7DEDEDED7DC00C03D
:100A200000000000000000000000000000000000C6
:100A3000000000000000000000000000F8FCFEFFC5
:100A4000E000FFFFFFFFFFFF80FFFFFFFFFFFFFF53
:100A5000FFFF1F0701000000000000000000FFFF73
:100A6000FF8100000000000081C3C3C30000FFFF3E
:100A7000FF8100000000000081FFFFFF0000FFFF7A
:100A8000FF01000000000000FFFFFF010000000068
:100A900001FFFFFF0000FFFFFF9D1C1C1C1C1C1C16
:100AA0009DDFDFDF0000000000000000000000000C
:100AB000000F1F3F7F7F7F7F7F3F1E0C001F1F1F88
:100AC0003F003F3F3F7F7F7F00307B7F783020209B
:100AD00030787F3B0003000F7F0F0F0F7F0F000365
:100AE0000000000000000000000000000000000006
:100AF000000000000000000000000000030F1F3F86
:100B00003F3F3F1F1F3F3F7F7F7F3F3F1F3F7F7F15
:100B10007F7F7C7878381C0F000000000000000107
:100B20000307070707070707070301000000000185
:100B30000307070707070707070301000000070768
:100B40000700000000000000070707000000000089
:100B5000000707070000000103070707070707074B
:100B6000070301000000000000000000000000007A
:100B70000000000000000000000000000000000075
:100B80000000000000000000000000000000000065
:100B90000000000000000000000000000000000055
:100BA0000000000000000000000000000000000045
:100BB000000000480343006F0072006E00650020D3
:100BC000004B006500790062006F006100720064F4
:100BD0000020005200650076002E00310020002821
:100BE00000530070006C0069007400200043006F27
:100BF000006D006D006F006E00290000001003669C
:100C0000006F006F007300740061006E000000044C
:100C100003090409023B00020100A0FA09040000D4
:100C20000103010100092111010001224000070513
:100C3000810308000A0904010001030000000921E2
:100C400011010001224F000705820320000A120152
:100C500010010000000853460100010001020001DC
:100C600005010902A10185020901A1000509190177
:100C7000290515002501950575018102950175036A
:100C800081010501093009311581257F950275081B
:100C9000810609381581257F950175088106050CA7
:100CA0000A38021581257F950175088106C0C005A7
:100CB000010906A101050719E029E715002501959D
:100CC0000875018102950175088101050719002940
:100CD000FF150026FF00950675088100050819011B
:100CE0002905950575019102950175039101C000D3
:100CF00011241FBECFEFDAE0DEBFCDBF04B603FE86
:100D000027C080919C0490919D04A0919E04B09175
:100D10009F048730904BA740B04BD1F410929C04B5
:100D200010929D0410929E0410929F0414BE84B7EA
:100D3000877F84BF0FB6F894A89580916000886182
:100D400080936000109260000FBEE0E0F8E3099528
:100D500011E0A0E0B1E0EAE7F6E502C005900D92EF
:100D6000A838B107D9F724E0A8E8B1E001C01D9286
:100D7000AC39B207E1F70E945C220C94082B0C946A
:100D800000000C94BF09CF93C82F0E94FF0A811165
:100D900001C0C2E08C2FCF91089560E087EC94E011
:100DA0000E94EC0C8091430290914402A091450274
:100DB000B09146028F309105A105B105B0F4FC0158
:100DC000E65FF44D0C94D42760E08FEB94E00C9434
:100DD000FE0C60E089EB94E0FACF60E083EB94E0F6
:100DE000F6CF60E08CEA94E0F2CF08959C01305693
:100DF000211540E2340720F0305E2115304108F41F
:100E0000992720E28C33910520F4FC01EA5CFE4F27
:100E100020811F922F939F938F93FB0180811F92BC
:100E20008F9381811F928F9385E291E09F938F939F
:100E30001F9288E18F9388E891E09F938F930E949F
:100E4000F0278DB79EB70E960FB6F8949EBF0FBED3
:100E50008DBF089560E088E891E00C94D00C60E0CC
:100E600074E08CEA90E00C94030D0E94FF0A882342
:100E700021F00E94CD060C942A070C942F07FB0149
:100E8000228121110E94F60681E0089581E00895F3
:100E90000C943F0708950C944A071F93CF93DF9358
:100EA00000D000D00F92CDB7DEB749835A836B8351
:100EB0003091EC0189819A8131111DC06623B9F00E
:100EC0002223A9F00E94591B182F682F89819A812B
:100ED0000E94021B69817A81812F0F900F900F90E1
:100EE0000F900F90DF91CF911F910C94F9070E9402
:100EF000301B182FEFCF0E94591B69817A81EDCFEB
:100F0000FC01262F408151816281738184810C9480
:100F10004D07CF93DF93EC0160E00E948007BE0194
:100F2000DF91CF910C944B070E94901C811102C05D
:100F30000E94341D0C94C1060C94C10908950E94AE
:100F4000F6160E949E072FEF84E39CE0215080401C
:100F50009040E1F700C000000C945D1E0F931F93BA
:100F6000CF93DF93EC0161E00E9480078C01BE010A
:100F70000E944807882329F1BE01C8010E94120F70
:100F80008823F9F0BE01C8010E94640F8823C9F0CC
:100F9000BE01C8010E948710882399F08A818823A6
:100FA00039F001158CE5180751F00F3D1C4579F01B
:100FB000CE01DF91CF911F910F910C9446070E94B3
:100FC0009F0780E0DF91CF911F910F9108950E94BC
:100FD000341DF7CF08950C94EA0781E008950C942E
:100FE000ED07CF93C82F0E94EB078C2FCF910C9465
:100FF000EF07972F70E026E0929F600D711D11247E
:10100000FB0190E3899FE00DF11D1124EE0FFF1FFE
:10101000E153FB4F859194910895CF93DF930E9404
:10102000F9070E94E508EC01811522E5920778F5A1
:10103000811531E5930708F098C08F3F910509F0BD
:10104000B8F4803F910508F06FC0853A910540F4EF
:101050008430910548F4019739F0D0E0C0E004C035
:10106000805E91090897C8F7CE01DF91CF9108956E
:10107000811540E5940708F05CC0C11580E4D807ED
:1010800008F054C0C11590E2D90770F3E6CF81157E
:1010900026E5920718F5811535E5930708F07DC020
:1010A000811544E5940708F073C0982F969596959E
:1010B0009E0123703327C115D34508F45BC0C1E0FE
:1010C000D0E002C0CC0FDD1F2A95E2F730E2939FFB
:1010D000C0011124C82BD92BDA68C6CFC1159AE5F7
:1010E000D90778F4C11529E5D20708F060C0C11509
:1010F00038E5D30708F4B1CFDC2FCC27C06FD06A16
:10110000B3CFCE0190568115904208F0A6CF8D2F17
:101110008F710E947C0990E0982F882788279F7103
:101120009C012C2BE90141C0D0659ECFDF70D06AB5
:101130009BCFE4E096958795EA95E1F783702C2F95
:1011400026952695237090E2299F90011124382B33
:101150008C2F8370C1E0D0E002C0CC0FDD1F8A95D8
:10116000E2F7C22BD32BDC687FCFD82FCC27C16FFF
:10117000D06A7ACFC1E0D0E002C0CC0FDD1F2A9543
:10118000E2F720E2929FC0011124C82BD92BEBCFAC
:10119000D82FCC27C46FD06A67CF0E947C09C82F94
:1011A000D0E0DC2FCC27CC27DF71D0625DCF8C2F35
:1011B0008F700E947C0934E0D695C7953A95E1F787
:1011C000CF709C2FEC01D0694FCF82389105B1F1DF
:1011D000B0F48133910509F475C048F48932910562
:1011E00009F469C08A32910509F473C00895853302
:1011F000910509F459C08933910501F10895833EA1
:101200009105A9F138F4803E9105F9F0823E9105EF
:1012100049F10895863E9105A9F1873E9105C9F1EE
:10122000843E910519F520918E0421FF1FC0809105
:101230008D0484FD14C087EE90E0089520918D0404
:101240002370A1F080EE90E0089520918D0420FDA0
:1012500047C030918E0430FF09C024FF44C090E0A5
:1012600080E004C020918D0422FDF7CF08952091E5
:101270008D0422FD3BC030918E0430FDE3CF24FF6E
:10128000F5CFEDCF20918D0423FFF0CF24FDE7CFE4
:10129000D2CF20918D0423FD2CC030918E0431FFDC
:1012A000EECF84EE90E0089520918D0425FFDECFEF
:1012B00089E290E0089520918D0425FFD7CF85E342
:1012C00090E0089520918D0426FFD0CF8AE290E02F
:1012D000089520918D0426FFC9CF81E390E0089501
:1012E00089E390E0089583EE90E0089582EE90E027
:1012F000089586EE90E0089590918D0492FF06C0C7
:10130000282F28712830F9F4877F846093FF06C066
:10131000282F28712831F1F4877E846120918E0472
:1013200020FF06C0382F38713830D9F4877F8160AC
:1013300021FF06C0282F28712831D1F4877E8161D2
:1013400094FD877E0895282F24712430F9F68B7F31
:101350008860DCCF282F2471243101F78B7E8861CF
:10136000DDCF382F3171313019F78E7F8860E0CFB3
:10137000282F2171213121F78E7E8861E1CF0895D8
:1013800008950C94C009E82FF0E0E758FD4F8081E4
:101390000895089580EA8A95F1F70895F894E82F62
:1013A000E295EF70F0E031A1282F2F7081E090E0FE
:1013B00001C0880F2A95EAF7982F9095932391A35F
:1013C00092A1892B82A37894089508950E941D0B01
:1013D000809100018091000194E0811190E0909350
:1013E000820284E0891B8093810284E90E94CE09F5
:1013F00086E60E94CE0987E90E94CE0986EC0E940B
:10140000CE0984EF0E94CE0985EF0E94CE0986EFB7
:101410000E94CE0987EF0E94CE0981E30E94CE0987
:1014200083E30E94CE09E1E7F2E0A9E7B2E089E7B1
:1014300092E011921D928E179F07D9F784E00E94C7
:10144000C80A0E9494070C94270B0E94FF0A882365
:10145000F1F08091810290E087589D4F0E943A0BF5
:10146000811112C08091A0018F5F8093A00186300E
:1014700048F0E0918102F0E0E758FD4F10821182C0
:10148000128213820C949C071092A001FBCF8091D2
:10149000820290E087589D4F0E94530B0C94E509FF
:1014A000CF92DF92EF92FF920F931F93CF93DF9330
:1014B000C8E7D1E001E712E0D12CEE24E394F12C4F
:1014C0008991F894E82FE295EF70F0E021A18F70F8
:1014D000A70102C0440F551F8A95E2F7CA01922F57
:1014E000982B91A392A18095892382A378940E943E
:1014F000CA09E2E7F1E030E020E0C12C4191A42FDD
:10150000A295AF70B0E090968C9190E04F7002C0C1
:10151000959587954A95E2F780FD36C08E2D022E6F
:1015200001C0880F0A94EAF7C82A2F5F3F4F263080
:10153000310521F7FE01319780810E94CE09F80123
:101540008081C81619F1C08281E0D82A0F5F1F4F31
:10155000F1E0CC37DF0709F0B3CF6091820270E091
:1015600067587D4F2D2D44E081E792E00E94C90A23
:101570000E94250A8D2DDF91CF911F910F91FF9031
:10158000EF90DF90CF90089580E0CECF80E0DDCF68
:101590000895FF920F931F93CF93DF93F82E092F97
:1015A000162FD72FC42F222349F081E08093A30167
:1015B0000E94121E9093A2018093A1018091A30129
:1015C0008823A1F08091A1019091A2010E942A1E7E
:1015D000069760F0EF2DF02FA12FBD2FCE0FDF2F3C
:1015E000D11DEC17FD0741F41092A301DF91CF91BB
:1015F0001F910F91FF90089581918D93F2CF80916B
:10160000A401811111C08091D80080618093D8001D
:101610008AE18A95F1F700C09091D900892F8170F5
:1016200090FF82E08093A40181E09091A401913029
:1016300009F080E008950C94FF0A0E941B0B809330
:1016400000010E94FF0A81110C942E0B08950E9444
:10165000FF0A811102C00C94340B089561E070E020
:1016600081E091E00C94FB1161E070E081E091E099
:101670000C940212CF93DF93D82FC92F0E949C1293
:10168000009779F4ED2FFC2FDC01AA55BE4F2C9169
:101690002193019684309105B9F781E0DF91CF91D4
:1016A000089580E0FBCF30E020E0FC014191CF01C4
:1016B000F901EA55FE4F40832F5F3F4F243031053B
:1016C000A1F70895CF92DF92EF92FF920F931F93AD
:1016D000CF93DF936C017B0164E670E088E70E94A2
:1016E000B710EC0197FD12C010E000E0F601E00F2A
:1016F000F11F849164E670E00E941311EC01892BC4
:1017000029F40F5F1F4F0E151F0581F70E949611D8
:10171000CE01DF91CF911F910F91FF90EF90DF905D
:10172000CF900895E3E8F2E080E092E0DF019C01D1
:101730001D9221503040E1F7F0938804E093870434
:101740008FEF9FEF9093D6018093D50108950E946B
:10175000C3068093D10180FD0FC080E88093D00143
:101760000E94B1106DE070E086E696E00E94620B88
:10177000892B21F080E0089580E2F0CF8091D101A3
:1017800063E070E081FD26C083E696E00E94620B74
:10179000892B81F76DE070E083E596E00E94620B93
:1017A000892B41F70E941E1E605A75418F4F9F4F33
:1017B00060938304709384048093850490938604DB
:1017C0000E94920B81E08093D4018093D301109208
:1017D000D201089580E696E0D9CF2091D00136E07D
:1017E000839FC0011124629F800D911D11248115DA
:1017F00022E0920714F090E080E08D579D4F909387
:101800008804809387040895209187043091880488
:101810002D5732404091D001642F70E0C9010E94E1
:10182000AC27481B463010F4240F311D211582E0EF
:10183000380710F030E020E02D573D4F30938804FA
:101840002093870408951F93CF93DF93162F8A3038
:1018500031F481E0DF91CF911F910C949D0C8D307C
:1018600011F480E0F7CFC0918704D091880496E00E
:10187000FE01AAEAB1E001900D929A95E1F7803E4F
:10188000C8F086E0FE0111928A95E9F711111EC099
:10189000C0918704D091880446E050E0BE018AEAF6
:1018A00091E00E94E327892BF9F4DF91CF911F91FA
:1018B0000C94040CF6E08F9FB00111246D58794F01
:1018C00046E050E0CE010E94DA27E0CFE0918704A5
:1018D000F09188049F012A5F3F4F2E173F07C1F206
:1018E000808180958193F9CFC358D240CE0125E005
:1018F000969587952A95E1F721E030E0A90102C08D
:10190000440F551F8A95E2F7CA014091D5015091C5
:10191000D601842B952B259645E0D695C7954A95FB
:10192000E1F702C0220F331FCA95E2F7822B932BF7
:101930009093D6018093D501B8CFCF93382FE09103
:101940008704F0918804E358F2402091D001622F7F
:1019500070E0CF010E94AC27281B822F332369F04F
:1019600066E00E94A027C82FC15010F4CF910895BF
:1019700060E080E20E94230CF7CF9F01280F311D09
:101980002115324018F080E0F0E0E0E08E0F9F2F4C
:10199000911D8D579D4F9093880480938704E6CFC7
:1019A000FF920F931F93CF93DF93EC01F62EFC0170
:1019B00001900020E9F78F0101501109C017D107EC
:1019C00030F0DF91CF911F910F91FF9008956F2D0F
:1019D00089910E94230CF2CF1F93CF93DF93EC01E8
:1019E000162FFE018491811104C0DF91CF911F91C8
:1019F0000895612F0E94230C2196F3CF0E94EC0CD6
:101A000081E00C949D0CCF93DF932091870430915B
:101A1000880423583240A901460F571F41305240D5
:101A200020F060E072E0621B730B4091D501509191
:101A3000D601FC01C901620F731FC1E0D0E0861717
:101A4000970738F05093D6014093D501DF91CF919D
:101A500008952491DC01AD57BD4F3C91321781F0C0
:101A60002C939C01A5E036952795AA95E1F7DE0118
:101A700002C0AA0FBB1F2A95E2F79D014A2B532BE8
:101A800001963196DCCF8091D401811103C0809101
:101A9000D30108950E941E1E605A75418F4F9F4FBB
:101AA00060938304709384048093850490938604E8
:101AB0008091D3018111EBCF62E070E081E596E087
:101AC0000E94620B892B19F781E08093D301DFCF4D
:101AD0002F923F925F926F927F928F929F92AF92DE
:101AE000BF92CF92DF92EF92FF920F931F93CF930B
:101AF000DF938091D401882369F02091D501309142
:101B0000D6012115310531F08091D20161E070E0FC
:101B1000882399F0DF91CF911F910F91FF90EF9063
:101B2000DF90CF90BF90AF909F908F907F906F90FD
:101B30005F903F902F9008958F5F082F10E01B015A
:101B4000082E02C0220C331C0A94E2F7A90142219C
:101B50005321452B89F39091D10190FD44C082958A
:101B6000880F807680930B019801369527953695DE
:101B7000279520930E01815E80930C0110920F0136
:101B800024E630E047E050E069E071E088E70E9439
:101B90004211892B09F0BECFA80125E0440F551F43
:101BA0002A95E1F78091D10180FD2BC04D575D4F03
:101BB00004E610E020E230E060E488E70E9469116A
:101BC000892B09F0A7CF0E94430DE101C095D09564
:101BD0008091D5019091D601C823D923D093D60105
:101BE000C093D50197CF880F880F880F80930B0182
:101BF00010920E01895F80930C0183E080930F01A6
:101C0000BFCFE0EBF1E080E2DF011D928A95E9F7BA
:101C1000A4E8B1E000E811E088E8C82E81E0D82E01
:101C200097E0592E772473948D91E80129918E01C4
:101C3000240F352F311D2D573D4FE82FF0E0E05593
:101C4000FE4F90E080E0652C681A872C082E01C0BA
:101C5000880C0A94EAF77901A12CE701B9907E017A
:101C6000B820662D6A196770962E062E000C770B29
:101C7000DB2D01C0DD0F9A94EAF77195619571092A
:101C80006770772701C0B6946A95EAF7BD2A60812C
:101C9000962E9B289082A39468E0A612DECF019630
:101CA00031968830910579F6CA16DB0609F0BCCF6B
:101CB00004E610E020E230E040EB51E07DCF80917F
:101CC000D3019091D401911103C091E08927089527
:101CD000882369F062E070E08FE496E00E94620B76
:101CE000892B19F08091D30108951092D30180912E
:101CF000D301EBCF0F931F938091D401882319F167
:101D000060E080E00E94ED0B0E9435070E94680DA4
:101D10008091D3018823B9F00E941E1E0091830494
:101D2000109184042091850430918604601B710B0E
:101D3000820B930B6F3F7F4F8F4F9F4720F41F9174
:101D40000F910C945F0E1F910F9108950F931F93A5
:101D5000CF93DF93C42FD22FFC0182818823C9F057
:101D60004093D9010E94121E9093D8018093D7010D
:101D700080E28C0F883008F050C0C77081E001C04D
:101D8000880FCA95EAF7DF91CF911F910F910C94BC
:101D9000AB141091D901141335C08091D7019091E3
:101DA000D8010E942A1E8436910560F5C0E2CD0F4D
:101DB0001D17B9F080E2810F883040F4177081E080
:101DC00001C0880F1A95EAF70E94B214C83048F48F
:101DD00081E09D2F977001C0880F9A95EAF70E94C5
:101DE000AB14802F0E949814C830B8F4D77081E0EB
:101DF00001C0880FDA95EAF7DF91CF911F910F911B
:101E00000C94B21480E28C0F883038F4C77081E0F3
:101E100001C0880FCA95EAF7EFCFDF91CF911F91EC
:101E20000F9108950F939C01CB01243F4CE534079B
:101E300059F1A8F4293DFCE53F0701F12A3D4CE5A5
:101E40003407D1F1283D3C4591F406E221EE41EE04
:101E500068ED7CE50E94A60E80E00F910895263F74
:101E6000FCE53F07E9F0B0F0273F3C45F9F0FC0105
:101E70008281882339F11092D901EFCF07E225EE54
:101E800045EE69ED7CE5E6CF06E221EE40EE64EF3B
:101E90007CE5E0CF07E225EE44EE65EF7CE5DACFA6
:101EA00006E221EE42EE66EF7CE5D4CF07E225EEB6
:101EB00046EE67EF7CE5CECF08E221E045EE6AED25
:101EC0007CE5C8CF81E0C9CFCF93DF93EC01FB0164
:101ED0008281882309F419C1C230FCE5DF07C0F113
:101EE000C6319CE5D90730F09E012B5F3C45293077
:101EF000310570F50E94A31C90938E0480938D048D
:101F0000C031ECE5DE0709F4CFC008F05BC0C83093
:101F10008CE5D80709F4B6C088F5C430ECE5DE07D7
:101F200009F4A8C0C0F4C2308CE5D80709F49CC0FD
:101F300080918D048260C330DC4509F498C08091A3
:101F40008D0490918E040E94B11C0E94F61680E0D0
:101F5000DF91CF91089580918D048061C630ECE5CA
:101F6000DE0709F484C080918D048860C730DC45A9
:101F700008F47DC080918D04806279C0CC308CE5FE
:101F8000D80709F489C070F480918D048C60CA3040
:101F9000ECE5DE0709F46BC008F478C080918D048D
:101FA0008E7F65C0CE308CE5D80709F479C080916A
:101FB0008D048B7FCF30DC4508F459C080918D04AF
:101FC0008F7E55C0CC3FECE5DE0709F457C030F5F5
:101FD000C3318CE5D80709F46FC078F4C131ECE562
:101FE000DE0709F465C0C231DC4509F0A8CF0E94C4
:101FF000F61680918D048F773AC0C5318CE5D807ED
:1020000009F462C008F476C080918E048160CB3FF1
:10201000DC4509F094CF80938E0491CFC115FDE586
:10202000DF0709F44DC088F480918E048D7FCE3F88
:102030009CE5D90781F380918E048E7FCF3FDC45EC
:1020400050F380918E048360E6CFC230FDE5DF0758
:1020500009F459C008F444C080E0C330DD4509F0FC
:102060006ECF0E94361D6BCF80918D04816080936E
:102070008D0465CF80918D048460F9CF80918E04AA
:102080008260C9CF80918D048064F1CF0E94F616E2
:1020900080918D048068EBCF80918D048D7FE7CF98
:1020A00080918D04877FE3CF80918D048F7DDFCF7A
:1020B00080918D048F7BDBCF80918D04837FD7CF80
:1020C00080918E048C7FA7CF80918D0482FB99270D
:1020D00090F921E0922790FB82F990FB83F9C7CF1A
:1020E00080918E04982F909591708E7F892B90FB14
:1020F00081F991CF0E94F61690918D04892F97FB5C
:1021000087F98058B4CF81E0ACCF81E021CFCF9365
:10211000DF93EB0186319C4511F50E94EE1B9A81FD
:10212000992399F08A7A91E009F490E09093DA018A
:10213000811109C089E20E94C91B0E942D1C80E008
:10214000DF91CF91089585E3F6CF8091DA01811177
:1021500004C089E20E94D01BF0CF85E3FBCF81E071
:10216000EFCF1092B9008CE08093B8000895EF9201
:10217000FF920F931F93CF93DF93182FEB011092D1
:10218000BC0084EA8093BC000E94121E7C018091F6
:10219000BC0087FF27C08091B900887F883029F074
:1021A0008091B900887F8031D9F51093BB0084E815
:1021B0008093BC000E94121E8C018091BC0087FF9E
:1021C00024C02091B900287F90E080E02831B1F050
:1021D00081E090E0203411F490E080E091958195C9
:1021E00091090CC0CF3FDC0791F20E94121E8E199C
:1021F0009F098C179D0758F28EEF9FEFDF91CF91CB
:102200001F910F91FF90EF900895CF3FDC07A9F247
:102210000E94121E801B910B8C179D0770F2ECCF51
:102220008FEF9FEFEBCF0F931F93CF93DF93EB01D4
:102230008093BB0084E88093BC000E94121E8C0136
:102240008091BC0087FF11C02091B900287F81E0F8
:1022500090E0283211F490E080E091958195910909
:10226000DF91CF911F910F910895CF3FDC0741F38C
:102270000E94121E801B910B8C179D0708F38EEF96
:102280009FEFEECFCF92DF92EF92FF920F931F93CB
:10229000CF93DF936B018A017901B9010E94B710D6
:1022A000E6010C0D1D1DC017D10761F424E9209330
:1022B000BC00DF91CF911F910F91FF90EF90DF90C5
:1022C000CF90089597FDF2CFB70189910E94131125
:1022D000EACFCF92DF92EF92FF920F931F93CF93AB
:1022E000DF93C62F6A017901B8010E94B71097FDEC
:1022F0000CC0B8018C2F0E941311E601EC0CFD1CE0
:10230000CE15DF0511F097FF0CC024E92093BC0027
:10231000DF91CF911F910F91FF90EF90DF90CF90C1
:102320000895B80189910E941311EACF84E980933E
:10233000BC0008958EE14A9B02C08150E1F74A9BA0
:10234000FECF08955A9880E28A95F1F75A9A089537
:10235000FC013BE03A95F1F798E020E080E031E0C5
:1023600040E14A95F1F7880F4A9B02C0816023271C
:1023700042E04A95F1F7000040E14A95F1F79150AB
:1023800079F790E19A95F1F799B132E03A95F1F742
:10239000000040E14A95F1F792FB992790F99227C6
:1023A0002081920F90830895EF92FF920F931F93D5
:1023B000CF93DF930F92CDB7DEB719828C017C01EA
:1023C000E60EF11C0E151F0561F481E09981911153
:1023D00080E00F90DF91CF911F910F91FF90EF90D0
:1023E00008950E949A11CE0101960E94A811F80149
:1023F00081938F01E7CF9093DC018093DB01529AA8
:102400005A9A08959093DC018093DB0152985A9A6E
:10241000EA9AE9E6F0E080818F7C8083089561503C
:10242000770B91E001C0990F6A95EAF720E031E05F
:10243000911108C0222391F05A9A80E28A95F1F70F
:102440005A980895492F482339F05A9A232740E291
:102450004A95F1F79695ECCF5A98F9CF5A98EDCF67
:10246000FF920F931F93CF93DF93EC018C01060F24
:10247000111DC017D10731F4DF91CF911F910F913A
:10248000FF900895F9900E94A21168E08F2D0E949C
:102490000F12EFCF1F920F920FB60F9211242F93AE
:1024A0003F934F935F936F937F938F939F93AF93DC
:1024B000BF93CF93DF93EF93FF935A98529AC091B3
:1024C000DB01D091DC016D81662321F08E819F813B
:1024D0000E9430120E94A21180E18A95F1F75A9869
:1024E00052985A9A80E18A95F1F76A81662309F138
:1024F0008B819C810E94D411E881F981882311F09D
:1025000088E001C082E080830E949A11FF91EF91E0
:10251000DF91CF91BF91AF919F918F917F916F91FB
:102520005F914F913F912F910F900FBE0F901F9091
:102530001895E881F981E4CFCF93DF93C091DB0157
:10254000D091DC01F894529A5A9885E08A95F1F777
:10255000000052985A9A80E28A95F1F74A9B0CC083
:10256000529A5A9AE881F98181E08083789481E0D7
:1025700090E0DF91CF9108956D81662381F08E8187
:102580009F810E94D41181110AC0529A5A9AE881FF
:10259000F98182E08083789482E090E0EACF0E9423
:1025A0009A1180E28A95F1F75A98529A80E18A95B9
:1025B000F1F76A81662321F08B819C810E943012A1
:1025C0000E94A211E881F9811082789490E080E065
:1025D000D0CF9093E2018093E1010895E091E10171
:1025E000F091E201309721F00190F081E02D099403
:1025F00080E00895E091E101F091E201309721F04F
:102600000280F381E02D09940895E091E101F091B9
:10261000E201309739F022E0DC012C930480F5814F
:10262000E02D099408952091DF013091E0012817F1
:10263000390771F09093E0018093DF01E091E101AF
:10264000F091E201309721F00680F781E02D0994A6
:1026500008952091DD013091DE012817390771F0CE
:102660009093DE018093DD01E091E101F091E201C0
:10267000309721F00084F185E02D0994089585B705
:10268000806885BF85B7806885BF089508950895DF
:102690000C94461308950C944A130E943F130E9411
:1026A00047130C9448130C94FF0A089508950E9450
:1026B000091E0E94E60980E00E94A70B0E946E1E80
:1026C0000C944B13AF92BF92CF92DF92EF92FF9296
:1026D0000F931F93CF93DF93CDB7DEB72A970FB633
:1026E000F894DEBF0FBECDBF0E9455130E94561353
:1026F0000E94500AB82E0E945313882309F465C023
:1027000084EEC82E81E0D82E10E000E0A02E802FAD
:102710000E94C309E82EF601F1906F01F81609F442
:102720004EC08091580281FD0E94C9099F2D9E25AF
:1027300080E0FF24F394292F2F21E1F18E83AF82D3
:10274000EF2081E009F480E088870E94121E8160FA
:10275000782F9A8789874E815F8168858A850E9454
:102760000714F801EC51FE4F8081F826F0820E9498
:102770007A0EB1100E94430D0E9419200E94EE12A1
:102780009091E301891791F10E94EE128093E30189
:102790002A960FB6F894DEBF0FBECDBFDF91CF9162
:1027A0001F910F91FF90EF90DF90CF90BF90AF906F
:1027B0000C94F1078F5FFF0C863009F0BCCF0F5FE0
:1027C0001F4F0830110509F0A1CF8FEF89838A834D
:1027D0001B820E94121E8160782F9D838C83498109
:1027E0005A816B818D810E940714C1CF2A960FB642
:1027F000F894DEBF0FBECDBFDF91CF911F910F9137
:10280000FF90EF90DF90CF90BF90AF900895CF935F
:10281000DF93CDB7DEB72B970FB6F894DEBF0FBEB0
:10282000CDBF4F83588769877A878B871E821D8229
:1028300085E0FE013796DE01119601900D928A9592
:10284000E1F749815A816B817C818D819E812B9634
:102850000FB6F894DEBF0FBECDBFDF91CF910C94C1
:102860005A19FC01808191810C949B1BCF93C82F36
:10287000882369F18CEF8C0F813AA0F46C2F809142
:102880001001909111010E944D1D882329F08C2F79
:102890000E94D01B0E942D1C8C2F0E94C91BCF911F
:1028A0000C942D1C80E28C0F883048F4C77081E0B6
:1028B00001C0880FCA95EAF70E94F11BF0CFC03F14
:1028C00030F08C2F0E94131FCF910C94FE1FCF91DC
:1028D0000895882361F19CEF980F913A20F40E94AB
:1028E000D01B0C942D1C90E2980F983050F48770F8
:1028F00091E001C0990F8A95EAF7892F0E94F71B92
:10290000F0CF9BE5980F933020F490E080E00C949A
:10291000131398E5980F973120F490E080E00C9421
:102920002913803F20F00E947B1F0C94FE1F089506
:10293000CF93C82F0E943614C93349F42FEF87EE86
:1029400093E0215080409040E1F700C000008C2FC0
:10295000CF910C946914882321F00E94F11B0C94F0
:102960002D1C0895882321F00E94F71B0C942D1C28
:102970000895BF92CF92DF92EF92FF920F931F9331
:10298000CF93DF936C01D62FC72FFC0105810295F1
:102990000F70128111110E940E1C0E94E71BE82E7D
:1029A000882391F01123E9F08C2F807F803421F06F
:1029B00080E28D0F8830A8F082E00E94781C0E948F
:1029C000E71B91E0E82EE926BC2EB2949FE0B922E5
:1029D000FBE0FB15A8F1EB2DF0E0E75EF44D0C9465
:1029E000D427E12CF1CF0C2F0F70C07F11F002958E
:1029F000007F1123A9F0002359F080E28D0F883069
:102A000010F0D11109C0802F0E94F11B0E942D1CD3
:102A10008D2F0E94361414C0802F0E94011CF6CF07
:102A20008D2F0E946914002359F080E28D0F8830A9
:102A300010F0D1112CC0802F0E94F71B0E942D1C7A
:102A40002B2D2850330B2430310520F40E94EE1238
:102A50000E94F107EE2009F472C10E94E31B80FD81
:102A60006EC1F60112820E94DD1B0E94661AC60129
:102A70000E94C0160E94DD1BDF91CF911F910F9124
:102A8000FF90EF90DF90CF90BF900C94871A802F2B
:102A90000E94071CD3CF2C2F2F70F22EC07FC03284
:102AA00019F0F29480EFF822DD2369F0D13049F17A
:102AB000112391F1002351F1F601858180FFA8CF08
:102AC0008F70858323C0112381F0011106C00E94FD
:102AD000141C8F290E94AB14B3CF0130C1F70E94A0
:102AE000141C8F290E941A1CABCF011106C00E9432
:102AF000231C8F2D0E94B214A3CF013009F4A0CF64
:102B0000F6CF112329F0063008F09ACF8F2DE2CFAF
:102B1000053008F095CFEDCF002359F3D93349F4B0
:102B2000FFEF27EE33E0F15020403040E1F700C0E6
:102B300000008D2F0E94691483CF8D2F112329F05F
:102B40000E94131F0E94FE1F7BCF0E947B1FFACFA3
:102B50008C2F837009F041C0111172CF4D2F429517
:102B600046954770440F440F0D2F0F7010E030E072
:102B700020E0042E04C0000F111F221F331F0A94EF
:102B8000D2F760E070E0CB01D4FF0FC06FE070E0DF
:102B900080E090E004C0660F771F881F991F4A9558
:102BA000D2F76095709580959095C695C695C3703F
:102BB000602B712B822B932BC23049F058F4C1301B
:102BC00019F00E94181A3CCF0E94061A39CF0E94B1
:102BD0002A1A36CF0E94041A33CF8695112311F09A
:102BE0008C2F8170882309F42BCF4D2F4295469569
:102BF0004770440F440F0D2F0F7010E030E020E0BD
:102C0000042E04C0000F111F221F331F0A94D2F795
:102C100060E070E0CB01D4FF0FC06FE070E080E0B7
:102C200090E004C0660F771F881F991F4A95D2F75E
:102C30006095709580959095C695C695C370602BEC
:102C4000712B822B932BC23049F058F4C13019F00C
:102C50000E94DD1AF5CE0E94CB1AF2CE0E94EF1A26
:102C6000EFCE0E94401AECCECF70112329F08C2FAA
:102C70000E94661A8D2F2ECF8D2F0E94B2148C2F9A
:102C80000E94871ADDCED23F89F160F4D03FC9F0AF
:102C9000D13F29F1112309F442C00111B9CE8C2F83
:102CA0008F7121C0D33F39F1D43FA1F7112369F1CE
:102CB000CF718C2F0E94661A63E08C2F0E94631CD8
:102CC000BFCE112341F0053008F0BACE8C2F8F71A2
:102CD0000E94AA1AB5CE063008F0B2CEF7CF8C2FDC
:102CE0008F71112369F20E94661AAACE8C2F8F7100
:102CF0001123C9F3C5CF112329F08C2F8F710E94A6
:102D0000511A9ECE0E944C1A9BCE81E00E94781CE4
:102D1000023008F495CE82E00E94781C91CE002308
:102D200059F0D93309F005CF8FEF97EEE3E08150EA
:102D30009040E040E1F7FBCE8C2F8F71A1CFDF9167
:102D4000CF911F910F91FF90EF90DF90CF90BF90A8
:102D500008950F931F93CF93DF93EC0168817981DE
:102D60008A810E94A51B8C010E94011B0E94031AEC
:102D7000B801CE01DF91CF911F910F910C94B9143E
:102D8000CF93DF93EC018B819C81892B29F0888183
:102D9000998189238F3F59F4DF91CF910895CE0116
:102DA0000E94A916CE01DF91CF910C948907CE0124
:102DB0000E94AE078111F3CF0E94E71B882361F3C5
:102DC0008A81882349F382E0DF91CF910C94781CAB
:102DD0000E940E1C0E94111C0E942D1C0E94252185
:102DE0000C94FE1F0E94D71B0C94E8160E94FE1B39
:102DF0000C94F216E92FE295EF70E250EE3070F489
:102E0000F0E0EB5DF44D0C94D427803F19F020F4F2
:102E1000883E20F481E00895843FE1F380E0089546
:102E2000883EC0F3813FD1F7F5CF93FB882780F927
:102E300008950E949B1B0C94FA16CF93DF9300D049
:102E400000D00F92CDB7DEB70F900F900F900F907C
:102E50000F90DF91CF910895CF93DF9300D000D0F2
:102E600000D0CDB7DEB726960FB6F894DEBF0FBE02
:102E7000CDBFDF91CF9108951F93CF93DF93C09182
:102E8000ED0116E08091EE018C1304C0DF91CF912B
:102E90001F910895D0E01C9FF0011D9FF00D11249B
:102EA000E151FE4F4081518162817381848195811E
:102EB0000E942C172196C770E5CF40911F025091B8
:102EC0002002609121027091220280912302909150
:102ED00024020C942C171F93CF93DF93809124022C
:102EE000807FA9F480912102882389F08091ED01EF
:102EF000C091EE0160911F0270912002A091220208
:102F0000B0912302D62FD72316E0C81304C0DF9157
:102F1000CF911F91089590E0109711F0DF3F19F4C1
:102F200001968770F2CF189F9001199F300D1124E0
:102F3000F901E151FE4F41814713F2CF4081461321
:102F4000EFCF42814111ECCF438154814A1B5B0B8F
:102F50004436510528F7809124028F708061809358
:102F60002402F901EC50FE4F80818F7080618083D4
:102F70008FE192E00E94C016DF91CF911F910C94D7
:102F80003C17AF92BF92CF92DF92EF92FF920F93D6
:102F90001F93CF93DF93CDB7DEB761970FB6F89449
:102FA000DEBF0FBECDBF8C0185E0F801DE011D96AE
:102FB00001900D928A95E1F7F80140815181E280FC
:102FC0008FE1C82E82E0D82E6091220270912302F8
:102FD0006115710509F44FC190911F0220912002E3
:102FE000892F82238F3F09F446C1A380B480F090DB
:102FF0002102F501E61BF70BFF2009F40AC18091BD
:103000002402382F307FE436F10508F0C0C03111BA
:1030100079C0FE2C251323C0941321C0E1101FC0DA
:103020008F708061809324020E945D17C6010E9408
:10303000C01680912402F80185838F2D61960FB60A
:10304000F894DEBF0FBECDBFDF91CF911F910F91DE
:10305000FF90EF90DF90CF90BF90AF900895AB2896
:1030600029F0842F85238F3F09F021C180E0F82FBC
:10307000F170DF2E80FF3CC08091ED012091EE01C8
:1030800036E0821315C04D875E878D859E850E9430
:103090009B1B292F22952F702230F0F0243018F539
:1030A0009F70F1F0F8019581907FD1F4D12C1EC072
:1030B00090E0389FF001399FF00D1124E151FE4F4F
:1030C0006181651306C06081641303C062816E1163
:1030D0000FC001968770D5CF9F7011F0882331F310
:1030E000805E883018F3C8010E94C016FD2CA5CF61
:1030F000EE2009F4A2CF8091240281608093240203
:10310000F12C9BCF251314C0941312C0E11010C0F2
:10311000F8018583C8010E94C01686E0F801AFE17E
:10312000B2E001900D928A95E1F70E945D1785CF7C
:103130004D875E878D859E850E941917882319F11A
:10314000EE2009F180912402803270F020911F025C
:103150003091200238872F831986BB86AA868C87F8
:10316000CE0107960E94C01686E0F801AFE1B2E0FA
:1031700001900D928A95E1F70E946B170E945D17EE
:10318000FF24F3945ACFC8010E94C016F9CF311121
:1031900013C07A2DB98AA88A6E2D89890E941D17BD
:1031A0008FE192E00E94C01686E0F60111928A95A6
:1031B000E9F70E945D17A4CF25130FC094130DC02B
:1031C000E1100BC0F8018583C8010E94C01686E09B
:1031D000F60111928A95E9F730CF4D875E878D858C
:1031E0009E850E941917882371F2EE2061F280916A
:1031F0002402803208F4B8CF20911F0230912002BF
:103200003A8329831B82BD82AC828E83CE010196D4
:10321000A9CFE436F10510F5FE2CEE2009F4B3CF6A
:1032200025130BC0941309C086E0F801AFE1B2E0AA
:1032300001900D928A95E1F700CF4D875E878D85CD
:103240009E850E94191781118FCF80912402816081
:1032500080932402C8010E94C016EFCE7A2DB98A4D
:10326000A88A6E2D89890E941D1786E0F6011192A9
:103270008A95E9F75ACFEE2009F485CF4D875E870E
:103280008D859E850E941917F82E882309F47BCF1F
:1032900086E0F801AFE1B2E001900D928A95E1F786
:1032A0008FE192E00E9431140E946B173ECF81E0C3
:1032B0008E25DDCE1F93CF93DF93CDB7DEB72C974E
:1032C0000FB6F894DEBF0FBECDBF4F835887698716
:1032D0007A878B879C87CE0107960E94C117882327
:1032E00069F08A859B85892B39F04F815885842F19
:1032F00085238F3F09F071C016E05FC086E0FE01B4
:103300003796DE01119601900D928A95E1F78A8534
:103310009B85892B89F38F81988589238F3F61F362
:103320002091EE0130E0C901019687709927409104
:10333000ED014817190671F40E94F6161092EE017D
:103340001092ED0186E0EFE1F2E0DF011D928A9537
:10335000E9F7D2CF96E0929FD001939FB00D112450
:10336000A151BE4FFE01319601900D929A95E1F761
:103370008093EE010E943C17BFCF819FC0011124B2
:1033800081519E4F0E94C1178823E9F0E091ED0121
:103390001E9FF0011124E151FE4F40815181628155
:1033A0007381848195810E942C178091ED0190E0BA
:1033B0000196877099278093ED018091ED0190919E
:1033C000EE018913DACF2C960FB6F894DEBF0FBE4C
:1033D000CDBFDF91CF911F91089569857A858B8547
:1033E0009C850E942C1788CF08950C94F4190E9494
:1033F000F5196093470270934802809349029093B5
:103400004A020C94E81608950C94F7190F931F9331
:1034100000914702109148022091490230914A02DE
:10342000602B712B822B932B1F910F910C94F7190A
:103430000F931F9300914702109148022091490277
:1034400030914A0260237123822393231F910F91AD
:103450000C94F7190F931F930091470210914802A3
:103460002091490230914A026027712782279327D1
:103470001F910F910C94F7190C94F4190C943C1AA9
:103480000E943E1A60934302709344028093450267
:10349000909346020C94E81660E070E0CB010C9427
:1034A000401A0F931F9341E050E060E070E08A0102
:1034B0009B0104C0000F111F221F331F8A95D2F7F2
:1034C000C901B8011F910F910C94401A0F931F93DB
:1034D00041E050E060E070E004C0440F551F661FFB
:1034E000771F8A95D2F78091430290914402A09170
:1034F0004502B09146028A019B01082B192B2A2B09
:103500003B2BC901B8011F910F910C94401A0F93E6
:103510001F9341E050E060E070E004C0440F551F8D
:10352000661F771F8A95D2F7CB01BA016095709517
:10353000809590950091430210914402209145029C
:103540003091460260237123822393231F910F91B0
:103550000C94401A0F931F9341E050E060E070E03C
:1035600004C0440F551F661F771F8A95D2F78091BC
:10357000430290914402A0914502B09146028A0113
:103580009B01082719272A273B27C901B8011F914A
:103590000F910C94401A0F931F93009143021091C6
:1035A00044022091450230914602602B712B822B00
:1035B000932B1F910F910C94401A0F931F9300911E
:1035C000430210914402209145023091460260234B
:1035D0007123822393231F910F910C94401A0F9310
:1035E0001F930091430210914402209145023091B3
:1035F000460260277127822793271F910F910C9411
:10360000401A0895E92FEE0FE90FEE0F8E0F982F55
:10361000977041E001C0440F9A95EAF78695869528
:10362000869595E0899FF0011124EB5DFD4F30E018
:1036300020E070E05191DF011197CB01022E02C012
:10364000969587950A94E2F7817081958527842362
:1036500085278C932F5F3F4F2530310559F708950B
:10366000E92FEE0FE90FEE0F8E0F982F97708695CA
:103670008695869525E0829FF0011124EB5DFD4F34
:1036800050E040E080E0219130E0092E02C0369504
:1036900027950A94E2F721703327042E01C0220FE8
:1036A0000A94EAF7822B4F5F5F4F4530510559F777
:1036B0000895BF92CF92DF92EF92FF920F931F93E4
:1036C000CF93DF938C01C0904302D0904402E090EE
:1036D0004502F09046028091470290914802A091E5
:1036E0004902B0914A02C82AD92AEA2AFB2ACFE124
:1036F000D0E0BC2ED701C6010C2E04C0B695A7950C
:10370000979587950A94D2F780FD0EC0219788F788
:10371000B12C8B2DDF91CF911F910F91FF90EF90E6
:10372000DF90CF90BF900895B8018C2F0E940D08B4
:10373000019761F3EECFCF93DF93EC010E94591B09
:10374000BE01DF91CF910C940D081F93CF93DF93AF
:10375000EB019091EC01992331F0CB01DF91CF91F6
:103760001F910C949B1B882379F0CB010E94591B5D
:10377000182F682FCE010E94021BBE01812FDF91FE
:10378000CF911F910C940D08CB010E94301B182F74
:10379000F4CF682F80911001909111010C94831D3A
:1037A000682F80911001909111010C94851D8091DA
:1037B0001001909111010C94871D80914B02859509
:1037C00085958595089580914B0287700895909115
:1037D0004B02977081E009F480E0089580915702D0
:1037E000089590915702892B8093570208958095F0
:1037F0009091570298239093570208951092570280
:10380000089590915602892B8093560208958095D1
:103810009091560298239093560208951092560262
:10382000089510925502089580914C0208950895CC
:103830000C94171C90914C02981721F080934C0225
:103840000C94181C089580914C02882329F0109242
:103850004C0280E00C94181C0895E0911001F09146
:103860001101809157028083E0911001F0911101C4
:10387000808190915602892B8083E0911001F09114
:103880001101808190915502892B808390914C0287
:10389000992381F0E0911001F09111018081892B31
:1038A000808380911001909111010E943B1D811134
:1038B0000E94231C80911001909111010C94FA1226
:1038C00008950C94601C98E0899F90011124622B4C
:1038D00060934B020E94661A80914B0285958595F4
:1038E00085950C94611C10924B0280E00C94611C35
:1038F00090914B028095892380934B02282F27704B
:1039000071F4282F082E000C330B9217130639F090
:103910008595859585950E94871A0C94731C08954A
:1039200090E080E00E94972A21E08C3E9E4F09F0B3
:1039300020E0822F089582E090E00C948F2A83E0AB
:1039400090E00C948F2ACF9384E090E00E948F2A1D
:10395000C82F81E290E00E948F2A982F8C2FCF9160
:103960000895CF93C92F682F84E090E00E949D2A8C
:103970006C2F81E290E0CF910C949D2AAB01BC01A9
:103980008FE090E00C94AF2AAB01BC0183E190E0A2
:103990000C94AF2A60E070E0CB010C94C41C60E092
:1039A00070E0CB010E94BE1C0C94CA1C6CEE7EEF32
:1039B00090E080E00E94BB2A60E082E090E00E94FC
:1039C0009D2A60E083E090E00E949D2A10924702C9
:1039D000109248021092490210924A0260E084E07C
:1039E00090E00E949D2A60E081E290E00E949D2A82
:1039F00060E085E090E00E949D2A60E086E090E033
:103A00000E949D2A6FEF87E090E00E949D2A40E08F
:103A100050E0BA0188E090E00E94AF2A60E08DE0BB
:103A200090E00E949D2A40E050E0BA0188E190E0D9
:103A30000E94AF2A60E087E190E00E949D2A40E06A
:103A400050E0BA018CE190E00E94AF2A60E080E291
:103A500090E00E949D2A40E050E0BA0188E190E0A9
:103A60000E94AF2A0C94CF1C0C94D61C682F8EE0B9
:103A700090E00C949D2A9C012E5F3F4FAC01485F63
:103A80005F4F80E02417350709F40895F9019191FB
:103A90009F019923B9F38F5FF5CF662349F0FC01AD
:103AA000329608962191261729F0E817F907D1F7E1
:103AB00080E0089581E008959C01FC0132969FEF1B
:103AC00080E04191461751F09F3F19F4411101C028
:103AD000982F8F5F8630A9F79F3F09F40895290F2B
:103AE000311D97FD3A95F90162830895FC013296E4
:103AF00008962191261303C0DF0111971C92E81745
:103B0000F907B9F708950C945C1D0C94761D029684
:103B100026E0FC0111922A95E9F708950895089589
:103B20000C948F1D0E94901D80919304843049F164
:103B30001092590288E190E020E40FB6F894A8951D
:103B4000809360000FBE2093600080E00E94F10728
:103B50000E94901D83B7817F846083BF83B781609B
:103B600083BF7894889583B78E7F83BF0FB6F89410
:103B7000A895809160008861809360001092600039
:103B80000FBE08950895CF930E948E1D0E94500A83
:103B90000E94C21DC0E08C2F0E94C309811105C084
:103BA000CF5FC830C1F7CF91089581E0FCCF089571
:103BB0000C94D71D0E94F6160E94EE120E94F10787
:103BC0000C94D81D1F921FB61F9211248F939F93A0
:103BD000AF93BF9380915902811113C080918904E2
:103BE00090918A04A0918B04B0918C044196A11D00
:103BF000B11D8093890490938A04A0938B04B093A1
:103C00008C04BF91AF919F918F911F901FBE1F9009
:103C1000189582E084BD93E095BD9AEF97BD80939F
:103C20006E0008952FB7F8948091890490918A04CA
:103C3000A0918B04B0918C042FBF08952FB7F894F6
:103C40006091890470918A0480918B0490918C0416
:103C50002FBF08959C014FB7F894809189049091EB
:103C60008A04A0918B04B0918C044FBF821B930BEC
:103C7000089578941F921FB61F9211248F939F93DB
:103C8000AF93BF938091890490918A04A0918B0493
:103C9000B0918C040196A11DB11D8093890490936D
:103CA0008A04A0938B04B0938C04BF91AF919F9131
:103CB0008F911F901FBE1F90189587E797E79093ED
:103CC00001088093000888E19AE00FB6F894A8955F
:103CD000809360000FBE90936000FFCF0E94901C05
:103CE000811102C00E94341D0E949B1C80935802C7
:103CF0000E94A31C90938E0480938D040E949F1CAD
:103D0000682F70E090E080E00E94041A6091430206
:103D10007091440280914502909146020C943E1AA3
:103D20008091600280FF12C06091170185E0689F5A
:103D3000B001112475956795759567956038710583
:103D4000A8F561157105A1F1862F089581FF09C0BD
:103D50006091170185E0689FB00111247595679502
:103D6000EDCF6091170182FD0AC080915F02882328
:103D7000D1F09091160160911701891728F085E024
:103D8000689FB0011124DACF869FB001112485E02D
:103D9000869F9001879F300D1124692F70E0C90123
:103DA0000E94C027CBCF65E070E0CECF8FE70895AB
:103DB00081E008958091600280FF0CC06091130142
:103DC00070E075956795759567956115710549F171
:103DD000862F089581FF06C06091130170E07595EC
:103DE0006795F3CF6091130182FD0BC090915E0245
:103DF0009923A1F06091120180911301961738F078
:103E0000682F70E06038710500F38FE70895899F8F
:103E1000C001112470E00E94C027F4CF61E070E07F
:103E2000D7CF81E00895803F31F40E94901E8195A4
:103E3000809364020895813F19F40E94901EF8CF88
:103E4000823F31F40E94901E819580936302089511
:103E5000833F19F40E94901EF8CF893F29F40E94F5
:103E6000DA1E8093650208958A3F21F40E94DA1ECB
:103E70008195F7CF8B3F31F40E94DA1E81958093B4
:103E8000660208958C3F19F40E94DA1EF8CF843F31
:103E900031F4809162028160809362020895853FCF
:103EA00021F4809162028260F7CF863F21F48091F5
:103EB00062028460F1CF873F21F4809162028860C2
:103EC000EBCF883F21F4809162028061E5CF8D3F86
:103ED00031F48091600281608093600208958E3F8A
:103EE00021F4809160028260F7CF8F3FB9F7809113
:103EF00060028460F1CF90916302803F59F4809119
:103F0000640287FF0DC01092640291110BC01092E1
:103F10005F0208C0813F81F48091640218169CF30F
:103F2000992381F08091650290916602892B09F0B6
:103F300064C010925E020895823F49F497FFF0CF6B
:103F400010926302809164028111ECCFE0CF833F35
:103F500019F41916ACF3E4CF20916502893F29F4D6
:103F60001216F4F610926502DBCF8A3F19F427FF90
:103F7000D7CFF8CF209166028B3F29F427FFD0CF0F
:103F800010926602CDCF8C3F19F41216CCF3C8CF35
:103F9000843F31F4809162028E7F80936202C0CFB1
:103FA000853F21F4809162028D7FF7CF863F21F417
:103FB000809162028B7FF1CF873F21F48091620272
:103FC000877FEBCF883F21F4809162028F7EE5CF1F
:103FD0008D3F31F4809160028E7F80936002A0CF8C
:103FE0008E3F21F4809160028D7FF7CF8F3F09F0E3
:103FF00097CF809160028B7FF0CF08950E94121EB0
:104000009C019091630280916402982B21F030937F
:104010005D0220935C029091650280916602982B6C
:1040200021F030935B0220935A0281E692E00C94D7
:104030000513EF92FF920F931F93CF93DF9300D05E
:1040400000D000D0CDB7DEB786E0E1E6F2E0DE01D9
:10405000119601900D928A95E1F7E0906302F0903D
:104060006402009165021091660210926302109240
:10407000640210926502109266028E2D8F2991F0D3
:1040800080915C0290915D020E942A1EAC01909189
:104090005F02992309F43FC0809118018417150627
:1040A00008F447C0802F812B91F080915A029091A3
:1040B0005B020E942A1EAC0190915E02992309F4D2
:1040C00077C0809114018417150608F47FC0809191
:1040D000630290916402892B90916502892B9091E3
:1040E0006602892B11F00E94FE1F86E0FE013196C8
:1040F000A1E6B2E001900D928A95E1F726960FB6FF
:10410000F894DEBF0FBECDBFDF91CF911F910F910D
:10411000FF90EF900895209119018AE0289F900167
:1041200011242417350708F0BDCF9F5F90935F02DD
:1041300002C09F3FD1F7EE2059F00E94901E9FEFE2
:104140001E140CF491E0899F802D1124809363024A
:10415000FF2059F00E94901E9FEF1F140CF491E075
:10416000899F802D11248093640230916302332350
:1041700009F498CF20916402222309F493CF45EBF0
:104180003403C0011124992359F09093630245EB45
:10419000240390011124332339F03093640282CF39
:1041A00081E080936302F3CF81E0809364027ACF51
:1041B000209115018AE0289F9001112424173507CA
:1041C00008F085CF9F5F90935E0202C09F3FD1F7BA
:1041D000002359F00E94DA1E9FEF10160CF491E0B4
:1041E000899F802D112480936502112359F00E942C
:1041F000DA1E9FEF11160CF491E0899F802D112497
:104200008093660230916502332309F460CF2091D8
:104210006602222309F45BCF45EB3403C00111246D
:10422000992359F09093650245EB240390011124E2
:10423000332339F0309366024ACF81E080936502E0
:10424000F3CF81E08093660242CF86E0E1E6F2E0C0
:10425000DF011D928A95E9F710925F0210925E02CB
:1042600010926002089580916F02089508959C0154
:1042700082E08093E9009FEF8091E800915085FDF6
:1042800006C085ED8A95F1F700009111F5CF809178
:10429000E80085FF0CC050E040E066E070E0C90136
:1042A0000E940F238091E8008E778093E8000895A4
:1042B000CF93DF93EC0181E08093E9008FEF909141
:1042C000E800815095FD06C095ED9A95F1F7000044
:1042D0008111F5CF8091E80085FF14C050E040E0E7
:1042E00068E070E0CE010E940F238091E8008E7795
:1042F0008093E80088E0FE01A7E6B2E001900D920D
:104300008A95E1F7DF91CF91089508958091920405
:10431000811109C00E949F240E94FC248091E20028
:1043200084608093E20008951092920408950895A5
:1043300008950C94DA1D42E061EC81E00E941B2498
:1043400042E261EC82E00C941B248091950483305E
:1043500009F45FC030F48130C1F1823009F49BC0B0
:1043600008958A3009F487C08B3009F46DC0893014
:1043700009F04EC080919404813209F049C08091C7
:10438000980490919904029708F042C08091E80047
:10439000877F8093E8008091E80082FF35C090918C
:1043A000F3008091F200029729F48091F1008B7F55
:1043B000813021F48091F10080936F028091E800B8
:1043C0008B778093E8000C944F2480919404813A79
:1043D000F9F48091E800877F8093E8008091980449
:1043E00090919904892B61F468E087E692E070E08F
:1043F0000E945E238091E8008B778093E800089507
:1044000060E090E080E0F3CF809193048111C3CF0E
:10441000089580919404813AD9F7809198049091FD
:104420009904892BA9F78091E800877F8093E800A1
:104430008091E80080FFFCCF809124018093F100FF
:104440008091E8008E77BDCF80919404813201F78E
:104450008091980490919904892BD1F68091E8007D
:10446000877F8093E8000E944F2480919604809378
:1044700024010C94F61680919404813249F68091BF
:10448000E800877F8093E8000E944F248091970482
:1044900080937002089580919404813A09F0B8CF16
:1044A0008091E800877F8093E8008091E80080FF9A
:1044B000FCCF80917002C2CF84B7877F84BF0FB6D4
:1044C000F894A895809160008861809360001092B4
:1044D00060000FBE80E890E00FB6F8948093610012
:1044E000909361000FBE0E944D130E949F240E9472
:1044F000FC248091E20084608093E20078940E9422
:1045000085270E9457138AE191E00E94E912809169
:104510009304853039F00E9462130E9455130E9463
:104520005613F5CF0E94921D80919104882379F350
:104530000E94C31D882359F30E94F922E8CF0C94EE
:10454000A122292F33272330310519F168F42130B6
:10455000310509F444C02230310509F445C090E02A
:1045600080E030E020E025C02132310549F12232DF
:104570003105A9F780E490E02FEA3CE06115710570
:10458000C1F08FE490E020E63CE06130710589F0F5
:10459000E6CF99278130910581F0009729F00297A5
:1045A000F1F6E3EBFBE002C0EFE0FCE0849190E089
:1045B0009F01FA01318320830895EDEFFBE0F6CFF0
:1045C00089E090E025E23CE06115710591F389E016
:1045D00090E02EE33CE06130710559F3C0CF82E1F9
:1045E00090E02EE43CE0E5CF8BE390E023E13CE07B
:1045F000E0CF80E189BD82E189BD09B400FEFDCF35
:104600008091D8008F7D8093D8008091E0008260F7
:104610008093E0008091E00081FDFCCF0895AF928F
:10462000BF92CF92DF92FF920F931F93CF93DF93AE
:104630006C01EB018A010E946E24F82E811123C0C7
:104640000115110539F0F80180819181C81BD90B42
:10465000C80ED91EB12CA12C2097A9F08091E8009A
:1046600085FD22C08091E8008E778093E8000115D7
:104670001105A1F0F80180819181A80EB91EB182C7
:10468000A08285E0F82E8F2DDF91CF911F910F91A1
:10469000FF90DF90CF90BF90AF9008950E946E245E
:1046A0008823D1F2F82EEFCFF60181916F0180932C
:1046B000F1002197FFEFAF1ABF0ACECFFC01809126
:1046C0009A0490919B0486179707A0F061157105D5
:1046D00029F49091E8009E779093E80090E06115AE
:1046E000710551F4911108C08091E80082FF34C037
:1046F00080E00895BC01F2CF809193048823C1F13A
:104700008530C1F18091E80083FD30C08091E800E0
:1047100082FDEACF8091E80080FFE1CF8091F30035
:104720002091F200382F6115710519F028303105FC
:1047300058F091E02830310509F090E02091E80030
:104740002E772093E800CBCF81918093F1006150C8
:1047500071092F5F3F4FE7CF80919304882341F089
:10476000853041F08091E80083FFBECF81E008955D
:1047700082E0089583E00895FC0180919A0490916D
:104780009B0486179707A0F06115710529F48091A5
:10479000E8008E778093E80090E06115710551F490
:1047A000911108C08091E80082FF35C080E0089533
:1047B000BC01F2CF809193048823C9F18530C9F1FF
:1047C0008091E80083FD31C08091E80082FDEACF4E
:1047D0008091E80080FFE1CF8091F3002091F2000A
:1047E000382F6115710519F02830310558F091E026
:1047F0002830310509F090E08091E8008E778093B1
:10480000E800CBCF84918093F1003196615071091B
:104810002F5F3F4FE6CF80919304882341F085308E
:1048200041F08091E80083FFBDCF81E0089582E0F0
:10483000089583E00895982F973028F08F70809323
:10484000E90081E008959093E900242F762F50E04D
:10485000981731F07091EC002091ED005091F0002C
:1048600021FD02C09F5FE8CF3091EB003E7F309387
:10487000EB003091ED003D7F3093ED003091EB0087
:1048800031603093EB007093EC002093ED00509377
:10489000F0002091EE0027FDE5CF80E008958091A3
:1048A000940487FF13C08091E80082FF06C08091C6
:1048B000E8008B778093E80004C080919304811115
:1048C000F2CF0895809193048823D9F38091E80072
:1048D00080FFF8CF8091E8008E77ECCF2091E40044
:1048E0003091E50095E6A9012091EC00822F8170BE
:1048F00020FF06C08091E80080FF06C080E0089598
:104900002091E80022FD1AC080919304882389F049
:10491000853089F08091EB0085FD0FC02091E40087
:104920003091E50042175307F9F29150E1F684E027
:10493000089582E0089583E0089581E008950E943B
:104940000D250E941525E0EEF0E0808181608083D6
:10495000E8EDF0E080818F77808319BCA7EDB0E0AF
:104960008C918E7F8C9380818F7E808310929204B5
:1049700008950F931F93CF93DF930E940D250E94FC
:104980001525C8EDD0E088818F778883888180687D
:10499000888388818F7D888319BC1092930410923C
:1049A0008F04109291041092900400EE10E0F80130
:1049B00080818B7F808388818160888342E060E092
:1049C00080E00E941B24E1EEF0E080818E7F8083F6
:1049D000E2EEF0E080818160808380818860808366
:1049E000F80180818E7F8083888180618883DF9158
:1049F000CF911F910F910895E8EDF0E080818F7EB7
:104A00008083E7EDF0E080818160808384E082BF75
:104A100081E0809392040C94B924E8EDF0E0808169
:104A20008E7F80831092E20008951092DA00109237
:104A3000E10008951F920F920FB60F9211242F9349
:104A40003F934F935F936F937F938F939F93AF9316
:104A5000BF93EF93FF938091E10082FF0BC08091A1
:104A6000E20082FF07C08091E1008B7F8093E1002C
:104A70000E9484278091DA0080FF19C08091D800BD
:104A800080FF15C08091DA008E7F8093DA008091DC
:104A9000D90080FF96C080E189BD82E189BD09B45B
:104AA00000FEFDCF81E0809393040E9486218091D7
:104AB000E10080FF19C08091E20080FF15C0809165
:104AC000E2008E7F8093E2008091E200806180931B
:104AD000E2008091D80080628093D80019BC85E004
:104AE000809393040E9498218091E10084FF2BC061
:104AF0008091E20084FF27C080E189BD82E189BD09
:104B000089B5982F917080FFFBCF8091D8008F7D61
:104B10008093D8008091E1008F7E8093E1008091A6
:104B2000E2008F7E8093E2008091E20081608093BA
:104B3000E20080918F04882309F449C084E08093C7
:104B400093040E9499218091E10083FF29C0809104
:104B5000E20083FF25C08091E100877F8093E10020
:104B600082E08093930410928F048091E1008E7F05
:104B70008093E1008091E2008E7F8093E20080913B
:104B8000E20080618093E20042E060E080E00E9409
:104B90001B248091F00088608093F0000E94972190
:104BA000FF91EF91BF91AF919F918F917F916F9105
:104BB0005F914F913F912F910F900FBE0F901F90DB
:104BC000189519BC109293040E94942170CF809183
:104BD000E30087FD93E090939304B3CF1F920F926D
:104BE0000FB60F9211242F933F934F935F936F93C0
:104BF0007F938F939F93AF93BF93CF93DF93EF9365
:104C0000FF93D091E900DF708091EC00C82FC17054
:104C100080FDC0E81092E9008091F000877F8093CA
:104C2000F00078940E9432261092E9008091F00002
:104C300088608093F000CD2BCF70C093E900FF9186
:104C4000EF91DF91CF91BF91AF919F918F917F9124
:104C50006F915F914F913F912F910F900FBE0F90E9
:104C60001F9018951F93CF93DF93CDB7DEB7AA9708
:104C70000FB6F894DEBF0FBECDBF84E994E020915B
:104C8000F100FC012193CF01F4E08C399F07B9F7C3
:104C90000E94A5218091E80083FF1EC180919404A9
:104CA000909195049A3008F017C1E92FF0E0ED5C7F
:104CB000F44D0C94D427803899F0823809F00CC157
:104CC000809198048F70873008F006C18093E900C6
:104CD0008091EB0085FB882780F91092E90006C0DF
:104CE0008091900490919104911182609091E800DC
:104CF000977F9093E8008093F1001092F1008091EB
:104D0000E8008E77E5C0882309F4D3C0823009F02B
:104D1000E3C0809196048111D6C0809198048F7071
:104D20002FEF280F263008F0D7C08093E90020919C
:104D3000EB0020FFC8C0933031F48091EB0080621B
:104D40008093EB00C0C09091EB0090619093EB00DA
:104D500021E030E001C0220F8A95EAF72093EA00B3
:104D60001092EA008091EB008860EACF8111B4C014
:104D7000109196041F778091E3008078812B8093B7
:104D8000E3008091E800877F8093E8000E944F2431
:104D90008091E80080FFFCCF8091E30080688093E1
:104DA000E30082E0111183E08093930495C0805862
:104DB000823008F091C080919604909197048C3DC8
:104DC00023E09207A1F583E08A838AE289834FB7C3
:104DD000F894DE01139620E03EE051E2E32FF0E08C
:104DE00050935700E49120FF03C0E295EF703F5FBE
:104DF000EF708E2F90E0EA30C0F0C7968D939D93B0
:104E00002F5F243159F74FBF8091E800877F80934F
:104E1000E8006AE270E0CE0101960E945E23809174
:104E2000E8008B778093E80057C0C096E7CF609189
:104E3000980470919904AE014F5F5F4F0E949F22CA
:104E4000BC01892B09F448C09091E800977F9093AA
:104E5000E80089819A810E94BC23E1CF8038E1F586
:104E60008091E800877F8093E80080918F04809391
:104E7000F10045CF811130C090919604923060F5D9
:104E80008091E800877F8093E80090938F040E94D0
:104E90004F2480918F04882311F084E005C0809115
:104EA000E30087FDFACF81E0809393040E949B2169
:104EB00013C080919604813079F481E0933009F039
:104EC00080E0809391041092E9008091E800877F50
:104ED0008093E8000E944F248091E80083FF0AC07D
:104EE0008091E800877F8093E8008091EB008062EA
:104EF0008093EB00AA960FB6F894DEBF0FBECDBF2D
:104F0000DF91CF911F9108950895CF9380919304DD
:104F10008823A1F0C091E900CF709091EC00892F17
:104F2000817090FD80E8C82B1092E9008091E80024
:104F300083FD0E943226CF70C093E900CF9108957F
:104F4000991B79E004C0991F961708F0961B881FDB
:104F50007A95C9F780950895AA1BBB1B51E107C03C
:104F6000AA1FBB1FA617B70710F0A61BB70B881FF9
:104F7000991F5A95A9F780959095BC01CD01089588
:104F800097FB072E16F4009407D077FD09D00E94F6
:104F9000AC2707FC05D03EF4909581959F4F08956E
:104FA000709561957F4F0895EE0FFF1F0590F49166
:104FB000E02D0994FB01DC0102C005900D924150E7
:104FC0005040D8F70895FB01DC0104C08D91019099
:104FD000801921F441505040C8F7881B990B08955F
:104FE000AEE0B0E0E6EFF7E20C94DF2A0D891E890F
:104FF0008F89988D26E02C831A83098397FF02C03E
:1050000080E090E801979E838D83AE01455E5F4FFF
:10501000698D7A8DCE0101960E9420284D815E8196
:1050200057FD0AC02F813885421753070CF49A01A7
:10503000020F131FF80110822E96E4E00C94FB2A55
:10504000ABE0B0E0E6E2F8E20C94D12A7C013B014F
:105050008A01FC0117821682838181FFB9C19AE01F
:10506000292ECE0101965C01F7019381F30193FD96
:10507000859193FF81913F01882309F446C18532D0
:1050800039F493FD859193FF81913F01853229F495
:10509000B70190E00E94012AE7CF912C412C512CBE
:1050A000FFE1F51538F08B3209F188F4803201F117
:1050B000833221F157FC3AC020ED280F2A3040F509
:1050C00056FE1FC0929C200D1124922E06C08D32D8
:1050D00091F0803379F7689450F8F30193FD85914E
:1050E00093FF81913F018111DBCF20C0689451F87B
:1050F000689452F8F2CF689453F8EFCF689454F85C
:10510000ECCF429C200D1124422E689455F8E5CF37
:105110008E3229F456FCF9C0689456F8DECF8C36EE
:1051200019F4689457F8D9CF8836B9F2982F9F7D33
:1051300095549330C0F08336A1F18337C1F18335A4
:1051400009F05BC0F801C190D1908F01692D70E02A
:1051500056FC02C06FEF7FEFC6010E94EB294C01A5
:10516000689457F80AC00C5F1F4F2FE329838824E7
:105170008394912C6501E89457F853FC04C04814BB
:10518000190409F018F5342C8114910431F53320F9
:1051900009F46ACFB70180E290E00E94012A3A94B4
:1051A000F6CFF801808189830E5F1F4FE0CFF801B1
:1051B000C190D1908F01692D70E056FC02C06FEF55
:1051C0007FEFC6010E94F6294C01D5CFB70180E2DE
:1051D00090E00E94012A4A94D2CFF60157FC8591B3
:1051E00057FE81916F01B70190E00E94012A3110B2
:1051F0003A94F1E08F1A9108C7CF843619F08936B6
:1052000009F074C0F80157FE6AC0619171918191F3
:1052100091918F01252D2F76D22E97FF09C0909561
:105220008095709561957F4F8F4F9F4F6894D7F809
:105230002AE030E0A5010E94312AC82ECA188C2C21
:105240005D2CD6FE0CC0E89450F8C91440F4D4FE8E
:1052500005C0D2FC03C0FD2DFE7E5F2E892C54FEBE
:105260008FC0FE01EC0DF11D8081803309F081C0FB
:10527000252D297E522E852D8870382E53FC8FC007
:1052800050FE89C09C2C841418F44C0C942C981853
:1052900054FE8BC0B70180E390E00E94012A52FEC9
:1052A00009C088E790E051FE02C088E590E0B701B0
:1052B0000E94012AC91408F484C0CA94D12C9FEF1B
:1052C000C91AD90ACA0CDB1CF60182916F01B70119
:1052D00090E00E94012AAC14BD04B1F758CF61914F
:1052E0007191072E000C880B990B93CFD52CE89465
:1052F000D4F82AE030E0853739F1952D997FD92E01
:105300008F3601F148F48835A9F0F701868197813D
:105310002B96E2E10C94ED2A803749F08837A9F703
:10532000D4FE02C06894D2F820E130E00DC0689449
:10533000D4F8F6CF54FE03C0E92FE660DE2E20E15C
:1053400032E002C028E030E0F801D7FE0DC06191E4
:105350007191819191918F01A5010E94312AC82EEE
:10536000CA18E894D7F86BCF6191719190E080E012
:10537000F2CF52FC02C083947ECF839483947BCF80
:10538000852D867809F477CFF6CFB70180E290E0DB
:105390000E94012A83948414C0F3312C79CF342CD9
:1053A0003818841408F474CFF8CF852D867809F462
:1053B00081CF8BE251FE80E257FC8DE2B70190E095
:1053C00077CFB70180E390E00E94012A9A9472CFD0
:1053D0008FEF9FEF9DCFFC01059061507040011051
:1053E000D8F7809590958E0F9F1F0895FC0161500E
:1053F000704001900110D8F7809590958E0F9F1FF7
:1054000008950F931F93CF93DF93182F092FEB016C
:105410008B8181FD09C01FEF0FEF812F902FDF914E
:10542000CF911F910F91089582FF14C02E813F816B
:105430008C819D81281739073CF4E881F981CF01DF
:1054400001969983888310838E819F8101969F8323
:105450008E83E3CFE885F985812F0995892BA1F308
:10546000DACFFA01AA27283051F1203181F1E894EE
:105470006F936E7F6E5F7F4F8F4F9F4FAF4FB1E047
:105480003ED0B4E03CD0670F781F891F9A1FA11D42
:10549000680F791F8A1F911DA11D6A0F711D811D43
:1054A000911DA11D20D009F468943F912AE0269F08
:1054B00011243019305D3193DEF6CF010895462F67
:1054C0004770405D4193B3E00FD0C9F7F6CF462F48
:1054D0004F70405D4A3318F0495D31FD40524193B1
:1054E00002D0A9F7EACFB4E0A6959795879577956E
:1054F0006795BA95C9F700976105710508959B01F5
:10550000AC010A2E06945795479537952795BA957D
:10551000C9F7620F731F841F951FA01D0895F99985
:10552000FECF92BD81BDF89A992780B50895A8E174
:10553000B0E042E050E00C94C32A262FF999FECF48
:1055400092BD81BDF89A019700B4021639F01FBAD6
:1055500020BD0FB6F894FA9AF99A0FBE08950396F3
:10556000272F0E949E2A0E949D2A252F0E949E2A54
:10557000242F0C949E2A0196272F0E949E2A0C9479
:105580009D2ADC01CB01FC01F999FECF06C0F2BDDA
:10559000E1BDF89A319600B40D9241505040B8F7F1
:1055A00008952F923F924F925F926F927F928F92C7
:1055B0009F92AF92BF92CF92DF92EF92FF920F93A2
:1055C0001F93CF93DF93CDB7DEB7CA1BDB0B0FB6AC
:1055D000F894DEBF0FBECDBF09942A883988488869
:1055E0005F846E847D848C849B84AA84B984C884FF
:1055F000DF80EE80FD800C811B81AA81B981CE0FF6
:10560000D11D0FB6F894DEBF0FBECDBFED010895DA
:10561000F894FFCFE406F506E906F506ED06F50673
:10562000F506F506F106F506F106F506F106F506AE
:10563000F106F314F3144B154B1520159D15201589
:105640002015A815341643164316051705170E170F
:105650000E1710170E170E170E170517051715172B
:105660000E170E1715175B2683266C2783266C27CB
:0A567000B626D7266C272E273A270E
:10567A0001A50100A60104A6010021007F22000362
:10568A004D022808641E140A321E3321582137217C
:10569A00362185210125647825642C206B25326406
:1056AA00203A202563002020202061626364656619
:1056BA006768696A6B6C6D6E6F70717273747576F8
:1056CA007778797A3132333435363738393052454A
:1056DA0042545F2D3D5B5D5C233B27602C2E2F20BF
:1056EA002020F4F5F6F73133946697C600000000DF
:0856FA00000810181810080048
:00000001FF
