:100000000C9410080C9457080C9457080C94FC2E70
:100010000C9457080C9457080C9457080C945708E4
:100020000C9457080C9457080C94781A0C94341AB2
:100030000C94362D0C9457080C9457080C945708C0
:100040000C9457080C9457080C9457080C945708B4
:100050000C9457080C947A160C9457080C94570873
:100060000C9457080C9457080C9457080C94570894
:100070000C9457080C9457080C9457080C94570884
:100080000C9457080C9457080C9457080C94570874
:100090000C9457080C9457080C9457080C94570864
:1000A0000C9457080C9457080C9457080001010150
:1000B0000101010101010202020202020202020325
:1000C00003030303030303040404040404040505F5
:1000D00005050506060606060707070707080808B8
:1000E00008090909090A0A0A0B0B0B0C0C0C0D0D67
:1000F0000D0E0E0E0F0F0F101011111112121313FF
:100100001414151516161717181819191A1A1B1B77
:100110001C1D1D1E1E1F20202122222324242526D3
:1001200026272829292A2B2C2D2D2E2F303132320B
:10013000333435363738393A3B3C3D3E3F40414217
:10014000434445464748494A4C4D4E4F50515354FD
:10015000555658595A5B5D5E5F61626465666869B1
:100160006B6C6D6F7072737577787A7B7D7E808231
:10017000838587888A8C8E8F91939596989A9C9E7A
:10018000A0A2A3A5A7A9ABADAFB1B3B5B7BABCBE8A
:10019000C0C2C4C6C9CBCDCFD1D4D6D8DBDDDFE257
:1001A000E4E7E9EBEEF0F3F5F8FAFDFFFFAA7F557F
:1001B000402223252628292A2C2D2F30323335366C
:1001C000383A3B3D3E4042434547494A4C4E5051E8
:1001D000535557595A5C5E6062646668696B6D6F0F
:1001E00071737577797B7D7F81838587898A8C8E12
:1001F00090929496989A9C9E9FA1A3A5A7A8AAAC1A
:10020000AEAFB1B3B4B6B8B9BBBCBEBFC1C2C3C553
:10021000C6C7C9CACBCCCDCED0D1D2D2D3D4D5D6F5
:10022000D7D7D8D9D9DADADBDBDBDCDCDCDCDCDD28
:10023000DDDDDDDCDCDCDCDCDBDBDBDADAD9D9D80C
:10024000D7D7D6D5D4D3D2D2D1D0CECDCCCBCAC9A4
:10025000C7C6C5C3C2C1BFBEBCBBB9B8B6B4B3B1D3
:10026000AFAEACAAA8A7A5A3A19F9E9C9A9896946E
:1002700092908E8C8A89878583817F7D7B79777543
:1002800073716F6D6B6968666462605E5C5A595722
:10029000555351504E4C4A4947454342403E3D3BE1
:1002A0003A3836353332302F2D2C2A29282625236B
:1002B0002200AF000000001700150008001A00140B
:1002C000002942000000000A00090007001600048F
:1002D000002A61E100E1000500190006001B001D75
:1002E00000E10029422C4128644C00E3000000009A
:1002F000000000000000001C0018000C0012001399
:10030000003102000000000B000D000E000F003352
:10031000003400E100E10011001000360037003821
:10032000002D0028412C422B002A00E6000000008E
:1003300000000000000000310230022F021F021EE8
:1003400002010000000000350027022602210220E1
:1003500002010001000100350230002F00230222BB
:100360000201002E00330001000100010000000026
:100370000000000000000001000100010001000178
:10038000003100000000002E022D0038002502225E
:100390000234000100010024022E0036003700382C
:1003A000002D002E003300010001000100000000BC
:1003B000000000000000002200210020001F001E9D
:1003C00000010000000000A900AB00AE00AC00017D
:1003D00000010001000100AA00A8000100010001C5
:1003E0000001000100010001000100010000000007
:1003F0000000000000000023002400250026002744
:10040000000100000000005000510052004F0001A8
:1004100000010001000100F200F100F000F3000112
:1004200000010001000100010001000100000000C6
:10043000000000000000003E003D003C003B003A90
:1004400000010000000000C45CCA5CC65CC85CC35C
:100450005C010001000100C55CCB5CC75CC95C01AC
:100460000001000100010001000100010000000086
:10047000000000000000003F004000410042004337
:1004800000010000000000010001000100440045DF
:100490000001000100010001000100010001000154
:1004A0000001000100010001000100010000000046
:1004B00000000000DA1281FFD9F1DB20A4A62EAFE4
:1004C00000A0C000A1C800AED580A83FD300408DD9
:1004D00014200032190A00047F3F1F643214643272
:1004E00014783C1E1E140A058081828384858687C9
:1004F00088898A8B8C8D8E8F9091929394A0A1A2E3
:10050000A3A4A5A6A7A8A9AAABACADAEAFB0B1B243
:10051000B3B4C0C1C2C3C4C5C6C7C8C9CACBCCCD99
:10052000CECFD0D1D2D3D400202020202020200034
:100530005343524C434B20002020202020202000F9
:100540004341504C434B20002020202020202000FD
:100550004E554D4C434B2000556E646566696E6583
:10056000640A0041646A7573740A005261697365B4
:100570000A004C6F7765720A0044656661756C7499
:100580000A004C617965723A20004B7972696120EA
:10059000726576312E300A0A00000000000000006B
:1005A0000000000000008080C0E0F07078383C1C43
:1005B0001E0E0E0E0707070707070707070707079F
:1005C000070707070E0E0E1E1C3C387870F0E0C0BF
:1005D000808000000000000000000000000000001B
:1005E000000000000000000000000000000000000B
:1005F00000000000000000000000000000000000FB
:1006000000000000000000000000000000000000EA
:1006100000000000000000000000000000000000DA
:10062000C0E0F07C3E1F0F07030180C0E0F0783887
:100630003C1C1E0E0E070787E77F1FFFFF1F7FE78B
:100640008707070E0E1E1C3C3878F0E0C0800103BF
:10065000070F1F3E7CF0E0C000000000000000001B
:10066000000000000000000000000000000000008A
:10067000000000000000000000000000000000007A
:10068000000000000000000000000000000000006A
:1006900000000000000000000000000000F0FCFF6F
:1006A0001F07010000C0F0FCFEFFF7F3B1B03030CF
:1006B000303030303078FE87010000FFFF0000014D
:1006C00087FE7830303030303030B0B1F3F7FFFE95
:1006D000FCF0C0000001071FFFFCF000000000005C
:1006E000000000000000000000000000000000000A
:1006F00000000000000000000000000000000000FA
:1007000000000000000000000000000000000000E9
:10071000000000000000000000000000FFFFFF00DC
:1007200000000000FEFFFF0101071E78E1818383C6
:1007300086868C8C9898B1B7FEF8E0FFFFE0F8FE53
:10074000B7B198988C8C8686838381E1781E0701E7
:1007500001FFFFFE0000000000FFFFFF000000009F
:10076000FFFF0000C0C030300000F0F000000000CB
:100770000000F0F00000F0F0C0C030303030C0C0F9
:1007800000003030F3F30000000000003030303063
:100790003030C0C00000000000000000FFFFFF007C
:1007A000000000007FFFFF8080E0781E8781C1C1CC
:1007B0006161313119198DED7F1F07FFFF071F7F21
:1007C000ED8D191931316161C1C181871E78E080D9
:1007D00080FFFF7F0000000000FFFFFF000000001F
:1007E0003F3F03030C0C3030000000003333333341
:1007F00033330F0F00003F3F0000000000000000F7
:10080000000030303F3F303000000C0C33333333C6
:1008100033333F3F0000000000000000000F3FFFA7
:10082000F8E0800000030F3F7FFFEFCF8D0D0C0C31
:100830000C0C0C0C0C1E7FE1800000FFFF00008000
:10084000E17F1E0C0C0C0C0C0C0C0D8DCFEFFF7F00
:100850003F0F03000080E0F8FF3F0F0000000000A2
:100860000000000000000000000000000000000088
:100870000000000000000000000000000000000078
:100880000000000000000000000000000000000068
:100890000000000000000000000000000000000058
:1008A00003070F3E7CF8F0E0C0800103070F1E1C19
:1008B0003C38787070E0E0E1E7FEF8FFFFF8FEE713
:1008C000E1E0E0707078383C1C1E0F07030180C027
:1008D000E0F0F87C3E0F070300000000000000007D
:1008E0000000000000000000000000000000000008
:1008F00000000000000000000000000000000000F8
:1009000000000000000000000000000000000000E7
:1009100000000000000000000000000000000000D7
:10092000000000000000010103070F0E1E1C3C38F0
:1009300078707070E0E0E0E0E0E0E0E0E0E0E0E06F
:10094000E0E0E0E070707078383C1C1E0E0F07038A
:100950000101000000000000000000000000000095
:100960000000000000000000000000000000000087
:100970000000000000000000000000000000000077
:100980000000000000000000000000000000000067
:1009900000000000000000000000AE05010902A1F7
:1009A0000185020901A10005091901290515002584
:1009B0000195057501810295017503810105010904
:1009C0003009311581257F95027508810609381592
:1009D00081257F950175088106050C0A380215816D
:1009E000257F950175088106C0C005010980A10118
:1009F000850319012AB700150126B7009501751066
:100A00008100C0050C0901A101850419012AA00279
:100A1000150126A002950175108100C00501090687
:100A2000A101050719E029E71500250195087501C1
:100A300081029501750881010507190029FF15003C
:100A400026FF0095067508810005081901290595FE
:100A50000575019102950175039101C009023B00E2
:100A6000020100A0FA0904000001030101000921AC
:100A7000110100012240000705810308000A090452
:100A80000100010300000009211101000122810081
:100A90000705820320000A1201100100000008ED82
:100AA000FE00000100010200011E034B00790072EC
:100AB000006900610020004B006500790062006F52
:100AC0000061007200640000001003730070006C8D
:100AD00000690074006B0062000000040309040058
:100AE00000000000003E5B4F5B3E003E6B4F6B3EE4
:100AF000001C3E7C3E1C00183C7E3C18001C577DB0
:100B0000571C001C5E7F5E1C0000183C180000FF94
:100B1000E7C3E7FF00001824180000FFE7DBE7FF4A
:100B20000030483A060E00262979292600407F0524
:100B3000050700407F05253F005A3CE73C5A007FEF
:100B40003E1C1C0800081C1C3E7F0014227F22143F
:100B5000005F5F005F5F0006097F017F000066891C
:100B6000956A0060606060600094A2FFA294000833
:100B7000047E04080010207E20100008082A1C08AB
:100B800000081C2A0808001E10101010000C1E0C73
:100B90001E0C0030383E383000060E3E0E060000B7
:100BA000000000000000005F0000000007000700D8
:100BB00000147F147F1400242A7F2A1200231308B4
:100BC0006462003649562050000008070300000008
:100BD0001C224100000041221C00002A1C7F1C2A0C
:100BE0000008083E0808000080703000000808086F
:100BF0000808000000606000002010080402003EA9
:100C00005149453E0000427F400000724949494633
:100C1000002141494D33001814127F10002745452B
:100C20004539003C4A494931004121110907003644
:100C30004949493600464949291E00000014000070
:100C40000000403400000000081422410014141475
:100C50001414000041221408000201590906003E44
:100C6000415D594E007C1211127C007F4949493682
:100C7000003E41414122007F4141413E007F4949C0
:100C80004941007F09090901003E41415173007F3C
:100C90000808087F0000417F4100002040413F01DB
:100CA000007F08142241007F40404040007F021C2A
:100CB000027F007F0408107F003E4141413E007FDB
:100CC00009090906003E4151215E007F09192946A4
:100CD0000026494949320003017F0103003F40409B
:100CE000403F001F2040201F003F4038403F00632E
:100CF00014081463000304780403006159494D4348
:100D000000007F41414100020408102000004141E1
:100D1000417F0004020102040040404040400000C6
:100D200003070800002054547840007F28444438CA
:100D300000384444442800384444287F0038545440
:100D400054180000087E09020018A4A49C78007FB3
:100D5000080404780000447D4000002040403D002D
:100D6000007F102844000000417F4000007C047890
:100D70000478007C0804047800384444443800FCBB
:100D8000182424180018242418FC007C08040408E3
:100D90000048545454240004043F4424003C404080
:100DA000207C001C2040201C003C4030403C004483
:100DB00028102844004C9090907C004464544C448B
:100DC00000000836410000000077000000004136B6
:100DD0000800000201020402003C2623263C000019
:100DE0000000000000404040F0F8F8FF38FFF8F83D
:100DF0003FF8F8FF38FFF8F8F040404000000000EE
:100E0000000080C0C0C0800000C0C0800000008022
:100E1000C0C000C0C0000080C0C00000000000C012
:100E2000C0C0C0C000C0C000000000000000000042
:100E300000000000000000000000000000000000B2
:100E400000000000000000000000000000000000A2
:100E50000000000000000000000000000000C0F0E2
:100E6000F8FC3E1E06010000007F4141417F007FEB
:100E70004141417F000080C0E07E5B4F5BFEC000CF
:100E800000C000DCD7DEDEDED7DC00C000000000E2
:100E90000000000000000000000000000000000052
:100EA0000000000000494949FFFFFFFFE0DFBFBF2E
:100EB00000BFBFDFE0FFFFFFFF494949000000001E
:100EC000001F3F6060E0BF1F007F7F071E381E07C6
:100ED0007F7F007F7F0E1F3B716000000000007F5E
:100EE0007F0C0C0C007E7E007F7E0303007F7E0360
:100EF000037E7E03037F7E000F3E703C063C703E07
:100F00000F00327B49493F7E007F7E0303001E3F76
:100F100069696F2600000000000000000000030F58
:100F20001F3F3C7870600000007F4141417F007F9F
:100F30004141417F00307B7F7830202030787F3BFB
:100F40000003000F7F0F0F0F7F0F00030000000052
:100F50000000000000000000000000000000000091
:100F60000000000000010101070F0F7F0F7F0F0F2E
:100F70007E0F0F7F0F7F0F0F0701010100000000A0
:100F8000000000000000010100000000000000005F
:100F90000000000000000000000000000000000051
:100FA0000000000000000000000000000000000041
:100FB0000000000000000000000000000000000031
:100FC0000000000000000000000000000000000021
:100FD0000000000000000000000000000000000011
:100FE0000000000000000000000000000000000001
:100FF00000000000000000000000000000000000F1
:1010000000000000000000000000000000000000E0
:1010100000000000000000000000000000000000D0
:1010200011241FBECFEFDAE0DEBFCDBF04B603FE52
:1010300027C08091B3079091B407A091B507B091F4
:10104000B6078730904BA740B04BD1F41092B3074E
:101050001092B4071092B5071092B60714BE84B769
:10106000877F84BF0FB6F894A8958091600088614F
:1010700080936000109260000FBEE0E0F8E30995F5
:1010800027E0A8ECB1E001C01D92A33BB207E1F755
:1010900011E0A0E0B1E0E8E8F3E602C005900D92AF
:1010A000A83CB107D9F70E94B9260C948A310C9458
:1010B0000000E8EDF0E080818E7F80831092E200F6
:1010C0001092DA001092E100A0EEB0E08C91816005
:1010D0008C9380818F77808319BCA7EDB0E08C91D1
:1010E0008E7F8C9380818F7E808310928B030895F6
:1010F0002091E4003091E50095E6A9012091EC00F3
:10110000822F817020FF06C08091E80080FF06C01A
:1011100080E008952091E80022FD1AC08091980394
:10112000882389F0853089F08091EB0085FD0FC020
:101130002091E4003091E50042175307F9F29150F5
:10114000E1F684E0089582E0089583E0089581E067
:101150000895EF92FF920F931F93CF937C018B0121
:101160000E947808C82F811117C08091E80085FD82
:101170000BC08091E8008E778093E8000E94780889
:10118000882399F3C82F08C0F70181917F018093CC
:10119000F1000150110949F78C2FCF911F910F9148
:1011A000FF90EF90089580919A0387FF13C080917C
:1011B000E80082FF06C08091E8008B778093E8000A
:1011C00004C0809198038111F2CF08958091980313
:1011D0008823D9F38091E80080FFF8CF8091E80060
:1011E0008E77ECCF982F9093E900242F762F50E044
:1011F000891731F07091EC002091ED005091F000D2
:1012000021FD07C09F5F973071F78093E90081E06F
:1012100008953091EB003E7F3093EB003091ED006C
:101220003D7F3093ED003091EB0031603093EB0067
:101230007093EC002093ED005093F0002091EE00AD
:1012400027FDE0CF80E00895CF92DF92EF92FF92EA
:101250000F931F93CF93DF93C8EDD0E088818F7EEB
:101260008883E7EDF0E080818160808384E082BF45
:1012700081E080938B0388818E7F888302EE10E06B
:10128000F80110821092DA0081EEC82ED12CF601FE
:10129000108288818F77888388818068888388819D
:1012A0008F7D888319BC1092980310929903109235
:1012B00097031092960390EEE92EF12CF7018081AE
:1012C0008B7F808388818160888342E060E080E05A
:1012D0000E94F208F60180818E7F8083F801808170
:1012E00081608083808188608083F70180818E7F28
:1012F0008083888180618883DF91CF911F910F91D6
:10130000FF90EF90DF90CF900895FC018091A003B3
:101310009091A10386179707A0F06115710529F434
:101320009091E8009E779093E80090E06115710538
:1013300051F4911108C08091E80082FF34C080E030
:101340000895BC01F2CF809198038823C1F18530C4
:10135000C1F18091E80083FD30C08091E80082FDFA
:10136000EACF8091E80080FFE1CF8091F3002091E7
:10137000F200382F6115710519F02830310558F049
:1013800091E02830310509F090E02091E8002E77B7
:101390002093E800CBCF81918093F10061507109D7
:1013A0002F5F3F4FE7CF80919803882341F085302E
:1013B00041F08091E80083FFBECF81E0089582E094
:1013C000089583E00895089580918D030895909184
:1013D0007D03803F59F480917E0387FF0DC01092FA
:1013E0007E0391110BC01092780308C0813F81F4F5
:1013F00080917E0318169CF3992381F080917F03DE
:1014000090918003892B09F064C0109275030895B0
:10141000823F49F497FFF0CF10927D0380917E03C5
:101420008111ECCFE0CF833F19F41916ACF3E4CF70
:1014300020917F03893F29F41216F4F610927F035E
:10144000DBCF8A3F19F427FFD7CFF8CF2091800355
:101450008B3F29F427FFD0CF10928003CDCF8C3F54
:1014600019F41216CCF3C8CF843F31F480917C0379
:101470008E7F80937C03C0CF853F21F480917C03D5
:101480008D7FF7CF863F21F480917C038B7FF1CF56
:10149000873F21F480917C03877FEBCF883F21F445
:1014A00080917C038F7EE5CF8D3F31F48091F502F2
:1014B0008E7F8093F502A0CF8E3F21F48091F502BC
:1014C0008D7FF7CF8F3F09F097CF8091F5028B7F0B
:1014D000F0CF08958091F50280FD16C081FD16C001
:1014E00082FD16C0809175038823A1F0883280F4B4
:1014F00028E0829FC001112468E270E00E9437302A
:10150000862F672B39F0089582E0089584E00895CE
:1015100088E0089581E008958091F50280FD14C06F
:1015200081FD14C082FD16C080917803882381F06C
:10153000843180F422E3829FC001112464E170E0D1
:101540000E943730862F08958CE0089589E1089530
:1015500085E0089582E30895803F31F40E948C0A6B
:10156000819580937E030895813F19F40E948C0A2F
:10157000F8CF823F31F40E948C0A819580937D03DD
:101580000895833F19F40E948C0AF8CF893F29F40B
:101590000E946A0A80937F0308958A3F21F40E9483
:1015A0006A0A8195F7CF8B3F31F40E946A0A8195D0
:1015B0008093800308958C3F19F40E946A0AF8CF43
:1015C000843F31F480917C03816080937C03089593
:1015D000853F21F480917C038260F7CF863F21F420
:1015E00080917C038460F1CF873F21F480917C035C
:1015F0008860EBCF883F21F480917C038061E5CF48
:101600008D3F31F48091F50281608093F502089559
:101610008E3F21F48091F5028260F7CF8F3FB9F7BA
:101620008091F5028460F1CF9C014FB7F8948091CE
:101630006B0390916C03A0916D03B0916E034FBF4B
:10164000821B930B08958091F00281111092F00299
:1016500008958091EF029091EE02892B9091ED0216
:10166000892B8093C8019091F002992391F0892BE6
:101670008093C80120E08AEC91E0FC013191CF0118
:1016800031112F5FF1E0803D9F07B9F721110E94D2
:10169000230BE0910403F0910503309731F00280B1
:1016A000F381E02D88EC91E009940895EAECF1E0F3
:1016B0009191891303C0DF0111971C9291E0E03DE5
:1016C000F907B1F70895AAECB1E0EFEF90E02D91A2
:1016D000821751F0EF3F19F4211101C0E92F9F5FEC
:1016E0009630A9F7EF3F09F408950E2E000CFF0B7A
:1016F000E853FE4F82830895990F990F990F890F30
:10170000982F977086958695869525E0829FF001A3
:101710001124EC53FD4F50E040E080E0219130E097
:10172000092E02C0369527950A94E2F721703327D7
:10173000042E01C0220F0A94EAF7822B4F5F5F4FFD
:101740004530510559F70895990F990F990F890F51
:10175000982F977041E001C0440F9A95EAF786955B
:101760008695869595E0899FF0011124EC53FD4FF5
:1017700030E020E070E05191DF011197CB01022EA3
:1017800002C0969587950A94E2F781708195852726
:10179000842385278C932F5F3F4F2530310559F7E0
:1017A00008958091C30290919202981301C0089508
:1017B0008F5F8770FACF882341F080959091EF0278
:1017C00089238093EF020C94290B0895882339F024
:1017D0009091EF02982B9093EF020C94290B0895AF
:1017E0002091890230918A022817390771F090936D
:1017F0008A0280938902E0910403F09105033097F7
:1018000021F00084F185E02D09940895209187024C
:10181000309188022817390771F0909388028093DD
:101820008702E0910403F0910503309721F00680D0
:10183000F781E02D09940895E0910403F0910503E8
:10184000309721F00190F081E02D099480E0089517
:10185000FA01811101C0FB010994EDE1F3E011826D
:10186000828184608283089580911803982F9E7FDF
:1018700061F4817082608093180380911B03873923
:1018800018F086E980931B0308958635B0F38170C4
:101890008465F1CFAF92BF92DF92EF92FF920F93E8
:1018A0001F93CF93DF93182F062FE901473908F0D4
:1018B00046E9E42FF0E0E455FF4F011110C0E49138
:1018C0005E2F4E2F4983E8835A83DF91CF911F917A
:1018D0000F91FF90EF90DF90BF90AF900895202F71
:1018E00030E04491D42EE42EF12C56E0159FC00137
:1018F0001124EFEFF0E0BF010E942330812F90E030
:10190000880F991F55E5569FD001579FB00D1124A0
:101910008A1B9B0B982F990F890F5F01A21AB30A9C
:10192000AE9CD001AF9CB00DBE9CB00D11245B2FBE
:10193000089F80011124012F11275F01A01AB10A0D
:10194000AE9C8001AF9C100DBE9C100D11245F0158
:10195000A81AB108A29EC001A39E900DB29E900D40
:101960001124892F9927E81BF90BEE9DC001EF9DEB
:10197000900DFE9D900D1124E92F62307105A1F0AC
:1019800050F46115710509F49DCF6130710581F046
:10199000EB2F512F97CF6430710569F080F06630DE
:1019A000710509F48FCFF4CFE42F4B2F592F8ACF35
:1019B000E42F412F87CFEB2F542F492F83CF4B2F6D
:1019C0005D2DE12F7FCFF894E82FE295EF70F0E0E6
:1019D00031A1282F2F7081E090E001C0880F2A9557
:1019E000EAF7982F9095932391A392A1892B82A334
:1019F000789408959091000392FF06C0282F2871D3
:101A00002830F9F4877F846093FF06C0282F28715F
:101A10002831F1F4877E84612091010320FF06C004
:101A2000382F38713830D9F4877F816021FF06C0A4
:101A3000282F28712831D1F4877E816194FD877E1B
:101A40000895282F24712430F9F68B7F8860DCCF2D
:101A5000282F2471243101F78B7E8861DDCF382F48
:101A60003171313019F78E7F8860E0CF282F2171D6
:101A7000213121F78E7E8861E1CFCF93DF9328E07B
:101A8000829FC0011124FC01E70FF11DA3E0EE0FBE
:101A9000FF1FAA95E1F7E60FF11DEE0FFF1FED54B2
:101AA000FD4FC591D491CE01C238D105B9F1E8F509
:101AB000C133D10509F499C050F5C932D10509F4F3
:101AC0008DC0CA32D10509F497C0C11531E5D307DD
:101AD00008F0BFC0C11520E5D20708F016C1C83E06
:101AE000D10508F09DC0C13ED10568F5C83AD105C1
:101AF00008F089C0C53AD10508F0FFC0C130D10552
:101B000011F1209709F443C02497E8F440C0C5338D
:101B1000D10509F45CC0C933D105B9F620910003A1
:101B2000237089F080EE90E00EC0C33ED10591F1A4
:101B300068F4C03ED105F9F0C23ED10531F62091DE
:101B4000000322FD20C0DF91CF910895C63ED1054C
:101B500061F1C73ED10581F1C43ED10509F0B5CF91
:101B60002091010321FFEFCF8091000384FD0FC07E
:101B700087EE90E0E8CF2091000320FD12C1309164
:101B8000010330FFE0CF83EE90E024FFDCCF90E054
:101B900080E0D9CF2091000322FD06C130910103DE
:101BA00030FDC0CF24FFCFCFF2CF2091000323FF21
:101BB000CACF24FDECCFDCCF2091000323FDF7C07A
:101BC0003091010331FFEECF84EE90E0BCCF209145
:101BD000000325FFB8CF89E290E0B5CF2091000344
:101BE00025FFB1CF85E390E0AECF2091000326FF23
:101BF000AACF8AE290E0A7CF2091000326FFA3CFCF
:101C000081E390E0A0CFCF3BD10508F6C85AD0E0E1
:101C1000CC0FDD1FC659DE4F88819981946493CF24
:101C2000C11530E2D30760F4C11521E0D20708F0F6
:101C30008ACFCE019065C03FD10508F084CFA7CFF1
:101C4000C11530E4D30708F4A2CFCE019F70906A8B
:101C50007ACFC11585E5D80710F5C11524E5D2075F
:101C600008F088C0C11533E5D30708F06FC0C1156F
:101C700082E5D80708F465C09E012370332781E010
:101C800090E002C0880F991F2A95E2F7C695C69585
:101C900020E2C29FE00111248C2B9D2B50C0C11566
:101CA00029E5D207A0F4C11538E5D30708F067C0CD
:101CB000C11586E5D80708F06ACF8C2F0E94FA0C70
:101CC00090E0982F882788279F7190623CCFC1159C
:101CD0002AE5D20708F458C0CE01905681159042EB
:101CE00008F055CF8D2F8F710E94FA0C90E0982F3D
:101CF000882788279F718C2BE8CFC55AD0E0C95917
:101D0000DE4F888190E090641ECF9E01E4E036951E
:101D10002795EA95E1F723708C2F86958695837039
:101D200030E2839FC0011124922BC37021E030E088
:101D300002C0220F331FCA95E2F7822B932B9C68B7
:101D400002CF9C2F8827816F906AFDCE9E01237061
:101D5000332781E090E002C0880F991F2A95E2F7AF
:101D6000C695C69530E2C39FE00111248C2B9D2BB4
:101D70009A68E9CE9C2F8827846F906AE4CE9C2FC6
:101D80008827806F906ADFCE8C2F8F700E94FA0CAC
:101D900034E0D695C7953A95E1F7CF709C2F9069BE
:101DA000D2CE89E390E0CFCE82EE90E0CCCE86EE2C
:101DB00090E0C9CEBF92CF92DF92EF92FF920F9345
:101DC0001F93CF93DF938C01C0902503D0902603FF
:101DD000E0902703F09028038091F1029091F202A5
:101DE000A091F302B091F402C82AD92AEA2AFB2A68
:101DF000CFE1D0E0BC2ED701C6010C2E04C0B695B1
:101E0000A795979587950A94D2F780FD0EC02197E4
:101E100088F7B12C8B2DDF91CF911F910F91FF90FF
:101E2000EF90DF90CF90BF900895B8018C2F0E9463
:101E30003D0D019761F3EECFCF93DF93EC010E944C
:101E4000DA0EBE01DF91CF910C943D0D0E941C0F64
:101E5000292F2F7092959F7092509E3078F4E92F21
:101E6000F0E0E457FE4C0C944B30803F19F020F426
:101E7000883E20F481E00895843FE1F380E00895F6
:101E8000883EC0F3813FD1F7F5CF822F86958695A6
:101E900086950895CF93DF93C091AE07D091AF0799
:101EA0008A30C1F42091A503CE01885A9340622F55
:101EB00070E00E942330281B822F66E00E940930C8
:101EC000C82FC15018F4DF91CF91089580E20E948D
:101ED0004A0FF7CF8D30E9F4C85AD3402091A503BB
:101EE000622F70E0CE010E942330281B822F9E01BA
:101EF000280F311D2115344018F080E0D0E0C0E0FB
:101F0000C80FD11DC855DC4FD093AF07C093AE07A3
:101F1000DACF96E0FE01A8EAB7E001900D929A951B
:101F2000E1F7803E08F458C086E0FE0111928A95E0
:101F3000E9F7C091AE07D091AF0746E050E0BE018F
:101F400088EA97E00E94D2309E01285A3340892BBC
:101F500041F1C90146E0969587954A95E1F741E040
:101F600050E0BA0102C0660F771F8A95E2F7CB01F5
:101F70006091A6037091A703862B972BB9016B5F25
:101F80007F4FE6E076956795EA95E1F702C0440F4A
:101F9000551F6A95E2F7842B952B9093A7038093A6
:101FA000A6032A5F3F4F4091A503642F70E0C9014B
:101FB0000E942330481B463010F4240F311D211598
:101FC00074E0370710F030E020E028553C4F3093A4
:101FD000AF072093AE0777CFF6E08F9FB0011124B3
:101FE0006152754F46E050E0CE010E94BC30A1CF57
:101FF000CF93DF93EC01FE018491811103C0DF9147
:10200000CF9108950E944A0F2196F5CFCF92DF928B
:10201000EF92FF920F931F93CF93DF936C017B019D
:1020200064E670E088E70E94632DEC0197FD12C022
:1020300010E000E0F601E00FF11F849164E670E02B
:102040000E94BF2DEC01892B29F40F5F1F4F0E1545
:102050001F0581F70E94422ECE01DF91CF911F9183
:102060000F91FF90EF90DF90CF90089580917403CF
:10207000811103C08091730308952FB7F894809164
:102080006B0390916C03A0916D03B0916E032FBF11
:10209000805A9541AF4FBF4F80936F039093700369
:1020A000A0937103B0937203809173038111E2CF07
:1020B00062E070E081EB92E00E940610892BD1F67D
:1020C00081E080937303D6CFCF9384E090E00E94A9
:1020D000DF30C82F81E290E00E94DF30982F8C2FF4
:1020E000CF910895CF93DF9300D00F92CDB7DEB795
:1020F00090919803943019F589837B836A8382E0F9
:102100008093E9008FEF9091E800815095FD06C023
:1021100095ED9A95F1F700008111F5CF8091E800D7
:1021200085FF0DC050E040E063E070E0CE01019615
:102130000E94A9088091E8008E778093E8000F90B4
:102140000F900F90DF91CF910895BC0184E00C9423
:102150007210BC0183E00C9472109C0182E08093A9
:10216000E9009FEF8091E800915085FD06C085ED64
:102170008A95F1F700009111F5CF8091E80085FF75
:102180000CC050E040E066E070E0C9010E94A90880
:102190008091E8008E778093E8000895CF93DF93D5
:1021A000EC0181E08093E9008FEF9091E80081508D
:1021B00095FD06C095ED9A95F1F700008111F5CFD8
:1021C0008091E80085FF14C050E040E068E070E0D6
:1021D000CE010E94A9088091E8008E778093E800E4
:1021E00088E0FE01AEE8B3E001900D928A95E1F738
:1021F000DF91CF910895609113018091180380FFC2
:1022000020C08091120143E0849FC00111248951B4
:102210009E4F539A2BB1277F3BB138605FB7F8943C
:10222000FC01649FE00DF11D1124BF0168177907BF
:10223000D1F45FBF8FE594E00197F1F700C0000093
:102240000895809114019091150123E0829FF0017F
:102250001124E951FE4F8917A0F6118210821282D3
:102260008F5F3396F8CFFC014191CF01E8E03BB995
:10227000000000C047FF2BB9440F000000C000C0A1
:1022800000C02BB900C0EA9591F7D0CF8F929F92F2
:10229000AF92BF92CF92DF92EF92FF920F931F9374
:1022A000CF93DF93FC01B280948081E0848300E0CF
:1022B00015E05BE4A52E88248394EE24EA94F12CA7
:1022C0007BE4C72ED12C80911601081770F0DF91A6
:1022D000CF911F910F91FF90EF90DF90CF90BF9023
:1022E000AF909F908F900C94FB10C02FD0E01C9F5C
:1022F000F0011D9FF00D1124ED5DFD4F91101CC0EC
:102300001382128220911401CE01820F911D9C0133
:10231000220F331F280F391F29513E4F1C9FF001F8
:102320001D9FF00D1124ED5DFD4F42816181808183
:102330000E944A0C0F5FC7CF2381222379F12150DD
:10234000238334818A2D821B311101C0822F1C9F6F
:10235000F0011D9FF00D1124ED5DFD4F90911B03C9
:10236000899FC0011124B6010E942330628321118C
:1023700004C0332311F01482A38222E02B1510F243
:102380001C9FF0011D9FF00D1124ED5DFD4F80910C
:102390001903808380911A038183B4CF0E94AC30EB
:1023A000823091400CF0AECF82E08B1530F50E9468
:1023B000AC30B7010E9437301C9FF0011D9FF00D1B
:1023C0001124ED5DFD4F808322E02B15C8F40E949F
:1023D000AC3020911A032695622F70E00E943730AE
:1023E000280F1C9FF0011D9FF00D1124ED5DFD4F86
:1023F00021831282A382848285CF80911903DCCF4E
:1024000020911A03EECFEF92FF921F93CF93DF93A9
:10241000EC0110E0EE24EA94F12C609116011617FD
:1024200070F00E94FB109A818C8190FF27C08F5F13
:102430008C83DF91CF911F91FF90EF9008952091B1
:102440001401422F410F5527551FCA019A01220F2F
:10245000331F280F391F29513E4F70E0C7010E94DA
:102460003730962F8C8140911B0360911A03199F7E
:10247000800D11240E944A0C1F5FCFCF8150D8CF0E
:102480008F929F92AF92BF92CF92DF92EF92FF9284
:102490000F931F93CF93DF93EC018A81BB24BA94EF
:1024A00080FD02C0BB24B394A09016018C818111E1
:1024B00009C081E0B81228C08FEF8A0D8093E40133
:1024C00081E08C83F12CE12C44E1942EEA14F8F0A5
:1024D0000E94FB108091E40191E0B9125FC081116C
:1024E00058C08091160181508093E4011C82DF91D5
:1024F000CF911F910F91FF90EF90DF90CF90BF9001
:10250000AF909F908F9008951092E401D9CF0091E1
:1025100014010E0D1F2D111DC801880F991F080FE2
:10252000191F09511E4FF80111821082128234E0E6
:10253000C32ED12C812C8091E401880D85312CF1A2
:10254000692D0E941530892F082E000C990B8E15CD
:102550009F0591F480911B038C9DA0018D9D500DD2
:1025600011245595479555954795980160911A0303
:10257000809119030E944A0C8B0CF1E0CF1AD1080C
:10258000D1F68FEFE81AF80AA1CF87FFDDCF8A0DC9
:10259000DBCF81508093E401BC82A9CF90E001960B
:1025A0006091160170E00E9437308093E4018C83C3
:1025B0009ECFEF92FF920F931F93CF93DF93EC0187
:1025C0008C81811109C081E08C831092E50192E039
:1025D0009093100180930F01809114019091150147
:1025E00023E0829FF0011124E951FE4F891768F121
:1025F00010E003E060911601161768F10E94FB10CD
:1026000080910F012091E501280F2093E501909121
:102610001001980F90931001191654F4022E000C1B
:10262000330B409116014150550B2417350734F0F8
:10263000819580930F01813009F41C82DF91CF9145
:102640001F910F91FF90EF900895118210821282D6
:102650008F5F3396CBCFE12EF12C70E0C7010E9443
:10266000373020911401820F482F50E02091E5016E
:10267000022E000C330BE216F306BCF02091100181
:10268000022E000C330B2E153F057CF0809F90012D
:10269000112429513E4F40911B0360911A038091F0
:1026A00019030E944A0C1F5FA5CFFA01EE0FFF1F0E
:1026B000E40FF51FE951FE4F118210821282F3CF11
:1026C0008F929F92AF92BF92CF92DF92EF92FF9242
:1026D0000F931F93CF93DF93EC014C81042F10E0F5
:1026E0009801D8010E947B319B01AC010E944631C8
:1026F0004B015C01E0E2F0E0E01BF10BA5E5B0E08E
:10270000AC019B010E9446316B017C019F01DF01FE
:102710000E9451309B01AC010E9451319B01AC01E0
:10272000280D391D4A1D5B1DC701B6010E94593194
:10273000F22E822F90E039E23F1560F143E0249FB2
:102740009001112435952795122F109500E085E50D
:10275000E82EEF1880911601081758F10E94FB101F
:102760009C8181E0992319F0903219F48FEF8093C6
:10277000110180911101890F8C83DF91CF911F91FD
:102780000F91FF90EF90DF90CF90BF90AF909F9010
:102790008F90089525E530E0B901681B790B9B0106
:1027A000220F331F260F371F37FFCCCF2F5F3F4F2E
:1027B000C9CF8E2D01FD8F2D20911401622F600F46
:1027C0007727771F9B01220F331F260F371F2951B1
:1027D0003E4F412F60911A030E944A0C0F5FBACFFF
:1027E0000F931F93CF93DF93EC0110E000E09091E3
:1027F00016019017110609F06CF40E94FB108C81F1
:1028000090E00196817099278C83DF91CF911F9181
:102810000F91089520911401A801420F511D9A01B2
:10282000220F331F240F351F29513E4F4C816091D9
:102830001A038091190396959017110651F04CF0E8
:10284000442349F040911B030E944A0C0F5F1F4F25
:10285000CECF4423B9F340E0F7CF9091180390FF17
:1028600014C0909114012091150133E0939FF00161
:102870001124E951FE4F921710F00C94FB10818344
:10288000608342839F5F3396F6CF08950F931F9323
:10289000CF93DF9300D00F92CDB7DEB78C0180913C
:1028A000E60181110AC09E012F5F3F4F46E96FEF9D
:1028B0000E944A0C8A818093E601F80164816130AC
:1028C00069F08091E60140E0662361F040E062300B
:1028D00011F44091E60180E060E004C06091E601FF
:1028E00040E080E00E942D14F801848190E0019680
:1028F00063E070E00E94373084830F900F900F9058
:10290000DF91CF911F910F910895CF93DF9300D066
:102910000F92CDB7DEB79091180390FF0AC09E01C9
:102920002F5F3F4F0E944A0C4B8169818A810E9430
:102930002D140F900F900F90DF91CF910895CF93AA
:10294000DF93EC01EC81F0E0EF54FE4F4491E8E1BD
:10295000F3E0628181810E9485148C818F5F8C837A
:10296000DF91CF910895CF93DF93EC01E8E1F3E09D
:10297000438162818C810E9485148C818F5F8C835E
:10298000DF91CF9108958091E301811111C0809171
:10299000D80080618093D8008AE18A95F1F700C061
:1029A0009091D900892F817090FF82E08093E3019C
:1029B00081E09091E301913009F080E00895CF9299
:1029C000DF92EF92FF926B017C010E94340CB70101
:1029D000A60188E090E0FF90EF90DF90CF900C94FC
:1029E0000531AF92BF92CF92DF92EF92FF920F9399
:1029F0001F93CF93DF9300D00F92CDB7DEB7182F80
:102A0000F62E042FE22E9091180390FF3AC0E92F82
:102A1000E695AE2FB0E0A45CBE4F8C9180931D0371
:102A20009E7F9230E1F59E012F5F3F4F812F0E94E4
:102A30004A0C4B8169818A810E942D14809119036F
:102A4000811308C080911A038F1104C080911B0369
:102A5000801729F080911F03826080931F031093D9
:102A60001903F0921A0300931B03EE2051F06091BA
:102A700018037091190380911A0390911B030E940F
:102A8000DF140F900F900F90DF91CF911F910F9156
:102A9000FF90EF90DF90CF90BF90AF90089582307D
:102AA00019F400911B03CACF863019F41091190351
:102AB000C5CF8930D9F3893109F6E9518E2F81705C
:102AC000D82EE695F0E0E455FE4FA590B490C12CC9
:102AD000BB2460911601C61618F00E94FB10AECF01
:102AE0002C2D30E0A29EC001A39E900DB29E900DB1
:102AF000112470E00E942330812FD11013C0860F63
:102B000040911401420F532F511D9A01220F331F80
:102B1000240F351F29513E4F402F6F2D0E944A0C24
:102B2000C394D7CF861BECCFE8E1F3E0438128E0E4
:102B3000421B08F440E021E0628181810C94F11491
:102B4000E8E1F3E0438128E0420F08F44FEF21E091
:102B5000628181810C94F114E8E1F3E0628128E064
:102B6000621B08F460E021E0438181810C94F11440
:102B7000E8E1F3E0628128E0620F08F46FEF21E002
:102B8000438181810C94F114E8E1F3E0818121E03B
:102B90004381628188500C94F114E8E1F3E0818173
:102BA00021E043816281885F0C94F11480911C03C1
:102BB000882319F0815080931C0360911803709151
:102BC000190380911A0390911B030C94DF148091D8
:102BD0001C03833018F48F5F80931C0360911803EB
:102BE0007091190380911A0390911B030C94DF14C8
:102BF000E8E1F3E083E0808311828FEF828386E94E
:102C000083831482ADE1B3E012968C9112978360B6
:102C100012968C9360817181828193810C94DF1470
:102C20006CEE7EEF90E080E00E94113160E082E087
:102C300090E00E94F33060E083E090E00E94F33087
:102C40001092F1021092F2021092F3021092F4022A
:102C500060E084E090E00E94F33060E081E290E088
:102C60000E94F33060E085E090E00E94F33060E085
:102C700086E090E00E94F3306FEF87E090E00E94E2
:102C8000F33040E050E0BA0188E090E00E94053166
:102C900060E08DE090E00E94F33040E050E0BA0147
:102CA00088E190E00E94053160E087E190E00E94B9
:102CB000F33040E050E0BA018CE190E00E94053131
:102CC00060E080E290E00E94F33040E050E0BA0122
:102CD00088E190E00E94053140E050E0BA018FE0C9
:102CE00090E00E94053140E050E0BA0183E190E0BD
:102CF0000C94053178941F921FB61F9211248F9364
:102D00009F93AF93BF9380916B0390916C03A091BD
:102D10006D03B0916E030196A11DB11D80936B03ED
:102D200090936C03A0936D03B0936E03BF91AF912A
:102D30009F918F911F901FBE1F9018952FB7F894E9
:102D400080916B0390916C03A0916D03B0916E0321
:102D50002FBF08950E949E169C0190917D03809143
:102D60007E03982B21F030937A032093790390917E
:102D70007F0380918003982B21F030937703209379
:102D80007603E0910403F0910503309749F082E067
:102D900080937B030480F581E02D8BE793E0099419
:102DA00008951092EE021092ED020E94290B86E027
:102DB000EBE7F3E0DF011D928A95E9F710927803C3
:102DC000109275031092F5020E94AA1690E080E01E
:102DD0000E94060C90E080E00C94F00B0F931F9380
:102DE0008B019C010670112722273327063011051D
:102DF0002105310569F4686060932503709326030B
:102E000080932703909328031F910F910C94D11660
:102E1000677FF2CF0F931F9341E050E060E070E0D6
:102E200004C0440F551F661F771F8A95D2F7CB0148
:102E3000BA01609570958095909500912503109149
:102E400026032091270330912803602371238223D6
:102E500093231F910F910C94EE169091EC028095A4
:102E600089238093EC02282F277071F4282F082ED5
:102E7000000C330B9217130639F0859585958595CF
:102E80000E940A171092EC0208950F931F9341E0DD
:102E900050E060E070E004C0440F551F661F771FCC
:102EA0008A95D2F78091250390912603A09127035C
:102EB000B09128038A019B01082B192B2A2B3B2B4D
:102EC000C901B8011F910F910C94EE166093F102A5
:102ED0007093F2028093F3029093F4020C94D11653
:102EE0001092EF02EAECF1E086E0DF011D928A9594
:102EF000E9F70C94D1161F93CF93DF93CDB7DEB7CC
:102F0000AA970FB6F894DEBF0FBECDBF8AE993E053
:102F10002091F100FC012193CF01F3E0823A9F0759
:102F2000B9F780919B03833009F46FC0B8F4813006
:102F300009F446C0823009F4B0C08091E80083FFF4
:102F40007BC280919A0390919B039A3008F074C2DF
:102F5000E92FF0E0E656FE4C0C944B308A3009F431
:102F60008BC08B3009F46EC0893039F780919A0399
:102F7000813219F780919E0390919F030297E8F6A2
:102F80008091E800877F8093E8008091E80082FFCD
:102F900037C09091F3008091F200029729F480915C
:102FA000F1008B7F813021F48091F10080938D03BB
:102FB0008091E8008B778093E8000E94D308BDCF12
:102FC00080919A03813A09F0B8CF8091E800877F19
:102FD0008093E80080919E0390919F03892B61F478
:102FE00068E08EE893E070E00E9485098091E80037
:102FF0008B778093E800A1CF60E090E080E0F3CF92
:10300000809198038111C1CF98CF80919A03813A22
:1030100009F093CF80919E0390919F03892B09F033
:103020008CCF8091E800877F8093E8008091E80052
:1030300080FFFCCF80913B018093F1008091E800FC
:103040008E77B9CF80919A03813209F076CF809143
:103050009E0390919F03892B09F06FCF8091E80028
:10306000877F8093E8000E94D30880919C0380931F
:103070003B010E94701761CF80919A03813209F061
:103080005CCF8091E800877F8093E8000E94D3089E
:1030900080919D0380938C0350CF80919A03813A55
:1030A00009F04BCF8091E800877F8093E800809102
:1030B000E80080FFFCCF80918C03BECF803899F070
:1030C000823809F0B9C180919E038F70873008F073
:1030D000B3C18093E9008091EB0085FB882780F9DC
:1030E0001092E90006C08091960390919703911188
:1030F00082609091E800977F9093E8008093F100C0
:103100001092F1008091E8008E7792C1882309F433
:1031100080C1823009F090C180919C03811183C1EC
:1031200080919E038F702FEF280F263008F084C106
:103130008093E9002091EB0020FF75C1933031F4BA
:103140008091EB0080628093EB006DC19091EB0069
:1031500090619093EB0021E030E001C0220F8A954E
:10316000EAF72093EA001092EA008091EB00886071
:10317000EACF811161C110919C031F778091E30018
:103180008078812B8093E3008091E800877F809393
:10319000E8000E94D3088091E80080FFFCCF809176
:1031A000E30080688093E30082E0111183E0809364
:1031B000980342C18058823008F03EC180919C0340
:1031C00090919D038C3D23E09207A1F583E08A83D3
:1031D0008AE289834FB7F894DE01139620E03EE03F
:1031E00051E2E32FF0E050935700E49120FF03C039
:1031F000E295EF703F5FEF708E2F90E0EA30C0F005
:10320000C7968D939D932F5F243159F74FBF8091BF
:10321000E800877F8093E8006AE270E0CE010196C3
:103220000E9485098091E8008B778093E80004C1B3
:10323000C096E7CF40919E0350919F03292F3327DB
:103240002330310509F444C078F52130310509F403
:103250006FC08BE390E0ECE5FAE02230310509F035
:10326000EBC02091E800277F2093E8002091A00385
:103270003091A1038217930708F49C0140E02115C7
:10328000310509F064C0411162C08091E80082FDFF
:10329000C9CF80919803882329F2853019F2809153
:1032A000E80083FFF2CFBECF21323105A9F12232EF
:1032B000310509F0C1C04115510509F443C0413041
:1032C000510509F0B9C081E890E0EBE9F9E0C9CF18
:1032D000992781309105C1F0009759F0029709F0C4
:1032E000ABC0E9EAFAE0E4918E2F90E0E9EAFAE077
:1032F00007C0EBEDFAE0E4918E2F90E0EBEDFAE001
:10330000009709F499C0ADCFE9ECFAE0E4918E2F73
:1033100090E0E9ECFAE0F4CF4115510571F041304D
:10332000510509F089C089E090E0E7E8FAE099CF1B
:1033300082E190E0E7E9FAE094CF89E090E0EEE600
:10334000FAE08FCF80E490E0ECE1FAE08ACF809160
:103350009803882309F466CF853009F463CF809100
:10336000E80083FD5FCF8091E80082FD8ECF8091E1
:10337000E80080FF84CF9091F3008091F200211546
:10338000310519F08830910550F041E0089709F0B7
:1033900040E08091E8008E778093E80070CF449100
:1033A0004093F1003196215031090196E8CF8038E1
:1033B00009F042C08091E800877F8093E800809107
:1033C00099038093F1009ECE811136C010919C0329
:1033D000123090F58091E800877F8093E800109389
:1033E00099030E94D308112311F084E005C0809155
:1033F000E30087FDFACF81E08093980342E061EC1F
:1034000081E00E94F20842E261EC82E00E94F20850
:1034100013C080919C03813079F481E0933009F0EE
:1034200080E0809397031092E9008091E800877F05
:103430008093E8000E94D3088091E80083FF0AC0CF
:103440008091E800877F8093E8008091EB008062A4
:103450008093EB00AA960FB6F894DEBF0FBECDBFE7
:10346000DF91CF911F9108951F920F920FB60F9287
:1034700011242F933F934F935F936F937F938F9379
:103480009F93AF93BF93CF93DF93EF93FF93D0912D
:10349000E900DF708091EC00C82FC17080FDC0E8AA
:1034A0001092E9008091F000877F8093F00078947B
:1034B0000E947B171092E9008091F0008860809351
:1034C000F000CD2BCF70C093E900FF91EF91DF9119
:1034D000CF91BF91AF919F918F917F916F915F91AC
:1034E0004F913F912F910F900FBE0F901F90189505
:1034F0001F920F920FB60F9211242F933F934F9369
:103500005F936F937F938F939F93AF93BF93EF934B
:10351000FF938091E10082FF09C08091E20082FF69
:1035200005C08091E1008B7F8093E1008091DA00FB
:1035300080FF24C08091D80080FF20C08091DA00F5
:103540008E7F8093DA008091D90080FF9FC080E158
:1035500089BD82E189BD09B400FEFDCF81E0809381
:10356000980380918B03811109C00E9459080E9421
:1035700024098091E20084608093E2008091E10060
:1035800080FF17C08091E20080FF13C08091E200AD
:103590008E7F8093E2008091E20080618093E20060
:1035A0008091D80080628093D80019BC85E0809318
:1035B00098038091E10084FF2DC08091E20084FF98
:1035C00029C080E189BD82E189BD89B5982F9170BC
:1035D00080FFFBCF8091D8008F7D8093D8008091B1
:1035E000E1008F7E8093E1008091E2008F7E8093E6
:1035F000E2008091E20081608093E2008091990373
:10360000882309F449C084E0809398030E947017CE
:103610000E941C0C8091E10083FF27C08091E20092
:1036200083FF23C08091E100877F8093E10082E0E7
:1036300080939803109299038091E1008E7F80938C
:10364000E1008091E2008E7F8093E2008091E200B1
:1036500080618093E20042E060E080E00E94F20836
:103660008091F00088608093F000FF91EF91BF910E
:10367000AF919F918F917F916F915F914F913F910A
:103680002F910F900FBE0F901F90189519BC10929C
:10369000980310928B0372CF8091E30087FD93E033
:1036A00090939803B3CF882309F459C0823871F4FA
:1036B0000E941C0C81FF53C089E30E94630B0E948F
:1036C000290B89E30E94560B0C94290B833859F47B
:1036D0000E941C0C80FF43C083E50E94630B0E9484
:1036E000290B83E5EFCF843859F40E941C0C82FF2C
:1036F00036C087E40E94630B0E94290B87E4E2CF67
:103700009CEF980F913AF0F290E2980F983088F47D
:10371000877021E030E0A90102C0440F551F8A954F
:10372000E2F7CA0180959091EF0289238093EF021E
:10373000CBCF9BE5980F933020F490E080E00C9481
:10374000060C98E5980F973120F490E080E00C94F7
:10375000F00B803F20F00E94E7090C94AA16089510
:10376000CF93C82F882309F490C08238C1F40E94F7
:103770001C0C81FD8AC089E30E94630B0E94290B07
:103780002FEF81EE94E0215080409040E1F700C09F
:10379000000089E30E94560BCF910C94290B8338CB
:1037A000A1F40E941C0C80FD70C083E50E94630B95
:1037B0000E94290B2FEF81EE94E021508040904031
:1037C000E1F700C0000083E5E5CF8438A1F40E9452
:1037D0001C0C82FD5AC087E40E94630B0E94290BD7
:1037E0002FEF81EE94E0215080409040E1F700C03F
:1037F000000087E4CFCF8CEF8C0F813A68F4EAECBD
:10380000F1E08191C817D9F121E0E03DF207C9F755
:103810008C2F0E94630BC0CF80E28C0F883068F43D
:10382000C77021E030E001C0220FCA95EAF780910D
:10383000EF02822B8093EF02AFCFEBE5EC0FE3308A
:1038400040F4F0E0E959FE4F808190E0CF910C9474
:10385000060CE8E5EC0FE73150F4F0E0EE0FFF1F47
:10386000E659FE4F80819181CF910C94F00BC03FBF
:1038700060F08C2F0E94AC0ACF910C94AA168C2F6A
:103880000E94560B0E94290BC3CFCF910895CF936E
:10389000C82F0E94B01B8C2FCF910C94531B0F93F9
:1038A0001F93CF93DF93C62FD42F022FFC01828169
:1038B0008823A1F06093A4030E949E169093A30313
:1038C0008093A203C77081E001C0880FCA95EAF710
:1038D000DF91CF911F910F910C94E60B8091A4037F
:1038E000681335C08091A2039091A3030E94140B2A
:1038F000883C910560F510E21D0FCD17B9F080E20C
:103900008C0F883040F4C77081E001C0880FCA95E1
:10391000EAF70E94DB0B183048F481E09D2F977086
:1039200001C0880F9A95EAF70E94E60B802F0E944B
:10393000471C183098F4D77081E001C0880FDA95E1
:10394000EAF7DF91CF911F910F910C94DB0BC770B9
:1039500081E001C0880FCA95EAF7F3CFDF91CF91DC
:103960001F910F910895811106C089EA611101C06C
:103970008AEA0C94471C813029F48EE46111F9CF56
:103980008BE4F7CF089560911803669570E04BE0E3
:1039900050E084E091E00E94C530892B19F481E069
:1039A00080931E030E949E1690931303809312032C
:1039B00080911F03846080931F03089590911803E2
:1039C00090FF3BC0917081112EC0926090931803BC
:1039D00080911F03816080931F03662351F06091E3
:1039E00018037091190380911A0390911B030E9490
:1039F000DF1460911803669570E04BE050E084E0BE
:103A000091E00E94C530892BA9F00E942D0C81E025
:103A10008093150320E040911B0360911A0380916D
:103A200019030C94F1148B3210F09465CFCF880FEA
:103A3000982BCCCF0E94C31CEACF08958091180325
:103A40008695815009F48AE261E00C94DE1C809135
:103A5000180386958F5F8B3208F081E061E00C944B
:103A6000DE1C9091180390FF07C09695981720F0E0
:103A7000961710F40C94271D61E00C94DE1C3F9205
:103A80004F925F926F927F928F929F92AF92BF926E
:103A9000CF92DF92EF92FF920F931F93CF93DF931A
:103AA00000D000D00F92CDB7DEB77C01FC0183813E
:103AB0009481892B39F010810181812F80238F3FE0
:103AC00009F0FAC40F900F900F900F900F90DF91B4
:103AD000CF911F910F91FF90EF90DF90CF90BF900B
:103AE000AF909F908F907F906F905F904F903F909E
:103AF00008950E94DA0ED82E682F89819A810E943B
:103B0000A40B28E0D29EF0011124E00FF11DA3E0E8
:103B1000EE0FFF1FAA95E1F7E10FF11DEE0FFF1F5A
:103B2000ED54FD4F05911491043F3CE5130709F452
:103B300094C0B8F5093D9CE5190709F48AC00A3D0F
:103B4000ECE51E0709F495C0083DFCE51F07B9F533
:103B500026E241EE61EEC7010E944F1C8091EC020B
:103B6000877009F4AFCFF7018281882309F4AACFC7
:103B700082E00F900F900F900F900F90DF91CF91F8
:103B80001F910F91FF90EF90DF90CF90BF90AF907B
:103B90009F908F907F906F905F904F903F900C948C
:103BA0002D17063F2CE5120709F45FC008F459C031
:103BB00027E245EE66EE073F8CE5180761F2F70154
:103BC0009281992309F489C41092A4030230FCE580
:103BD0001F0708F42FC106312CE5120738F09801B1
:103BE0002B5F3C452930310508F024C10E94641048
:103BF000909301038093000300313CE5130709F41F
:103C0000E8C008F076C008309CE5190709F4D7C071
:103C100008F045C00430FCE51F0709F4C8C060F592
:103C200002303CE5130709F4B8C003301C4509F421
:103C3000BAC0609100031091010384E090E00E94FB
:103C4000F330612F81E290E00E94F3300E94701700
:103C500085CF27E245EE65EE7ECF26E241EE60EEAF
:103C60007ACF27E245EE64EE76CF26E241EE62EEB1
:103C700072CF28E241E0EFCF8091000380610630EF
:103C80009CE5190709F48CC0809100038860073017
:103C90001C4508F485C080910003806281C080913A
:103CA00000038D7F0C30FCE51F0709F479C070F428
:103CB000809100038C600A303CE5130709F470C062
:103CC00008F481C0809100038E7F6AC08091000358
:103CD000877F0E309CE5190709F462C080910003CC
:103CE0008B7F0F301C4508F45BC0809100038F7EF2
:103CF00057C00C3FFCE51F0709F45DC030F50331E8
:103D00003CE5130709F46DC078F401319CE519070F
:103D100009F463C002311C4509F08BCF0E94701773
:103D2000809100038F773CC00531FCE51F0709F443
:103D300060C008F474C08091010381600B3F1C4592
:103D400009F077CF8093010374CF01158DE5180733
:103D500009F44BC088F4809101038D7F0E3FECE5A0
:103D60001E0781F3809101038E7F0F3F1C4550F3A6
:103D7000809101038360E6CF02302DE5120709F43C
:103D800057C008F442C060E003301D4509F051CF30
:103D90008EE090E00E94F3304CCF80910003816070
:103DA0008093000346CF809100038260F9CF809119
:103DB00000038460F5CF809101038260C3CF8091BE
:103DC00000038064EDCF0E9470178091000380682B
:103DD000E7CF809100038F7DE3CF809100038F7B3D
:103DE000DFCF80910003837FDBCF809101038C7F45
:103DF000A9CF8091000382FB992790F921E09227B7
:103E000090FB82F990FB83F9CBCF80910103982F2F
:103E1000909591708E7F892B90FB81F993CF0E94B2
:103E2000701790910003892F97FB87F98058B8CFBE
:103E300061E0AECF0631ECE51E0709F060C380916A
:103E4000EF028A7A91E009F490E090938B0281115D
:103E500006C089E20E94630B0E94290B7FCE85E396
:103E6000F9CF80918B02811104C089E20E94560B28
:103E7000F3CF85E3FBCF8091180380FF20C08E7FB6
:103E800080931803609118037091190380911A03AD
:103E900090911B030E94DF140E942D0C80911F0340
:103EA000816080931F03FFEF20E732E0F150204054
:103EB0003040E1F700C000000E94FB104FCE81604F
:103EC0008093180361E086950E94DE1C47CE4EE188
:103ED0005DE167E27DE10E94280C40CE47E25DE1B2
:103EE0006EE17DE1F8CF44EC55E16DEC75E1F3CF87
:103EF0004DEC55E164EC75E1EECF4CEA55E168EB31
:103F000075E1E9CF48EB55E16CEA75E1E4CF44E9AE
:103F100055E160EA75E1DFCF40EA55E164E975E11A
:103F2000DACF46ED55E167EE75E1D5CF47EE55E1C5
:103F300066ED75E1D0CF61E081E0C6CF65E082E05B
:103F40000E94311D0BCE68E086E0FACF6EE089E07A
:103F5000F7CF64E18FE0F4CF67E185E1F1CF61E075
:103F600088E1B2CF62E289E1EBCF61E083E2ACCFDE
:103F70000E9470178FEF94E3ECE081509040E04096
:103F8000E1F700C0000081E08093E00080E28093D0
:103F9000D8001092C9008FE19EE40197F1F700C0AC
:103FA000000087E090EBDC018093B3079093B407A7
:103FB000A093B507B093B60788E19CE00FB6F894DC
:103FC000A895809360000FBE90936000FFCF0E9481
:103FD0001016C4CDC8010E947C0BD82EA7C2212F79
:103FE0002F70C22E107F19F0C29450EFC522AA2064
:103FF000C9F0CC2069F080E28B0D883010F00111FF
:104000000BC08091EF02C82AC092EF020E94290BD8
:104010008B2D0E94B01B19C08091EE02C82AC0925D
:10402000EE02F4CF8B2D0E94531BCC2071F0C09474
:1040300080E28B0D883010F0011148C08091EF02B2
:10404000C822C092EF020E94290BED2DE850FF0B11
:10405000349710F40E941C0C3320A9F08091EC02DC
:1040600080FD11C0F70112828595859585950E9486
:104070004517C7010E943F1D8091EC0285958595EB
:1040800085950E940A1785E0F701DE0111960190DF
:104090000D928A95E1F789819A810E947C0BEA81D1
:1040A000F8E08F9FC00111248E0F911D23E0880F2F
:1040B000991F2A95E1F7E981E80FF92FF11DEE0F1D
:1040C000FF1FED54FD4F85919491FCCC8091EE0241
:1040D000C822C092EE02B7CF312F3F70C32E107F9F
:1040E000103219F0C29440EFC422002369F001306D
:1040F00061F1AA20B9F1992071F1F701858180FF62
:1041000087CF8F70858327C0AA2091F09091F0020D
:104110008C2D892B911003C00E94E60B96CFE1E015
:104120009E12FACF981709F490CF8093F0028DCFAA
:10413000911006C00E94230B8C2D0E94DB0B85CFB3
:10414000F1E09F1609F481CFF5CFAA2031F025E0E8
:10415000291508F47ACF8C2DDFCF34E0391508F417
:1041600074CFEACF992041F3093349F4FFEF27EEEA
:1041700033E0F15020403040E1F700C000008B2DCB
:104180000E94531B62CF812F86958695837069F0BC
:10419000813009F05ACF8B2D912F9370A11002C05E
:1041A00090E080E00E94F00B50CF8B2D912F937008
:1041B000A11002C090E080E00E94060C46CF8B2D3B
:1041C000AA2029F00E94AC0A0E94AA163ECF0E94A3
:1041D000E709FACF812F837009F06CC0A11035CFA9
:1041E0008B2D829586958770880F880F6B2D6F7049
:1041F000462E512C712C612C082E04C0440C551CE9
:10420000661C771C0A94D2F740E050E0BA01B4FE75
:104210000FC04FE050E060E070E004C0440F551F55
:10422000661F771F8A95D2F74095509560957095D7
:10423000169516951370123019F1A8F58090F102B9
:104240009090F202A090F302B090F402113069F065
:104250004429552966297729CB01BA01682179219A
:104260008A219B210E946617F0CE84289528A628D3
:10427000B728CB01BA01682979298A299B29F2CF6D
:1042800044295529662977298090F1029090F202FD
:10429000A090F302B090F402CB01BA016825792511
:1042A0008A259B25DFCFCB01BA0164297529862990
:1042B0009729D8CF8695AA2011F0812F8170882365
:1042C00009F4C3CE8B2D829586958770880F880F51
:1042D0006B2D6F70462E512C712C612C082E04C052
:1042E000440C551C661C771C0A94D2F740E050E041
:1042F000BA01B4FE0FC04FE050E060E070E004C0CF
:10430000440F551F661F771F8A95D2F74095509529
:1043100060957095169516951370123019F1A8F5E1
:104320008090250390902603A0902703B090280347
:10433000113069F04429552966297729CB01BA0142
:10434000682179218A219B210E94EE167ECE842845
:104350009528A628B728CB01BA01682979298A2986
:104360009B29F2CF44295529662977298090250376
:1043700090902603A0902703B0902803CB01BA01A8
:10438000682579258A259B25DFCFCB01BA016429D1
:10439000752986299729D8CF1F70AA2029F0812F47
:1043A0000E9445178B2DB8CE8B2D0E94DB0B812FE1
:1043B0000E940A174ACE8B2D023F09F44AC060F4CE
:1043C000003FF9F0013FE9F1AA2009F465C091101E
:1043D0001FCE812F8F713AC0033F09F43FC0043FC5
:1043E00099F7AA2009F44DC01F71812F0E9445172B
:1043F000E8E01E9FC001112483608093EC02812FAE
:1044000025C0AA20C9F084E0891508F41ECE1F71CA
:1044100061E070E080E090E004C0660F771F881FC5
:10442000991F1A95D2F78090250390902603A090AB
:104430002703B0902803A4CF95E0991508F405CE82
:10444000E6CF812F8F71AA2009F4B2CF0E944517C1
:10445000FCCD812F8F71AA20C9F3AACF60E070E054
:10446000CB01AA2009F470CF1F7161E070E080E0F9
:1044700090E004C0660F771F881F991F1A95D2F726
:1044800063CF81E00E942D17F1E0F91508F0DDCD32
:1044900082E00E942D17D9CD992059F0893309F077
:1044A0006ECE2FEF37EE83E0215030408040E1F7B1
:1044B00064CE812F8F717CCF85E0DE011196019053
:1044C0000D928A95E1F7F701228189819A81211164
:1044D00010CB0E947C0BD82E14CB0631FCE51F07B5
:1044E00009F4BFCC8091EF028272F801E35CFC45D5
:1044F000E431F10568F4EC55FE4C0C944B30011599
:104500002CE5120709F434CD0F3D1C4509F45FCDAD
:10451000F70100811181992309F45CCDC8010E9443
:10452000DA0ED82E682FC8010E94A40BB8018D2D79
:104530000E943D0DB82E192F082FF70195809294F7
:104540007FE09722A280A1101092EE028091EC02EF
:10455000877099F0AA2089F0812F807F803421F024
:1045600080E28B0D883048F082E00E942D17809108
:10457000EC028770332433948111312CD12ED294E4
:104580006FE0D622FBE0FD1508F45FCDED2DF0E0E5
:10459000E854FE4C0C944B301F93CF93DF938091E3
:1045A0009102807FA9F480918E02882389F0809106
:1045B000C302D091920260918C0270918D02A09101
:1045C0008F02B0919002C62FC72316E0D81304C003
:1045D000DF91CF911F91089590E0109711F0CF3F98
:1045E00019F401968770F2CF189F9001199F300D32
:1045F0001124F901ED56FD4F41814713F2CF40815F
:104600004613EFCF42814111ECCF438154814A1BC5
:104610005B0B483C510528F7809191028F708061B7
:1046200080939102F901E856FD4F80818F7080617F
:1046300080838CE892E00E943F1DDF91CF911F9113
:104640000C94D10BAF92BF92CF92DF92EF92FF9278
:104650000F931F93CF93DF93CDB7DEB761970FB65C
:10466000F894DEBF0FBECDBF8C0185E0F801DE01FE
:104670001D9601900D928A95E1F7F8018081918154
:10468000E2802CE8A22E22E0B22E60918F0270917F
:1046900090026115710509F43EC130918C02409180
:1046A0008D02232F24232F3F09F435C1C380D480EA
:1046B000F0908E02F601E61BF70BFF2009F4FBC019
:1046C00020919102522F507FE83CF10508F0BBC0C9
:1046D000511178C0FE2C491321C038131FC0E110BE
:1046E0001DC02F70206120939102C5010E943F1DC3
:1046F00080919102F80185838F2D61960FB6F89411
:10470000DEBF0FBECDBFDF91CF911F910F91FF9004
:10471000EF90DF90CF90BF90AF900895CD2829F013
:10472000282F29232F3F09F014C120E0F22FF17028
:10473000DF2E20FF3DC02091C3024091920256E03F
:10474000241315C08D879E878D859E850E941C0F22
:10475000292F22952F702230F8F0243020F59F70F9
:10476000F9F0F8019581907FD9F4D12C1FC030E089
:10477000529FF001539FF00D1124ED56FD4F6181C2
:10478000961306C06081861303C06281E61210C0D2
:104790002F5F3F4F2770D4CF9F7011F0882329F3EC
:1047A000805E883010F3C8010E943F1DFD2CA4CF0D
:1047B000EE2009F4A1CF8091910281608093910253
:1047C000F12C9ACF491312C0381310C0E1100EC05B
:1047D000F8012583C8010E943F1D86E0F801ACE87E
:1047E000B2E001900D928A95E1F786CF8D879E8782
:1047F0008D859E850E94260F882309F1EE20F9F011
:1048000080919102803270F020918C0230918D0263
:1048100038872F831986DB86CA868C87CE01079658
:104820000E943F1D86E0F801ACE8B2E001900D92D5
:104830008A95E1F70E94CC22FF24F3945DCFC80152
:104840000E943F1DF9CF51110AC08CE892E00E94EE
:104850003F1D86E0F50111928A95E9F7B1CF491322
:104860000FC038130DC0E1100BC0F8012583C8013B
:104870000E943F1D86E0F50111928A95E9F73CCF31
:104880008D879E878D859E850E94260F8823B9F28D
:10489000EE20A9F280919102803220F220918C02C8
:1048A00030918D023A8329831B82DD82CC828E83F4
:1048B000CE010196B5CFE83CF105E0F6FE2CEE20E6
:1048C00009F4BDCF491316C0381314C0809191026A
:1048D00080FD83CF982F907F09F47FCFF8018583E7
:1048E000903F09F477CF982F907F905F8F70892B3E
:1048F000858370CF8D879E878D859E850E94260F2C
:10490000811190CF80919102816080939102C801C2
:104910000E943F1DF1CEEE2009F491CF8D879E8736
:104920008D859E850E94260FF82E882309F487CF57
:1049300086E0F801ACE8B2E001900D928A95E1F7CB
:1049400080918C0290918D020E941C0F0E94CC22BB
:10495000D3CE21E02E25EACE1F93CF93DF93CDB7A0
:10496000DEB767970FB6F894DEBF0FBECDBF4B8B97
:104970005C8B6D8B7E8B8F8B1A8A198A85E0FE018A
:104980007396DE011D9601900D928A95E1F786E0FF
:10499000FE013D96DE01179601900D928A95E1F792
:1049A000CE0107960E942223882389F016E0809189
:1049B000C30290919202891349C067960FB6F8948A
:1049C000DEBF0FBECDBFDF91CF911F91089586E06E
:1049D000FE013796DE01119601900D928A95E1F75E
:1049E0008A859B85892B11F38F81988589238F3F39
:1049F000E9F22091920230E0C9010196877099276F
:104A00004091C3024817190671F40E947017109262
:104A100092021092C30286E0ECE8F2E0DF011D9200
:104A20008A95E9F7C3CF96E0929FD001939FB00D8E
:104A30001124AD56BD4FFE01319601900D929A950D
:104A4000E1F7809392020E94D10BB0CF819FC00109
:104A500011248D569D4F0E942223882309F4ADCF47
:104A60008091C30290E00196877099278093C302DA
:104A70009ECFCF92DF92EF92FF920F931F93CF932F
:104A8000DF9308E911E086EFC82E82E0D82ED0E04F
:104A9000EE24E394F12CF80181918F01F894E82F32
:104AA000E295EF70F0E021A18F70A70102C0440FE2
:104AB000551F8A95E2F7CA01922F982B91A392A1D4
:104AC0008095892382A3789450EA5A95F1F7E0EA19
:104AD000F1E030E020E0C0E04191A42FA295AF705A
:104AE000B0E090968C9190E04F7002C095958795BC
:104AF0004A95E2F780FD48C08E2D022E01C0880F36
:104B00000A94EAF7C82B2F5F3F4F2830310521F771
:104B1000F801319780810E94E30CF6018081C8176B
:104B2000A9F1C08381E0D82BFFEFCF1ADF0A21E083
:104B30000C39120709F0AFCFC091FF02DD2341F11C
:104B400081E08093D3010E949E169093D2018093BE
:104B5000D1018091D1019091D2010E94140B06974E
:104B6000D8F0EC2FF0E0E95FFC4F8091F6028083F3
:104B70008091F70281838091F80282838091F9020B
:104B800083831092D30108C080E0BCCF80E0CBCFFC
:104B90008091D3018111DDCF0E94C314882309F4D1
:104BA0007DC0C091FE0280911F038823E9F085E05B
:104BB000E8E1F3E0A4EDB1E001900D928A95E1F710
:104BC00080911D0390911E03A0911F038093D90132
:104BD0009093DA01A093DB0181E090E00E948B2F9B
:104BE000892B11F410921F0390E080E00E948B2F1C
:104BF000009791F08091E2018F5F8093E20186300F
:104C000008F042C08D2FDF91CF911F910F91FF903F
:104C1000EF90DF90CF900895EC2FF0E0E95FFC4F2C
:104C2000DC01A352BE4F2C91219301968430910553
:104C3000B9F7E09003030E2D10E0005E1C4FC09109
:104C4000E101F8018081C81BFC2E09C0FA94F8012B
:104C500080818F5F808360E08E2D0E94B31C1F14C3
:104C6000ACF38C2FC7FD80E0C81BC11103C01092AC
:104C7000E201C8CFCF5FF80180818150808361E07D
:104C80008E2D0E94B31CF1CFE091FE02F0E0E95FAF
:104C9000FC4F1082118212821382B4CFE091FF0286
:104CA0000E2F10E08091DC01883099F58091DB01B6
:104CB00080FF0FC09091D4018091180390FF40C0F5
:104CC0008160809318038091D40160E086950E94F2
:104CD000DE1C8091DB0181FF09C020E04091D701FB
:104CE0006091D6018091D5010E94F1148091DB0181
:104CF00082FF06C08091DA018823C1F10E94C31CA3
:104D00008091DB0183FF03C081E080931503109243
:104D1000DC01F801E95FFC4F90E080E02191DC01CB
:104D2000A352BE4F2C93019684309105B9F7E091C0
:104D30002303F0E0E05EFC4F80818093E10162CFCD
:104D40008E7F809318030E942D0C80911F03816039
:104D500080931F03FFEF20E742E0F15020404040E6
:104D6000E1F700C000000E94FB10B3CF0E942D0CA1
:104D7000C7CFCDB7DEB762970FB6F894DEBF0FBED0
:104D8000CDBF84B7877F84BF0FB6F894A895809174
:104D90006000886180936000109260000FBE80E820
:104DA00090E00FB6F89480936100909361000FBE7D
:104DB00085B7806885BF85B7806885BF0E94590820
:104DC0000E9424098091E20084608093E20078943C
:104DD000809198038823A1F01091E9001F709091B1
:104DE000EC00892F817090FD80E8182B1092E9006B
:104DF0008091E80083FD0E947B171F701093E900EB
:104E000082E084BD93E095BD9AEF97BD80936E00DC
:104E10000E94C3148093270180912701882309F4FD
:104E2000F5C2109212018AE0809313010E94C3140C
:104E3000882331F062E070E087E191E00E94A92EC2
:104E4000809127018091270194E0811190E0909357
:104E5000FF0284E0891B8093FE0284E30E94E30C3E
:104E600086EC0E94E30C87E90E94E30C84E90E942F
:104E7000E30C00EA11E028EAE22E21E0F22ED8014C
:104E80008D918D010E94E30CE016F106C1F7E6EF6B
:104E9000F2E08EEF92E0A7E0B3E011921D928E1740
:104EA0009F07D9F790E080E00E94ED308C3E9E4F46
:104EB00011F00E9410160E94C314811106C062E016
:104EC00070E087E191E00E94B22E82E08093690356
:104ED00080E88093A5030E945D2D6DE070E086EC74
:104EE00094E00E940610892B09F046C08091690366
:104EF00063E070E081FD8EC283EC94E00E940610B6
:104F0000892BD1F56DE070E083EB94E00E940610F0
:104F1000892B91F52FB7F89480916B0390916C03D6
:104F2000A0916D03B0916E032FBF805A9541AF4F92
:104F3000BF4F80936F0390937003A0937103B0935E
:104F40007203E8EAF3E080E094E0DF019C011D9247
:104F500021503040E1F7F093AF07E093AE078FEFB9
:104F60009FEF9093A7038093A60381E0809374033F
:104F70008093730310926A0390E080E00E94ED300A
:104F80008C3E9E4F11F00E94101682E090E00E942D
:104F9000DF30809382030E9464109093010380931A
:104FA000000383E090E00E94DF30682F70E090E023
:104FB00080E00E9466178091020381113BC090E05F
:104FC00080E00E94ED308C3E9E4F21F00E94101632
:104FD0000E94F81588E090E00E94E7306093180383
:104FE0007093190380931A0390931B0380911F03FE
:104FF000836080931F036E7F71F40E94F81588E030
:1050000090E00E94E7306093180370931903809337
:105010001A0390931B030E94340C0E942D0C809164
:10502000180380FF04C060E086950E94DE1C81E0CA
:105030008093020380912701811106C085E380934C
:10504000290186E68093280120912901A22FA295AB
:10505000AF70B0E091963C9191972F7081E090E015
:10506000BC01022E01C0660F0A94EAF7462F409554
:10507000432391964C93919792963C919297362B1D
:1050800092963C93929740912801E42FE295EF701D
:10509000F0E031A14F70042E01C0880F0A94EAF7A6
:1050A000982F9095932391A392A1892B82A39096F8
:1050B0008C9190E002C0959587952A95E2F78170D2
:1050C00020A130E002C0359527954A95E2F792E09D
:1050D00020FF90E0892B809324039091270181E0A9
:1050E000982790932303891B8093030381E391E026
:1050F000909305038093040384E0682E712CCC24E4
:10510000C394D12C80919803853009F486C10E9404
:105110003925B82E0E94C314882309F4C3C1E3E8DB
:10512000F3E0A7E0B3E010E000E0302F8D91919123
:10513000981709F4B1C1292F282790E0FF24F39490
:10514000422F4F2109F4A3C19F8338878F2191E01B
:1051500009F490E099870E949E168160782F9B87C2
:105160008A874F81588569858B850E94AC24F80118
:10517000ED57FC4F8081F826F08280911E03882332
:1051800009F468C080911D03E0911803E695E81BBF
:10519000E0931403823009F096C1F0E0EC51FB4F2C
:1051A000E4918E2E912C0FE914E180911503882350
:1051B00089F0109215030E949E1694012095309557
:1051C000820F931F9093130380931203109217037F
:1051D0001092160380911203909113030E94140BF6
:1051E00088159905B8F1809111038823B1F01092C8
:1051F000110380910F03909110030E94140B8033D0
:10520000954758F00E949E169093100380930F03C9
:1052100080911F03886080931F03E0901603F09035
:105220001703E0911203F09113038E0E9F1E9092CC
:1052300013038092120382E193E0F80109958091B3
:10524000160390911703892B29F4EF2819F081E0B8
:105250008093110380912403E82FEE0FEE0F8091CD
:105260002901A82FA295AF70B0E090962C9130E064
:105270008F7002C0359527958A95E2F72170332704
:1052800080912801A82FA295AF70B0E090964C9124
:1052900050E08F7002C0559547958A95E2F7CA0194
:1052A0008170992740FF02C082E090E0822B8E2B14
:1052B00080932403109123038F70E82FF0E0E855CA
:1052C000FE4F808190912203890F809322038430C6
:1052D0006CF0E12F012E000CFF0BE05EFC4F808193
:1052E0008F5F808360E0812F0E94B31C8091220336
:1052F0008D3F6CF4E12F012E000CFF0BE05EFC4FA4
:1053000080818150808361E0812F0E94B31C809155
:105310002203082E000C990BB3010E9437308093B2
:10532000220380917403882309F4E2C128EA33E060
:105330003093AF072093AE070E94C314882309F46B
:10534000B7C288EE94E00E94F80F8AE895E00E94C8
:10535000F80F82E895E00E94F80F409125035091E4
:1053600026036091270370912803CB01AA27BB274E
:105370000097A105B10509F405C1AC01BD0180E1AB
:10538000052F162F272F332701151105210531056C
:1053900019F0885FB901A8018A019B01E4E0369504
:1053A000279517950795EA95D1F701151105210560
:1053B000310519F08C5FB901A8018A019B0192E0C7
:1053C00036952795179507959A95D1F701151105EB
:1053D0002105310519F08E5FB901A8017695679511
:1053E00057954795452B462B472B09F08F5F81300A
:1053F00009F455C2882309F4C7C0823009F452C2A7
:10540000833009F452C288E595E0C0C08AE08093F9
:1054100012010ACD80EC94E071CD80919803843024
:1054200021F11092060388E190E020E40FB6F89491
:10543000A895809360000FBE2093600083B7817FA2
:10544000846083BF83B7816083BF7894889583B776
:105450008E7F83BF0FB6F894A89580916000886115
:1054600080936000109260000FBE809197038823A4
:1054700009F448CE0E9439258FE093E0E7E0F3E09D
:1054800021912111D3C28E179F07D1F73BCE9F5F89
:10549000FF0C983009F054CE0F5F1F4F08301105F4
:1054A00009F043CE8FEF8C878D871E860E949E1653
:1054B0008160782F988B8F874C855D856E85888974
:1054C0000E94AC245ACE863049F4F0E0EF51FB4FF5
:1054D000E4918E2E912C03EB14E167CE893051F4C8
:1054E000E695F0E0E252FB4FE4918E2E912C03E022
:1054F00012E15BCE8F3051F4E695F0E0E552FB4FC0
:10550000E4918E2E912C00E412E14FCE853149F4C6
:10551000F0E0E852FB4FE4918E2E912C09ED12E160
:1055200044CE08E2802E912C00E613E1883109F484
:105530003CCE833239F4E6EDF4E08590949006E4B5
:1055400014E133CE14EF812E9924939400EF13E1EC
:10555000843209F42ACEB0ED8B2EB7E09B2E03EEF9
:1055600019E0853209F021CE8E2F63E00E940930C8
:10557000E92FF0E0ED52FB4FE4918E2E912C06E4E2
:1055800011E113CE80E0FCCE89E795E00E94F80F90
:105590000E941C0C182F88E495E010FF02C080E5E3
:1055A00095E00E94F80F88E395E011FF02C080E4C7
:1055B00095E00E94F80F88E295E012FF02C080E3B8
:1055C00095E00E94F80F80917403882309F45EC06F
:1055D0002091A6033091A7032115310509F456C087
:1055E00080916A03811152C0082F10E07601082EC5
:1055F00002C0EE0CFF1C0A94E2F7A9014E215F21C4
:10560000452B09F491C19091690390FD8FC182955A
:10561000880F880F807480932C0198013695279508
:1056200020932F01815C80932D011092300124E69C
:1056300030E047E050E06AE271E088E70E94EE2D3A
:10564000892B21F5A80196E0440F551F9A95E1F7A3
:105650008091690380FD78C148555C4F04E610E0F5
:1056600020E430E060E488E70E94152E892B71F475
:105670000E943610E094F0948091A6039091A703C5
:10568000E822F922F092A703E092A6038091730327
:10569000882371F12FB7F89480916B0390916C037C
:1056A000A0916D03B0916E032FBF40916F03509195
:1056B00070036091710370917203841B950BA60BAC
:1056C000B70B8F3F9F4FAF4FBF4790F4809174034C
:1056D000882371F080917303882351F062E070E0B9
:1056E00089E999E00E940610892B11F41092730346
:1056F000B1100E94361086E0EBE7F3E0DE01119670
:1057000001900D928A95E1F7F0907D03E0907E0381
:1057100010917F030091800310927D0310927E030D
:1057200010927F03109280038F2D8E2909F448C0B8
:105730008091790390917A030E94140B9C019091BF
:105740007803992309F48DC123333105C8F19F3FB4
:1057500019F09F5F90937803FF2059F00E948C0A04
:105760009FEF1F140CF491E0899F802D11248093EA
:105770007D03EE2059F00E948C0A9FEF1E140CF45A
:1057800091E0899F802D112480937E0330917D03C9
:105790003323B1F020917E03222391F045EB3403B3
:1057A000C0011124992309F431C190937D0345EB85
:1057B000240390011124332309F42CC130937E0378
:1057C000812F802B09F448C0809176039091770354
:1057D0000E94140B9C0190917503992309F43CC11C
:1057E00025363105C8F19F3F19F09F5F90937503EF
:1057F000112359F00E946A0A9FEF11160CF491E0F0
:10580000899F802D112480937F03002359F00E94EB
:105810006A0A9FEF10160CF491E0899F802D1124E5
:105820008093800330917F033323B1F02091800374
:10583000222391F045EB3403C0011124992309F48C
:10584000EDC090937F0345EB240390011124332393
:1058500009F4E8C03093800380917D0390917E032A
:10586000892B90917F03892B90918003892B11F0D4
:105870000E94AA1686E0FE013196ABE7B3E00190E4
:105880000D928A95E1F70E941C0C90918103891773
:1058900009F438CC0E941C0C8093810333CC82E73E
:1058A00095E074CE8BE695E071CE83E695E06ECE02
:1058B0008091AE079091AF07885A93409C013C5F5E
:1058C00021303440A0F020E034E0281B390B409117
:1058D000A6035091A703E9E9F5E0280F391F8217C5
:1058E000930740F05093A7034093A6036CCE20E0AB
:1058F00034E0EDCF6491DC01A855BC4F7C91671773
:1059000081F06C93BC01A6E076956795AA95E1F7C6
:10591000D60102C0AA0FBB1F6A95E2F7BD014A2B50
:10592000572B01963196DBCF8F5F5ECE880F880FA5
:10593000880F80932C0110922F01895F80932D0195
:1059400087E08093300173CE80E4E9E2F3E01192C6
:105950008A95E9F720EC31E03A8B298B08EB11E0CE
:10596000A989BA892D91BA8BA98BF80141908F0131
:10597000440E552E511CC20188559C4F2C01E22F1C
:10598000F0E0E75DFC4F30E020E087E0982E921ACF
:10599000AC2C022E01C0AA0C0A94EAF7120190E086
:1059A000D1018D911D018A21692D691B6770862E99
:1059B000062E000C770BB82F01C0BB0F8A94EAF7B4
:1059C0008B2E7195619571096770772701C0869557
:1059D0006A95EAF7882A8081882A80829F5F9830BA
:1059E000F9F62F5F3F4F31962830310571F6E8EC1C
:1059F000F1E029893A89E217F30709F0B1CF04E60B
:105A000010E020E430E049E253E02CCE81E08093C6
:105A10007D03CDCE81E080937E03D2CE81E0809362
:105A20007F0311CF81E08093800316CF80E189BD91
:105A300082E189BD09B400FEFDCF8091D8008F7D41
:105A40008093D8008091E00082608093E000809194
:105A5000E00081FDFCCF56CB2D32314008F0C5CEA1
:105A6000FBCE2D32314008F074CEAACE1F921FB665
:105A70001F9211248F939F93AF93BF93809106033E
:105A8000811113C080916B0390916C03A0916D0301
:105A9000B0916E034196A11DB11D80936B0390934D
:105AA0006C03A0936D03B0936E03BF91AF919F9170
:105AB0008F911F901FBE1F9018951092B9008CE017
:105AC0008093B8000895EF92FF920F931F93CF93A6
:105AD000DF93182FEB011092BC0084EA8093BC0086
