:100000000C947C040C94C3040C94C3040C94521000
:100010000C94C3040C94C3040C94C3040C94C30444
:100020000C94C3040C94C3040C9417210C94EB217E
:100030000C94691C0C94C3040C94C3040C94C30466
:100040000C94C3040C94C3040C94C3040C94C30414
:100050000C94C3040C94C01C0C94C3040C94C304EF
:100060000C94C3040C94C3040C94C3040C94C304F4
:100070000C94C3040C94C3040C94C3040C94C304E4
:100080000C94C3040C94C3040C94C3040C94C304D4
:100090000C94C3040C94C3040C94C3040C94C304C4
:1000A0000C94C3040C94C3040C94C30441646A7597
:1000B0007374005261697365004C6F776572004418
:1000C000656661756C74004C617965723A20003523
:1000D000001E001F002000210022002B0014001A27
:1000E0000008001500170039000400160007000979
:1000F000000A00E1001D001B0006001900050000B9
:1001000000E000E20001512C00E3002D0027002652
:10011000002500240023002A00130012000C001800
:10012000001C00340033000F000E000D000B00E532
:1001300000380037003600100011000000E400E62F
:1001400000025128006500000000000000000000CF
:10015000000000010000000000000000000000019D
:10016000000401160100000901000001001D011B2F
:100170000106011901290000000100010001000130
:10018000000100000000004B004A00490000004C44
:100190000000004E004D004C001C0100004F0052BA
:1001A00000510050000B0101003100000000000070
:1001B00000000000000100010003510100010000E7
:1001C000003A003B003C003D003E0001001E021FC3
:1001D0000220022102220201000100010046004724
:1001E00000480001000100010001000100010000C1
:1001F00000010001000351010001004400430042DE
:1002000000410040003F004500270226022502244D
:10021000022302000030002F0031022E002D0001C9
:100220000030022F0235022E022D020000010001D3
:1002300000010001000100000000000000000000BB
:1002400000000000000000000000000000000000AE
:100250000000000000000000000000005C00000042
:100260000000000000010000000100010001000189
:10027000000100000000000000000000000000007D
:10028000000000000000000000000000000000A9C5
:1002900000AA00A800000001000000AB00AE00AC06
:1002A0000000000000010001000100010001000049
:1002B000AE00AF00DA0281FFD9F1DB20A4A62EAF99
:1002C00000A0C000A1C800AED580A81FD300408DFB
:1002D0001420000000000000003E5B4F5B3E003E2B
:1002E0006B4F6B3E001C3E7C3E1C00183C7E3C1855
:1002F000001C577D571C001C5E7F5E1C0000183CD4
:10030000180000FFE7C3E7FF00001824180000FFF3
:10031000E7DBE7FF0030483A060E00262979292658
:1003200000407F05050700407F05253F005A3CE758
:100330003C5A007F3E1C1C0800081C1C3E7F001419
:10034000227F2214005F5F005F5F0006097F017F4C
:1003500000006689956A0060606060600094A2FF9A
:10036000A2940008047E04080010207E20100008DB
:10037000082A1C0800081C2A0808001E101010106B
:10038000000C1E0C1E0C0030383E383000060E3EAD
:100390000E060000000000000000005F00000000EA
:1003A0000700070000147F147F1400242A7F2A12FC
:1003B00000231308646200364956205000000807E5
:1003C000030000001C224100000041221C00002A02
:1003D0001C7F1C2A0008083E0808000080703000BE
:1003E00000080808080800000060600000201008ED
:1003F0000402003E5149453E0000427F4000007229
:1004000049494946002141494D33001814127F10D3
:10041000002745454539003C4A49493100412111F1
:10042000090700364949493600464949291E000056
:1004300000140000000040340000000008142241B5
:10044000001414141414000041221408000201596D
:100450000906003E415D594E007C1211127C007F5E
:1004600049494936003E41414122007F4141413ED8
:10047000007F49494941007F09090901003E414186
:100480005173007F0808087F0000417F4100002071
:1004900040413F01007F08142241007F404040401E
:1004A000007F021C027F007F0408107F003E414154
:1004B000413E007F09090906003E4151215E007F4F
:1004C000091929460026494949320003017F0103E1
:1004D000003F4040403F001F2040201F003F403869
:1004E000403F0063140814630003047804030061B0
:1004F00059494D4300007F4141410002040810204A
:1005000000004141417F00040201020400404040DC
:100510004040000003070800002054547840007F4A
:100520002844443800384444442800384444287F50
:100530000038545454180000087E0902001824247E
:100540001C78007F080404780000447D40000020EF
:1005500040403D00007F102844000000417F4000E3
:10056000007C04780478007C080404780038444453
:100570004438007C1824241800182424187C007C9B
:10058000080404080048545454240004043F44243C
:10059000003C4040207C001C2040201C003C40309F
:1005A000403C004428102844004C9090907C00442B
:1005B00064544C44000008364100000000770000FD
:1005C000000041360800000201020402003C26231C
:1005D000263C0000000000008080808000000000B9
:1005E0000080E070180C1830E080000010F89010C7
:1005F00030783010B8FC3810000000000000F8FC23
:10060000F8000000000000000000000000001C9C3A
:100610001C00000000F8FCF80000000000001CFCBA
:10062000F8C000000000000080E0F87C1C00000022
:10063000F0FCFCFC1C1C1C1C1C1C1C1C00000000F6
:100640000000C0F0F8381C1C1C1C1C1C3CF8F0E01E
:1006500000E0F0F0F0E0ECEEF7F37020007C7C7C42
:100660007E007E7E7E7F7F7F000080C0E07E5B4FCD
:100670005BFEC00000C000DCD7DEDEDED7DC00C0E1
:10068000000000000000000000000000000000006A
:1006900000000000000000000FBCE0818181838326
:1006A00082870C183060C000001FFE90B9FFBB911C
:1006B000983C1811133F1100000000000000FFFFDC
:1006C000FF00000000000000000000000000FFFF2D
:1006D000FF00000000FFFFFF00000000000000001E
:1006E000030F7FF8E080F0FC3F0F010000000000E6
:1006F0003F3F3F1C1C1C1C1C3C78F8F0E0800000B5
:100700000000C3E7FF7E3C3878787070F8FFDF8721
:10071000000F1F3F7F7F7F7F7F3F1E0C001F1F1F2B
:100720003F003F3F3F7F7F7F00307B7F783020203E
:1007300030787F3B0003000F7F0F0F0F7F0F000308
:1007400000000000000000000000000000000000A9
:10075000000000183C24666341C181808080808055
:100760008081C14162386C4CC681818080808080EC
:1007700081C14362361C1800000000000000FFFF2A
:10078000FFC0C0C0C0C0C0C0C0C0800000007FFFAC
:100790007F000000007FFFFFC080000000E0E0C09D
:1007A000C0C0E0F97F1F070000000000000000004B
:1007B00070F0E0E0C0C0C0C0E0F0F87F3F0F000084
:1007C000000F3F7FF9E0E0C0C0C0C0C0E0F97F3F4C
:1007D0001F000000000000000000000000000000FA
:1007E0000000000000000000000000000000000009
:1007F00000000000000000000000000000000000F9
:1008000000000000000000000000000000000000E8
:100810000000000E034C0069006C007900350038C0
:1008200000000010036C0069006C00690075006D29
:1008300000730000000403090409023B00020100E8
:10084000A0FA0904000001030101000921110100BF
:10085000012240000705810308000A090401000184
:100860000300000009211101000122320007058266
:100870000320000A1201100100000008D8042DEB2B
:1008800000010102000105010980A1018503190190
:100890002AB700150126B700950175108100C00523
:1008A0000C0901A101850419012AA002150126A045
:1008B00002950175108100C005010906A101050717
:1008C00019E029E7150025019508750181029501B8
:1008D000750881010507190029FF150026FF0095FD
:1008E000067508810005081901290595057501910E
:1008F00002950175039101C011241FBECFEFDAE00C
:10090000DEBFCDBF04B603FE27C080915405909191
:100910005505A0915605B09157058730904BA740DB
:10092000B04BD1F410925405109255051092560513
:100930001092570514BE84B7877F84BF0FB6F89412
:10094000A89580916000886180936000109260009B
:100950000FBEE0E0F8E3099512E0A0E0B1E0ECE4BE
:10096000FEE402C005900D92A432B107D9F725E04C
:10097000A4E2B2E001C01D92A435B207E1F70E94E3
:10098000591E0C94F1260C94000080E091E008952B
:10099000CF93C0E28C33910520F4FC01E259FE4F65
:1009A000C0811F92CF939F938F93FB0180811F92F1
:1009B0008F9381811F928F938DE591E09F938F9309
:1009C0001F9288E18F938BE392E09F938F930E9415
:1009D000D9238DB79EB70E960FB6F8949EBF0FBE63
:1009E0008DBF8091240290912502449761F410926A
:1009F000250210922402E6E2F2E080E2819392E086
:100A0000EA33F907D9F78091240290912502FC017D
:100A1000EA5DFD4FC08301969093250280932402E6
:100A2000CF9108958BE392E0089586E292E00895D5
:100A30000C946205CF93C82F0E943A09811101C01E
:100A4000C2E08C2FCF91089560E087EC90E00E9487
:100A50002E0B8091040390910503A0910603B091A1
:100A600007038F309105A105B105B0F4FC01ED50ED
:100A7000F94D0C94BD2360E08FEB90E00C94400B9B
:100A800060E089EB90E0FACF60E083EB90E0F6CF96
:100A900060E08CEA90E0F2CF08950E943A09882342
:100AA00061F00E9424050E94120560E00E94290B5B
:100AB0000E94150560E00C94290B0E94C50460E0BB
:100AC0000C940D0BFB01228121110E94C80481E0CE
:100AD000089581E0089508950C946B051F93CF93BA
:100AE000DF9300D000D00F92CDB7DEB749835A8391
:100AF0006B833091A30289819A8131111DC06623D5
:100B0000B9F02223A9F00E94E019182F682F8981DB
:100B10009A810E94891969817A81812F0F900F90A3
:100B20000F900F900F90DF91CF911F910C941A06A8
:100B30000E94B719182FEFCF0E94E01969817A81BE
:100B4000EDCFFC01262F4081518162817381848128
:100B50000C946E05CF93DF93EC0160E00E94A10539
:100B6000BE01DF91CF910C946C050E94171B81117F
:100B700002C00E94BB1B0C94F5070C94F807089563
:100B80000E947D150E94BF052FEF84E39CE0215059
:100B900080409040E1F700C000000C94E41C0F93EB
:100BA0001F93CF93DF93EC0161E00E94A1058C01BC
:100BB000BE010E941805882329F1BE01C8010E94C8
:100BC000140D8823F9F0BE01C8010E94660D882328
:100BD000C9F0BE01C8010E94890E882399F08A815C
:100BE000882339F001158CE5180751F00F3D1C459D
:100BF00079F0CE01DF91CF911F910F910C9469058F
:100C00000E94C00580E0DF91CF911F910F91089560
:100C10000E94BB1BF7CF08950C940B0681E008954A
:100C20000C940E06CF93C82F0E940C068C2FCF91E8
:100C30000C941006972F70E026E0929F600D711DB6
:100C40001124FB019CE3899FE00DF11D1124EE0F9F
:100C5000FF1FE153FF4F859194910895CF93DF9348
:100C60000E941A060E941A07EC01811522E59207DC
:100C7000E8F5811531E5930708F0ACC0883E910591
:100C800010F5803E910570F5883A910570F4853A2B
:100C9000910508F078C08130910521F1009711F19C
:100CA000049700F5D0E0C0E01DC08F3B9105D0F760
:100CB000C85AD0E0CC0FDD1FC655DE4F0990D88151
:100CC000C02DD4640FC0811540E5940708F066C0BC
:100CD000C11580E4D80708F05EC0CE019A95811551
:100CE0009F4100F7CE01DF91CF910895811536E540
:100CF000930718F5811545E5940708F083C0C115E1
:100D000084E5D80708F079C09C2F969596959E01AA
:100D100023703327C115D34508F461C0C1E0D0E08A
:100D200002C0CC0FDD1F2A95E2F730E2939FC0018D
:100D30001124C82BD92BDA68D5CFC1158AE5D8077D
:100D400078F4C11599E5D90708F066C0C11528E502
:100D5000D20708F4A7CFDC2FCC27C06FD06AC2CF50
:100D6000CE0190568115904208F09CCF8D2F8F7147
:100D70000E94B10790E0982F882788279F719C01D7
:100D80002C2BE90147C0C55AD0E0C852DE4FC881BC
:100D9000D0E0D064A7CFDF70D06AA4CFE4E096950E
:100DA0008795EA95E1F783702C2F26952695237079
:100DB00040E2249F90011124382B8C2F8370C1E0D6
:100DC000D0E002C0CC0FDD1F8A95E2F7C22BD32BF7
:100DD000DC6888CFD82FCC27C16FD06A83CFC1E021
:100DE000D0E002C0CC0FDD1F2A95E2F720E2929FEF
:100DF000C0011124C82BD92BEBCFDC2FCC27C46F1B
:100E0000D06A70CF0E94B107C82FD0E0DC2FCC276A
:100E1000CC27DF71D06266CF8C2F8F700E94B10714
:100E200034E0D695C7953A95E1F7CF709C2FEC0149
:100E3000D06958CF82389105B1F1B0F48133910572
:100E400009F475C048F48932910509F469C08A3201
:100E5000910509F473C008958533910509F459C0CB
:100E60008933910501F10895833E9105A9F138F484
:100E7000803E9105F9F0823E910549F10895863E44
:100E80009105A9F1873E9105C9F1843E910519F5B7
:100E90002091460521FF1FC08091450584FD14C0A7
:100EA00087EE90E00895209145052370A1F080EE33
:100EB00090E008952091450520FD47C030914605FA
:100EC00030FF09C024FF44C090E080E004C02091BE
:100ED000450522FDF7CF08952091450522FD3BC031
:100EE0003091460530FDE3CF24FFF5CFEDCF2091C3
:100EF000450523FFF0CF24FDE7CFD2CF2091450554
:100F000023FD2CC03091460531FFEECF84EE90E0FA
:100F100008952091450525FFDECF89E290E00895F0
:100F20002091450525FFD7CF85E390E008952091D6
:100F3000450526FFD0CF8AE290E00895209145052F
:100F400026FFC9CF81E390E0089589E390E00895FA
:100F500083EE90E0089582EE90E0089586EE90E0B2
:100F600008959091450592FF06C0282F28712830DA
:100F7000F9F4877F846093FF06C0282F28712831F9
:100F8000F1F4877E84612091460520FF06C0382F4A
:100F900038713830D9F4877F816021FF06C0282F4F
:100FA00028712831D1F4877E816194FD877E089570
:100FB000282F24712430F9F68B7F8860DCCF282F0E
:100FC0002471243101F78B7E8861DDCF382F317198
:100FD000313019F78E7F8860E0CF282F21712131C1
:100FE00021F78E7E8861E1CF08950C94F40708956F
:100FF0000C94F707E82FF0E0E15DFC4F8081089545
:10100000089580EA8A95F1F70895F894E82FE2951B
:10101000EF70F0E031A1282F2F7081E090E001C047
:10102000880F2A95EAF7982F9095932391A392A180
:10103000892B82A37894089508950E94580980917D
:1010400040018091400195E0811190E090933A0336
:1010500085E0891B8093390386E60E94050887E9AD
:101060000E94050886EC0E94050884E30E9405089A
:1010700085E30E94050886EF0E94050887EF0E941D
:10108000050881E30E94050883E30E94050882E3C6
:101090000E94050886E30E940508E5E2F3E0AFE25E
:1010A000B3E08FE293E011921D928E179F07D9F75C
:1010B00085E00E9403090E94B5050C9462090E9414
:1010C0003A098823F9F08091390390E0815D9C4FC3
:1010D0000E947509811113C0809153028F5F809324
:1010E0005302863050F0E0913903F0E0E15DFC4FAF
:1010F000108211821282138214820C94BD05109208
:101100005302FBCF80913A0390E0815D9C4F0E9497
:1011100090090C941C08CF92DF92EF92FF920F93EC
:101120001F93CF93DF93C1EED1E005E213E0D12C02
:10113000EE24E394F12C8991F894E82FE295EF7076
:10114000F0E021A18F70A70102C0440F551F8A95BE
:10115000E2F7CA01922F982B91A392A1809589233F
:1011600082A378940E940108EBEDF1E030E020E0EA
:10117000C12C4191A42FA295AF70B0E090968C91B4
:1011800090E04F7002C0959587954A95E2F780FDF3
:1011900036C08E2D022E01C0880F0A94EAF7C82AA5
:1011A0002F5F3F4F2630310521F7FE0131978081B7
:1011B0000E940508F8018081C81619F1C08281E0FB
:1011C000D82A0F5F1F4FF1E0C63EDF0709F0B3CF0B
:1011D00060913A0370E0615D7C4F2D2D45E085E222
:1011E00093E00E9404090E945F088D2DDF91CF914A
:1011F0001F910F91FF90EF90DF90CF90089580E0C6
:10120000CECF80E0DDCF0895FF920F931F93CF9351
:10121000DF93F82E092F162FD72FC42F222349F042
:1012200081E0809356020E94991C9093550280930E
:101230005402809156028823A1F08091540290912B
:1012400055020E94B11C069760F0EF2DF02FA12FE0
:10125000BD2FCE0FDF2FD11DEC17FD0741F41092EB
:101260005602DF91CF911F910F91FF9008958191C8
:101270008D93F2CF80915702811111C08091D800D7
:1012800080618093D8008AE18A95F1F700C090913F
:10129000D900892F817090FF82E08093570281E00E
:1012A00090915702913009F080E008950C943A092A
:1012B0000E945609809340010E943A0981110C94C2
:1012C000690908950E943A09811102C00C946F09BE
:1012D000089561E070E081E491E00C94FF0F61E01B
:1012E00070E081E491E00C940810CF93DF93D82F45
:1012F000C92F90E080E00E94E110009779F4ED2F73
:10130000FC2FDC01A75ABD4F2C912193019685300B
:101310009105B9F781E0DF91CF91089580E0FBCF8F
:1013200030E020E0FC014191CF01F901E75AFD4F87
:1013300040832F5F3F4F25303105A1F70895CF92AD
:10134000DF92EF92FF920F931F93CF93DF936C0185
:101350007B0164E670E088E70E94B90EEC0197FD1E
:1013600012C010E000E0F601E00FF11F849164E686
:1013700070E00E94150FEC01892B29F40F5F1F4FBD
:101380000E151F0581F70E94980FCE01DF91CF91B6
:101390001F910F91FF90EF90DF90CF900895EBE3B6
:1013A000F3E080E092E0DF019C011D92215030408B
:1013B000E1F7F0934005E0933F058FEF9FEF9093A7
:1013C0008A028093890208950E941A0580938502FB
:1013D00080FD0FC080E8809384020E94B30E6DE010
:1013E00070E086EC92E00E949F09892B21F080E05A
:1013F000089580E2F0CF8091850263E070E081FD86
:1014000026C083EC92E00E949F09892B81F76DE052
:1014100070E083EB92E00E949F09892B41F70E94C4
:10142000A51C605A75418F4F9F4F60933B05709389
:101430003C0580933D0590933E050E94CF0981E0D5
:10144000809388028093870210928602089580EC30
:1014500092E0D9CF2091840236E0839FC00111240D
:10146000629F800D911D1124811522E0920714F0D6
:1014700090E080E0855C9C4F9093400580933F0511
:10148000089520913F053091400525533340409108
:101490008402642F70E0C9010E94A923481B4630D2
:1014A00010F4240F311D211582E0380710F030E0D0
:1014B00020E0255C3C4F3093400520933F05089584
:1014C0001F93CF93DF93162F8A3031F481E0DF91A1
:1014D000CF911F910C94DA0A8D3011F480E0F7CF90
:1014E000C0913F05D091400596E0FE01AEE5B2E027
:1014F00001900D929A95E1F7803EC8F086E0FE01DA
:1015000011928A95E9F711111EC0C0913F05D09143
:10151000400546E050E0BE018EE592E00E94CC23FB
:10152000892BF9F4DF91CF911F910C94410AF6E0D9
:101530008F9FB00111246D527D4F46E050E0CE01E7
:101540000E94C323E0CFE0913F05F09140059F0149
:101550002A5F3F4F2E173F07C1F28081809581930C
:10156000F9CFCB53D340CE0125E0969587952A95A8
:10157000E1F721E030E0A90102C0440F551F8A9530
:10158000E2F7CA014091890250918A02842B952B7F
:10159000259645E0D695C7954A95E1F702C0220FFA
:1015A000331FCA95E2F7822B932B90938A02809384
:1015B0008902B8CFCF93382FE0913F05F0914005D5
:1015C000EB53F34020918402622F70E0CF010E9420
:1015D000A923281B822F332369F066E00E949D23F4
:1015E000C82FC15010F4CF91089560E080E20E94AE
:1015F000600AF7CF9F01280F311D2115324018F0E6
:1016000080E0F0E0E0E08E0F9F2F911D855C9C4F05
:101610009093400580933F05E6CFFF920F931F9371
:10162000CF93DF93EC01F62EFC0101900020E9F747
:101630008F0101501109C017D10730F0DF91CF9110
:101640001F910F91FF9008956F2D89910E94600A5C
:10165000F2CF0E940D0B81E00C94DA0A1F93CF9316
:10166000DF93EC01162FFE018491811104C0DF91FC
:10167000CF911F910895612F0E94600A2196F3CFA8
:101680000E942E0B81E00C94DA0A8091880281116D
:1016900003C08091870208950E94A51C605A75417D
:1016A0008F4F9F4F60933B0570933C0580933D05A2
:1016B00090933E05809187028111EBCF62E070E04C
:1016C00081EB92E00E949F09892B19F781E08093BA
:1016D0008702DFCF2F923F925F926F927F928F921D
:1016E0009F92AF92BF92CF92DF92EF92FF920F93B1
:1016F0001F93CF93DF9380918802882369F0209114
:10170000890230918A022115310531F080918602DB
:1017100061E070E0882399F0DF91CF911F910F91E4
:10172000FF90EF90DF90CF90BF90AF909F908F9001
:101730007F906F905F903F902F9008958F5F082F5C
:1017400010E01B01082E02C0220C331C0A94E2F7A1
:10175000A90142215321452B89F39091850290FDE7
:1017600044C08295880F807680934B01980136950E
:1017700027953695279520934E01815E80934C01E5
:1017800010924F0124E630E047E050E069E471E058
:1017900088E70E94440F892B09F0BECFA80125E0FD
:1017A000440F551F2A95E1F78091850280FD2BC0DB
:1017B000455C5C4F04E610E020E230E060E488E73E
:1017C0000E946B0F892B09F0A7CF0E94450BE10106
:1017D000C095D0958091890290918A02C823D9231F
:1017E000D0938A02C093890297CF880F880F880F01
:1017F00080934B0110924E01895F80934C0183E0EE
:1018000080934F01BFCFE4E6F2E080E2DF011D925A
:101810008A95E9F7AFEEB1E00BEE11E083EFC82E49
:1018200081E0D82E97E0592E772473948D91E801AA
:1018300029918E01240F352F311D255C3C4FE82F57
:10184000F0E0EC59FD4F90E080E0652C681A872CA1
:10185000082E01C0880C0A94EAF77901A12CE7014F
:10186000B9907E01B820662D6A196770962E062EF3
:10187000000C770BDB2D01C0DD0F9A94EAF7719510
:10188000619571096770772701C0B6946A95EAF788
:10189000BD2A6081962E9B289082A39468E0A612B0
:1018A000DECF019631968830910579F6CA16DB06AF
:1018B00009F0BCCF04E610E020E230E044E652E05C
:1018C0007DCF8091870290918802911103C091E0B1
:1018D00089270895882369F062E070E08FEA92E03A
:1018E0000E949F09892B19F0809187020895109218
:1018F000870280918702EBCF0F931F93809188021C
:10190000882319F160E080E00E942A0A0E944D05B8
:101910000E946A0B809187028823B9F00E94A51C5F
:1019200000913B0510913C0520913D0530913E050D
:10193000601B710B820B930B6F3F7F4F8F4F9F4745
:1019400020F41F910F910C94610C1F910F91089539
:101950000F931F93CF93DF93C42FD22FFC0182816B
:101960008823C9F040938D020E94991C90938C02A9
:1019700080938B0280E28C0F883008F050C0C770D3
:1019800081E001C0880FCA95EAF7DF91CF911F91DE
:101990000F910C941D1310918D02141335C080917A
:1019A0008B0290918C020E94B11C8436910560F5E7
:1019B000C0E2CD0F1D17B9F080E2810F883040F4EE
:1019C000177081E001C0880F1A95EAF70E9424136E
:1019D000C83048F481E09D2F977001C0880F9A9518
:1019E000EAF70E941D13802F0E940A13C830B8F432
:1019F000D77081E001C0880FDA95EAF7DF91CF91C7
:101A00001F910F910C94241380E28C0F883038F4CE
:101A1000C77081E001C0880FCA95EAF7EFCFDF9168
:101A2000CF911F910F9108950F939C01CB01243FFB
:101A30004CE5340759F1A8F4293DFCE53F0701F1D5
:101A40002A3D4CE53407D1F1283D3C4591F406E2AE
:101A500021EE41EE68ED7CE50E94A80C80E00F913C
:101A60000895263FFCE53F07E9F0B0F0273F3C45ED
:101A7000F9F0FC018281882339F110928D02EFCFB9
:101A800007E225EE45EE69ED7CE5E6CF06E221EEC4
:101A900040EE64EF7CE5E0CF07E225EE44EE65EF33
:101AA0007CE5DACF06E221EE42EE66EF7CE5D4CFAC
:101AB00007E225EE46EE67EF7CE5CECF08E221E0B7
:101AC00045EE6AED7CE5C8CF81E0C9CFCF93DF93C7
:101AD000EC01FB018281882309F419C1C230FCE5C5
:101AE000DF07C0F1C6319CE5D90730F09E012B5FBE
:101AF0003C452930310570F50E942A1B909346051C
:101B000080934505C031ECE5DE0709F4CFC008F04D
:101B10005BC0C8308CE5D80709F4B6C088F5C4307E
:101B2000ECE5DE0709F4A8C0C0F4C2308CE5D807A4
:101B300009F49CC0809145058260C330DC4509F4FE
:101B400098C080914505909146050E94381B0E94DF
:101B50007D1580E0DF91CF910895809145058061EA
:101B6000C630ECE5DE0709F484C080914505886045
:101B7000C730DC4508F47DC080914505806279C09E
:101B8000CC308CE5D80709F489C070F48091450504
:101B90008C60CA30ECE5DE0709F46BC008F478C04D
:101BA000809145058E7F65C0CE308CE5D80709F45D
:101BB00079C0809145058B7FCF30DC4508F459C052
:101BC000809145058F7E55C0CC3FECE5DE0709F4DA
:101BD00057C030F5C3318CE5D80709F46FC078F4ED
:101BE000C131ECE5DE0709F465C0C231DC4509F01E
:101BF000A8CF0E947D15809145058F773AC0C531E9
:101C00008CE5D80709F462C008F476C080914605D7
:101C10008160CB3FDC4509F094CF8093460591CF9E
:101C2000C115FDE5DF0709F44DC088F48091460534
:101C30008D7FCE3F9CE5D90781F3809146058E7F4D
:101C4000CF3FDC4550F3809146058360E6CFC2303C
:101C5000FDE5DF0709F459C008F444C080E0C33053
:101C6000DD4509F06ECF0E94BD1B6BCF809145050D
:101C700081608093450565CF809145058460F9CFEB
:101C8000809146058260C9CF809145058064F1CF7F
:101C90000E947D15809145058068EBCF80914505B8
:101CA0008D7FE7CF80914505877FE3CF8091450504
:101CB0008F7DDFCF809145058F7BDBCF8091450500
:101CC000837FD7CF809146058C7FA7CF8091450534
:101CD00082FB992790F921E0922790FB82F990FBF3
:101CE00083F9C7CF80914605982F909591708E7F8C
:101CF000892B90FB81F991CF0E947D15909145052C
:101D0000892F97FB87F98058B4CF81E0ACCF81E071
:101D100021CFCF93DF93EB0186319C4511F50E94D3
:101D2000751A9A81992399F08A7A91E009F490E0E2
:101D300090938E02811109C089E20E94501A0E947C
:101D4000B41A80E0DF91CF91089585E3F6CF8091BA
:101D50008E02811104C089E20E94571AF0CF85E3F8
:101D6000FBCF81E0EFCF1092B9008CE08093B800F8
:101D70000895EF92FF920F931F93CF93DF93182F45
:101D8000EB011092BC0084EA8093BC000E94991C75
:101D90007C018091BC0087FF27C08091B900887FBB
:101DA000883029F08091B900887F8031D9F510936F
:101DB000BB0084E88093BC000E94991C8C01809138
:101DC000BC0087FF24C02091B900287F90E080E00C
:101DD0002831B1F081E090E0203411F490E080E00F
:101DE0009195819591090CC0CF3FDC0791F20E943B
:101DF000991C8E199F098C179D0758F28EEF9FEF43
:101E0000DF91CF911F910F91FF90EF900895CF3FF9
:101E1000DC07A9F20E94991C801B910B8C179D076F
:101E200070F2ECCF8FEF9FEFEBCF0F931F93CF9319
:101E3000DF93EB018093BB0084E88093BC000E9499
:101E4000991C8C018091BC0087FF11C02091B900C2
:101E5000287F81E090E0283211F490E080E09195B5
:101E600081959109DF91CF911F910F910895CF3FF7
:101E7000DC0741F30E94991C801B910B8C179D0776
:101E800008F38EEF9FEFEECFCF92DF92EF92FF92AB
:101E90000F931F93CF93DF936B018A017901B901EF
:101EA0000E94B90EE6010C0D1D1DC017D10761F48B
:101EB00024E92093BC00DF91CF911F910F91FF90F7
:101EC000EF90DF90CF90089597FDF2CFB701899101
:101ED0000E94150FEACFCF92DF92EF92FF920F93FD
:101EE0001F93CF93DF93C62F6A017901B8010E9437
:101EF000B90E97FD0CC0B8018C2F0E94150FE6019A
:101F0000EC0CFD1CCE15DF0511F097FF0CC024E989
:101F10002093BC00DF91CF911F910F91FF90EF9024
:101F2000DF90CF900895B80189910E94150FEACFF4
:101F300084E98093BC0008958EE14A9B02C08150E1
:101F4000E1F74A9BFECF08955A9880E28A95F1F70F
:101F50005A9A0895FC013BE03A95F1F720E090E0B1
:101F600080E031E040E14A95F1F7880F4A9B02C0DA
:101F70008160232742E04A95F1F7000040E14A954D
:101F8000F1F79F5F6913EECF90E19A95F1F799B160
:101F900032E03A95F1F7000040E14A95F1F792FB03
:101FA000992790F992272081920F90830895EF92BC
:101FB000FF920F931F93CF93DF930F92CDB7DEB7AE
:101FC00019828C017C01E60EF11C0E151F0561F4CF
:101FD00081E09981911180E00F90DF91CF911F9165
:101FE0000F91FF90EF9008950E949C0F68E0CE0142
:101FF00001960E94AA0FF80181938F01E6CF90937A
:1020000091028093900260938F02529A5A9A089597
:10201000909391028093900260938F0252985A9A03
:10202000EA9AE9E6F0E080818F7C80830895615030
:10203000770B91E001C0990F6A95EAF720E031E053
:10204000911108C0222391F05A9A80E28A95F1F703
:102050005A980895492F482339F05A9A232740E285
:102060004A95F1F79695ECCF5A98F9CF5A98EDCF5B
:10207000FF920F931F93CF93DF93EC018C01060F18
:10208000111DC017D10731F4DF91CF911F910F912E
:10209000FF900895F9900E94A40F68E08F2D0E9490
:1020A0001710EFCF1F920F920FB60F9211240F93BC
:1020B0001F932F933F934F935F936F937F938F93D0
:1020C0009F93AF93BF93EF93FF93CF93DF930F92C1
:1020D000CDB7DEB719820E949C0F67E0CE01019652
:1020E0000E94AA0F082F069506950695982F92959F
:1020F0009570202F2570920F292F23709695969515
:102100008770920F891344C08981811141C08091E9
:102110008F028017E8F120E12A95F1F75A9A529A36
:1021200082E08A95F1F700C0A8E00A9FC00111245F
:102130000091900210919102080F191F5A98F8010E
:102140006581662321F0868197810E9438100E9464
:10215000A40FF0E1FA95F1F75A9852985A9A20E1B3
:102160002A95F1F7D80112966C911297662331F1F6
:1021700013968D919C910E94D70FD801ED91FC91FF
:10218000882311F088E001C082E080830E949C0FC8
:102190000F90DF91CF91FF91EF91BF91AF919F9100
:1021A0008F917F916F915F914F913F912F911F91EF
:1021B0000F910F900FBE0F901F901895ED91FC910D
:1021C000E1CF0F931F93CF93DF9320918F022817B6
:1021D00019060CF471C08C0193E0000F111F9A9541
:1021E000E1F7C0919002D0919102C00FD11FF894F5
:1021F000529A5A9825E02A95F1F70000982F969563
:1022000095708570980F892F837096959695980F85
:10221000092B0E94A40F00C067E0802F0E941710B6
:1022200080E18A95F1F752985A9A4A9B17C087E045
:1022300090E04A9915C06D81662321F18E819F81BE
:102240000E94D70F81111EC0529A5A9AE881F981D3
:1022500082E08083789482E090E00DC000C0E5CFFA
:10226000019771F4529A5A9AE881F98181E080834A
:10227000789481E090E0DF91CF911F910F910895C4
:1022800000C0D7CF0E949C0F20E22A95F1F75A9800
:10229000529A80E18A95F1F76A81662321F08B8159
:1022A0009C810E9438100E94A40FE881F98110825D
:1022B000789490E080E0DFCF84E090E0DCCF9093F2
:1022C0009702809396020895E0919602F09197020A
:1022D000309721F00190F081E02D099480E008957D
:1022E000E0919602F0919702309721F00280F381FD
:1022F000E02D0994089520919402309195022817B9
:10230000390771F09093950280939402E0919602C0
:10231000F0919702309721F00680F781E02D099423
:10232000089520919202309193022817390771F095
:102330009093930280939202E0919602F09197021B
:10234000309721F00084F185E02D0994089585B738
:10235000806885BF85B7806885BF08950895089512
:102360000C94AE1108950C94B2110E94A7110E9412
:10237000AF110C94B0110C943A09089508950E947D
:10238000901C0E941D0880E00E94E4090E94F51C38
:102390000C94B311AF92BF92CF92DF92EF92FF9263
:1023A0000F931F93CF93DF93CDB7DEB72A970FB666
:1023B000F894DEBF0FBECDBF0E94BD110E94BE11BA
:1023C0000E948B08B82E0E94BB11882309F463C0B9
:1023D00089E9C82E82E0D82E10E000E0A02E802FE0
:1023E0000E94FA07E82EF601F1906F01F81609F441
:1023F0004CC08091190381FD0E9400089F2D9E25ED
:1024000080E0FF24F394292F2F21D1F18E83AF8216
:10241000EF2081E009F480E088870E94991C8160A8
:10242000782F9A8789874E815F8168858A850E9487
:102430006D12F801E756FD4F8081F826F0820E9468
:102440007C0CB1100E94450B0E946411909198027F
:10245000891791F10E946411809398022A960FB611
:10246000F894DEBF0FBECDBFDF91CF911F910F91CA
:10247000FF90EF90DF90CF90BF90AF900C9412063A
:102480008F5FFF0C863009F0BECF0F5F1F4F0A3001
:10249000110509F0A3CF8FEF89838A831B820E94E5
:1024A000991C8160782F9D838C8349815A816B812F
:1024B0008D810E946D12C3CF2A960FB6F894DEBFAD
:1024C0000FBECDBFDF91CF911F910F91FF90EF9085
:1024D000DF90CF90BF90AF900895CF93DF93CDB7AB
:1024E000DEB72B970FB6F894DEBF0FBECDBF4F837C
:1024F000588769877A878B871E821D8285E0FE0157
:102500003796DE01119601900D928A95E1F7498187
:102510005A816B817C818D819E812B960FB6F894B8
:10252000DEBF0FBECDBFDF91CF910C94E117FC0150
:10253000808191810C94221ACF93C82F882309F4AB
:102540003FC08CEF8C0F813AA0F46C2F809150012A
:10255000909151010E94D41B882329F08C2F0E9456
:10256000571A0E94B41A8C2F0E94501ACF910C94C3
:10257000B41A80E28C0F883048F4C77081E001C043
:10258000880FCA95EAF70E94781AF0CFEBE5EC0FB6
:10259000E33040F4F0E0EF5DFD4F808190E0CF91BB
:1025A0000C947B11C85AC73158F4EC2FF0E0EE0FB1
:1025B000FF1FED50FE4F80819181CF910C949111BE
:1025C000CF910895882329F19CEF980F913A20F438
:1025D0000E94571A0C94B41A90E2980F983050F455
:1025E000877091E001C0990F8A95EAF7892F0E94C0
:1025F0007E1AF0CF9BE5980F933020F490E080E0B6
:102600000C947B11885A873120F490E080E00C9480
:1026100091110895CF93C82F0E949C12C93349F499
:102620002FEF87EE93E0215080409040E1F700C00B
:1026300000008C2FCF910C94E212882321F00E948D
:10264000781A0C94B41A0895882321F00E947E1AF7
:102650000C94B41A0895BF92CF92DF92EF92FF923A
:102660000F931F93CF93DF936C01D62FC72FFC01DD
:10267000058102950F70128111110E94951A0E9416
:102680006E1AE82E882391F01123E9F08C2F807FB9
:10269000803421F080E28D0F8830A8F082E00E9423
:1026A000FF1A0E946E1A91E0E82EE926BC2EB29421
:1026B0009FE0B922FBE0FB15A8F1EB2DF0E0EE5F07
:1026C000F84D0C94BD23E12CF1CF0C2F0F70C07F7F
:1026D00011F00295007F1123A9F0002359F080E248
:1026E0008D0F883010F0D11109C0802F0E94781A08
:1026F0000E94B41A8D2F0E949C1214C0802F0E9439
:10270000881AF6CF8D2F0E94E212002359F080E242
:102710008D0F883010F0D1112CC0802F0E947E1AAE
:102720000E94B41A2B2D2850330B2430310520F48D
:102730000E9464110E941206EE2009F483C10E94D7
:102740006A1A80FD7FC1F60112820E94641A0E94FB
:10275000ED18C6010E9443150E94641ADF91CF91C3
:102760001F910F91FF90EF90DF90CF90BF900C944E
:102770000E19802F0E948E1AD3CF2C2F2F70F22E7D
:10278000C07FC03219F0F29480EFF822DD2369F0A7
:10279000D13049F1112391F1002351F1F6018581E6
:1027A00080FFA8CF8F70858323C0112381F0011192
:1027B00006C00E949B1A8F290E941D13B3CF0130BF
:1027C000C1F70E949B1A8F290E94A11AABCF011159
:1027D00006C00E94AA1A8F2D0E942413A3CF013095
:1027E00009F4A0CFF6CF112329F0063008F09ACFD4
:1027F0008F2DE2CF053008F095CFEDCF002359F3B0
:10280000D93349F4FFEF27EE33E0F1502040304058
:10281000E1F700C000008D2F0E94E21283CF8C2FC1
:1028200086958695837069F0813009F07BCF8D2F76
:102830009C2F9370111102C090E080E00E949111D2
:1028400071CF8D2F9C2F9370111102C090E080E00A
:102850000E947B1167CF8C2F837009F041C011114A
:1028600061CF4D2F429546954770440F440F0D2F71
:102870000F7010E030E020E0042E04C0000F111FA4
:10288000221F331F0A94D2F760E070E0CB01D4FF1F
:102890000FC06FE070E080E090E004C0660F771F2B
:1028A000881F991F4A95D2F76095709580959095ED
:1028B000C695C695C370602B712B822B932BC230AB
:1028C00049F058F4C13019F00E949F182BCF0E9494
:1028D0008D1828CF0E94B11825CF0E948B1822CFC7
:1028E0008695112311F08C2F8170882309F41ACF5B
:1028F0004D2F429546954770440F440F0D2F0F7092
:1029000010E030E020E0042E04C0000F111F221F51
:10291000331F0A94D2F760E070E0CB01D4FF0FC000
:102920006FE070E080E090E004C0660F771F881FC2
:10293000991F4A95D2F76095709580959095C695A8
:10294000C695C370602B712B822B932BC23049F03C
:1029500058F4C13019F00E946419E4CE0E94521953
:10296000E1CE0E947619DECE0E94C718DBCECF7072
:10297000112329F08C2F0E94ED188D2F1DCF8D2F44
:102980000E9424138C2F0E940E19CCCED23F89F1C5
:1029900060F4D03FC9F0D13F29F1112309F442C0BE
:1029A0000111A8CE8C2F8F7121C0D33F39F1D43FB4
:1029B000A1F7112369F1CF718C2F0E94ED1863E00C
:1029C0008C2F0E94EA1AAECE112341F0053008F098
:1029D000A9CE8C2F8F710E943119A4CE063008F039
:1029E000A1CEF7CF8C2F8F71112369F20E94ED18C1
:1029F00099CE8C2F8F711123C9F3C5CF112329F0E4
:102A00008C2F8F710E94D8188DCE0E94D3188ACE39
:102A100081E00E94FF1A023008F484CE82E00E9416
:102A2000FF1A80CE002359F0D93309F0F4CE8FEF8E
:102A300097EEE3E081509040E040E1F7EACE8C2F42
:102A40008F71A1CFDF91CF911F910F91FF90EF90E8
:102A5000DF90CF90BF9008950F931F93CF93DF9394
:102A6000EC01688179818A810E942C1A8C010E9474
:102A700088190E948A18B801CE01DF91CF911F9169
:102A80000F910C942B13CF93DF93EC018B819C81DE
:102A9000892B29F08881998189238F3F59F4DF910F
:102AA000CF910895CE010E942C15CE01DF91CF91D8
:102AB0000C94AA05CE010E94CF058111F3CF0E948C
:102AC0006E1A882361F38A81882349F382E0DF91BB
:102AD000CF910C94FF1A0E94951A0E94981A0E9496
:102AE000B41A90E080E00E947B1190E080E00C94AA
:102AF00091110E945E1A0C946B150E94851A0C9419
:102B00007915E92FE295EF70E250EE3070F4F0E0C5
:102B1000E25FF84D0C94BD23803F19F020F4883E0D
:102B200020F481E00895843FE1F380E00895883E39
:102B3000C0F3813FD1F7F5CF93FB882780F9089543
:102B40000E94221A0C948115CF93DF9300D000D0FD
:102B50000F92CDB7DEB70F900F900F900F900F90A0
:102B6000DF91CF910895CF93DF9300D000D000D0B4
:102B7000CDB7DEB726960FB6F894DEBF0FBECDBF39
:102B8000DF91CF9108951F93CF93DF93C091A4025B
:102B900016E08091A5028C1304C0DF91CF911F91A4
:102BA0000895D0E01C9FF0011D9FF00D1124EA55FF
:102BB000FD4F4081518162817381848195810E94A2
:102BC000B3152196C770E5CF4091D6025091D70238
:102BD0006091D8027091D9028091DA029091DB0263
:102BE0000C94B3151F93CF93DF938091DB02807F0A
:102BF000A9F48091D802882389F08091A402C09121
:102C0000A5026091D6027091D702A091D902B0912D
:102C1000DA02D62FD72316E0C81304C0DF91CF9174
:102C20001F91089590E0109711F0DF3F19F401967D
:102C30008770F2CF189F9001199F300D1124F90170
:102C4000EA55FD4F41814713F2CF40814613EFCF44
:102C500042814111ECCF438154814A1B5B0B4436C6
:102C6000510528F78091DB028F7080618093DB0231
:102C7000F901E555FD4F80818F708061808386ED7D
:102C800092E00E944315DF91CF911F910C94C315E0
:102C9000AF92BF92CF92DF92EF92FF920F931F936A
:102CA000CF93DF93CDB7DEB761970FB6F894DEBF51
:102CB0000FBECDBF8C0185E0F801DE011D960190AD
:102CC0000D928A95E1F7F80140815181E28086ED0D
:102CD000C82E82E0D82E6091D9027091DA02611577
:102CE000710509F44FC19091D6022091D702892F26
:102CF00082238F3F09F446C1A380B480F090D802AC
:102D0000F501E61BF70BFF2009F40AC18091DB02F5
:102D1000382F307FE436F10508F0C0C0311179C09A
:102D2000FE2C251323C0941321C0E1101FC08F7007
:102D300080618093DB020E94E415C6010E94431566
:102D40008091DB02F80185838F2D61960FB6F89490
:102D5000DEBF0FBECDBFDF91CF911F910F91FF90CE
:102D6000EF90DF90CF90BF90AF900895AB2829F0FF
:102D7000842F85238F3F09F021C180E0F82FF17067
:102D8000DF2E80FF3CC08091A4022091A50236E096
:102D9000821315C04D875E878D859E850E94221AFD
:102DA000292F22952F702230F0F0243018F59F70D3
:102DB000F1F0F8019581907FD1F4D12C1EC090E004
:102DC000389FF001399FF00D1124EA55FD4F6181C4
:102DD000651306C06081641303C062816E110FC069
:102DE00001968770D5CF9F7011F0882331F3805EF4
:102DF000883018F3C8010E944315FD2CA5CFEE20A2
:102E000009F4A2CF8091DB0281608093DB02F12C78
:102E10009BCF251314C0941312C0E11010C0F80109
:102E20008583C8010E94431586E0F801A6EDB2E053
:102E300001900D928A95E1F70E94E41585CF4D87A8
:102E40005E878D859E850E94A015882319F1EE204E
:102E500009F18091DB02803270F02091D60230912E
:102E6000D70238872F831986BB86AA868C87CE0126
:102E700007960E94431586E0F801A6EDB2E00190A6
:102E80000D928A95E1F70E94F2150E94E415FF2445
:102E9000F3945ACFC8010E944315F9CF311113C0E2
:102EA0007A2DB98AA88A6E2D89890E94A41586ED8B
:102EB00092E00E94431586E0F60111928A95E9F7A7
:102EC0000E94E415A4CF25130FC094130DC0E11088
:102ED0000BC0F8018583C8010E94431586E0F60106
:102EE00011928A95E9F730CF4D875E878D859E8553
:102EF0000E94A015882371F2EE2061F28091DB021E
:102F0000803208F4B8CF2091D6023091D7023A83AC
:102F100029831B82BD82AC828E83CE010196A9CF0C
:102F2000E436F10510F5FE2CEE2009F4B3CF25139D
:102F30000BC0941309C086E0F801A6EDB2E0019041
:102F40000D928A95E1F700CF4D875E878D859E852E
:102F50000E94A01581118FCF8091DB028160809348
:102F6000DB02C8010E944315EFCE7A2DB98AA88AE8
:102F70006E2D89890E94A41586E0F60111928A952A
:102F8000E9F75ACFEE2009F485CF4D875E878D850E
:102F90009E850E94A015F82E882309F47BCF86E039
:102FA000F801A6EDB2E001900D928A95E1F786ED69
:102FB00092E00E9497120E94F2153ECF81E08E258A
:102FC000DDCE1F93CF93DF93CDB7DEB72C970FB62F
:102FD000F894DEBF0FBECDBF4F83588769877A87CD
:102FE0008B879C87CE0107960E944816882369F03C
:102FF0008A859B85892B39F04F815885842F8523BD
:103000008F3F09F071C016E05FC086E0FE01379681
:10301000DE01119601900D928A95E1F78A859B85D4
:10302000892B89F38F81988589238F3F61F32091C4
:10303000A50230E0C9010196877099274091A4024A
:103040004817190671F40E947D151092A50210927E
:10305000A40286E0E6EDF2E0DF011D928A95E9F731
:10306000D2CF96E0929FD001939FB00D1124AA5524
:10307000BD4FFE01319601900D929A95E1F7809334
:10308000A5020E94C315BFCF819FC00111248A559C
:103090009D4F0E9448168823E9F0E091A4021E9FEC
:1030A000F0011124EA55FD4F408151816281738105
:1030B000848195810E94B3158091A40290E00196CD
:1030C000877099278093A4028091A4029091A50211
:1030D0008913DACF2C960FB6F894DEBF0FBECDBFA2
:1030E000DF91CF911F91089569857A858B859C85A5
:1030F0000E94B31588CF08950C947B180E947C1809
:10310000609308037093090380930A0390930B0361
:103110000C946B1508950C947E180F931F930091D7
:1031200008031091090320910A0330910B03602BCF
:10313000712B822B932B1F910F910C947E180F9360
:103140001F93009108031091090320910A03309105
:103150000B0360237123822393231F910F910C94FF
:103160007E180F931F93009108031091090320917B
:103170000A0330910B0360277127822793271F9141
:103180000F910C947E180C947B180C94C3180E9419
:10319000C51860930403709305038093060390930E
:1031A00007030C946B1560E070E0CB010C94C7181A
:1031B0000F931F9341E050E060E070E08A019B01B3
:1031C00004C0000F111F221F331F8A95D2F7C901B7
:1031D000B8011F910F910C94C7180F931F9341E0F2
:1031E00050E060E070E004C0440F551F661F771F79
:1031F0008A95D2F78091040390910503A09106036C
:10320000B09107038A019B01082B192B2A2B3B2B1A
:10321000C901B8011F910F910C94C7180F931F9308
:1032200041E050E060E070E004C0440F551F661FAD
:10323000771F8A95D2F7CB01BA016095709580957A
:10324000909500910403109105032091060330919D
:10325000070360237123822393231F910F910C9402
:10326000C7180F931F9341E050E060E070E004C086
:10327000440F551F661F771F8A95D2F7809104036C
:1032800090910503A0910603B09107038A019B0169
:10329000082719272A273B27C901B8011F910F9139
:1032A0000C94C7180F931F9300910403109105030A
:1032B0002091060330910703602B712B822B932BF7
:1032C0001F910F910C94C7180F931F930091040343
:1032D00010910503209106033091070360237123A9
:1032E000822393231F910F910C94C7180F931F9360
:1032F0000091040310910503209106033091070308
:1033000060277127822793271F910F910C94C7186C
:103310000895E92FEE0FE90FEE0F8E0F982F97709B
:1033200041E001C0440F9A95EAF786958695869507
:1033300095E0899FF0011124E452FD4F30E020E038
:1033400070E05191DF011197CB01022E02C09695DA
:1033500087950A94E2F781708195852784238527D4
:103360008C932F5F3F4F2530310559F70895E92F92
:10337000EE0FE90FEE0F8E0F982F977086958695BA
:10338000869525E0829FF0011124E452FD4F50E024
:1033900040E080E0219130E0092E02C0369527956B
:1033A0000A94E2F721703327042E01C0220F0A94F9
:1033B000EAF7822B4F5F5F4F4530510559F708956B
:1033C000BF92CF92DF92EF92FF920F931F93CF9312
:1033D000DF938C01C0900403D0900503E0900603B6
:1033E000F09007038091080390910903A0910A03CC
:1033F000B0910B03C82AD92AEA2AFB2ACFE1D0E0F0
:10340000BC2ED701C6010C2E04C0B695A795979582
:1034100087950A94D2F780FD0EC0219788F7B12CCA
:103420008B2DDF91CF911F910F91FF90EF90DF9047
:10343000CF90BF900895B8018C2F0E942E0601975F
:1034400061F3EECFCF93DF93EC010E94E019BE0150
:10345000DF91CF910C942E061F93CF93DF93EB0156
:103460009091A302992331F0CB01DF91CF911F916D
:103470000C94221A882379F0CB010E94E019182FAE
:10348000682FCE010E948919BE01812FDF91CF9153
:103490001F910C942E06CB010E94B719182FF4CF60
:1034A000682F80915001909151010C940A1C682F53
:1034B00080915001909151010C940C1C809150010D
:1034C000909151010C940E1C80910C03859585956B
:1034D0008595089580910C038770089590910C0351
:1034E000977081E009F480E00895809118030895B1
:1034F00090911803892B80931803089580959091DB
:1035000018039823909318030895109218030895B0
:1035100090911703892B80931703089580959091BC
:103520001703982390931703089510921703089593
:1035300010921603089580910D03089508950C9438
:103540009E1A90910D03981721F080930D030C940F
:103550009F1A089580910D03882329F010920D037E
:1035600080E00C949F1A0895E0915001F091510170
:10357000809118038083E0915001F0915101808186
:1035800090911703892B8083E0915001F0915101B4
:10359000808190911603892B808390910D0399234C
:1035A00081F0E0915001F09151018081892B80835D
:1035B00080915001909151010E94C21B81110E9483
:1035C000AA1A80915001909151010C9470110895A4
:1035D0000C94E71A98E0899F90011124622B609364
:1035E0000C030E94ED1880910C03859585958595B7
:1035F0000C94E81A10920C0380E00C94E81A909155
:103600000C038095892380930C03282F277071F475
:10361000282F082E000C330B9217130639F08595CE
:10362000859585950E940E190C94FA1A089590E0DC
:1036300080E00E94802621E08C3E9E4F09F020E031
:10364000822F089582E090E00C94782683E090E049
:103650000C947826CF9384E090E00E947826C82FBF
:1036600081E290E00E947826982F8C2FCF910895C8
:10367000CF93C92F682F84E090E00E9486266C2F9C
:1036800081E290E0CF910C948626AB01BC018FE0E3
:1036900090E00C949826AB01BC0183E190E00C947F
:1036A000982660E070E0CB010C944B1B60E070E06A
:1036B000CB010E94451B0C94511B6CEE7EEF90E0F9
:1036C00080E00E94A42660E082E090E00E948626CE
:1036D00060E083E090E00E9486261092080310923A
:1036E000090310920A0310920B0360E084E090E05B
:1036F0000E94862660E081E290E00E94862660E0DB
:1037000085E090E00E94862660E086E090E00E94DE
:1037100086266FEF87E090E00E94862640E050E02A
:10372000BA0188E090E00E94982660E08DE090E089
:103730000E94862640E050E0BA0188E190E00E94B5
:10374000982660E087E190E00E94862640E050E005
:10375000BA018CE190E00E94982660E080E290E05F
:103760000E94862640E050E0BA0188E190E00E9485
:1037700098260C94561B0C945D1B682F8EE090E0ED
:103780000C9486269C012E5F3F4FAC01485F5F4F33
:1037900080E02417350709F40895F90191919F01FC
:1037A0009923B9F38F5FF5CF662349F0FC01329678
:1037B00008962191261729F0E817F907D1F780E03C
:1037C000089581E008959C01FC0132969FEF80E00E
:1037D0004191461751F09F3F19F4411101C0982FB4
:1037E0008F5F8630A9F79F3F09F40895290F311D97
:1037F00097FD3A95F90162830895FC013296089687
:103800002191261303C0DF0111971C92E817F907D5
:10381000B9F708950C94E31B0C94FD1B029626E067
:10382000FC0111922A95E9F70895089508950C94E2
:10383000161C0E94171C80914B05843049F1109290
:103840001A0388E190E020E40FB6F894A8958093DD
:1038500060000FBE2093600080E00E9412060E946C
:10386000171C83B7817F846083BF83B7816083BF68
:103870007894889583B78E7F83BF0FB6F894A89508
:1038800080916000886180936000109260000FBE9C
:1038900008950895CF930E94151C0E948B080E94E2
:1038A000491CC0E08C2F0E94FA07811105C0CF5F30
:1038B000CA30C1F7CF91089581E0FCCF08950C94F0
:1038C0005E1C0E947D150E9464110E9412060C94D9
:1038D0005F1C1F921FB61F9211248F939F93AF936B
:1038E000BF9380911A03811113C08091410590917B
:1038F0004205A0914305B09144054196A11DB11D1B
:103900008093410590934205A0934305B0934405ED
:10391000BF91AF919F918F911F901FBE1F901895DF
:1039200082E084BD93E095BD9AEF97BD80936E00D1
:1039300008952FB7F8948091410590914205A09188
:103940004305B09144052FBF08952FB7F8946091B7
:1039500041057091420580914305909144052FBF28
:1039600008959C014FB7F8948091410590914205CC
:10397000A0914305B09144054FBF821B930B08955E
:1039800078941F921FB61F9211248F939F93AF9329
:10399000BF938091410590914205A0914305B0915C
:1039A00044050196A11DB11D8093410590934205E8
:1039B000A0934305B0934405BF91AF919F918F9120
:1039C0001F901FBE1F90189587E797E790930108F7
:1039D0008093000888E19AE00FB6F894A895809348
:1039E00060000FBE90936000FFCF0E94171B8111F3
:1039F00002C00E94BB1B0E94221B809319030E94DD
:103A00002A1B90934605809345050E94261B682F2C
:103A100070E090E080E00E948B1860910403709148
:103A2000050380910603909107030C94C5188091BB
:103A3000230308950895CF93DF9300D00F92CDB75D
:103A4000DEB790914B05943019F589837B836A83A7
:103A500082E08093E9008FEF9091E800815095FD1E
:103A600006C095ED9A95F1F700008111F5CF809190
:103A7000E80085FF0DC050E040E063E070E0CE015B
:103A800001960E940C1F8091E8008E778093E800D9
:103A90000F900F900F90DF91CF910895BC0184E0BB
:103AA0000C941B1DBC0183E00C941B1DCF93DF9372
:103AB000EC0181E08093E9008FEF9091E800815064
:103AC00095FD06C095ED9A95F1F700008111F5CFAF
:103AD0008091E80085FF14C050E040E068E070E0AD
:103AE000CE010E940C1F8091E8008E778093E80041
:103AF00088E0FE01ABE1B3E001900D928A95E1F719
:103B0000DF91CF91089580914A05811109C00E94EB
:103B10009C200E94F9208091E20084608093E20062
:103B2000089510924A050895089508950C94611C13
:103B300042E061EC81E00E94182042E261EC82E008
:103B40000C94182080914D05833009F45FC030F447
:103B50008130C1F1823009F49BC008958A3009F4A4
:103B600087C08B3009F46DC0893009F04EC0809158
:103B70004C05813209F049C0809150059091510562
:103B8000029708F042C08091E800877F8093E800A8
:103B90008091E80082FF35C09091F3008091F2009F
:103BA000029729F48091F1008B7F813021F480917C
:103BB000F100809323038091E8008B778093E800E5
:103BC0000C944C2080914C05813AF9F48091E800E6
:103BD000877F8093E8008091500590915105892B53
:103BE00061F468E08BE193E070E00E945B1F8091DC
:103BF000E8008B778093E800089560E090E080E033
:103C0000F3CF80914B058111C3CF089580914C056E
:103C1000813AD9F78091500590915105892BA9F7E8
:103C20008091E800877F8093E8008091E80080FF22
:103C3000FCCF80915C018093F1008091E8008E7749
:103C4000BDCF80914C05813201F780915005909154
:103C50005105892BD1F68091E800877F8093E80099
:103C60000E944C2080914E0580935C010C947D1540
:103C700080914C05813249F68091E800877F8093DE
:103C8000E8000E944C2080914F0580932403089502
:103C900080914C05813A09F0B8CF8091E800877F88
:103CA0008093E8008091E80080FFFCCF809124039E
:103CB000C2CF84B7877F84BF0FB6F894A895809150
:103CC0006000886180936000109260000FBE80E801
:103CD00090E00FB6F89480936100909361000FBE5E
:103CE0000E94B5110E949C200E94F9208091E20060
:103CF00084608093E20078940E9482230E94BF1126
:103D000082E591E00E945F1180914B05853039F08A
:103D10000E94CA110E94BD110E94BE11F5CF0E94DF
:103D2000191C80914905882379F30E944A1C882335
:103D300059F30E94F61EE8CF0C949E1E292F3327BC
:103D40002330310519F168F42130310509F444C0FC
:103D50002230310509F445C090E080E030E020E0F9
:103D600025C02132310549F122323105A9F780E41D
:103D700090E028EB38E061157105C1F082E390E036
:103D800026E838E06130710589F0E6CF9927813067
:103D9000910581F0009729F00297F1F6E3E1F8E050
:103DA00002C0E5E3F8E0849190E09F01FA013183DD
:103DB00020830895E3E2F8E0F6CF89E090E02BE479
:103DC00038E06115710591F389E090E024E638E070
:103DD0006130710559F3C0CF82E190E024E738E00B
:103DE000E5CF8BE390E029E338E0E0CF80E189BDC7
:103DF00082E189BD09B400FEFDCF8091D8008F7D9E
:103E00008093D8008091E00082608093E0008091F0
:103E1000E00081FDFCCF0895AF92BF92CF92DF9278
:103E2000FF920F931F93CF93DF936C01EB018A01F5
:103E30000E946B20F82E811123C00115110539F065
:103E4000F80180819181C81BD90BC80ED91EB12CF5
:103E5000A12C2097A9F08091E80085FD22C08091D7
:103E6000E8008E778093E80001151105A1F0F801B4
:103E700080819181A80EB91EB182A08285E0F82EC2
:103E80008F2DDF91CF911F910F91FF90DF90CF90F9
:103E9000BF90AF9008950E946B208823D1F2F82E36
:103EA000EFCFF60181916F018093F1002197FFEF31
:103EB000AF1ABF0ACECFFC018091520590915305F5
:103EC00086179707A0F06115710529F49091E80015
:103ED0009E779093E80090E06115710551F491117F
:103EE00008C08091E80082FF34C080E00895BC01E2
:103EF000F2CF80914B058823C1F18530C1F18091CB
:103F0000E80083FD30C08091E80082FDEACF809117
:103F1000E80080FFE1CF8091F3002091F200382F7C
:103F20006115710519F02830310558F091E02830FD
:103F3000310509F090E02091E8002E772093E80009
:103F4000CBCF81918093F100615071092F5F3F4F7A
:103F5000E7CF80914B05882341F0853041F0809177
:103F6000E80083FFBECF81E0089582E0089583E0FA
:103F70000895FC018091520590915305861797078B
:103F8000A0F06115710529F48091E8008E77809387
:103F9000E80090E06115710551F4911108C080911D
:103FA000E80082FF35C080E00895BC01F2CF809127
:103FB0004B058823C9F18530C9F18091E80083FD64
:103FC00031C08091E80082FDEACF8091E80080FF57
:103FD000E1CF8091F3002091F200382F6115710537
:103FE00019F02830310558F091E02830310509F0FA
:103FF00090E08091E8008E778093E800CBCF8491A9
:104000008093F1003196615071092F5F3F4FE6CFE9
:1040100080914B05882341F0853041F08091E80084
:1040200083FFBDCF81E0089582E0089583E0089585
:10403000982F973028F08F708093E90081E00895E1
:104040009093E900242F762F50E0981731F070916B
:10405000EC002091ED005091F00021FD02C09F5F27
:10406000E8CF3091EB003E7F3093EB003091ED00D4
:104070003D7F3093ED003091EB0031603093EB00E9
:104080007093EC002093ED005093F0002091EE002F
:1040900027FDE5CF80E0089580914C0587FF13C090
:1040A0008091E80082FF06C08091E8008B778093C2
:1040B000E80004C080914B058111F2CF08958091F2
:1040C0004B058823D9F38091E80080FFF8CF8091D9
:1040D000E8008E77ECCF2091E4003091E50095E682
:1040E000A9012091EC00822F817020FF06C08091F1
:1040F000E80080FF06C080E008952091E80022FDDE
:104100001AC080914B05882389F0853089F0809111
:10411000EB0085FD0FC02091E4003091E5004217CF
:104120005307F9F29150E1F684E0089582E0089592
:1041300083E0089581E008950E940A210E941221DF
:10414000E0EEF0E0808181608083E8EDF0E0808146
:104150008F77808319BCA7EDB0E08C918E7F8C9314
:1041600080818F7E808310924A0508950F931F935C
:10417000CF93DF930E940A210E941221C8EDD0E064
:1041800088818F77888388818068888388818F7D04
:10419000888319BC10924B0510924705109249056F
:1041A0001092480500EE10E0F80180818B7F80833B
:1041B00088818160888342E060E080E00E9418206E
:1041C000E1EEF0E080818E7F8083E2EEF0E080819E
:1041D00081608083808188608083F80180818E7F08
:1041E0008083888180618883DF91CF911F910F91B7
:1041F0000895E8EDF0E080818F7E8083E7EDF0E0C8
:1042000080818160808384E082BF81E080934A0561
:104210000C94B620E8EDF0E080818E7F80831092D0
:10422000E20008951092DA001092E10008951F92C2
:104230000F920FB60F9211242F933F934F935F93DA
:104240006F937F938F939F93AF93BF93EF93FF935E
:104250008091E10082FF0BC08091E20082FF07C0E5
:104260008091E1008B7F8093E1000E948123809107
:10427000DA0080FF19C08091D80080FF15C08091BE
:10428000DA008E7F8093DA008091D90080FF96C09B
:1042900080E189BD82E189BD09B400FEFDCF81E0E6
:1042A00080934B050E94831D8091E10080FF19C01F
:1042B0008091E20080FF15C08091E2008E7F8093A4
:1042C000E2008091E20080618093E2008091D8005A
:1042D00080628093D80019BC85E080934B050E94D2
:1042E000951D8091E10084FF2BC08091E20084FF46
:1042F00027C080E189BD82E189BD89B5982F917081
:1043000080FFFBCF8091D8008F7D8093D800809173
:10431000E1008F7E8093E1008091E2008F7E8093A8
:10432000E2008091E20081608093E2008091470585
:10433000882309F449C084E080934B050E94961DB0
:104340008091E10083FF29C08091E20083FF25C0B6
:104350008091E100877F8093E10082E080934B05AC
:10436000109247058091E1008E7F8093E10080915B
:10437000E2008E7F8093E2008091E2008061809372
:10438000E20042E060E080E00E9418208091F000AE
:1043900088608093F0000E94941DFF91EF91BF917F
:1043A000AF919F918F917F916F915F914F913F91CD
:1043B0002F910F900FBE0F901F90189519BC10925F
:1043C0004B050E94911D70CF8091E30087FD93E023
:1043D00090934B05B3CF1F920F920FB60F921124FB
:1043E0002F933F934F935F936F937F938F939F93FD
:1043F000AF93BF93CF93DF93EF93FF93D091E900F7
:10440000DF708091EC00C82FC17080FDC0E8109271
:10441000E9008091F000877F8093F00078940E94FB
:104420002F221092E9008091F00088608093F000C4
:10443000CD2BCF70C093E900FF91EF91DF91CF9129
:10444000BF91AF919F918F917F916F915F914F91AC
:104450003F912F910F900FBE0F901F9018951F93B3
:10446000CF93DF93CDB7DEB7AA970FB6F894DEBF30
:104470000FBECDBF8CE495E02091F100FC012193AB
:10448000CF01F5E084359F07B9F70E94A21D809106
:10449000E80083FF1EC180914C0590914D059A3034
:1044A00008F017C1E92FF0E0E45EF84D0C94BD234D
:1044B000803899F0823809F00CC1809150058F70D6
:1044C000873008F006C18093E9008091EB0085FBFE
:1044D000882780F91092E90006C0809148059091E4
:1044E0004905911182609091E800977F9093E800D0
:1044F0008093F1001092F1008091E8008E77E5C082
:10450000882309F4D3C0823009F0E3C080914E05BE
:104510008111D6C0809150058F702FEF280F263063
:1045200008F0D7C08093E9002091EB0020FFC8C0BD
:10453000933031F48091EB0080628093EB00C0C037
:104540009091EB0090619093EB0021E030E001C08E
:10455000220F8A95EAF72093EA001092EA008091F0
:10456000EB008860EACF8111B4C010914E051F772F
:104570008091E3008078812B8093E3008091E800B4
:10458000877F8093E8000E944C208091E80080FFA4
:10459000FCCF8091E30080688093E30082E01111FA
:1045A00083E080934B0595C08058823008F091C01D
:1045B00080914E0590914F058C3D23E09207A1F527
:1045C00083E08A838AE289834FB7F894DE011396E9
:1045D00020E03EE051E2E32FF0E050935700E491F9
:1045E00020FF03C0E295EF703F5FEF708E2F90E0E9
:1045F000EA30C0F0C7968D939D932F5F243159F711
:104600004FBF8091E800877F8093E8006AE270E006
:10461000CE0101960E945B1F8091E8008B7780930A
:10462000E80057C0C096E7CF6091500570915105E2
:10463000AE014F5F5F4F0E949C1EBC01892B09F4A5
:1046400048C09091E800977F9093E80089819A8113
:104650000E94B91FE1CF8038E1F58091E800877FA3
:104660008093E800809147058093F10045CF811148
:1046700030C090914E05923060F58091E800877FC0
:104680008093E800909347050E944C208091470555
:10469000882311F084E005C08091E30087FDFACF04
:1046A00081E080934B050E94981D13C080914E05B8
:1046B000813079F481E0933009F080E080934905FE
:1046C0001092E9008091E800877F8093E8000E94C3
:1046D0004C208091E80083FF0AC08091E800877F2A
:1046E0008093E8008091EB0080628093EB00AA96B3
:1046F0000FB6F894DEBF0FBECDBFDF91CF911F91F3
:1047000008950895CF9380914B058823A1F0C0911F
:10471000E900CF709091EC00892F817090FD80E8C6
:10472000C82B1092E9008091E80083FD0E942F229F
:10473000CF70C093E900CF910895991B79E004C030
:10474000991F961708F0961B881F7A95C9F78095D0
:104750000895AA1BBB1B51E107C0AA1FBB1FA617C8
:10476000B70710F0A61BB70B881F991F5A95A9F71A
:1047700080959095BC01CD010895EE0FFF1F059027
:10478000F491E02D0994FB01DC0102C005900D922B
:1047900041505040D8F70895FB01DC0104C08D91D1
:1047A0000190801921F441505040C8F7881B990BA3
:1047B0000895AEE0B0E0EFEDF3E20C94C8260D8969
:1047C0001E898F89988D26E02C831A83098397FF91
:1047D00002C080E090E801979E838D83AE01455E24
:1047E0005F4F698D7A8DCE0101960E9409244D811B
:1047F0005E8157FD0AC02F813885421753070CF49C
:104800009A01020F131FF80110822E96E4E00C9417
:10481000E426ABE0B0E0EFE0F4E20C94BA267C01D1
:104820003B018A01FC0117821682838181FFB9C195
:104830009AE0292ECE0101965C01F7019381F301E4
:1048400093FD859193FF81913F01882309F446C12F
:10485000853239F493FD859193FF81913F01853233
:1048600029F4B70190E00E94EA25E7CF912C412C72
:10487000512CFFE1F51538F08B3209F188F48032C4
:1048800001F1833221F157FC3AC020ED280F2A3084
:1048900040F556FE1FC0929C200D1124922E06C09A
:1048A0008D3291F0803379F7689450F8F30193FDDD
:1048B000859193FF81913F018111DBCF20C06894E6
:1048C00051F8689452F8F2CF689453F8EFCF689497
:1048D00054F8ECCF429C200D1124422E689455F8D8
:1048E000E5CF8E3229F456FCF9C0689456F8DECF35
:1048F0008C3619F4689457F8D9CF8836B9F2982FC6
:104900009F7D95549330C0F08336A1F18337C1F178
:10491000833509F05BC0F801C190D1908F01692DFA
:1049200070E056FC02C06FEF7FEFC6010E94D425F5
:104930004C01689457F80AC00C5F1F4F2FE329837E
:1049400088248394912C6501E89457F853FC04C0A3
:104950004814190409F018F5342C8114910431F528
:10496000332009F46ACFB70180E290E00E94EA2583
:104970003A94F6CFF801808189830E5F1F4FE0CF14
:10498000F801C190D1908F01692D70E056FC02C0F2
:104990006FEF7FEFC6010E94DF254C01D5CFB70135
:1049A00080E290E00E94EA254A94D2CFF60157FCBB
:1049B000859157FE81916F01B70190E00E94EA2531
:1049C00031103A94F1E08F1A9108C7CF843619F06C
:1049D000893609F074C0F80157FE6AC0619171917F
:1049E000819191918F01252D2F76D22E97FF09C0AD
:1049F00090958095709561957F4F8F4F9F4F6894EC
:104A0000D7F82AE030E0A5010E941A26C82ECA185D
:104A10008C2C5D2CD6FE0CC0E89450F8C91440F4E0
:104A2000D4FE05C0D2FC03C0FD2DFE7E5F2E892C76
:104A300054FE8FC0FE01EC0DF11D8081803309F022
:104A400081C0252D297E522E852D8870382E53FC4D
:104A50008FC050FE89C09C2C841418F44C0C942CEC
:104A6000981854FE8BC0B70180E390E00E94EA25BD
:104A700052FE09C088E790E051FE02C088E590E050
:104A8000B7010E94EA25C91408F484C0CA94D12C45
:104A90009FEFC91AD90ACA0CDB1CF60182916F017B
:104AA000B70190E00E94EA25AC14BD04B1F758CFDD
:104AB00061917191072E000C880B990B93CFD52C27
:104AC000E894D4F82AE030E0853739F1952D997FC4
:104AD000D92E8F3601F148F48835A9F0F701868187
:104AE00097812B96E2E10C94D626803749F08837DF
:104AF000A9F7D4FE02C06894D2F820E130E00DC0DE
:104B00006894D4F8F6CF54FE03C0E92FE660DE2E99
:104B100020E132E002C028E030E0F801D7FE0DC00D
:104B200061917191819191918F01A5010E941A2645
:104B3000C82ECA18E894D7F86BCF6191719190E0B4
:104B400080E0F2CF52FC02C083947ECF83948394A2
:104B50007BCF852D867809F477CFF6CFB70180E239
:104B600090E00E94EA2583948414C0F3312C79CF1D
:104B7000342C3818841408F474CFF8CF852D867837
:104B800009F481CF8BE251FE80E257FC8DE2B70140
:104B900090E077CFB70180E390E00E94EA259A94F5
:104BA00072CF8FEF9FEF9DCFFC0105906150704059
:104BB0000110D8F7809590958E0F9F1F0895FC01E6
:104BC0006150704001900110D8F7809590958E0F3C
:104BD0009F1F08950F931F93CF93DF93182F092FD3
:104BE000EB018B8181FD09C01FEF0FEF812F902F0B
:104BF000DF91CF911F910F91089582FF14C02E81F4
:104C00003F818C819D81281739073CF4E881F98127
:104C1000CF0101969983888310838E819F810196AD
:104C20009F838E83E3CFE885F985812F0995892BB2
:104C3000A1F3DACFFA01AA27283051F1203181F10E
:104C4000E8946F936E7F6E5F7F4F8F4F9F4FAF4F94
:104C5000B1E03ED0B4E03CD0670F781F891F9A1FA7
:104C6000A11D680F791F8A1F911DA11D6A0F711D5B
:104C7000811D911DA11D20D009F468943F912AE067
:104C8000269F11243019305D3193DEF6CF0108954F
:104C9000462F4770405D4193B3E00FD0C9F7F6CF80
:104CA000462F4F70405D4A3318F0495D31FD405248
:104CB000419302D0A9F7EACFB4E0A69597958795DE
:104CC00077956795BA95C9F70097610571050895BD
:104CD0009B01AC010A2E0694579547953795279569
:104CE000BA95C9F7620F731F841F951FA01D089501
:104CF000F999FECF92BD81BDF89A992780B50895A4
:104D0000A8E1B0E042E050E00C94AC26262FF999DF
:104D1000FECF92BD81BDF89A019700B4021639F01A
:104D20001FBA20BD0FB6F894FA9AF99A0FBE0895EB
:104D30000396272F0E9487260E948626252F0E94F1
:104D40008726242F0C9487260196272F0E948726DA
:104D50000C948626DC01CB01FC01F999FECF06C03C
:104D6000F2BDE1BDF89A319600B40D924150504029
:104D7000B8F708952F923F924F925F926F927F9271
:104D80008F929F92AF92BF92CF92DF92EF92FF925B
:104D90000F931F93CF93DF93CDB7DEB7CA1BDB0B07
:104DA0000FB6F894DEBF0FBECDBF09942A883988AC
:104DB00048885F846E847D848C849B84AA84B984B3
:104DC000C884DF80EE80FD800C811B81AA81B981BF
:104DD000CE0FD11D0FB6F894DEBF0FBECDBFED01D3
:104DE0000895F894FFCF3B054C0540054C0544055C
:104DF0004C054C054C0548054C0548054C05480537
:104E00004C05480565136513BD13BD130F149213AC
:104E1000921392132B14B714C614C6148C158C1548
:104E20009515951597159515951595158C158C1542
:104E30009C15951595159C15582280226923802272
:0C4E40006923B322D42269232B233723DB
:104E4C00808182838485868788898A8B8C8D8E8FDE
:104E5C009091929394A0A1A2A3A4A5A6A7A8A9AA55
:104E6C00ABACADAEAFB0B1B2B3B4C0C1C2C3C4C5CC
:104E7C00C6C7C8C9CACBCCCDCECFD0D1D2D3D40023
:104E8C000158020059020559020021007F2200033B
:104E9C000E03171D561D1A1D521D4E1D012564783B
:104EAC0025642C206B253264203A202563002020B9
:104EBC0020206162636465666768696A6B6C6D6EFD
:104ECC006F707172737475767778797A3132333496
:104EDC003536373839305245425420202020202096
:104EEC00203B27202C2E2F202020E200E900EA0076
:104EFC00B500B600B700CD008301CC008A01920149
:104F0C0094012102230224022502260227022A02EE
:104F1C00B300B4006F007000818283F6F731333236
:104F2C00366697C6343500000000000008101818CB
:104F3C00100800E200E900EA00B500B600B700CDA9
:104F4C00008301CC008A01920194012102230224E6
:104F5C00022502260227022A02B300B4006F007059
:044F6C0000818283BB
:00000001FF
