:100000000C94AF040C94F6040C94F6040C94AC100D
:100010000C94F6040C94F6040C94F6040C94F60478
:100020000C94F6040C94F6040C94F0210C94C22267
:100030000C94371D0C94F6040C94F6040C94F604FE
:100040000C94F6040C94F6040C94F6040C94F60448
:100050000C94F6040C94901D0C94F6040C94F60485
:100060000C94F6040C94F6040C94F6040C94F60428
:100070000C94F6040C94F6040C94F6040C94F60418
:100080000C94F6040C94F6040C94F6040C94F60408
:100090000C94F6040C94F6040C94F6040C94F604F8
:1000A0000C94F6040C94F6040C94F6046F05800589
:1000B0007305800577058005800580057B05800533
:1000C0007B0580057B0580057B05DA13DA130C14AC
:1000D0000C145914801580158015771410152115EE
:1000E00021151C161C162E162E1625162E162E162B
:1000F0002E161C161C162A162E162E162A162F23FE
:1001000056234E2456234E24A223C5234E241C24BA
:100110002B2441646A757374005261697365004CE5
:100120006F7765720044656661756C74004C617927
:1001300065723A200035001E001F002000210022B9
:10014000002B0014001A00080015001700390004E5
:10015000001600070009000A00E1001D001B000650
:1001600000190005000000E000E20001512C00E34E
:10017000002D00270026002500240023002A00135C
:100180000012000C0018001C00340033000F000E99
:10019000000D000B00E5003800370036001000119C
:1001A000000000E400E600025128006500000000A5
:1001B000000000000000000000010000000000003E
:1001C0000000000000010004011601000009010008
:1001D0000001001D011B0106011901290000000199
:1001E000000100010001000100000000004B004A76
:1001F00000490000004C0000004E004D004C001C67
:100200000100004F005200510050000B010100316D
:1002100000000000000000000000000100010003D9
:10022000510100010000003A003B003C003D003E4F
:100230000001001E021F0220022102220201000111
:1002400000010046004700480001000100010001D4
:100250000001000100000001000100035101000144
:1002600000440043004200410040003F0045002799
:10027000022602250224022302000030002F003152
:10028000022E002D00010030022F0235022E022D19
:100290000200000100010001000100010000000057
:1002A000000000000000000000000000000000004E
:1002B000000000000000000000000000000000003E
:1002C00000005C00000000000000000100000001D0
:1002D000000100010001000100000000000000001A
:1002E000000000000000000000000000000000000E
:1002F0000000000000A900AA00A800000001000002
:1003000000AB00AE00AC00000000000100010001E5
:10031000000100010000AE00AF00DA0281FFD9F158
:10032000DB20A4A62EAF00A0C000A1C800AED580DF
:10033000A81FD300408D1420000000000000003EE4
:100340005B4F5B3E003E6B4F6B3E001C3E7C3E1C99
:1003500000183C7E3C18001C577D571C001C5E7F1B
:100360005E1C0000183C180000FFE7C3E7FF000018
:100370001824180000FFE7DBE7FF0030483A060EBC
:1003800000262979292600407F05050700407F05C2
:10039000253F005A3CE73C5A007F3E1C1C080008E1
:1003A0001C1C3E7F0014227F2214005F5F005F5FF1
:1003B0000006097F017F00006689956A0060606021
:1003C00060600094A2FFA2940008047E040800105C
:1003D000207E20100008082A1C0800081C2A080893
:1003E000001E10101010000C1E0C1E0C0030383EA9
:1003F000383000060E3E0E0600000000000000002F
:10040000005F000000000700070000147F147F1445
:1004100000242A7F2A1200231308646200364956FA
:10042000205000000807030000001C2241000000CB
:1004300041221C00002A1C7F1C2A0008083E0808D4
:100440000000807030000008080808080000006004
:100450006000002010080402003E5149453E0000A3
:10046000427F4000007249494946002141494D33CD
:10047000001814127F10002745454539003C4A49B1
:1004800049310041211109070036494949360046E2
:100490004949291E000000140000000040340000FB
:1004A0000000081422410014141414140000412206
:1004B0001408000201590906003E415D594E007CB6
:1004C0001211127C007F49494936003E41414122C8
:1004D000007F4141413E007F49494941007F090970
:1004E0000901003E41415173007F0808087F000068
:1004F000417F4100002040413F01007F081422411C
:10050000007F40404040007F021C027F007F0408C3
:10051000107F003E4141413E007F09090906003E2F
:100520004151215E007F0919294600264949493277
:100530000003017F0103003F4040403F001F204077
:10054000201F003F4038403F00631408146300033D
:1005500004780403006159494D4300007F41414143
:1005600000020408102000004141417F0004020104
:100570000204004040404040000003070800002003
:1005800054547840007F2844443800384444442878
:1005900000384444287F0038545454180000087E22
:1005A0000902001824241C78007F08040478000045
:1005B000447D4000002040403D00007F1028440062
:1005C0000000417F4000007C04780478007C08042F
:1005D0000478003844444438007C18242418001857
:1005E0002424187C007C0804040800485454542433
:1005F0000004043F4424003C4040207C001C204078
:10060000201C003C4030403C004428102844004C52
:100610009090907C004464544C44000008364100A3
:1006200000000077000000004136080000020102CF
:100630000402003C2623263C0000000000008080CD
:100640008080000000000080E070180C1830E0800E
:10065000000010F8901030783010B8FC381000000E
:1006600000000000F8FCF80000000000000000009E
:10067000000000001C9C1C00000000F8FCF80000BA
:10068000000000001CFCF8C000000000000080E03A
:10069000F87C1C000000F0FCFCFC1C1C1C1C1C1C3E
:1006A0001C1C000000000000C0F0F8381C1C1C1CC2
:1006B0001C1C3CF8F0E000E0F0F0F0E0ECEEF7F3AA
:1006C0007020007C7C7C7E007E7E7E7F7F7F0000B1
:1006D00080C0E07E5B4F5BFEC00000C000DCD7DE68
:1006E000DEDED7DC00C000000000000000000000DB
:1006F00000000000000000000000000000000FBC2F
:10070000E0818181838382870C183060C000001FE4
:10071000FE90B9FFBB91983C1811133F11000000E7
:1007200000000000FFFFFF000000000000000000CC
:1007300000000000FFFFFF00000000FFFFFF0000BF
:10074000000000000000030F7FF8E080F0FC3F0F86
:100750000100000000003F3F3F1C1C1C1C1C3C789B
:10076000F8F0E08000000000C3E7FF7E3C387878B6
:100770007070F8FFDF87000F1F3F7F7F7F7F7F3F15
:100780001E0C001F1F1F3F003F3F3F7F7F7F003039
:100790007B7F7830202030787F3B0003000F7F0F75
:1007A0000F0F7F0F0003000000000000000000009A
:1007B000000000000000000000183C24666341C1F6
:1007C0008180808080808081C14162386C4CC6818C
:1007D00081808080808081C14362361C18000000C7
:1007E00000000000FFFFFFC0C0C0C0C0C0C0C0C04C
:1007F000800000007FFF7F000000007FFFFFC080BF
:10080000000000E0E0C0C0C0E0F97F1F070000006A
:1008100000000000000070F0E0E0C0C0C0C0E0F0E8
:10082000F87F3F0F0000000F3F7FF9E0E0C0C0C03D
:10083000C0C0E0F97F3F1F00000000000000000082
:1008400000000000000000000000000000000000A8
:100850000000000000000000000000000000000098
:100860000000000000000000000000000000000088
:100870000000000000000000000E034C0069006C46
:1008800000790035003800000010036C0069006C2E
:1008900000690075006D007300000004030904097D
:1008A000023B00020100A0FA09040000010301015B
:1008B0000009211101000122400007058103080001
:1008C0000A090401000103000000092111010001CF
:1008D0002232000705820320000A120110010000E5
:1008E0000008D8042DEB0001010200010501098078
:1008F000A101850319012AB700150126B70095014A
:1009000075108100C0050C0901A101850419012A97
:10091000A002150126A002950175108100C00501F5
:100920000906A101050719E029E715002501950829
:10093000750181029501750881010507190029FFDC
:10094000150026FF00950675088100050819012984
:1009500005950575019102950175039101C011245A
:100960001FBECFEFDAE0DEBFCDBF04B603FE27C067
:100970008091540590915505A0915605B091570569
:100980008730904BA740B04BD1F410925405109291
:100990005505109256051092570514BE84B7877FEF
:1009A00084BF0FB6F894A895809160008861809309
:1009B0006000109260000FBEE0E0F8E3099512E0DD
:1009C000A0E0B1E0E4EFFFE402C005900D92A43294
:1009D000B107D9F725E0A4E2B2E001C01D92A43529
:1009E000B207E1F70E94301F0C94F8270C94000026
:1009F00080E091E00895CF938C33910528F4FC01B9
:100A0000E259FE4FC08101C0C0E21F92CF939F9375
:100A10008F93FB0180811F928F9381811F928F930F
:100A20008DE591E09F938F931F9288E18F938BE3E5
:100A300092E09F938F930E94BE248DB79EB70E962F
:100A40000FB6F8949EBF0FBE8DBF80912402909187
:100A50002502449779F08091240290912502FC01AF
:100A6000EA5DFD4FC0830196909325028093240296
:100A7000CF9108951092250210922402E6E2F2E04E
:100A800080E292E0EA33F90731F38193FACF8BE306
:100A900092E0089586E292E008950C949605CF9333
:100AA000C82F0E948509882311F08C2F01C082E095
:100AB000CF91089560E08DE291E00E94710B8091EA
:100AC000040390910503A0910603B09107038F30B2
:100AD0009105B0F4FC01EA5AFF4F0C94A22460E0A7
:100AE00085E291E00BC060E08FE191E007C060E03B
:100AF00089E191E003C060E082E191E00C94830B16
:100B000008950E948509882361F00E945A050E9479
:100B1000470560E00E946C0B0E944A0560E00C945F
:100B20006C0B0E94F80460E00C94500BFB012281D6
:100B300021110E94FB0481E0089581E00895089549
:100B40000C949F051F93CF93DF9300D000D01F928A
:100B5000CDB7DEB749835A836B833091A302898175
:100B60009A81311114C0662359F0222349F00E9462
:100B7000C01A182F682F89819A810E94671A03C0B2
:100B80000E94931A182F69817A81812F04C00E94D4
:100B9000C01A69817A810F900F900F900F900F907B
:100BA000DF91CF911F910C945006FC01262F4081BC
:100BB00051816281738184810C94A205CF93DF936C
:100BC000EC0160E00E94D505BE01DF91CF910C944D
:100BD000A0050E94E51B811102C00E948C1C0C9490
:100BE0003D080C94390808950E940A160E94F305E6
:100BF0002FEF84E39CE0215080409040E1F700C05B
:100C000000000C94B61D0F931F93CF93DF93EC015C
:100C100061E00E94D5058C01BE010E944D0588232C
:100C200049F1BE01C8010E94670D882319F1BE0178
:100C3000C8010E94B90D8823E9F0BE01C8010E94D5
:100C4000E40E8823B9F08A81882369F001158CE5C8
:100C5000180731F00F3D1C4531F40E948C1C0AC06E
:100C60000E94F40507C0CE01DF91CF911F910F9133
:100C70000C949D0580E0DF91CF911F910F91089515
:100C800008950C94400681E008950C944306CF9398
:100C9000C82F0E9441068C2F0E944506CF910895CF
:100CA0002CE3829FC0011124FC0126E0729FE00D1D
:100CB000F11D1124E60FF11DEE0FFF1FEB5CFE4F3F
:100CC000859194910895CF93DF930E9450060E94DE
:100CD0005407EC0181159245F0F5C11581E5D8075F
:100CE00008F0A9C0C83ED10528F5C03ED10508F0DE
:100CF000D7C0C83AD10578F4C53AD10508F074C018
:100D0000C130D10509F4CCC008F4C8C0C430D10545
:100D100008F0C6C0C3C0CF3BD10508F0BFC0C85A59
:100D2000D0E0CC0FDD1FC655DE4F0990D881C02D15
:100D3000D464B6C0C11590E5D90708F060C0C115EC
:100D400020E4D20708F058C0CE019A9581159F4142
:100D500008F4A6C0A3C0C11586E5D80718F5C115CB
:100D600095E5D90708F080C0C11524E5D20708F041
:100D700076C09E01237033278C2F86958695C115EA
:100D8000D34508F05DC0C1E0D0E002C0CC0FDD1F4C
:100D90002A95E2F720E2829FC0011124C82BD92BAB
:100DA000DC687EC0C1152AE5D20778F4C11589E553
:100DB000D80708F063C0C11598E5D90708F46EC0DC
:100DC000DC2FCC27C06FD06A6BC0CE019056811546
:100DD000904208F063C08D2F8F710E94E807DD27D5
:100DE000D0628F71D82B5CC0C55AD0E0C852DE4F9C
:100DF000C881D0E0D06454C0DF70D06A51C0CE0149
:100E000074E0969587957A95E1F783709C2F93709F
:100E100021E030E002C0220F331F9A95E2F73C68D0
:100E2000382BCF70C695C69580E2C89FE00111248B
:100E3000C22BD32B35C0DC2FCC27C16FD06A30C07A
:100E4000C1E0D0E002C0CC0FDD1F2A95E2F720E21E
:100E5000829FC0011124C82BD92BDA6821C0DC2F56
:100E6000CC27C46FD06A1CC08C2F0E94E8078F71FA
:100E7000C82FD0E0DC2FCC27D06212C08C2F8F700F
:100E80000E94E80794E0D695C7959A95E1F7CF7050
:100E9000D0E0DC2FCC27D069C82B02C0C0E0D0E066
:100EA000CE01DF91CF9108958238910569F1B0F4B8
:100EB0008133910509F46DC048F48932910509F434
:100EC00063C08A32910509F469C00895853391059C
:100ED00009F455C089339105B9F00895833E910511
:100EE00069F138F4803E9105B1F0823E910509F137
:100EF0000895863E9105A9F1873E9105B9F1843E9A
:100F0000910509F064C023C02091450520FD4FC024
:100F100021FD4DC008958091450580FD44C080911C
:100F2000460580FF44C08091450584FD42C083EEA4
:100F30004DC08091450582FF38C0F5CF80914505B1
:100F400082FD33C08091460580FD31C0ECCF809199
:100F5000460581FF32C08091450584FD2AC087EE99
:100F600035C08091450583FF26C0F5CF80914505AA
:100F700083FD21C08091460581FD1FC0ECCF80918B
:100F8000450585FD1CC01DC08091450585FD19C026
:100F900016C08091450586FD16C017C08091450595
:100FA00086FD13C010C089E311C082EE0FC080EE31
:100FB0000DC080E00BC086EE09C084EE07C089E258
:100FC00005C085E303C08AE201C081E390E0089593
:100FD0009091450592FF0DC0282F2871283019F4F3
:100FE000877F846006C0282F2471243011F48B7F02
:100FF000886093FF0DC0282F2871283119F4877E4F
:10100000846106C0282F2471243111F48B7E8861FD
:101010002091460520FF0DC0382F3871383019F463
:10102000877F816006C0382F3171313011F48E7F97
:10103000886021FF0DC0282F2871283119F4877E80
:10104000816106C0282F2171213111F48E7E8861C3
:1010500094FD877E0895E82FF0E0E15DFC4F8081EC
:101060000895089580EA8A95F1F7089508950C94FB
:1010700036080C9437080C9436080C943B08F89406
:10108000E82FE295EF70F0E031A1282F2F7081E07A
:1010900090E001C0880F2A95EAF7982F9095932346
:1010A00091A392A1892B82A37894089508950F9318
:1010B0001F93CF93DF930E94A409809140018091F8
:1010C0004001811102C095E001C090E090933A0385
:1010D00085E0891B8093390386E60E943F0887E9F3
:1010E0000E943F0886EC0E943F0884E30E943F086C
:1010F00085E30E943F08CBEDD1E001EE11E089913C
:101100000E943F080C171D07D1F7E5E2F3E0AFE2BC
:10111000B3E011921D9283E0EF32F807D1F785E03A
:101120000E944E090E94E905DF91CF911F910F9116
:101130000C94AE090E948509882309F18091390336
:1011400090E0815D9C4F0E94C109811114C0809183
:1011500053028F5F80935302863078F0E091390319
:10116000F0E0E15DFC4F80E090E011920196853067
:101170009105D9F702C0109253020C94F1058091A9
:101180003A0390E0815D9C4F0E94DE090C94560862
:101190008F929F92AF92BF92CF92DF92EF92FF9287
:1011A0000F931F93CF93DF9381EEA82E81E0B82E8B
:1011B000C5E2D3E096EEE92E91E0F92E912C01E004
:1011C00010E06501F5018081F894E82FE295EF7059
:1011D000F0E021A18F70A80102C0440F551F8A952D
:1011E000E2F7CA01922F982B91A392A180958923AF
:1011F00082A378940E943208EBEDF1E020E030E029
:10120000812C4191A42FA295AF70B0E090968C9163
:1012100090E04F7002C0959587954A95E2F780FD62
:1012200007C0802F022E01C0880F0A94EAF701C080
:1012300080E0882A2F5F3F4F2630310511F75FEF9E
:10124000A51AB50AF60180810E943F088881881698
:1012500019F0888281E001C080E0982A2196EA1482
:10126000FB0409F0AECF60913A0370E0615D7C4F02
:10127000292D45E085E293E00E944F090E949A08DB
:10128000892DDF91CF911F910F91FF90EF90DF900B
:10129000CF90BF90AF909F908F9008950895FF9248
:1012A0000F931F93CF93DF938C01F62ED72FC42F6C
:1012B000222349F081E0809356020E94691D909399
:1012C000550280935402809156028823C1F0809188
:1012D0005402909155020E94811D069780F0EF2DD7
:1012E000FD2FD8014C2F50E0CD01801B910B8417AE
:1012F00095071CF48D918193F7CF10925602DF91E0
:10130000CF911F910F91FF90089580915702811105
:1013100012C08091D80080618093D8008AE18A95BC
:10132000F1F700C08091D90080FD02C082E001C0C9
:1013300081E08093570281E090915702913009F04B
:1013400080E008950C9485090E94A20980934001D1
:101350000E94850981110C94B50908950E948509A0
:10136000811102C00C94BB09089561E070E081E432
:1013700091E00C945A1061E070E081E491E00C94EB
:101380006310CF93DF93D82FC92F80E090E00E94A5
:101390003C11892B79F4ED2FFC2F80E090E0DC01EB
:1013A000A75ABD4F2C912193019685309105B9F72D
:1013B00081E001C080E0DF91CF91089520E030E02E
:1013C000FC014191CF01F901E75AFD4F40832F5FA6
:1013D0003F4F25303105A1F70895EF92FF920F930B
:1013E0001F93CF93DF93EC017B0164E670E088E705
:1013F0000E941B0F8C01EC0EFD1ECE15DF0561F067
:1014000017FD0AC0FE01849164E670E00E94720F2D
:101410008C012196892B89F30E94F60FC801DF9178
:10142000CF911F910F91FF90EF900895EBE3F3E0C0
:1014300080E092E0DF019C011D9221503040E1F7F5
:10144000F0934005E0933F058FEF9FEF90938A0262
:101450008093890208950E944F058093850280FD44
:1014600002C080E801C080E2809384020E94150FD0
:101470006DE070E08CE293E00E94ED09892B11F0A1
:1014800080E008958091850263E070E081FD03C0F3
:1014900089E293E002C086E293E00E94ED09892B85
:1014A00079F76DE070E089E193E00E94ED09892B06
:1014B00039F70E94751DDC01CB01805A9541AF4F71
:1014C000BF4F80933B0590933C05A0933D05B0939F
:1014D0003E050E94160A81E080938802809387026D
:1014E0001092860208952091840236E0839FC00105
:1014F0001124629F800D911D1124811522E0920715
:1015000014F080E090E0855C9C4F909340058093C0
:101510003F05089520913F05309140052553334004
:1015200040918402642F70E0C9010E948E24481B00
:10153000463010F4240F311D211582E0380710F0D9
:1015400020E030E0255C3C4F3093400520933F0580
:101550000895CF93DF938A3011F481E003C08D307A
:1015600029F480E0DF91CF910C941F0BC62F682FD8
:1015700080913F059091400526E0FC01AEE5B2E088
:1015800001900D922A95E1F7603E30F026E0FC01D3
:1015900011922A95E9F70AC0F6E06F9FB001112475
:1015A000675C7C4F46E050E00E94A824C11135C022
:1015B000C0913F05D091400546E050E0BE018EE568
:1015C00092E00E94B124892BB1F1CB53D3409E010C
:1015D00085E0369527958A95E1F781E090E0AC01AA
:1015E00002C0440F551F2A95E2F7209189023091DD
:1015F0008A02242B352B259645E0D695C7954A952A
:10160000E1F702C0880F991FCA95E2F7822B932B4E
:1016100090938A02809389020EC0E0913F05F09179
:1016200040059F012A5F3F4F2E173F0709F2808137
:1016300080958193F9CFDF91CF910C948A0ACF9353
:10164000E82F20913F05309140052B5333404091C6
:101650008402642F70E0C9010E948E24481B842FED
:10166000EE2359F066E00E948224C82FC150B0F0EA
:1016700060E080E20E94A90AF9CFA901480F511D3C
:101680004115524018F080E020E030E0280F311D75
:10169000255C3C4F3093400520933F05CF91089542
:1016A000FF920F931F93CF93DF93EC01F62EFC0173
:1016B00001900020E9F78F0101501109C017D107EF
:1016C00028F46F2D89910E94A90AF8CFDF91CF915C
:1016D0001F910F91FF9008950E94500B81E00C9490
:1016E0001F0B1F93CF93DF93EC01162FFE01849104
:1016F000882329F0612F0E94A90A2196F7CFDF9154
:10170000CF911F9108950E94710B81E00C941F0BE3
:10171000809188028823F9F00E94751DDC01CB01BD
:10172000805A9541AF4FBF4F80933B0590933C0546
:10173000A0933D05B0933E058091870281110BC0B7
:1017400062E070E087E193E00E94ED09892B19F4D3
:1017500081E0809387028091870208956F927F9243
:101760008F929F92AF92BF92CF92DF92EF92FF92B1
:101770000F931F93CF93DF9380918802882309F4FE
:10178000DCC02091890230918A022115310509F4CB
:10179000D4C0809186028111D0C061E070E0082F32
:1017A00010E03B01082E02C0660C771C0A94E2F799
:1017B000A90146215721452B11F48F5FF0CF90915D
:1017C0008502980165E0220F331F6A95E1F790FDCD
:1017D00012C08295880F807680934B01220F232FB1
:1017E000221F330B319520934E01815E80934C0173
:1017F00010924F0112C045E0369527954A95E1F7C2
:10180000220F220F220F20934B0110924E01295FCD
:1018100020934C0183E080934F0124E630E047E0C1
:1018200050E069E471E088E70E94A20F892B09F07B
:1018300084C08091850280FD23C0A80195E0440FFB
:10184000551F9A95E1F7455C5C4F04E610E020E2F5
:1018500030E060E488E70E94C90F892B09F06DC071
:101860000E94880BE301C095D095809189029091E8
:101870008A02C823D923D0938A02C09389025DC00B
:1018800080E2E4E6F2E0DF011D928A95E9F785E067
:10189000000F111F8A95E1F7AFEEB1E04BEE51E07A
:1018A000992493942D91EA018991AE01B801680FB2
:1018B000711D655C7C4F30E02C593D4FF90197E07C
:1018C0007F01E21AF30AA92C01C0AA0CEA94EAF7F4
:1018D0007B01B12CE70189917E018A21892E8B1829
:1018E000D82DD770CD2E0D2E000CDD08C82F01C0CD
:1018F000CC0FDA95EAF7D194C194D108D7E0CD2284
:10190000DD2401C08695CA94EAF78C2BD0808D29FE
:101910008083B39488E0B812DDCF915031969F3F19
:1019200079F6C1E0A33FBC0709F0BCCF04E610E0A4
:1019300020E230E044E652E08CCFDF91CF911F915E
:101940000F91FF90EF90DF90CF90BF90AF909F905E
:101950008F907F906F900895809188029091870278
:10196000882389F0992369F062E070E085E193E0D3
:101970000E94ED09892B19F0809187020895109239
:1019800087029091870281E0892708950F931F9322
:1019900080918802882329F160E080E00E94730A28
:1019A0000E9481050E94AE0B809187028823C9F0B6
:1019B0000E94751D00913B0510913C0520913D054D
:1019C00030913E05DC01CB01801B910BA20BB30BC8
:1019D0008F3F9F4FAF4FBF4720F41F910F910C9443
:1019E000AC0C1F910F9108950F931F93CF93DF932A
:1019F000C42FD22FFC0182818823C9F040938D022D
:101A00000E94691D90938C0280938B0280E28C0F60
:101A1000883008F057C0C77081E001C0880FCA95B0
:101A2000EAF7DF91CF911F910F910C94921380915F
:101A30008D02481330C080918B0290918C020E94DD
:101A4000811D8436910538F510E21D0FCD17B9F0D0
:101A500080E28C0F883040F4C77081E001C0880FAD
:101A6000CA95EAF70E949913183028F581E09D2F56
:101A7000977001C0880F9A95EAF70E949213802F01
:101A80000E947F131830F0F4D77081E001C0880FF6
:101A9000DA95EAF70AC080E28C0F883098F4C770B4
:101AA00081E001C0880FCA95EAF7DF91CF911F91BD
:101AB0000F910C949913802FDF91CF911F910F916B
:101AC0000C947F13DF91CF911F910F9108950F9385
:101AD0009C01CB01243F4CE5340731F188F4293DCA
:101AE000FCE53F07D9F02A3D4CE5340779F1283D64
:101AF0003C45A9F506E221EE41EE68ED7CE52BC000
:101B0000263FFCE53F07E1F0A8F0273F3C4539F5CB
:101B100007E225EE46EE67EF7CE51DC007E225EE05
:101B200045EE69ED7CE517C006E221EE40EE64EF7C
:101B30007CE511C007E225EE44EE65EF7CE50BC0C5
:101B400006E221EE42EE66EF7CE505C008E221E008
:101B500045EE6AED7CE50E94F40C80E008C0FC01D3
:101B60008281882319F010928D0201C081E00F91CB
:101B70000895CF93DF93EC01FB018281882309F460
:101B80001FC1C230FCE5DF0708F41BC1C6319CE56C
:101B9000D90738F09E012B5F3C452930310508F00C
:101BA00010C10E94F81B9093460580934505C031F3
:101BB000ECE5DE0709F4C3C008F041C0C8308CE58D
:101BC000D80709F49AC0F0F4C430ECE5DE0709F454
:101BD00087C068F4C2308CE5D80709F477C0C330F9
:101BE000DC4509F0E3C080914505826076C0C630CF
:101BF000ECE5DE0709F46EC008F07BC08091450576
:101C000088606BC0CC308CE5D80709F485C068F4D7
:101C1000CA30ECE5DE0709F474C008F079C00E9410
:101C20000A1680914505806858C0CE308CE5D807EB
:101C300009F476C008F07FC0809145058BC0CC3F89
:101C4000ECE5DE0709F44FC018F5C3318CE5D80781
:101C500009F47DC078F4C131ECE5DE0709F473C006
:101C6000C231DC4509F0A2C00E940A1680914505E8
:101C70008F7733C0C5318CE5D80709F472C008F4FA
:101C800086C0CB3FDC4509F091C0809146053EC03F
:101C9000C115FDE5DF0709F45FC058F4CE3F9CE5B0
:101CA000D90709F444C008F43FC08091460582601A
:101CB0002DC0C230FDE5DF0709F475C008F45DC032
:101CC000C330DD4509F072C080E06EC080914505EB
:101CD000816003C08091450580618093450566C0A1
:101CE0008091450511C0809146058260809346052C
:101CF0005DC0809145058062F0CF8091450580648C
:101D0000ECCF8091450588608460E7CF8160EECF9D
:101D1000809145058E7FE1CF809145058D7FDDCF98
:101D200080914505877FD9CF8091460518C0809165
:101D300046058D7FDBCF809145058F7ECECF80918C
:101D400045058F7DCACF809145058F7BC6CF809199
:101D50004505877F8B7FC1CF809146058D7F8E7F24
:101D6000C5CF8091450582FB222720F991E092277B
:101D700090FB82F990FB83F9B0CF80914605982FB4
:101D8000909591708E7F892B90FB81F9AFCF0E9447
:101D90000A168091450587FB222720F991E09227BA
:101DA00090FB87F99ACF81E00E948E1C80914505B7
:101DB000909146050E94091C0E940A1680E001C00D
:101DC00081E0DF91CF910895CF93DF9386319C45D9
:101DD00041F5EB010E94411B982F8A81209150010F
:101DE00030915101882379F09A7A81E009F480E0FA
:101DF00080938E02911102C069E201C065E3C901BE
:101E00000E94D51C0AC080918E02811102C069E235
:101E100001C065E3C9010E94D71C0E94821B80E0BB
:101E200001C081E0DF91CF9108951092B9008CE05C
:101E30008093B8000895EF92FF920F931F93CF9372
:101E4000DF93182FEB011092BC0084EA8093BC0052
:101E50000E94691D7C018091BC0087FD0EC0CF3FB0
:101E60008FEFD807C1F30E94691D8E199F098C1747
:101E70009D0788F38EEF9FEF2EC08091B900887F79
:101E8000883041F08091B900887F803119F08FEF60
:101E90009FEF21C01093BB0084E88093BC000E9498
:101EA000691D8C018091BC0087FD0CC0CF3F8FEF76
:101EB000D807C1F30E94691D801B910B8C179D07E9
:101EC00088F3D8CF8091B900887F883111F08034B1
:101ED000F1F680E090E0DF91CF911F910F91FF909C
:101EE000EF9008950F931F93CF93DF93EB018093AF
:101EF000BB0084E88093BC000E94691D8C01809126
:101F0000BC0087FD0EC0CF3F8FEFD807C1F30E9402
:101F1000691D801B910B8C179D0788F38EEF9FEF37
:101F20000CC02091B900287F81E090E0283211F4A4
:101F300080E090E0919581959109DF91CF911F917B
:101F40000F910895CF92DF92EF92FF920F931F931C
:101F5000CF93DF936B018A017901B9010E941B0FB6
:101F6000E6010C0D1D1DC017D10761F424E9209373
:101F7000BC00DF91CF911F910F91FF90EF90DF9008
:101F8000CF90089597FDF2CFB70189910E94720F0B
:101F9000EACFCF92DF92EF92FF920F931F93CF93EE
:101FA000DF93C62F6A017901B8010E941B0F97FDCC
:101FB00011C0B8018C2F0E94720FE601EC0CFD1CC1
:101FC000CE15DF0539F097FD05C0B80189910E9453
:101FD000720FF6CF24E92093BC00DF91CF911F91BF
:101FE0000F91FF90EF90DF90CF90089584E9809358
:101FF000BC0008958EE14A9B02C08150E1F74A9BE4
:10200000FECF08955A9880E28A95F1F75A9A08957A
:10201000FC012AE02A95F1F790E020E080E031E031
:10202000261779F040E14A95F1F7880F4A9B02C0E4
:102030008160932700C0000040E14A95F1F72F5FCF
:10204000EFCF20E12A95F1F729B100C0000030E17F
:102050003A95F1F722FB222720F992272081920F4F
:1020600090830895EF92FF920F931F93CF93DF9386
:102070001F92CDB7DEB719828C017C01E60EF11CF0
:102080000E151F0559F00E94FA0F68E0CE01019667
:102090000E940810F80181938F01F2CF81E09981AD
:1020A000911180E00F90DF91CF911F910F91FF90E0
:1020B000EF900895909391028093900260938F0225
:1020C000529A5A9A08959093910280939002609345
:1020D0008F0252985A9AEA9AE9E6F0E080818F7C62
:1020E00080830895615091E001C0990F6A95EAF7E5
:1020F00020E031E0992361F0492F482319F05A9AE2
:10210000232701C05A9840E24A95F1F79695F2CFFD
:10211000222311F05A9A01C05A9880E28A95F1F769
:102120005A980895FF920F931F93CF93DF93EC017A
:102130008C01060F111DC017D10741F0F9900E94C4
:10214000021068E08F2D0E947210F5CFDF91CF91C1
:102150001F910F91FF9008951F920F920FB60F924B
:1021600011240F931F932F933F934F935F936F937C
:102170007F938F939F93AF93BF93EF93FF93CF93EF
:10218000DF931F92CDB7DEB719820E94FA0F67E086
:10219000CE0101960E940810382F36953695369557
:1021A000932F96959570232F2570920F292F2370CA
:1021B000969596958770920F891348C089818111F1
:1021C00045C080918F02831708F440C080E18A9552
:1021D000F1F75A9A529AA2E0AA95F1F700C000913D
:1021E000900210919102B8E03B9F000D111D112447
:1021F0005A98F8016581662321F0868197810E94B3
:1022000092100E940210F0E1FA95F1F75A98529854
:102210005A9A80E18A95F1F7D80112966C9112973B
:10222000662369F013968D919C9114970E94321049
:10223000D801ED91FC91811105C082E004C0D80164
:10224000ED91FC9188E080830E94FA0F0F90DF915E
:10225000CF91FF91EF91BF91AF919F918F917F911E
:102260006F915F914F913F912F911F910F910F901F
:102270000FBE0F901F9018950F931F93CF93DF936E
:1022800020918F0230E0281739070CF471C09C01AF
:1022900093E0220F331F9A95E1F7C0919002D091FD
:1022A0009102C20FD31FF894529A5A9845E04A956A
:1022B000F1F70000982F969595708570890F982FEB
:1022C000937086958695890F8901082B0E940210CC
:1022D00084E08A95F1F700C067E0802F0E947210B9
:1022E00040E14A95F1F752985A9A4A9902C000C0C3
:1022F000FCCF87E090E04A9B0EC0019751F4529AC0
:102300005A9AE881F98181E08083789481E090E0B5
:1023100031C000C0F0CF6D81662381F08E819F8136
:102320000E94321081110AC0529A5A9AE881F981AA
:1023300082E08083789482E090E01CC00E94FA0FD3
:1023400080E28A95F1F75A98529A40E14A95F1F75E
:102350006A81662321F08B819C810E9492100E94E9
:102360000210E881F9811082789480E090E002C048
:1023700084E090E0DF91CF911F910F9108959093A9
:102380009702809396020895E0919602F091970249
:10239000309721F00190F081E02D099480E00895BC
:1023A000E0919602F0919702309721F00280F3813C
:1023B000E02D0994089520919402309195022817F8
:1023C000390771F09093950280939402E091960200
:1023D000F0919702309721F00680F781E02D099463
:1023E000089520919202309193022817390771F0D5
:1023F0009093930280939202E0919602F09197025B
:10240000309721F00084F185E02D0994089585B777
:10241000806885BF85B7806885BF08950C9485095D
:1024200008950C9410120C9410120C9413120C9426
:1024300010120C9417120C9410120E9407120E9492
:102440001B120C9419120E94601D0E94570880E014
:102450000E942B0A0E94C71D0C9415129F92AF92E6
:10246000BF92CF92DF92EF92FF920F931F93CF9381
:10247000DF93CDB7DEB72A970FB6F894DEBF0FBE55
:10248000CDBF0E9411120E9410120E94C808C82ECF
:102490000E940E12811111C08FEF89838A831B82E3
:1024A0000E94691D8160782F9D838C8349815A81A8
:1024B0006B818D810E94D11240C089E9A82E82E0F3
:1024C000B82E00E010E0902E802F0E942B08E82EFE
:1024D000F501D1905F01D82631F40F5F1F4F0A300C
:1024E000110589F7D9CF8091190381FD0E94310828
:1024F00080E0FF24F3949D2D9F21D1F08E839F8255
:10250000EF2081E009F480E088870E94691D8160E6
:10251000782F9A8789874E815F8168858A850E9496
:10252000D112F801E756FD4F8081F826F08205C0F0
:102530008F5FFF0C8630F9F6D0CF0E94C60CC11019
:102540000E94880B0E94C411909198028917B9F0DB
:102550000E94C411809398022A960FB6F894DEBFA9
:102560000FBECDBFDF91CF911F910F91FF90EF90E4
:10257000DF90CF90BF90AF909F900C9447062A9623
:102580000FB6F894DEBF0FBECDBFDF91CF911F9184
:102590000F91FF90EF90DF90CF90BF90AF909F9002
:1025A0000895CF93DF93CDB7DEB72B970FB6F8948E
:1025B000DEBF0FBECDBF4F83588769877A878B8771
:1025C000DE01119686E0FD0111928A95E9F785E01A
:1025D000FE01379601900D928A95E1F749815A8163
:1025E0006B817C818D819E810E94A9182B960FB6EC
:1025F000F894DEBF0FBECDBFDF91CF910895FC01EF
:10260000808191810E94021B0895CF93882309F451
:1026100048C0C82F8CEF8C0F813AD0F46C2F80917A
:102620005001909151010E949F1C882349F06C2F0A
:1026300080915001909151010E94D71C0E94821BF1
:102640006C2F80915001909151010E94D51C0CC0BB
:1026500080E28C0F883058F4C77081E001C0880F89
:10266000CA95EAF70E94441BCF910C94821BEBE5BC
:10267000EC0FE33040F4F0E0EF5DFD4F808190E03F
:10268000CF910C94DB11C85AC73158F4EC2FF0E00D
:10269000EE0FFF1FED50FE4F80819181CF910C9482
:1026A000F111CF910895882349F1682F8CEF860F9F
:1026B000813A38F480915001909151010E94D71CC9
:1026C0000CC080E2860F883050F4677081E001C052
:1026D000880F6A95EAF70E944A1B0C94821B8BE5CF
:1026E000860F833020F480E090E00C94DB11685A70
:1026F000673120F480E090E00C94F1110895CF93BD
:10270000C82F0E940513C93349F42FEF87EE93E0D9
:10271000215080409040E1F700C000008C2FCF9105
:102720000C945313882321F00E94441B0C94821BA9
:102730000895882321F00E944A1B0C94821B08955F
:10274000CF92DF92EF92FF920F931F93CF93DF937D
:102750007C01D62FC72FFC01058102950F701281D5
:1027600011110E94611B0E943A1B882399F01123CA
:1027700089F08C2F807F803421F080E28D0F8830AB
:1027800048F082E00E94CC1B0E943A1B91E0D82EB8
:10279000D92601C0D12CCC2EC2948FE0C8228C2D1A
:1027A00090E08C30910508F0ABC1FC01EB59FF4F74
:1027B0000C94A2248C2F807FCF70882311F0C295B7
:1027C000C07F112399F0CC2309F486C180E28D0FDC
:1027D000883010F0D11104C08C2F0E94441B03C01C
:1027E0008C2F0E94541B0E94821B76C18D2F0E9449
:1027F0005313CC2309F484C180E28D0F883010F08C
:10280000D11104C08C2F0E944A1B03C08C2F0E9440
:102810005A1B0E94821B74C18C2F807FCF70803224
:1028200011F0C295C07FDD2319F0D130C9F022C06C
:10283000112371F0002341F0013031F40E94671B35
:102840008C2B0E946F1B5CC10E94671B8C2B1DC0D0
:10285000002319F0013009F453C10E94781B25C0F0
:10286000112321F0063008F04BC10EC0053008F0EE
:1028700047C11BC0112361F0002331F0F7018581AE
:1028800080FF2AC18F7085838C2F0E94921338C1DC
:10289000002359F0D93309F030C1FFEF07EE13E000
:1028A000F15000401040E1F726C18C2F0E9499138F
:1028B00027C18C2F86958695837019F0813061F041
:1028C0001FC1112321F08D2F9C2F937002C080E037
:1028D00090E00E94DB111CC1112321F08D2F9C2F51
:1028E000937002C080E090E00E94F11111C18C2F22
:1028F000837009F047C0111107C12D2F229526952D
:102900002770220F220F6D2F6F70862F90E0A0E0AE
:10291000B0E0022E04C0880F991FAA1FBB1F0A94A3
:10292000D2F7D4FF10C04FE050E060E070E004C088
:10293000440F551F661F771F2A95D2F74095509573
:102940006095709503C040E050E0BA01C695C69509
:10295000C3708A019B01082B192B2A2B3B2BC90121
:10296000B801C23049F058F4C13019F00E947D1905
:10297000CBC00E946B19C8C00E948F19C5C00E94AD
:102980006919C2C0112319F08C2F817001C086957E
:10299000882309F4B9C02D2F229526952770220F80
:1029A000220F6D2F6F70862F90E0A0E0B0E0022E16
:1029B00004C0880F991FAA1FBB1F0A94D2F7D4FF27
:1029C00010C04FE050E060E070E004C0440F551FBD
:1029D000661F771F2A95D2F74095509560957095A0
:1029E00003C040E050E0BA01C695C695C3708A01A5
:1029F0009B01082B192B2A2B3B2BC901B801C23094
:102A000049F058F4C13019F00E94421A7DC00E946A
:102A1000301A7AC00E94541A77C00E94A31974C059
:102A2000CF70112339F08C2F0E94C9198D2F0E946D
:102A300092136AC08D2F0E9499138C2F0E94EA195D
:102A400063C0D23F01F128F4D03F41F0D13FA1F063
:102A50003FC0D33FF9F0D43F39F13AC0112341F0E0
:102A6000053008F04DC08C2F8F710E940F1A48C09E
:102A7000063008F045C0F7CF112339F08C2F8F7145
:102A80000E94C9193DC01123C9F38C2F8F710E9478
:102A9000EA1936C0112329F08C2F8F710E94B419C6
:102AA0002FC00E94AF192CC0112349F0CF718C2F79
:102AB0000E94C91963E08C2F0E94B71B21C081E0DE
:102AC0000E94CC1B0230E0F082E00E94CC1B18C0B8
:102AD000112331F0002391F28D2F0E94051310C0B5
:102AE000002399F2D93349F41FEF27EE33E0115058
:102AF00020403040E1F700C000008D2F0E945313AA
:102B000088EF8C0D843020F40E94C4110E94470687
:102B1000DD20C9F00E94361B80FD15C0F70112822E
:102B20000E94301B0E94C919C7010E94C4150E944F
:102B3000301BDF91CF911F910F91FF90EF90DF90AD
:102B4000CF900C94EA19DF91CF911F910F91FF90D4
:102B5000EF90DF90CF9008950F931F93CF93DF9363
:102B6000EC01688179818A810E940D1B8C010E9491
:102B7000661A0E945719B801CE010E94A013DF9176
:102B8000CF911F910F910895CF93DF93EC0198811E
:102B900089812B813C81232B31F08F3F31F481E0FF
:102BA0009F3F19F403C081E001C080E080FD19C09F
:102BB000CE010E94030681110CC00E943A1B88239B
:102BC00081F08A81882369F082E0DF91CF910C94B3
:102BD000CC1BCE010E94AC15CE01DF91CF910C949D
:102BE000DE05DF91CF9108950E94611B0E94641B56
:102BF0000E94821B80E090E00E94DB1180E090E068
:102C00000C94F11180915001909151010E94D91CB6
:102C10000C94F4150E94511B0C940216E92FE295B6
:102C2000EF704E2F50E0FA013297EE30F105B0F41C
:102C3000EF58FF4F0C94A224803F91F018F4883E87
:102C400068F40EC0843F51F40BC0883E48F0813FC9
:102C500029F406C093FB882780F9089580E0089541
:102C600081E008950E94021B0E940E160895CF93E2
:102C7000DF9300D000D01F92CDB7DEB70F900F903A
:102C80000F900F900F90DF91CF910895CF93DF9326
:102C900000D000D000D0CDB7DEB726960FB6F8949E
:102CA000DEBF0FBECDBFDF91CF9108951F93CF93AD
:102CB000DF93C091A40216E08091A502C81799F095
:102CC000D0E01C9FF0011D9FF00D1124EA55FD4F2F
:102CD0004081518162817381848195810E94461671
:102CE0002196C770E9CFDF91CF911F910895409150
:102CF000D6025091D7026091D8027091D90280918A
:102D0000DA029091DB020C9446160F931F93CF9337
:102D1000DF938091DB0282958F7009F05DC0809116
:102D2000D802882309F458C08091A4021091A5020A
:102D30006091D6027091D702C091D902D091DA0287
:102D400091E06F3F09F090E0292F06E0811709F428
:102D500043C0209721F07F3F21F030E003C031E0F5
:102D600001C0322F90E030FD34C0089FF001099F70
:102D7000F00D1124DF01AA55BD4F11963C9111971A
:102D8000371327C03C91361324C012963C911297FA
:102D900031111FC013964D915C9114974C1B5D0B24
:102DA00044365105B0F48091DB028F7080618093CE
:102DB000DB02E555FD4F80818F708061808386ED59
:102DC00092E00E94C415DF91CF911F910F910C9456
:102DD000561601968770BACFDF91CF911F910F9150
:102DE00008959F92AF92BF92CF92DF92EF92FF929F
:102DF0000F931F93CF93DF93CDB7DEB761970FB6D5
:102E0000F894DEBF0FBECDBF8C0185E0F801DE0176
:102E10001D9601900D928A95E1F7F801408151814C
:102E2000E2809091D6026091D7022091D902309130
:102E3000DA022115310531F06F3F31F481E09F3F17
:102E400019F403C081E001C080E0F82FF1709F2EDB
:102E500080FD2CC1F801A380B48086EDC82E82E0ED
:102E6000D82EF090D802F501E21BF30BFF2009F4F5
:102E7000EBC08091DB02E436F10508F0A7C0282FF3
:102E8000207F09F052C0561313C0491311C0FE2C05
:102E9000E1100EC08F7080618093DB020E94771674
:102EA000C6010E94C4158091DB02F80185833EC1F2
:102EB000AB2831F05F3F31F481E04F3F19F403C09C
:102EC00081E001C080E080FD03C081E08E2502C06A
:102ED00080E090E0F82FF170FF2E80FF1CC0809101
:102EE000A4022091A50236E0821709F4FDC090E00B
:102EF000389FF001399FF00D1124EA55FD4F618193
:102F0000561306C06081461303C06281E61203C0F7
:102F100001968770E9CFFE2CEE2009F407C180915D
:102F2000DB0281608093DB0266C0561312C0491336
:102F300010C0E1100EC0F8018583C8010E94C415BD
:102F400086E0F801A6EDB2E001900D928A95E1F7D6
:102F5000C8C04D875E878D859E850E943216882366
:102F600079F1EE2069F12091DB02822F82958F703A
:102F700090E0029774F08091D6029091D7029887E2
:102F80008F831986BB86AA862C87CE0107960E945E
:102F9000C41586E0F801A6EDB2E001900D928A9585
:102FA000E1F70E9485160E9477160DC0561729F189
:102FB0004D875E878D859E850E94321681112CC0BB
:102FC000C8010E94C415FF24F394B0C0282F207FAD
:102FD00069F77A2DB98AA88A6E2D89890E943716D9
:102FE00086ED92E00E94C41586E0F60111928A9562
:102FF000E9F70E947716F12C99C04913D9CFE11057
:10300000D7CFF8018583C8010E94C41586E0F60178
:1030100011928A95E9F78AC0EE2091F22091DB02A5
:10302000822F82958F7090E002970CF4B2CF80913E
:10303000D6029091D7029A8389831B82BD82AC828B
:103040002E83CE010196A3CFE436F10510F5FE2CB8
:10305000EE2009F4B5CF56130BC0491309C086E022
:10306000F801A6EDB2E001900D928A95E1F75EC0FD
:103070004D875E878D859E850E943216811189CF8E
:103080008091DB0281608093DB02C8010E94C4153D
:103090004DC07A2DB98AA88A6E2D89890E9437166B
:1030A00086E0F60111928A95E9F71BC0EE2009F43B
:1030B00087CF4D875E878D859E850E943216F82EBC
:1030C000882309F47DCF86E0F801A6EDB2E00190F7
:1030D0000D928A95E1F786ED92E00E94FF120E9420
:1030E00085160E94771622C04D875E878D859E8546
:1030F0000E94021B292F22952F70223028F49F70E6
:1031000039F0811105C00BC0243028F49F7049F4B8
:10311000805E883020F0C8010E94C4159F2CF92CD5
:1031200005C0F8019581907F99F7F9CF8F2D6196B1
:103130000FB6F894DEBF0FBECDBFDF91CF911F91C8
:103140000F91FF90EF90DF90CF90BF90AF909F9046
:1031500008951F93CF93DF93CDB7DEB72C970FB6AB
:10316000F894DEBF0FBECDBF4F83588769877A873B
:103170008B879C87CE0107960E94F1168823D1F099
:103180009F8188852A853B85232B31F08F3F31F441
:1031900081E09F3F19F403C081E001C080E080FD21
:1031A00047C04F81588569857A858B859C850E94AB
:1031B00046163EC086E0FE013796DE01119601906C
:1031C0000D928A95E1F7FF81E8856A857B85611517
:1031D000710531F0EF3F31F481E0FF3F19F403C096
:1031E00081E001C080E080FD23C02091A50230E095
:1031F000C9010196877099274091A40250E0841775
:103200009507F1F1F983EA837D836C8396E0929FC1
:10321000D001939FB00D1124AA55BD4FFE013196E8
:1032200001900D929A95E1F78093A5020E9456169F
:1032300016E08091A4029091A502891771F1189F60
:10324000C00111248A559D4F0E94F116882329F14F
:10325000E091A4021E9FF0011124EA55FD4F408128
:10326000518162817381848195810E94461680918B
:10327000A40290E00196877099278093A402D9CF89
:103280000E940A161092A5021092A402E6EDF2E046
:1032900086E0DF011D928A95E9F72C960FB6F89427
:1032A000DEBF0FBECDBFDF91CF911F91089508956E
:1032B00008950C9458190C9459190E945B19609345
:1032C00008037093090380930A0390930B030C94F3
:1032D000F4150C945D190F931F930091080310913E
:1032E000090320910A0330910B03602B712B822B71
:1032F000932B1F910F910C945D190F931F930091C5
:1033000008031091090320910A0330910B036023F5
:103310007123822393231F910F910C945D190F93B6
:103320001F93009108031091090320910A03309123
:103330000B0360277127822793271F910F910C940D
:103340005D190C9458190E94A1196093040370939D
:10335000050380930603909307030C94F41560E033
:1033600070E0CB010C94A3190F931F9341E050E040
:1033700060E070E08A019B0104C0000F111F221F52
:10338000331F8A95D2F7C901B8011F910F910C9490
:10339000A3190F931F9341E050E060E070E004C078
:1033A000440F551F661F771F8A95D2F7809104033B
:1033B00090910503A0910603B09107038A019B0138
:1033C000082B192B2A2B3B2BC901B8011F910F91F8
:1033D0000C94A3190F931F9341E050E060E070E05C
:1033E00004C0440F551F661F771F8A95D2F740957A
:1033F0005095609570958091040390910503A0917C
:103400000603B09107038A019B01082319232A238D
:103410003B23C901B8011F910F910C94A3190F937D
:103420001F9341E050E060E070E004C0440F551F7E
:10343000661F771F8A95D2F7809104039091050348
:10344000A0910603B09107038A019B010827192761
:103450002A273B27C901B8011F910F910C94A3198A
:103460000F931F930091040310910503209106030D
:1034700030910703602B712B822B932B1F910F919F
:103480000C94A3190F931F9300910403109105034B
:103490002091060330910703602371238223932335
:1034A0001F910F910C94A3190F931F930091040384
:1034B00010910503209106033091070360277127BF
:1034C000822793271F910F910C94A3190895292FF8
:1034D000220F920F990F890FE82FE695E695E69552
:1034E000877051E001C0550F8A95EAF785E0E89FA3
:1034F000F0011124E452FD4F20E030E070E0408103
:10350000CB01022E02C0969587950A94E2F781704E
:10351000819584278523842781932F5F3F4F253012
:10352000310569F70895292F220F920F990F890FFE
:10353000682F669566956695982F977085E0689FC9
:10354000B001112440E050E080E0FB01E40FF51FE2
:10355000E452FD4F208130E0092E02C036952795B8
:103560000A94E2F721703327042E01C0220F0A9437
:10357000EAF7822B4F5F5F4F4530510531F70895D1
:10358000BF92CF92DF92EF92FF920F931F93CF9350
:10359000DF938C01C0900403D0900503E0900603F4
:1035A000F09007038091080390910903A0910A030A
:1035B000B0910B03C82AD92AEA2AFB2ACFE1D0E02E
:1035C000D701C6010C2E04C0B695A795979587958F
:1035D0000A94D2F780FD04C0219790F7B12C07C060
:1035E000BC2EB8018C2F0E9463060197A9F38B2D86
:1035F000DF91CF911F910F91FF90EF90DF90CF90CF
:10360000BF900895CF93DF93EC010E94C01ABE01D2
:103610000E946306DF91CF9108951F93CF93DF93AC
:10362000EB019091A302992321F0CB010E94021B90
:1036300013C0882349F0CB010E94C01A182F682FAD
:10364000CE010E94671A04C0CB010E94931A182F62
:10365000BE01812F0E946306DF91CF911F910895D3
:1036600080910C03859585958595089580910C032F
:103670008770089590910C03977081E009F480E0C1
:10368000089580911803089590911803892B8093D1
:103690001803089580959091180389238093180347
:1036A000089510921803089590911703892B809321
:1036B000170308958095909117038923809317032A
:1036C000089510921703089510921603089580919B
:1036D0000D03089508950C946A1B0C946B1B909134
:1036E0000D03981721F080930D030C946D1B089522
:1036F00080910D03882329F010920D0380E00C9433
:103700006D1B0895E0915001F091510180911803D3
:103710008083E0915001F0915101908180911703D5
:10372000892B8083E0915001F0915101908180912B
:103730001603892B808380910D03882381F0E0910B
:103740005001F09151019081892B8083809150012B
:10375000909151010E94931C81110E94781B8091CD
:103760005001909151010C94D0110C946A1B98E077
:10377000899F90011124262B20930C030E94C919C4
:1037800080910C038595859585950C94B51B1092B9
:103790000C0380E00C94B51B20910C0380958223D0
:1037A00080930C03982F977079F430E0482F082EFF
:1037B000000C550B2417350739F0859585958595AF
:1037C0000E94EA190C94C71B089580E090E00E94C3
:1037D000872721E08C3E9E4F09F020E0822F08953C
:1037E00082E090E00C947F2783E090E00C947F27A8
:1037F000CF9384E090E00E947F27C82F81E290E081
:103800000E947F272C2F30E0A901582BCA01CF91AD
:103810000895CF93C92F682F84E090E00E948D27F0
:103820006C2F81E290E0CF910C948D27AB01BC010D
:103830008FE090E00C949F27AB01BC0183E190E006
:103840000C949F2760E070E0CB010C941C1C60E09E
:1038500070E0CB010E94161C0C94221C6CEE7EEFD3
:1038600080E090E00E94AB2760E082E090E00E9460
:103870008D2760E083E090E00E948D27109208037E
:103880001092090310920A0310920B0360E084E087
:1038900090E00E948D2760E081E290E00E948D27F9
:1038A00060E085E090E00E948D2760E086E090E097
:1038B0000E948D276FEF87E090E00E948D2740E007
:1038C00050E0BA0188E090E00E949F2760E08DE020
:1038D00090E00E948D2740E050E0BA0188E190E03E
:1038E0000E949F2760E087E190E00E948D2740E0E2
:1038F00050E0BA018CE190E00E949F2760E080E2F6
:1039000090E00E948D2740E050E0BA0188E190E00D
:103910000E949F270C94271C0C942E1C682F8EE06D
:1039200090E00C948D27FC01329697E080E0915056
:1039300029F021912223D9F38F5FF9CF08956623CF
:1039400049F0FC01329608962191621729F0E81798
:10395000F907D1F780E0089581E008959C01FC010A
:1039600032969FEF80E04191461789F09F3F19F40E
:10397000411101C0982F8F5F8630A9F79F3F39F022
:10398000F901E90FF11D97FDFA95628308950895F5
:103990009C012A5F3F4FFC014281461301C0128205
:1039A000019682179307B9F708950C94AE1C0C94F6
:1039B000C81C029626E0FC0111922A95E9F70895A9
:1039C00008950C94E01C0C94E01CCF930E94E31C1F
:1039D0000E94C8080E94E11CC0E08C2F0E942B08A6
:1039E000811104C0CF5FCA30C1F701C081E0CF911F
:1039F00008950C94E01C0C94F91C0E94FB1C80910F
:103A00004B05843049F110921A0320E488E190E0DC
:103A10000FB6F894A895809360000FBE20936000C5
:103A200080E00E9447060E94FB1C83B7817F846070
:103A300083BF83B7816083BF7894889583B78E7F77
:103A400083BF0FB6F894A895809160008861809339
:103A50006000109260000FBE08950C94E01C0E945C
:103A60000A160E94C4110E9447060C942D1D1F9235
:103A70000F920FB60F9211248F939F93AF93BF9322
:103A800080911A03811113C08091410590914205E4
:103A9000A0914305B09144054196A11DB11D8093AD
:103AA000410590934205A0934305B0934405BF910F
:103AB000AF919F918F910F900FBE0F901F9018950F
:103AC00082E084BD93E095BD9AEF97BD80936E0030
:103AD00008952FB7F8948091410590914205A091E7
:103AE0004305B09144052FBF08952FB7F894609116
:103AF00041057091420580914305909144052FBF87
:103B000008959C014FB7F89480914105909142052A
:103B1000A0914305B09144054FBF821B930B0895BC
:103B200078941F920F920FB60F9211248F939F9348
:103B3000AF93BF938091410590914205A0914305B9
:103B4000B09144050196A11DB11D8093410590934C
:103B50004205A0934305B0934405BF91AF919F9157
:103B60008F910F900FBE0F901F90189587E797E7E2
:103B700090930108809300089AE088E10FB6F894CA
:103B8000A895809360000FBE90936000FFCF0E94C5
:103B9000E51B811102C00E948C1C0E94F01B8093C7
:103BA00019030E94F81B90934605809345050E94D7
:103BB000F41B682F70E080E090E00E94691960912A
:103BC00004037091050380910603909107030C9400
:103BD000A1198091230308950895CF93DF9300D016
:103BE0001F92CDB7DEB790914B05943019F58983BC
:103BF0007B836A8382E08093E9008FEF9091E800F5
:103C0000815095FD06C095ED9A95F1F70000811160
:103C1000F5CF8091E80085FF0DC040E050E063E003
:103C200070E0CE0101960E94E41F8091E8008E773B
:103C30008093E8000F900F900F90DF91CF9108953F
:103C4000BC0184E00C94ED1DBC0183E00C94ED1DDF
:103C5000CF93DF9321E02093E9002FEF3091E8002C
:103C6000215035FD06C035ED3A95F1F700002111E0
:103C7000F5CF2091E80025FF14C0EC0140E050E0B2
:103C800068E070E00E94E41F8091E8008E778093E6
:103C9000E80088E0FE01ABE1B3E001900D928A9567
:103CA000E1F7DF91CF91089580914A05811109C014
:103CB0000E9475210E94D2218091E200846080934D
:103CC000E200089510924A050895089508950C940D
:103CD0002F1D42E061EC81E00E94EE2042E261ECA7
:103CE00082E00C94EE2080914D05833009F460C091
:103CF00030F4813071F0823009F499C008958A302F
:103D000009F485C08B3009F46BC0893009F0A7C075
:103D100020C080914C05813A09F0A1C08091E80053
:103D2000877F8093E8008091500590915105892B01
:103D300021F468E08BE193E003C060E080E090E074
:103D400070E00E942F208091E8008B778093E8003C
:103D5000089580914C05813209F081C08091500511
:103D600090915105029708F07AC08091E800877F12
:103D70008093E8008091E80082FD05C080914B05AA
:103D80008111F8CF6CC02091F3008091F20090E097
:103D9000922B029729F48091F1008B7F813021F4DE
:103DA0008091F100809323038091E8008B7753C0CA
:103DB00080914C05813A09F052C080915005909154
:103DC0005105892B09F04BC08091E800877F8093D3
:103DD000E8008091E80080FFFCCF80915C0136C054
:103DE00080914C058132D9F5809150059091510513
:103DF000892BA9F58091E800877F8093E8000E94D5
:103E0000232180914E0580935C010C940A168091C9
:103E10004C05813221F58091E800877F8093E8008E
:103E20000E94232180914F0580932403089580915F
:103E30004C05813AA1F48091E800877F8093E800E7
:103E40008091E80080FFFCCF809124038093F100F3
:103E50008091E8008E778093E8000C9423210895E8
:103E600084B7877F84BF0FB6F894A89580916000CF
:103E7000886180936000109260000FBE90E080E83F
:103E80000FB6F89480936100909361000FBE0E947A
:103E90001D120E9475210E94D2218091E20084604F
:103EA0008093E20078940E9467240E94231282E5A6
:103EB00091E00E94BF1180914B05853069F40E940A
:103EC000FD1C809149058823B1F30E94E51C8823DD
:103ED00091F30E94CE1FEFCF0E942E120E9411126A
:103EE0000E941012E8CF0C94751F292F332723301E
:103EF0003105C9F060F42130310581F022303105FF
:103F000009F044C08BE390E02FE938E043C0213250
:103F10003105E1F02232310549F138C082E190E00B
:103F20002AED38E037C099278130910549F028F013
:103F3000029761F5E9E7F8E005C0EBE9F8E002C0B7
:103F4000E9E8F8E0849190E09F0124C061157105D3
:103F500041F061307105D1F489E090E02AEC38E05D
:103F600019C089E090E021EB38E014C061157105BB
:103F700041F06130710551F482E390E02CEE38E0BD
:103F800009C080E490E02EE139E004C080E090E0D8
:103F900020E030E0FA0131832083089580E189BD7B
:103FA00082E189BD09B400FEFDCF8091D8008F7DEC
:103FB0008093D8008091E00082608093E00080913F
:103FC000E00081FDFCCF0895CF92DF92EF92FF9247
:103FD0000F931F93CF93DF93EC018B017A010E9423
:103FE0004221811133C0E114F10439F0F7018081DD
:103FF0009181081B190BC80FD91FC12CD12C011599
:10400000110519F18091E80085FD16C08091E80046
:104010008E778093E800E114F10449F0F701808184
:104020009181C80ED91ED182C08285E00FC00E9446
:104030004221882321F30AC089918093F100015025
:104040001109FFEFCF1ADF0ADACF80E0DF91CF91BD
:104050001F910F91FF90EF90DF90CF9008952091E6
:104060005205309153052617370748F06115710541
:1040700039F42091E8002E772093E80001C0B901BF
:10408000FC0120E06115710579F180914B058823D1
:10409000F1F18530F1F18091E80083FD3CC0809121
:1040A000E80082FD2EC08091E80080FFEBCF2091D8
:1040B000F3008091F20090E0922B6115710551F0B0
:1040C0008830910538F421912093F10061507109F5
:1040D0000196F3CF21E0089709F020E08091E800F5
:1040E0008E778093E800CECF2111CFCF0AC0809188
:1040F0004B05882361F0853061F08091E80083FDF5
:104100000AC08091E80082FFF2CF80E0089582E04B
:10411000089583E0089581E008952091520530913B
:1041200053052617370748F06115710539F42091BA
:10413000E8002E772093E80001C0B901FC0120E0DF
:104140006115710591F180914B05882309F440C0F8
:10415000853009F43FC08091E80083FD3DC0809127
:10416000E80082FD2FC08091E80080FFE9CF209118
:10417000F3008091F20090E0922B6115710559F0E7
:104180008830910540F424912093F10031966150DC
:1041900071090196F2CF21E0089709F020E08091A3
:1041A000E8008E778093E800CBCF2111CCCF0AC0F6
:1041B00080914B05882361F0853061F08091E800A3
:1041C00083FD0AC08091E80082FFF2CF80E008956D
:1041D00082E0089583E0089581E00895982F973054
:1041E00068F59093E900981739F07091EC002091F0
:1041F000ED005091F00003C0242F762F50E021FDF8
:1042000002C09F5FECCF3091EB003E7F3093EB001C
:104210003091ED003D7F3093ED003091EB00316047
:104220003093EB007093EC002093ED005093F0007E
:104230002091EE0027FDE5CF80E008958F708093F8
:10424000E90081E0089580914C0587FF11C08091BD
:10425000E80082FD05C080914B058111F8CF11C0A7
:104260008091E8008B770BC080914B05882349F043
:104270008091E80080FFF8CF8091E8008E778093EE
:10428000E80008952091E4003091E50095E6409122
:10429000EC00842F817040FF23C08091E80080FDF6
:1042A0001DC080914B05882399F0853099F080914D
:1042B000EB0085FD11C04091E4005091E50024170A
:1042C000350729F3915011F09A01E1CF84E0089568
:1042D00082E0089583E0089581E0089580E00895E4
:1042E0004091E80042FFDDCF08950E94E3210E9443
:1042F000EB21E0EEF0E0808181608083E8EDF0E08A
:1043000080818F77808319BCA7EDB0E08C918E7F80
:104310008C9380818F7E808310924A0508950F933D
:104320001F93CF93DF930E94E3210E94EB21C8EDFE
:10433000D0E088818F7788838881806888838881AE
:104340008F7D888319BC10924B05109247051092FF
:1043500049051092480500EE10E0F80180818B7F3E
:10436000808388818160888342E060E080E00E94F1
:10437000EE20E1EEF0E080818E7F8083E2EEF0E0DF
:10438000808181608083808188608083F801808162
:104390008E7F8083888180618883DF91CF911F9198
:1043A0000F910895E8EDF0E080818F7E8083E7ED46
:1043B000F0E080818160808384E082BF81E080932F
:1043C0004A050C948F21E8EDF0E080818E7F808398
:1043D0001092E20008951092DA001092E100089520
:1043E0001F920F920FB60F9211242F933F934F936A
:1043F0005F936F937F938F939F93AF93BF93EF934D
:10440000FF938091E10082FF0BC08091E20082FF68
:1044100007C08091E1008B7F8093E1000E946624B9
:104420008091DA0080FF1FC08091D80080FF1BC000
:104430008091DA008E7F8093DA008091D90080FF2E
:104440000DC080E189BD82E189BD09B400FEFDCFC8
:1044500081E080934B050E94541E05C019BC109248
:104460004B050E94621E8091E10080FF19C080917F
:10447000E20080FF15C08091E2008E7F8093E20011
:104480008091E20080618093E2008091D800806298
:104490008093D80019BC85E080934B050E94661E6E
:1044A0008091E10084FF30C08091E20084FF2CC045
:1044B00080E189BD82E189BD09B400FEFDCF809114
:1044C000D8008F7D8093D8008091E1008F7E80930B
:1044D000E1008091E2008F7E8093E2008091E20013
:1044E00081608093E20080914705882311F084E089
:1044F00007C08091E30087FD02C081E001C083E036
:1045000080934B050E94671E8091E10083FF29C0C4
:104510008091E20083FF25C08091E100877F809336
:10452000E10082E080934B05109247058091E10005
:104530008E7F8093E1008091E2008E7F8093E20085
:104540008091E20080618093E20042E060E080E0E0
:104550000E94EE208091F00088608093F0000E941D
:10456000651EFF91EF91BF91AF919F918F917F91C8
:104570006F915F914F913F912F910F900FBE0F90D0
:104580001F9018951F920F920FB60F9211242F9320
:104590003F934F935F936F937F938F939F93AF93CB
:1045A000BF93CF93DF93EF93FF93C091E900CF7058
:1045B0008091EC00D82FD17080FDD0E81092E900F6
:1045C0008091F000877F8093F00078940E9406230A
:1045D0001092E9008091F00088608093F000CD2B6C
:1045E000CF70C093E900FF91EF91DF91CF91BF9120
:1045F000AF919F918F917F916F915F914F913F917B
:104600002F910F900FBE0F901F9018951F93CF936F
:10461000DF93CDB7DEB7AA970FB6F894DEBF0FBE13
:10462000CDBFECE4F5E08091F100819325E0E43525
:10463000F207C9F70E94731E8091E80083FF2EC124
:1046400080914C0590914D05492F50E04A3051051D
:1046500008F024C1FA01E158FF4F0C94A2248038DD
:1046600021F0823809F01AC108C080914805909164
:104670004905992389F082600FC0809150058F70A1
:10468000873008F00BC18093E9008091EB0085FB37
:10469000882780F91092E9009091E800977F909325
:1046A000E8008093F1001092F100D1C0282F2D7FF7
:1046B00009F0F4C0882319F0823061F0EFC08091D6
:1046C0004E05813009F0EAC0933009F080E0809314
:1046D00049052EC080914E0581112AC08091500558
:1046E0008F702FEF280F263008F0D8C08093E90094
:1046F0002091EB0020FF1CC0933021F48091EB004F
:10470000806214C09091EB0090619093EB0021E0E7
:1047100030E0A90102C0440F551F8A95E2F740938B
:10472000EA001092EA008091EB0088608093EB0031
:104730001092E9008091E800877F8093E8000E9452
:104740002321ACC08111AAC010914E051F77809122
:10475000E3008078812B8093E3008091E800877FDD
:104760008093E8000E9423218091E80080FFFCCF25
:104770008091E30080688093E300111102C082E021
:1047800001C083E080934B0589C08058823008F0D7
:1047900085C080914E0590914F058C3D53E0950763
:1047A00079F583E08A838AE289834FB7F894DE0142
:1047B000139620E03EE051E2E32FF0E050935700E3
:1047C000E49120FF03C0E295EF703F5FEF708E2F02
:1047D00090E0EA3010F0C79601C0C0968D939D938B
:1047E0002F5F243149F74FBF8091E800877F809386
:1047F000E8006AE270E0CE0101960E942F2016C008
:104800006091500570915105AE014F5F5F4F0E945E
:10481000731FBC01892B09F441C09091E800977F78
:104820009093E80089819A810E948D208091E80010
:104830008B778093E80032C0803881F58091E80062
:10484000877F8093E800809147058093F1008091F5
:10485000E8008E7772CF811121C080914E05909132
:104860004F0599270297D4F48091E800877F8093C1
:10487000E80080914E05809347050E942321809196
:104880004705811106C08091E30087FD02C081E0E9
:1048900001C084E080934B050E94691E8091E8006E
:1048A00083FF0AC08091E800877F8093E8008091B1
:1048B000EB0080628093EB00AA960FB6F894DEBFFF
:1048C0000FBECDBFDF91CF911F9108950895CF9373
:1048D00080914B058823A1F0C091E900CF709091A1
:1048E000EC00892F817090FD80E8C82B1092E900C0
:1048F0008091E80083FD0E940623CF70C093E900F9
:10490000CF910895991B79E004C0991F961708F07C
:10491000961B881F7A95C9F780950895AA1BBB1B23
:1049200051E107C0AA1FBB1FA617B70710F0A61BAF
:10493000B70B881F991F5A95A9F780959095BC01D0
:10494000CD010895EE0FFF1F0590F491E02D09941D
:10495000FB01DC0102C005900D9241505040D8F798
:104960000895FB01DC0104C08D910190801921F4B0
:1049700041505040C8F7881B990B0895AEE0B0E055
:10498000E4ECF4E20C94CF270D891E898F89988D71
:1049900026E02C831A83098397FF02C080E090E809
:1049A00001979E838D83AE01455E5F4F698D7A8D41
:1049B000CE0101960E94EE244D815E8157FD0AC012
:1049C0002F813885421753070CF49A01F801E20F42
:1049D000F31F10822E96E4E00C94EB27ABE0B0E0DE
:1049E000E4EFF4E20C94C1276C017B018A01FC0125
:1049F00017821682838181FFCCC1CE0101963C01D2
:104A0000F6019381F70193FD859193FF81917F01D9
:104A1000882309F4BAC1853239F493FD859193FF57
:104A200081917F01853229F4B60190E00E94E5264C
:104A3000E7CF912C212C312CFFE1F315D8F08B32EC
:104A400079F038F4803279F08332A1F4232D20619B
:104A50001DC08D3261F0803369F4232D216016C0B2
:104A6000832D8260382EE32DE4603E2E2AC0F32D84
:104A7000F8601DC037FC2DC020ED280F2A3040F013
:104A80008E32B9F436FC81C1232D2064322E19C038
:104A900036FE06C08AE0989E200D1124922E11C089
:104AA000EAE02E9E200D1124222EF32DF0623F2EDF
:104AB00008C08C3621F4832D8068382E02C08836D9
:104AC00041F4F70193FD859193FF81917F0181115D
:104AD000B3CF982F9F7D9554933028F40C5F1F4FD0
:104AE0009FE399830DC0833631F0833771F08335AE
:104AF00009F059C021C0F801808189830E5F1F4FE2
:104B000088248394912C530113C02801F2E04F0EA6
:104B1000511CF801A080B18036FE03C0692D70E001
:104B200002C06FEF7FEFC5010E94DA264C018201BF
:104B3000F32DFF773F2E16C0280122E0420E511CB4
:104B4000F801A080B18036FE03C0692D70E002C07C
:104B50006FEF7FEFC5010E94CF264C01F32DF06867
:104B60003F2E820133FC1BC0822D90E088169906EF
:104B7000B0F4B60180E290E00E94E5262A94F4CFDA
:104B8000F50137FC859137FE81915F01B60190E018
:104B90000E94E52621102A9421E0821A91088114AE
:104BA000910471F7E8C0843611F0893641F5F801B7
:104BB00037FE07C060817181828193810C5F1F4F36
:104BC00008C060817181072E000C880B990B0E5F65
:104BD0001F4FF32DFF763F2E97FF09C090958095CC
:104BE000709561957F4F8F4F9F4FF0683F2E2AE061
:104BF00030E0A3010E942127882E861845C0853702
:104C000031F4232D2F7EB22E2AE030E025C0932DE3
:104C1000997FB92E8F36C1F018F4883579F0B5C078
:104C2000803719F0883721F0B0C0E92FE061BE2E3F
:104C3000B4FE0DC0FB2DF460BF2E09C034FE0AC0C7
:104C4000292F2660B22E06C028E030E005C020E102
:104C500030E002C020E132E0F801B7FE07C0608119
:104C60007181828193810C5F1F4F06C060817181C9
:104C700080E090E00E5F1F4FA3010E942127882E45
:104C80008618FB2DFF773F2E36FE0DC0232D2E7F7D
:104C9000A22E891458F434FE0BC032FC09C0832DB7
:104CA0008E7EA82E05C0B82CA32C03C0B82C01C042
:104CB000B92CA4FE0FC0FE01E80DF11D80818033E8
:104CC00021F49A2D997EA92E09C0A2FE06C0B394A4
:104CD000B39404C08A2D867809F0B394A3FC11C064
:104CE000A0FE06C0B21488F4280C922C9B180EC0AB
:104CF000B21460F4B60180E290E00E94E526B3941D
:104D0000F7CFB21418F42B1802C0982C212CA4FE53
:104D100010C0B60180E390E00E94E526A2FE17C015
:104D2000A1FC03C088E790E002C088E590E0B601EE
:104D30000CC08A2D867859F0A1FE02C08BE201C01A
:104D400080E2A7FC8DE2B60190E00E94E52689147E
:104D500038F4B60180E390E00E94E5269A94F7CFFC
:104D60008A94F301E80DF11D8081B60190E00E9464
:104D7000E5268110F5CF222009F442CEB60180E26B
:104D800090E00E94E5262A94F6CFF601868197816D
:104D900002C08FEF9FEF2B96E2E10C94DD27FC0120
:104DA0000590615070400110D8F7809590958E0F56
:104DB0009F1F0895FC016150704001900110D8F7C9
:104DC000809590958E0F9F1F08950F931F93CF93FB
:104DD000DF93FB01238121FD03C08FEF9FEF2CC0E8
:104DE00022FF16C04681578124813581421753071F
:104DF00044F4A081B1819D012F5F3F4F3183208317
:104E00008C93268137812F5F3F4F3783268314C0D1
:104E10008B01EC01FB010084F185E02D0995892BC4
:104E2000E1F6D80116968D919C91179701961796E9
:104E30009C938E931697CE01DF91CF911F910F9186
:104E40000895FA01AA27283051F1203181F1E89420
:104E50006F936E7F6E5F7F4F8F4F9F4FAF4FB1E06D
:104E60003ED0B4E03CD0670F781F891F9A1FA11D68
:104E7000680F791F8A1F911DA11D6A0F711D811D69
:104E8000911DA11D20D009F468943F912AE0269F2E
:104E900011243019305D3193DEF6CF010895462F8D
:104EA0004770405D4193B3E00FD0C9F7F6CF462F6E
:104EB0004F70405D4A3318F0495D31FD40524193D7
:104EC00002D0A9F7EACFB4E0A69597958795779594
:104ED0006795BA95C9F700976105710508959B011B
:104EE000AC010A2E06945795479537952795BA95A4
:104EF000C9F7620F731F841F951FA01D0895F999AC
:104F0000FECF92BD81BDF89A992780B50895A8E19A
:104F1000B0E042E050E00C94B327262FF999FECF81
:104F200092BD81BDF89A019700B4021639F01FBAFC
:104F300020BD0FB6F894FA9AF99A0FBE0895039619
:104F4000272F0E948E270E948D27252F0E948E27B3
:104F5000242F0C948E270196272F0E948E270C94C5
:104F60008D27DC01CB01FC01F999FECF06C0F2BD13
:104F7000E1BDF89A319600B40D9241505040B8F717
:104F800008952F923F924F925F926F927F928F92ED
:104F90009F92AF92BF92CF92DF92EF92FF920F93C8
:104FA0001F93CF93DF93CDB7DEB7CA1BDB0B0FB6D2
:104FB000F894DEBF0FBECDBF09942A88398848888F
:104FC0005F846E847D848C849B84AA84B984C88425
:104FD000DF80EE80FD800C811B81AA81B981CE0F1C
:104FE000D11D0FB6F894DEBF0FBECDBFED01089501
:044FF000F894FFCF63
:104FF400808182838485868788898A8B8C8D8E8F35
:105004009091929394A0A1A2A3A4A5A6A7A8A9AAAB
:10501400ABACADAEAFB0B1B2B3B4C0C1C2C3C4C522
:10502400C6C7C8C9CACBCCCDCECFD0D1D2D3D40079
:105034000158020059020559020021007F22000391
:105044000E03E91D281EEC1D241E201E0125647874
:1050540025642C206B253264203A2025630020200F
:1050640020206162636465666768696A6B6C6D6E53
:105074006F707172737475767778797A31323334EC
:1050840035363738393052454254202020202020EC
:10509400203B27202C2E2F202020E200E900EA00CC
:1050A400B500B600B700CD008301CC008A0192019F
:1050B40094012102230224022502260227022A0245
:1050C400B300B4006F007000818283F6F73133328D
:1050D400366697C634350000000000000810181822
:1050E400100800E200E900EA00B500B600B700CD00
:1050F400008301CC008A019201940121022302243D
:10510400022502260227022A02B300B4006F0070AF
:045114000081828311
:00000001FF
