:100000000C9442070C9489070C9489070C94DC1912
:100010000C9489070C9489070C9489070C94890720
:100020000C9489070C9489070C94262E0C94FA2EB4
:100030000C94A2260C9489070C9489070C948907C8
:100040000C9489070C9489070C9489070C948907F0
:100050000C9489070C94F9260C9489070C94890751
:100060000C9489070C9489070C9489070C948907D0
:100070000C9489070C9489070C9489070C948907C0
:100080000C9489070C9489070C9489070C948907B0
:100090000C9489070C9489070C9489070C948907A0
:1000A0000C9489070C9489070C94890700000000C0
:1000B0000000000000000000000000000000000040
:1000C0000000000000000000000000000000000030
:1000D0000000000000000000000000000000000020
:1000E0000000000000000000000000000000000010
:1000F0000000000000000000000000000000000000
:1001000000000000000000000000000000000000EF
:1001100000000000000000000000000000000000DF
:1001200000000000000000000000000000000000CF
:10013000000000000000000000000000008080803F
:10014000C0C0E060703038180C0C1E0C800000003D
:10015000000000000080C0E0F0381C0E0700000026
:10016000000000000000008080800000000000000F
:1001700000000000000000000000000000000080FF
:1001800080808080808000008040000000000000AF
:1001900000000000808080000000008080C0C060FF
:1001A00060301000000000000000000000000000AF
:1001B000001030307078787C7C7E3E3F3F3B3B398E
:1001C00039383838383838383C38188FDFF87CBE42
:1001D000DFF7FBFDFEEF733B1B1FEFF7FF7E6F6F3B
:1001E0006F6F6DBDE1F93F3F3979797DEDEDCDC799
:1001F000C787C7E3E0F87E3F37333B1B19190DED86
:10020000FFBFC7E7E3F07CDEE7FB3E3FFCE0F83EE4
:10021000CFF3FC3F1F1F3C7E76F3E381010000001B
:1002200000000000000000000000000000000000CE
:1002300000000000000000000000000000000000BE
:100240000000000000002030181E0F030100000015
:100250000103030100000000000000000000000096
:100260000000000307000000000000000000000183
:10027000E1793E1F070100000000000000000101BD
:10028000010000010101000000000000000000006A
:100290000001000000000000000000010103020650
:1002A000040818103020600000000000000000006A
:1002B000000000000000000000000000000000003E
:1002C000000000020000000000000000000000002C
:1002D000000000000000000000000000000000001E
:1002E000000000000000000000000000000000010D
:1002F00000000000000000000000000000000000FE
:1003000000000000000000000000000000000000ED
:1003100000000000000000000000000000000000DD
:1003200000000000000000000000000000000000CD
:1003300000000000000000000000000000000000BD
:1003400000000000000000000000000000000000AD
:10035000000000000000000000000000000000009D
:10036000000000000000000000000000000000008D
:10037000000000000000000000000000000000007D
:10038000000000000000000000000000000000006D
:10039000000000000000000000000000000000005D
:1003A000000000000000000000000000000000004D
:1003B000000000000000000000000000000000003D
:1003C000000000000000000000000000000000002D
:1003D000000000000000000000000000000000001D
:1003E000000000000000000000000000000000000D
:1003F00000000000000000000000000000000000FD
:1004000000000000000000000000000000000000EC
:1004100000000000000000000000000000000000DC
:1004200000000000000000000000000000000000CC
:1004300000000000000000000000000000000000BC
:1004400000000000000000000000000000000000AC
:10045000000000000000000000000000000000009C
:10046000000000000000000000000000000000008C
:10047000000000000000000000000000000000007C
:10048000000000000000000000000000000000006C
:10049000000000000000000000000000000000005C
:1004A0000000000000000000000000004350534C1A
:1004B0004B000A0A00556E6465660041646A0A00D2
:1004C0004C6F7765720052616973650042617365B4
:1004D0000A004C41594552000A0A00556E6465668F
:1004E00000517772740057494E004D414300004D52
:1004F0004F4445000A0A0035001E001F002000215D
:100500000022002B0014001A000800150017003903
:100510000004001600070009000A00E1001D001B8E
:1005200000060019000500E000E300E2002A5D2C4F
:1005300000A8002D00270026002500240023002A03
:1005400000130012000C0018001C00340033000FD0
:10055000000E000D000B00E50038003700360010DB
:10056000001100E4006500E6002B5D2800C35C007C
:10057000000000000000000000000001000000007A
:100580000000000000000001000401160100000945
:1005900001000001001D011B0106011901290001D4
:1005A0000001000100010001000100000000004BFB
:1005B000004A00490000004C0000004E004D004C75
:1005C000001C0100004F005200510050000B0101BF
:1005D00000310000000000000000000100010001E7
:1005E0000001000100010000003A003B003C003D1A
:1005F000003E0001001E021F022002210222020111
:100600000001000100460047004800010001000110
:1006100000010001002900010001000100010001AA
:10062000000100440043004200410040003F0045FB
:100630000027022602250224022302000030002F98
:100640000031022E002D00010030022F0235022E53
:10065000022D02010001000100010001000100CD96
:100660005CCC5CC75CC65CC95CC85C000000000078
:10067000000000000000000000000000000000007A
:10068000000000005C00000000000000000100010C
:100690000001000100010001000100C35C00000036
:1006A000000000CA5CCB5C000000000000000000FD
:1006B00000000000000000A900AA00A8000000013E
:1006C000000000AB00AE00AC000000010001000122
:1006D000000100010001000B0A09080706050403D8
:1006E00002010000010101010101010101020202F8
:1006F00002020202020203030303030303030404CE
:100700000404040404050505050506060606060797
:100710000707070708080808090909090A0A0A0B50
:100720000B0B0C0C0C0D0D0D0E0E0E0F0F0F1010F1
:100730001111111212131314141515161617171878
:100740001819191A1A1B1B1C1D1D1E1E1F202021E3
:100750002222232424252626272829292A2B2C2D2A
:100760002D2E2F30313232333435363738393A3B4B
:100770003C3D3E3F404142434445464748494A4C40
:100780004D4E4F50515354555658595A5B5D5E5F0C
:10079000616264656668696B6C6D6F7072737577A2
:1007A000787A7B7D7E8082838587888A8C8E8F9104
:1007B000939596989A9C9EA0A2A3A5A7A9ABADAF2E
:1007C000B1B3B5B7BABCBEC0C2C4C6C9CBCDCFD118
:1007D000D4D6D8DBDDDFE2E4E7E9EBEEF0F3F5F8C1
:1007E000FAFDFF00AE00AF00DA0281FFD9F1DB2095
:1007F000A4A62EAF00A0C000A1C800AED580A81F3F
:10080000D300408D1420000000000000003E5B4F2C
:100810005B3E003E6B4F6B3E001C3E7C3E1C001856
:100820003C7E3C18001C577D571C001C5E7F5E1CE4
:100830000000183C180000FFE7C3E7FF0000182481
:10084000180000FFE7DBE7FF0030483A060E0026FD
:100850002979292600407F05050700407F05253FAF
:10086000005A3CE73C5A007F3E1C1C0800081C1C38
:100870003E7F0014227F2214005F5F005F5F00064E
:10088000097F017F00006689956A00606060606092
:100890000094A2FFA2940008047E04080010207EA9
:1008A00020100008082A1C0800081C2A0808001E3E
:1008B00010101010000C1E0C1E0C0030383E38308A
:1008C00000060E3E0E060000000000000000005F63
:1008D000000000000700070000147F147F140024AC
:1008E0002A7F2A12002313086462003649562050DA
:1008F00000000807030000001C2241000000412204
:100900001C00002A1C7F1C2A0008083E0808000062
:1009100080703000000808080808000000606000CF
:10092000002010080402003E5149453E0000427F6D
:100930004000007249494946002141494D330018A1
:1009400014127F10002745454539003C4A4949317A
:1009500000412111090700364949493600464949F5
:10096000291E0000001400000000403400000000B8
:100970000814224100141414141400004122140815
:10098000000201590906003E415D594E007C1211DA
:10099000127C007F49494936003E41414122007F97
:1009A0004141413E007F49494941007F0909090110
:1009B000003E41415173007F0808087F0000417FDD
:1009C0004100002040413F01007F08142241007F88
:1009D00040404040007F021C027F007F0408107FDF
:1009E000003E4141413E007F09090906003E415158
:1009F000215E007F09192946002649494932000332
:100A0000017F0103003F4040403F001F2040201F66
:100A1000003F4038403F006314081463000304782B
:100A20000403006159494D4300007F4141410002E8
:100A30000408102000004141417F0004020102042B
:100A4000004040404040000003070800002054548C
:100A50007840007F28444438003844444428003813
:100A60004444287F0038545454180000087E09027A
:100A70000018A4A49C78007F080404780000447D3A
:100A80004000002040403D00007F1028440000004E
:100A9000417F4000007C04780478007C08040478DE
:100AA00000384444443800FC182424180018242436
:100AB00018FC007C08040408004854545424000422
:100AC000043F4424003C4040207C001C2040201C6B
:100AD000003C4030403C004428102844004C90909A
:100AE000907C004464544C440000083641000000EF
:100AF00000770000000041360800000201020402F5
:100B0000003C2623263C000000000000004040403E
:100B1000F0F8F8FF38FFF8F83FF8F8FF38FFF8F87A
:100B2000F040404000000000000080C0C0C08000D5
:100B300000C0C08000000080C0C000C0C0000080B5
:100B4000C0C00000000000C0C0C0C0C000C0C000E5
:100B50000000000000000000000000000000000095
:100B60000000000000000000000000000000000085
:100B70000000000000000000000000000000000075
:100B8000000000000000C0F0F8FC3E1E060100005E
:100B9000007F4141417F007F4141417F000080C093
:100BA000E07E5B4F5BFEC00000C000DCD7DEDEDE17
:100BB000D7DC00C0000000000000000000000000C2
:100BC000000000000000000000000000004949494A
:100BD000FFFFFFFFE0DFBFBF00BFBFDFE0FFFFFFA2
:100BE000FF49494900000000001F3F6060E0BF1F4F
:100BF000007F7F071E381E077F7F007F7F0E1F3B11
:100C0000716000000000007F7F0C0C0C007E7E00F5
:100C10007F7E0303007F7E03037E7E03037F7E00CF
:100C20000F3E703C063C703E0F00327B49493F7ED0
:100C3000007F7E0303001E3F69696F2600000000ED
:100C4000000000000000030F1F3F3C7870600000B0
:100C5000007F4141417F007F4141417F00307B7FE8
:100C60007830202030787F3B0003000F7F0F0F0F7C
:100C70007F0F0003000000000000000000000000E3
:100C80000000000000000000000000000001010161
:100C9000070F0F7F0F7F0F0F7E0F0F7F0F7F0F0F3D
:100CA0000701010100000000000000000000010138
:100CB0000000000000000000000000000000000034
:100CC0000000000000000000000000000000000024
:100CD0000000000000000000000000000000000014
:100CE0000000000000000000000000000000000004
:100CF00000000000000000000000000000000000F4
:100D000000000000000000000000000000000000E3
:100D100000000000000000000000000000000000D3
:100D200000000000000000000000000000000000C3
:100D300000000000000000000000000000000000B3
:100D4000000000000000000C0353006F0066006C00
:100D500000650000001A034A006F0073006500661A
:100D6000004100640061006D00630069006B0000D9
:100D7000000403090409023B00020100A0FA09046F
:100D800000000103010100092111010001224000BE
:100D90000705810308000A0904010001030000009F
:100DA0000921110100012281000705820320000AA8
:100DB000120110010000000832FC8702010001024C
:100DC000000105010902A10185020901A10005092F
:100DD0001901290515002501950575018102950167
:100DE000750381010501093009311581257F9502BF
:100DF0007508810609381581257F950175088106DA
:100E0000050C0A38021581257F950175088106C0F9
:100E1000C005010980A101850319012AB700150148
:100E200026B700950175108100C0050C0901A101CC
:100E3000850419012AA002150126A002950175104A
:100E40008100C005010906A101050719E029E71580
:100E5000002501950875018102950175088101053C
:100E600007190029FF150026FF0095067508810067
:100E7000050819012905950575019102950175036C
:100E80009101C00011241FBECFEFDAE0DEBFCDBF5D
:100E900004B603FE27C080912F0590913005A091E4
:100EA0003105B09132058730904BA740B04BD1F45B
:100EB00010922F05109230051092310510923205D4
:100EC00014BE84B7877F84BF0FB6F894A89580912D
:100ED0006000886180936000109260000FBEE0E0C7
:100EE000F8E3099511E0A0E0B1E0ECEFF2E602C012
:100EF00005900D92A03CB107D9F725E0A0ECB1E038
:100F000001C01D92AF32B207E1F70E94682B0C942A
:100F100044310C940000CF93C82F0E94B70D81116B
:100F2000C3E08C2FCF9108950E94B70D882309F458
:100F300072C060E084EF94E00E94781460E08FEE6D
:100F400094E00E948A1460E08EEE94E00E948A147D
:100F50008091210560E080FF37C08AEE94E00E9416
:100F60008A146091890270918A0280918B0290911B
:100F70008C020E94FE2460E0811129C081EE94E081
:100F80000E948A1460E088ED94E00E94781460E08A
:100F900082ED94E00E948A1460918502709186022D
:100FA00080918702909188020E94FE24813059F13D
:100FB000882391F0823019F1833049F160E085EBAC
:100FC00094E00E948A140DC086EE94E0C8CF8BEDA9
:100FD00094E00E947814D6CF60E08CEC94E00E94FC
:100FE000781460E082EB94E00E9478140E94FA1A70
:100FF00081FB662760F98CEA94E00C948A1460E027
:1010000086EC94E0ECCF60E080EC94E0E8CF60E028
:101010008BEB94E0E4CF60E074E08CEA90E00C9419
:101020008F14CF93FB018B322DE5920709F470C02A
:1010300020F58C37910509F4DBC050F48A3791050F
:1010400009F400C18B37910509F4ECC0C1E06AC016
:1010500089322DE5920709F447C008F04DC08D375D
:101060009105A1F7C28181E0CC2309F4D5C00E948B
:10107000190C0E94DF1C89E1C4C08E322DE5920755
:1010800009F473C0D8F48C322DE5920709F44DC0F1
:101090008D329D45D9F6C281809121058170CC2386
:1010A00009F456C0882309F44AC084E00E94190C50
:1010B0000E94DF1C80E50E944A1C34C080332DE56D
:1010C000920709F481C008F471C081339D4509F08D
:1010D000BDCFC28181E0CC2309F484C00E94190CE9
:1010E0000E94DF1C8AE2E7CFC281CC23D9F080E0E6
:1010F0000E949009C0E016C0C28181E0CC2359F063
:101100000E94D42243E062E081E00E94F709F2CF1E
:10111000C28182E0F3CF0E94F52243E062E081E0E9
:101120000E94F7098C2FCF910895C28183E0CC23D0
:1011300019F00E94D422DECF0E94F522F3CF81E085
:101140000E94190C0E94DF1C80E50E944A1C7ECF81
:10115000882349F084E00E94190C0E94E61C80E577
:101160000E94981C73CF81E0F6CFC2818091210547
:101170008170CC2381F0882339F084E00E94190C1F
:101180000E94DF1C8FE497CF81E00E94190C0E941F
:10119000DF1C8FE4DACF882339F084E00E94190C39
:1011A0000E94E61C8FE4DCCF81E0F8CFC281809101
:1011B00021058170CC2321F08111C1CF8AE47BCF3E
:1011C0008111D1CF8AE4CCCFC28180912105817079
:1011D000CC2321F08111D8CF8DE46DCF8111E4CFE4
:1011E0008DE4BECF0E94190C0E94E61C8AE2B8CFA3
:1011F000C28181E0CC2341F00E94190C0E94DF1CC7
:1012000086E00E944A1C76CF0E94190C0E94E61CC0
:1012100086E00E94981C86CF0E94190C0E94E61C52
:1012200089E1F7CFC28181E0CC2331F00E94190C13
:101230000E94DF1C8BE1E5CF0E94190C0E94E61C86
:101240008BE1E7CFC28181E0CC2331F00E94190C01
:101250000E94DF1C8DE1D5CF0E94190C0E94E61C74
:101260008DE1D7CF811106C089EA611101C08AEAF8
:101270000C94C71C813029F489EF6111F9CF8AEFF2
:10128000F7CF089581E008950C94110808950C9407
:1012900046091F93CF93DF9300D000D00F92CDB7B4
:1012A000DEB749835A836B833091240289819A8106
:1012B00031111DC06623B9F02223A9F00E94C72373
:1012C000182F682F89819A810E94702369817A8101
:1012D000812F0F900F900F900F900F90DF91CF9173
:1012E0001F910C94740A0E949E23182FEFCF0E9426
:1012F000C72369817A81EDCFFC01262F408151817E
:101300006281738184810C944909CF93DF93EC014E
:1013100060E00E947C09BE01DF91CF910C944709E7
:10132000CF93DF93C1E0D0E002C0CC0FDD1F8A95E0
:10133000E2F78C2F0E945E25BE0190E080E0DF91F5
:10134000CF910C9472228F929F92AF92BF92CF92C4
:10135000DF92EF92FF920F931F936B017C0181E06C
:1013600090E0A0E0B0E04C015D0104C0880C991C45
:10137000AA1CBB1C4A95D2F7B501A4014C015D0122
:1013800004C0880C991CAA1CBB1C2A95D2F74829BA
:1013900059296A297B2904C0880F991FAA1FBB1FDE
:1013A0000A95D2F78A019B010C211D212E213F2194
:1013B000041715072607370789F48C299D29AE29BC
:1013C000BF29BC01CD011F910F91FF90EF90DF90DD
:1013D000CF90BF90AF909F908F90089580959095FB
:1013E000A095B0958C219D21AE21BF21EACF0F930E
:1013F000382F262F60918502709186028091870296
:1014000090918802042F432F0E94A3090F910C94FE
:10141000AE220E944B25811102C00E94F4250C943B
:101420005D0C0C94600C08950E94521F0E94130AD8
:101430002FEF84E39CE0215080409040E1F700C012
:1014400000000C941D270F931F93CF93DF93EC01A3
:1014500061E00E947C098C01BE010E94440988233E
:1014600059F1BE01C8010E949E16882329F1BE01D0
:10147000C8010E94F0168823F9F0BE01C8010E943D
:1014800013188823C9F0BE01C8010E948311882364
:1014900099F08A81882339F001158CE5180751F0FD
:1014A0000F3D1C4579F0CE01DF91CF911F910F9137
:1014B0000C9442090E94140A80E0DF91CF911F91A1
:1014C0000F9108950E94F425F7CF08950C94650AB2
:1014D00081E008950C94680ACF93C82F0E94660A91
:1014E0008C2FCF910C946A0A972F70E026E0929F80
:1014F000600D711D1124FB019CE3899FE00DF11D1E
:101500001124EE0FFF1FE950FB4F85919491089530
:10151000CF93DF930E94740A0E94820BEC01811525
:1015200021E5920708F042C0811530E5930708F0E5
:101530009DC0883E910530F5803E910508F092C02F
:10154000883A910588F4853A910508F084C0813085
:10155000910509F487C0009709F484C0049708F046
:1015600081C0D0E0C0E07EC08F3B9105D0F7C85A63
:10157000D0E0CC0FDD1FCC5CDE4F0990D881C02DB0
:10158000D46470C08115904250F4C11581E0D80731
:1015900008F068C0C03FD10520F3D06563C0C11515
:1015A00090E4D907F0F2DF70D06A5CC0811525E5C0
:1015B000920700F5811534E5930708F08BC081157B
:1015C00043E5940708F073C0C11582E5D80708F415
:1015D00069C0CE018370992721E030E002C0220F5C
:1015E000331F8A95E2F7C695C69580E2C89FE00151
:1015F000112454C0C11599E5D907A8F4C11528E5EF
:10160000D20708F06CC0C11536E5D30708F0A9CFA2
:101610008C2F0E94190CC82FD0E0DC2FCC27CC27B0
:10162000DF71D0621FC0C1154AE5D40708F45CC061
:10163000CE0190568115904208F093CF8D2F8F7177
:101640000E94190C90E0982F882788279F719C0191
:101650002C2BE901E6CFC55AD0E0CE59DE4FC88128
:10166000D0E0D064CE01DF91CF910895E4E096956B
:101670008795EA95E1F783702C2F269526952370A0
:1016800040E2249F90011124382B8C2F8370C1E0FD
:10169000D0E002C0CC0FDD1F8A95E2F7C22BD32B1E
:1016A000DC68E0CFDC2FCC27C16FD06ADBCF837042
:1016B000992721E030E002C0220F331F8A95E2F71C
:1016C000C695C69590E2C99FE0011124C22BD32B89
:1016D000DA68C8CFD82FCC27C46FD06AC3CFDC2F2D
:1016E000CC27C06FD06ABECF8C2F8F700E94190C90
:1016F00034E0D695C7953A95E1F7CF709C2FEC0171
:10170000D069B0CF82389105B1F1B0F48133910541
:1017100009F475C048F48932910509F469C08A3228
:10172000910509F473C008958533910509F459C0F2
:101730008933910501F10895833E9105A9F138F4AB
:10174000803E9105F9F0823E910549F10895863E6B
:101750009105A9F1873E9105C9F1843E910519F5DE
:101760002091210521FF1FC08091200584FD14C018
:1017700087EE90E00895209120052370A1F080EE7F
:1017800090E008952091200520FD47C0309121056B
:1017900030FF09C024FF44C090E080E004C02091E5
:1017A000200522FDF7CF08952091200522FD3BC0A2
:1017B0003091210530FDE3CF24FFF5CFEDCF20910F
:1017C000200523FFF0CF24FDE7CFD2CF20912005C5
:1017D00023FD2CC03091210531FFEECF84EE90E047
:1017E00008952091200525FFDECF89E290E008953D
:1017F0002091200525FFD7CF85E390E00895209123
:10180000200526FFD0CF8AE290E0089520912005A0
:1018100026FFC9CF81E390E0089589E390E0089521
:1018200083EE90E0089582EE90E0089586EE90E0D9
:1018300008959091200592FF06C0282F2871283026
:10184000F9F4877F846093FF06C0282F2871283120
:10185000F1F4877E84612091210520FF06C0382F96
:1018600038713830D9F4877F816021FF06C0282F76
:1018700028712831D1F4877E816194FD877E089597
:10188000282F24712430F9F68B7F8860DCCF282F35
:101890002471243101F78B7E8861DDCF382F3171BF
:1018A000313019F78E7F8860E0CF282F21712131E8
:1018B00021F78E7E8861E1CF08950C945C0C089529
:1018C0000C945F0CE82FF0E0E354FD4F8081089505
:1018D000089580EA8A95F1F70895F894E82FE29543
:1018E000EF70F0E031A1282F2F7081E090E001C06F
:1018F000880F2A95EAF7982F9095932391A392A1A8
:10190000892B82A37894089508950E94CD0D80912B
:1019100000018091000195E0811190E09093C80250
:1019200085E0891B8093C70286E60E946D0C87E9DB
:101930000E946D0C86EC0E946D0C84E30E946D0C7D
:1019400085E30E946D0C86EF0E946D0C87EF0E946C
:101950006D0C81E30E946D0C83E30E946D0C82E3A9
:101960000E946D0C86E30E946D0CE3EBF2E0ADEBA0
:10197000B2E08DEB92E011921D928E179F07D9F77E
:1019800085E00E946B0D0E94090A0C94E20D0E94F2
:10199000B70D8823F9F08091C70290E083549D4FE2
:1019A0000E94120E811113C08091C0018F5F80933D
:1019B000C001863050F0E091C702F0E0E354FD4FE3
:1019C000108211821282138214820C94110A1092D6
:1019D000C001FBCF8091C80290E083549D4F0E94CC
:1019E000330E0C94840CCF92DF92EF92FF920F9300
:1019F0001F93CF93DF93CBE6D1E003EB12E0D12C22
:101A0000EE24E394F12C8991F894E82FE295EF709D
:101A1000F0E021A18F70A70102C0440F551F8A95E5
:101A2000E2F7CA01922F982B91A392A18095892366
:101A300082A378940E94690CE5E6F1E030E020E0B2
:101A4000C12C4191A42FA295AF70B0E090968C91DB
:101A500090E04F7002C0959587954A95E2F780FD1A
:101A600036C08E2D022E01C0880F0A94EAF7C82ACC
:101A70002F5F3F4F2630310521F7FE0131978081DE
:101A80000E946D0CF8018081C81619F1C08281E0B6
:101A9000D82A0F5F1F4FF1E0C037DF0709F0B3CF3F
:101AA0006091C80270E063547D4F2D2D45E083EBBB
:101AB00092E00E946C0D0E94C70C8D2DDF91CF919A
:101AC0001F910F91FF90EF90DF90CF90089580E0ED
:101AD000CECF80E0DDCF0895FF920F931F93CF9379
:101AE000DF93F82E092F162FD72FC42F222349F06A
:101AF00081E08093C3010E94D2269093C20180931B
:101B0000C1018091C3018823A1F08091C10190910E
:101B1000C2010E94EA26069760F0EF2DF02FA12F58
:101B2000BD2FCE0FDF2FD11DEC17FD0741F4109212
:101B3000C301DF91CF911F910F91FF900895819183
:101B40008D93F2CF88EC9091E30097FD0EC0EFE308
:101B5000FCE93197F1F700C000008150A1F70E9425
:101B6000AB2D1092260580E0089581E008958091C4
:101B7000C401811107C00E94A20D81110AC082E038
:101B80008093C40181E09091C401913009F080E01C
:101B9000089581E0F5CF0C94B70D0E94CB0D809392
:101BA0000001809100016CE0882349F080E00E94F0
:101BB000E40E0E94B70D882321F00C94E90D8CE00F
:101BC000F6CF08950E94B70D811102C00C94EF0D5D
:101BD000089562E070E081E091E00C94891962E080
:101BE00070E081E091E00C9492190E943E118823EC
:101BF00061F08DEC91E00E94441181E090E00E9440
:101C00006B1A892B11F40C94411108958091CC0129
:101C1000883039F460E08DEC91E00E945711109209
:101C2000CC010895CF93DF93D82FC92F0E94F50DD3
:101C300090E080E00E946B1A009799F4ED2FFC2F42
:101C4000DC01AA53BE4F2C9121930196853091055A
:101C5000B9F78BEC91E00E94D71281E0DF91CF9130
:101C6000089580E0FBCFCF93DF93D82FC92F0E9438
:101C7000060EED2FFC2F90E080E02191DC01AA53AD
:101C8000BE4F2C93019685309105B9F78BEC91E00E
:101C9000DF91CF910C94CE12EF92FF920F931F938E
:101CA000CF93DF93EB01E82FD11110C0442321F033
:101CB000F0E0ED51F94FE4916E2F7E2F8E2FDF91E2
:101CC000CF911F910F91FF90EF9008950D2F10E08D
:101CD000282F30E0442329F02D51394FF901249168
:101CE00030E0F6E0CF9FC0011124EFEFF0E0BF013C
:101CF0000E94B830AB018C2F90E0880F991FA5E5AA
:101D0000A49FB001A59F700D1124861B970B982FDF
:101D1000990F980FBF01601B710B629FD001639FE9
:101D2000B00D729FB00D11248B2F9D9FB001112417
:101D3000672F7727EF01C61BD70BBE01629FE0011B
:101D4000639FD00D729FD00D11247F01E91AF10815
:101D5000E09EB001E19E700DF09E700D1124672F82
:101D60007727E61BF70BE29F8001E39F100DF29FA0
:101D7000100D1124E12F722F4230510599F048F4D3
:101D80004115510569F04130510581F0EB2F8D2F40
:101D900007C04430510569F080F046305105B1F775
:101DA0006E2F8DCFE22F7B2F812FFACFE22F7D2F49
:101DB000F7CFEB2F822F712FF3CF7B2F822FED2FB9
:101DC000EFCF41E00C944C0EE1E1F1E080836183C0
:101DD00008950C94E10ECF93DF93762FE901682FDD
:101DE000842F0E94E90E798368838A83DF91CF91E3
:101DF00008958091C902982F9E7F39F48091C9027D
:101E0000817082608093C90208958430B8F7089584
:101E100088E090E00C940431CF92DF92EF92FF9231
:101E20006B017C010E94F90EB701A60188E090E0E9
:101E3000FF90EF90DF90CF900C942231E9ECF2E02C
:101E400083E0808311828FEF828383831482A6EDE7
:101E5000B1E012968C911297836012968C936081F8
:101E60007181828193810C940C0F9091CD029330FB
:101E700018F49F5F9093CD02882351F06091C902BE
:101E80007091CA028091CB029091CC020C940C0FFD
:101E9000089581E00C94350F9091CD02992319F0AB
:101EA00091509093CD02882351F06091C9027091B6
:101EB000CA028091CB029091CC020C940C0F089531
:101EC00081E00C944C0F70E00C94DA11CF92DF9209
:101ED000EF920F931F93CF93DF93CDB7DEB7C85424
:101EE000D1090FB6F894DEBF0FBECDBF60911201CD
:101EF0008091C90280FF37C0E7EDF6E09E012F5FB9
:101F00003F4F8E01075B1F4FC901A4914A2F50E03C
:101F1000DA01AA0FBB1FA40FB51FA253BD4FCD906E
:101F2000DD90EC90D901CD92DD92ED929D0131963C
:101F3000A017B10751F720911101B3E02B9F800D3D
:101F4000911D11240E94630FC85BDF4F0FB6F894F8
:101F5000DEBF0FBECDBFDF91CF911F910F91EF90EC
:101F6000DF90CF900895809113019091140123E0A8
:101F7000829FF0011124E253FD4F891708F0BCCF76
:101F80001182108212828F5F3396F7CFE9ECF2E074
:101F900080818E7F808360817181828193810E94A4
:101FA0000C0FE6EDF1E08281816082832FEF80E704
:101FB00092E0215080409040E1F700C000000C9476
:101FC000660FE9ECF2E080818E7F8083E6EDF1E040
:101FD0008281816082832FEF80E792E021508040F0
:101FE0009040E1F700C000000C94660F9091C90288
:101FF00090FF14C0909113012091140133E0939F3E
:10200000F0011124E253FD4F921710F00C94660F6B
:102010008183608342839F5F3396F6CF0895EF926A
:10202000FF920F931F93CF93DF9300D00F92CDB702
:10203000DEB7F82E062F142FE22E8091C90280FF02
:1020400039C0E82FE695F0E0EB58FE4F9081909371
:10205000D6018E7F823059F49E012F5F3F4F8F2D26
:102060000E94EB0E4B8169818A810E94F60F80915C
:10207000CA028F1108C08091CB02801304C08091E6
:10208000CC02811729F08091D80182608093D80119
:10209000F092CA020093CB021093CC02EE2051F0D2
:1020A0006091C9027091CA028091CB029091CC02DA
:1020B0000E940C0F0F900F900F90DF91CF911F9106
:1020C0000F91FF90EF900895E9ECF2E09181282FB5
:1020D0004381628188E0890F0C940F1081E00C9499
:1020E0006410E9ECF2E09181282F4381628188EF4E
:1020F000890F0C940F1081E00C947110E9ECF2E060
:10210000628121E1620F08F46FEF282F4381818102
:102110000C940F1081E00C947E10E9ECF2E06281E7
:1021200021E1621B08F460E0282F438181810C9437
:102130000F1081E00C948D10E9ECF2E0438121E175
:10214000420F08F44FEF282F628181810C940F1009
:1021500081E00C949C10E9ECF2E0438121E1421B08
:1021600008F440E0282F628181810C940F1081E0F7
:102170000C94AB1020E00C940F108091C90280FFEA
:102180001DC0817082608093C9028091D8018160F6
:102190008093D801662351F06091C9027091CA0200
:1021A0008091CB029091CC020E940C0F4091CC0206
:1021B0006091CB028091CA020C94BA100895682FE6
:1021C00081E00C94BD1081E00C94DF10682F909199
:1021D000C90296958FEF890F09F481E00C94BD1028
:1021E00081E00C94E61061E00C94BD10E9ECF2E0A3
:1021F00080818160808386950C94F3108091C90260
:1022000080FD0C94C60F0C94F61060E00C94BD1089
:102210008091D501811131C00E944B25811104C0EC
:102220000E94F4250E941E0F0E94080F6093C902AD
:102230007093CA028093CB029093CC028091D80114
:1022400083608093D8016E7F61F40E941E0F0E940C
:10225000080F6093C9027093CA028093CB029093D7
:10226000CC020E94F90E8091C90280FF03C08695BE
:102270000E94051181E08093D50108958091D801D5
:1022800008951092D801089525E0E9ECF2E0DC0110
:1022900001900D922A95E1F72091D6013091D70156
:1022A0004091D801FC0125833683478308951F930D
:1022B000CF93DF93EC01162F8F8180FF0CC08881B4
:1022C00080FF15C08091C90281608093C902888116
:1022D00086950E94BD108F8181FF0CC0212F4B81FC
:1022E0006A818981DF91CF911F910C940F100E9418
:1022F000E10FF1CFDF91CF911F910895FA01811184
:1023000001C0FB0109941F93CF93DF93EC01FB0104
:102310001281111110C00E945C248272FE01E35CE4
:10232000FC45E431F10508F043C0EA5BFE4C0C9437
:10233000E0300E94FE10812FDF91CF911F91089510
:1023400040EF50E163EE70E10E947E11F4CF43EE66
:1023500050E160EF70E1F8CF4BE750E16EE670E1DD
:10236000F3CF4EE650E16BE770E1EECF49E950E183
:102370006AE870E1E9CF4AE850E169E970E1E4CF49
:1023800047EB50E168EA70E1DFCF48EA50E167EBE4
:1023900070E1DACF40E65FE069E47FE0D5CF49E461
:1023A0005FE060E67FE0D0CF81E00E94F310C3CF12
:1023B00011E0C1CF539A4BB1477F5BB15860EFB783
:1023C000F8949B01220F331F260F371F280F391F48
:1023D0002817390741F4EFBF8FE391E00197F1F738
:1023E00000C000000895DC016D91CD0178E05BB97B
:1023F000000000C067FF4BB9660F000000C000C0BE
:1024000000C04BB900C07A9591F7E2CF0C94320925
:1024100080910001811106C084EF8093170185EF40
:102420008093160120911701A22FA295AF70B0E002
:1024300091963C9191972F7081E090E0BC01022E23
:1024400001C0660F0A94EAF7462F40954323919600
:102450004C93919792963C919297362B92963C93FF
:10246000929740911601E42FE295EF70F0E031A1D0
:102470004F70042E01C0880F0A94EAF7982F9095A8
:10248000932391A392A1892B82A390968C9190E0A3
:1024900002C0959587952A95E2F7817020A130E0DA
:1024A00002C0359527954A95E2F792E020FF90E02B
:1024B000892B8093DE019091000181E09827909311
:1024C000DA01891B8093D9010895CF93E091DE0151
:1024D000EE0FEE0F20911701A22FA295AF70B0E082
:1024E00090968C9190E02F7002C0959587952A95D3
:1024F000E2F78170992740911601A42FA295AF7041
:10250000B0E090962C9130E04F7002C03595279541
:102510004A95E2F7A9014170552720FF02C042E029
:1025200050E0842BE82BE093DE01C091DA01EF70DC
:10253000F0E0E958FE4F80819091DD01890F809392
:10254000DD0182306CF0EC2F0C2E000CFF0BE552FD
:10255000FE4F80818F5F808360E08C2F0E94061287
:102560008091DD018F3F6CF4EC2F0C2E000CFF0BE3
:10257000E552FE4F80818150808361E08C2F0E9464
:1025800006128091DD01082E000C990B62E070E0CC
:102590000E94CC308093DD01CF910895E091DA0163
:1025A000F0E0E552FE4F2081FC0120830895FF9268
:1025B0000F931F93CF93DF93D091D9010D2F10E08C
:1025C00005521E4FFC01C081F8018081C81BFC2E02
:1025D0001F1464F08C2FC7FD80E0C81BC11110C010
:1025E000DF91CF911F910F91FF900895FA94F80118
:1025F00080818F5F808360E08D2F0E940612E8CF7C
:10260000CF5FF80180818150808361E08D2F0E942F
:102610000612E4CFCF92DF92EF92FF920F931F93B7
:10262000CF93DF936C017B0164E670E088E70E9442
:102630004318EC0197FD12C010E000E0F601E00F36
:10264000F11F849164E670E00E949F18EC01892BD1
:1026500029F40F5F1F4F0E151F0581F70E942219E5
:10266000CE01DF91CF911F910F91FF90EF90DF90FE
:10267000CF900895E6E1F3E080E092E0DF019C0175
:102680001D9221503040E1F7F0931B05E0931A05AD
:102690008FEF9FEF90930B0280930A0208950E94A0
:1026A0008B078093060280FD0FC080E880930502AF
:1026B0000E943D186DE070E08AEF97E00E940A13D7
:1026C000892B21F080E0089580E2F0CF809106020E
:1026D00063E070E081FD26C087EF97E00E940A1357
:1026E000892B81F76DE070E087EE97E00E940A1376
:1026F000892B41F70E94DE26605A75418F4F9F4F0C
:10270000609316057093170580931805909319052B
:102710000E943A1381E0809309028093080210928C
:102720000702089584EF97E0D9CF2091050236E0A3
:10273000839FC0011124629F800D911D112481157A
:1027400022E0920714F090E080E08A5E9C4F909324
:102750001B0580931A05089520911A0530911B05D9
:102760002051334040910502642F70E0C9010E945E
:10277000B830481B463010F4240F311D211582E07B
:10278000380710F030E020E02A5E3C4F30931B0504
:1027900020931A0508951F93CF93DF93162F8A3045
:1027A00031F481E0DF91CF911F910C9445148D306D
:1027B00011F480E0F7CFC0911A05D0911B0596E087
:1027C000FE01AFEDB1E001900D929A95E1F7803EE8
:1027D000C8F086E0FE0111928A95E9F711111EC03A
:1027E000C0911A05D0911B0546E050E0BE018FED67
:1027F00091E00E94EF30892BF9F4DF91CF911F9186
:102800000C94AC13F6E08F9FB0011124695F774FF1
:1028100046E050E0CE010E94E630E0CFE0911A059C
:10282000F0911B059F012A5F3F4F2E173F07C1F212
:10283000808180958193F9CFC651D340CE0125E0A8
:10284000969587952A95E1F721E030E0A90102C02D
:10285000440F551F8A95E2F7CA0140910A02509130
:102860000B02842B952B259645E0D695C7954A9566
:10287000E1F702C0220F331FCA95E2F7822B932B98
:1028800090930B0280930A02B8CFCF93382FE09138
:102890001A05F0911B05E651F34020910502622FC5
:1028A00070E0CF010E94B830281B822F332369F0DB
:1028B00066E00E94AC30C82FC15010F4CF9108954B
:1028C00060E080E20E94CB13F7CF9F01280F311DFB
:1028D0002115324018F080E0F0E0E0E08E0F9F2FED
:1028E000911D8A5E9C4F90931B0580931A05E6CF3D
:1028F0001F93CF93DF93EC01162FFE01849181117A
:1029000004C0DF91CF911F910895612F0E94CB13D6
:102910002196F3CF0E94781481E00C944514CF9354
:10292000DF9320911A0530911B0526513340A901F0
:10293000460F571F4130524020F060E072E0621BAA
:10294000730B40910A0250910B02FC01C901620F06
:10295000731FC1E0D0E08617970738F050930B0241
:1029600040930A02DF91CF9108952491DC01AA5E81
:10297000BC4F3C91321781F02C939C01A5E0369519
:102980002795AA95E1F7DE0102C0AA0FBB1F2A9581
:10299000E2F79D014A2B532B01963196DCCF8091B3
:1029A0000902811103C08091080208950E94DE2669
:1029B000605A75418F4F9F4F6093160570931705AE
:1029C0008093180590931905809108028111EBCF2F
:1029D00062E070E085EE97E00E940A13892B19F7F8
:1029E00081E080930802DFCF2F923F925F926F9237
:1029F0007F928F929F92AF92BF92CF92DF92EF928F
:102A0000FF920F931F93CF93DF9380910902882346
:102A100069F020910A0230910B022115310531F045
:102A20008091070261E070E0882399F0DF91CF91F7
:102A30001F910F91FF90EF90DF90CF90BF90AF90DC
:102A40009F908F907F906F905F903F902F90089510
:102A50008F5F082F10E01B01082E02C0220C331CD0
:102A60000A94E2F7A90142215321452B89F3909161
:102A7000060290FD44C08295880F807680931A01EB
:102A80009801369527953695279520931D01815EEF
:102A900080931B0110921E0124E630E047E050E0D5
:102AA00068E171E088E70E94CE18892B09F0BECF5B
:102AB000A80125E0440F551F2A95E1F780910602F1
:102AC00080FD2BC04A5E5C4F04E610E020E230E05F
:102AD00060E488E70E94F518892B09F0A7CF0E94CF
:102AE000CF14E101C095D09580910A0290910B021C
:102AF000C823D923D0930B02C0930A0297CF880F23
:102B0000880F880F80931A0110921D01895F8093AE
:102B10001B0183E080931E01BFCFE5EEF1E080E270
:102B2000DF011D928A95E9F7ABE8B1E007E811E013
:102B30008FE8C82E81E0D82E97E0592E7724739421
:102B40008D91E80129918E01240F352F311D2A5EC8
:102B50003C4FE82FF0E0EB51FE4F90E080E0652C19
:102B6000681A872C082E01C0880C0A94EAF77901AC
:102B7000A12CE701B9907E01B820662D6A19677013
:102B8000962E062E000C770BDB2D01C0DD0F9A94DC
:102B9000EAF77195619571096770772701C0B6945E
:102BA0006A95EAF7BD2A6081962E9B289082A394AD
:102BB00068E0A612DECF019631968830910579F64D
:102BC000CA16DB0609F0BCCF04E610E020E230E0D4
:102BD00045EE51E07DCF809108029091090291115C
:102BE00003C091E089270895882369F062E070E0CE
:102BF00083EE97E00E940A13892B19F08091080256
:102C000008951092080280910802EBCF0F931F9352
:102C100080910902882319F160E080E00E949513F9
:102C20000E9494070E94F414809108028823B9F04E
:102C30000E94DE26009116051091170520911805B7
:102C400030911905601B710B820B930B6F3F7F4F07
:102C50008F4F9F4720F41F910F910C94EB151F91FC
:102C60000F9108950F931F93CF93DF93C42FD22F0B
:102C7000FC0182818823C9F040930E020E94D22673
:102C800090930D0280930C0280E28C0F883008F044
:102C900050C0C77081E001C0880FCA95EAF7DF9184
:102CA000CF911F910F910C94DF1C10910E02141301
:102CB00035C080910C0290910D020E94EA26843664
:102CC000910560F5C0E2CD0F1D17B9F080E2810FCC
:102CD000883040F4177081E001C0880F1A95EAF738
:102CE0000E94E61CC83048F481E09D2F977001C017
:102CF000880F9A95EAF70E94DF1C802F0E94C71C5C
:102D0000C830B8F4D77081E001C0880FDA95EAF7CF
:102D1000DF91CF911F910F910C94E61C80E28C0FF4
:102D2000883038F4C77081E001C0880FCA95EAF78F
:102D3000EFCFDF91CF911F910F9108950F939C01D9
:102D4000CB01243F4CE5340759F1A8F4293DFCE5BB
:102D50003F0701F12A3D4CE53407D1F1283D3C45C0
:102D600091F406E221EE41EE68ED7CE50E94321618
:102D700080E00F910895263FFCE53F07E9F0B0F0B1
:102D8000273F3C45F9F0FC018281882339F11092FC
:102D90000E02EFCF07E225EE45EE69ED7CE5E6CFCA
:102DA00006E221EE40EE64EF7CE5E0CF07E225EE9F
:102DB00044EE65EF7CE5DACF06E221EE42EE66EF07
:102DC0007CE5D4CF07E225EE46EE67EF7CE5CECF7B
:102DD00008E221E045EE6AED7CE5C8CF81E0C9CF8D
:102DE000CF93DF93EC01FB018281882309F419C1A1
:102DF000C230FCE5DF07C0F1C6319CE5D90730F0F1
:102E00009E012B5F3C452930310570F50E946325FA
:102E10009093210580932005C031ECE5DE0709F48D
:102E2000CFC008F05BC0C8308CE5D80709F4B6C045
:102E300088F5C430ECE5DE0709F4A8C0C0F4C23060
:102E40008CE5D80709F49CC0809120058260C330CE
:102E5000DC4509F498C080912005909121050E94DD
:102E600071250E94521F80E0DF91CF9108958091DB
:102E700020058061C630ECE5DE0709F484C080914E
:102E800020058860C730DC4508F47DC080912005AE
:102E9000806279C0CC308CE5D80709F489C070F421
:102EA000809120058C60CA30ECE5DE0709F46BC028
:102EB00008F478C0809120058E7F65C0CE308CE507
:102EC000D80709F479C0809120058B7FCF30DC458D
:102ED00008F459C0809120058F7E55C0CC3FECE5A9
:102EE000DE0709F457C030F5C3318CE5D80709F483
:102EF0006FC078F4C131ECE5DE0709F465C0C2317A
:102F0000DC4509F0A8CF0E94521F809120058F77E1
:102F10003AC0C5318CE5D80709F462C008F476C020
:102F2000809121058160CB3FDC4509F094CF8093EF
:102F3000210591CFC115FDE5DF0709F44DC088F4E7
:102F4000809121058D7FCE3F9CE5D90781F380914B
:102F500021058E7FCF3FDC4550F3809121058360B2
:102F6000E6CFC230FDE5DF0709F459C008F444C0DC
:102F700080E0C330DD4509F06ECF0E94F6256BCFAF
:102F80008091200581608093200565CF8091200588
:102F90008460F9CF809121058260C9CF809120059E
:102FA0008064F1CF0E94521F809120058068EBCF92
:102FB000809120058D7FE7CF80912005877FE3CF2B
:102FC000809120058F7DDFCF809120058F7BDBCF27
:102FD00080912005837FD7CF809121058C7FA7CF5B
:102FE0008091200582FB992790F921E0922790FBA0
:102FF00082F990FB83F9C7CF80912105982F909596
:1030000091708E7F892B90FB81F991CF0E94521F86
:1030100090912005892F97FB87F98058B4CF81E0E4
:10302000ACCF81E021CFCF93DF93EB0186319C457C
:1030300011F50E945C249A81992399F08A7A91E093
:1030400009F490E090930F02811109C089E20E9477
:1030500037240E949B2480E0DF91CF91089585E37F
:10306000F6CF80910F02811104C089E20E943E24B4
:10307000F0CF85E3FBCF81E0EFCF1092B9008CE079
:103080008093B8000895EF92FF920F931F93CF9310
:10309000DF93182FEB011092BC0084EA8093BC00F0
:1030A0000E94D2267C018091BC0087FF27C08091BE
:1030B000B900887F883029F08091B900887F8031FD
:1030C000D9F51093BB0084E88093BC000E94D226FF
:1030D0008C018091BC0087FF24C02091B900287F1B
:1030E00090E080E02831B1F081E090E0203411F4EC
:1030F00090E080E09195819591090CC0CF3FDC076D
:1031000091F20E94D2268E199F098C179D0758F2C2
:103110008EEF9FEFDF91CF911F910F91FF90EF9076
:103120000895CF3FDC07A9F20E94D226801B910BA5
:103130008C179D0770F2ECCF8FEF9FEFEBCF0F93C3
:103140001F93CF93DF93EB018093BB0084E88093C0
:10315000BC000E94D2268C018091BC0087FF11C068
:103160002091B900287F81E090E0283211F490E0AE
:1031700080E0919581959109DF91CF911F910F91F9
:103180000895CF3FDC0741F30E94D226801B910BAC
:103190008C179D0708F38EEF9FEFEECFCF92DF9253
:1031A000EF92FF920F931F93CF93DF936B018A01EE
:1031B0007901B9010E944318E6010C0D1D1DC017CD
:1031C000D10761F424E92093BC00DF91CF911F91D6
:1031D0000F91FF90EF90DF90CF90089597FDF2CF81
:1031E000B70189910E949F18EACFCF92DF92EF92A8
:1031F000FF920F931F93CF93DF93C62F6A0179013C
:10320000B8010E94431897FD0CC0B8018C2F0E9492
:103210009F18E601EC0CFD1CCE15DF0511F097FFA1
:103220000CC024E92093BC00DF91CF911F910F9136
:10323000FF90EF90DF90CF900895B80189910E94A0
:103240009F18EACF84E98093BC0008958EE14A9BE1
:1032500002C08150E1F74A9BFECF08955A9880E260
:103260008A95F1F75A9A0895FC013BE03A95F1F7F7
:1032700020E090E080E031E040E14A95F1F7880FEE
:103280004A9B02C08160232742E04A95F1F7000083
:1032900040E14A95F1F79F5F6913EECF90E19A956F
:1032A000F1F799B132E03A95F1F7000040E14A9523
:1032B000F1F792FB992790F992272081920F908342
:1032C0000895EF92FF920F931F93CF93DF930F9286
:1032D000CDB7DEB719828C017C01E60EF11C0E150C
:1032E0001F0561F481E09981911180E00F90DF91D9
:1032F000CF911F910F91FF90EF9008950E94261992
:1033000068E0CE0101960E943419F80181938F0183
:10331000E6CF909312028093110260931002529AAA
:103320005A9A0895909312028093110260931002AA
:1033300052985A9AEA9AE9E6F0E080818F7C80837D
:1033400008956150770B91E001C0990F6A95EAF7F3
:1033500020E031E0911108C0222391F05A9A80E2D6
:103360008A95F1F75A980895492F482339F05A9AC7
:10337000232740E24A95F1F79695ECCF5A98F9CF7A
:103380005A98EDCFFF920F931F93CF93DF93EC01E9
:103390008C01060F111DC017D10731F4DF91CF91B9
:1033A0001F910F91FF900895F9900E942E1968E0E7
:1033B0008F2D0E94A119EFCF1F920F920FB60F927F
:1033C00011240F931F932F933F934F935F936F930A
:1033D0007F938F939F93AF93BF93EF93FF93CF937D
:1033E000DF930F92CDB7DEB719820E94261967E0EE
:1033F000CE0101960E943419082F06950695069570
:10340000982F92959570202F2570920F292F237059
:10341000969596958770920F891344C08981811182
:1034200041C0809110028017E8F120E12A95F1F760
:103430005A9A529A82E08A95F1F700C0A8E00A9F52
:10344000C00111240091110210911202080F191FDE
:103450005A98F8016581662321F0868197810E9440
:10346000C2190E942E19F0E1FA95F1F75A98529874
:103470005A9A20E12A95F1F7D80112966C91129789
:10348000662331F113968D919C910E946119D801A8
:10349000ED91FC91882311F088E001C082E08083E7
:1034A0000E9426190F90DF91CF91FF91EF91BF916C
:1034B000AF919F918F917F916F915F914F913F91CC
:1034C0002F911F910F910F900FBE0F901F90189585
:1034D000ED91FC91E1CF0F931F93CF93DF93209158
:1034E0001002281719060CF471C08C0193E0000F2C
:1034F000111F9A95E1F7C0911102D0911202C00FED
:10350000D11FF894529A5A9825E02A95F1F70000B5
:10351000982F969595708570980F892F8370969542
:103520009695980F092B0E942E1900C067E0802FF6
:103530000E94A11980E18A95F1F752985A9A4A9B04
:1035400017C087E090E04A9915C06D81662321F18C
:103550008E819F810E94611981111EC0529A5A9AD0
:10356000E881F98182E08083789482E090E00DC068
:1035700000C0E5CF019771F4529A5A9AE881F98117
:1035800081E08083789481E090E0DF91CF911F917A
:103590000F91089500C0D7CF0E94261920E22A95E6
:1035A000F1F75A98529A80E18A95F1F76A81662379
:1035B00021F08B819C810E94C2190E942E19E88102
:1035C000F9811082789490E080E0DFCF84E090E091
:1035D000DCCF90931802809317020895E0911702B0
:1035E000F0911802309721F00190F081E02D0994BC
:1035F00080E00895E0911702F0911802309711F4DD
:1036000080E008950190F081E02D09950895E09102
:103610001702F0911802309721F00280F381E02D1B
:1036200009940895E0911702F0911802309739F04B
:1036300022E0DC012C930480F581E02D09940895AB
:1036400020911502309116022817390771F09093D6
:10365000160280931502E0911702F091180230973C
:1036600021F00680F781E02D09940895209113023E
:10367000309114022817390771F090931402809347
:103680001302E0911702F0911802309721F00084A4
:10369000F185E02D0994089585B7806885BF85B7C9
:1036A000806885BF0895089508950C94531B08956C
:1036B0000C94571B0E944C1B0E94541B0C94551BCE
:1036C0000C94B70D089508950E94C9260E94850C98
:1036D00080E00E944F130E9441270E9408110E941F
:1036E00008120C94581BAF92BF92CF92DF92EF92C8
:1036F000FF920F931F93CF93DF93CDB7DEB72A9737
:103700000FB6F894DEBF0FBECDBF0E94621B0E94B1
:10371000631B0E94F30CB82E0E94601B882309F4DF
:1037200068C08AE1C82E82E0D82E10E000E0A02E0A
:10373000802F0E94620CE82EF601F1906F01F816BE
:1037400009F451C080919A0281FD0E94680C9F2D5E
:103750009E2580E0FF24F394292F2F2109F43EC0F9
:103760008E83AF82EF2081E009F480E088870E9499
:10377000D2268160782F9A8789874E815F816885FC
:103780008A850E941B1CF801E65EFD4F8081F826A9
:10379000F0820E9465120E940616B1100E94CF149A
:1037A0000E94EC280E94EE1A90911902891791F15B
:1037B0000E94EE1A809319022A960FB6F894DEBF83
:1037C0000FBECDBFDF91CF911F910F91FF90EF9072
:1037D000DF90CF90BF90AF900C946C0A8F5FFF0C7E
:1037E000863009F0B9CF0F5F1F4F0A30110509F07D
:1037F0009ECF8FEF89838A831B820E94D2268160AD
:10380000782F9D838C8349815A816B818D810E94A1
:103810001B1CBFCF2A960FB6F894DEBF0FBECDBFDC
:10382000DF91CF911F910F91FF90EF90DF90CF909C
:10383000BF90AF900895CF93DF93CDB7DEB72B97AE
:103840000FB6F894DEBF0FBECDBF4F835887698790
:103850007A878B871E821D8285E0FE013796DE0106
:10386000119601900D928A95E1F749815A816B81F9
:103870007C818D819E812B960FB6F894DEBF0FBEA2
:10388000CDBFDF91CF910C94C821FC018081918143
:103890000C940924CF93C82F882309F447C08CEFD8
:1038A0008C0F813AA0F46C2F80911F019091200120
:1038B0000E940D26882329F08C2F0E943E240E940E
:1038C0009B248C2F0E943724CF910C949B2480E260
:1038D0008C0F883048F4C77081E001C0880FCA950A
:1038E000EAF70E945F24F0CFEBE5EC0FE33040F401
:1038F000F0E0E354FE4F808190E0CF910C94201BC8
:10390000E8E5EC0FE73150F4F0E0EE0FFF1FE15770
:10391000FE4F80819181CF910C94361BC03F30F0D7
:103920008C2F0E94E627CF910C94D128CF91089537
:10393000882361F19CEF980F913A20F40E943E2475
:103940000C949B2490E2980F983050F4877091E08B
:1039500001C0990F8A95EAF7892F0E946524F0CF5C
:103960009BE5980F933020F490E080E00C94201BAE
:1039700098E5980F973120F490E080E00C94361B86
:10398000803F20F00E944E280C94D1280895CF93B8
:10399000C82F0E944A1CC93369F42FEF87EE93E0C9
:1039A000215080409040E1F700C000008C2FCF9163
:1039B0000C94981C8FE39CE90197F1F7F5CF8823CD
:1039C00021F00E945F240C949B240895882321F009
:1039D0000E9465240C949B240895BF92CF92DF929D
:1039E000EF92FF920F931F93CF93DF936C01D62F2B
:1039F000C72FFC01058102950F70128111110E94E1
:103A00007C240E945524E82E882391F01123E9F0AC
:103A10008C2F807F803421F080E28D0F8830A8F0D9
:103A200082E00E94E6240E94552491E0E82EE926D7
:103A3000BC2EB2949FE0B922FBE0FB15A8F1EB2D60
:103A4000F0E0E65AFE4C0C94E030E12CF1CF0C2F64
:103A50000F70C07F11F00295007F1123A9F00023A1
:103A600059F080E28D0F883010F0D11109C0802FFD
:103A70000E945F240E949B248D2F0E944A1C14C028
:103A8000802F0E946F24F6CF8D2F0E94981C002358
:103A900059F080E28D0F883010F0D1112BC0802FAB
:103AA0000E9465240E949B24EB2DE850FF0B349765
:103AB00020F40E94EE1A0E946C0AEE2009F493C1D1
:103AC0000E94512480FD8FC1F60112820E944B2476
:103AD0000E94D422C6010E94141F0E944B24DF9131
:103AE000CF911F910F91FF90EF90DF90CF90BF90FB
:103AF0000C94F522802F0E947524D4CF2C2F2F7088
:103B0000F22EC07FC03219F0F29480EFF822DD234C
:103B100069F0D13049F1112391F1002351F1F601FF
:103B2000858180FFA9CF8F70858323C0112381F009
:103B3000011106C00E9482248F290E94DF1CB4CF8D
:103B40000130C1F70E9482248F290E948824ACCFC3
:103B5000011106C00E9491248F2D0E94E61CA4CF63
:103B6000013009F4A1CFF6CF112329F0063008F077
:103B70009BCF8F2DE2CF053008F096CFEDCF0023FD
:103B800059F3D93309F027C1FFEF27EE33E0F150A5
:103B900020403040E1F700C000008D2F0E94981CAB
:103BA00083CF8C2F86958695837069F0813009F0DC
:103BB0007BCF8D2F9C2F9370111102C090E080E07D
:103BC0000E94361B71CF8D2F9C2F9370111102C054
:103BD00090E080E00E94201B67CF8D2F112329F0F9
:103BE0000E94E6270E94D1285FCF0E944E28FACF7C
:103BF0008C2F837009F041C0111156CF4D2F429583
:103C000046954770440F440F0D2F0F7010E030E0C1
:103C100020E0042E04C0000F111F221F331F0A943E
:103C2000D2F760E070E0CB01D4FF0FC06FE070E02E
:103C300080E090E004C0660F771F881F991F4A95A7
:103C4000D2F76095709580959095C695C695C3708E
:103C5000602B712B822B932BC23049F058F4C1306A
:103C600019F00E94862220CF0E9474221DCF0E944C
:103C700098221ACF0E94722217CF8695112311F035
:103C80008C2F8170882309F40FCF4D2F42954695D4
:103C90004770440F440F0D2F0F7010E030E020E00C
:103CA000042E04C0000F111F221F331F0A94D2F7E5
:103CB00060E070E0CB01D4FF0FC06FE070E080E007
:103CC00090E004C0660F771F881F991F4A95D2F7AE
:103CD0006095709580959095C695C695C370602B3C
:103CE000712B822B932BC23049F058F4C13019F05C
:103CF0000E944B23D9CE0E943923D6CE0E945D2349
:103D0000D3CE0E94AE22D0CECF70112329F08C2FBB
:103D10000E94D4228D2F11CF8D2F0E94E61C8C2F54
:103D20000E94F522C1CED23F89F160F4D03FC9F0A4
:103D3000D13F29F1112309F442C001119DCE8C2FEE
:103D40008F7121C0D33F39F1D43FA1F7112369F11D
:103D5000CF718C2F0E94D42263E08C2F0E94D1243B
:103D6000A3CE112341F0053008F09ECE8C2F8F7129
:103D70000E94182399CE063008F096CEF7CF8C2FEC
:103D80008F71112369F20E94D4228ECE8C2F8F71F5
:103D90001123C9F3C5CF112329F08C2F8F710E94F5
:103DA000BF2282CE0E94BA227FCE81E00E94E6240A
:103DB000023008F479CE82E00E94E62475CE00231A
:103DC00079F0D93341F49FEFE7EEF3E09150E04012
:103DD000F040E1F7E0CE8FE39CE90197F1F7DBCE0D
:103DE0008C2F8F719DCFDF91CF911F910F91FF90FD
:103DF000EF90DF90CF90BF9008950F931F93CF93D4
:103E0000DF93EC01688179818A810E9413248C01FF
:103E10000E946F230E947122B801CE01DF91CF91E1
:103E20001F910F910C94ED1CCF93DF93EC018B81CC
:103E30009C81892B29F08881998189238F3F59F4AE
:103E4000DF91CF910895CE010E94FD1ECE01DF913A
:103E5000CF910C948509CE010E94230A8111F3CFE2
:103E60000E945524882361F38A81882349F382E0E4
:103E7000DF91CF910C94E6240E947C240E947F2441
:103E80000E949B240E94F8290E94D12890E080E0A3
:103E90000E94201B90E080E00C94361B0E94452479
:103EA0000C943C1F0E946C240C944E1FE92FE29549
:103EB000EF70E250EE3070F4F0E0EA59FE4C0C94F2
:103EC000E030803F19F020F4883E20F481E008952E
:103ED000843FE1F380E00895883EC0F3813FD1F74D
:103EE000F5CF93FB882780F908950E9409240C944C
:103EF000561FCF93DF9300D000D00F92CDB7DEB71F
:103F00000F900F900F900F900F90DF91CF91089529
:103F1000CF93DF9300D000D000D0CDB7DEB7269688
:103F20000FB6F894DEBF0FBECDBFDF91CF910895DD
:103F30001F93CF93DF93C091250216E08091260254
:103F40008C1304C0DF91CF911F910895D0E01C9F86
:103F5000F0011D9FF00D1124E95DFD4F408151815D
:103F600062817381848195810E94881F2196C77028
:103F7000E5CF4091570250915802609159027091DB
:103F80005A0280915B0290915C020C94881F1F93EF
:103F9000CF93DF9380915C02807FA9F480915902D6
:103FA000882389F080912502C091260260915702F2
:103FB00070915802A0915A02B0915B02D62FD7237C
:103FC00016E0C81304C0DF91CF911F91089590E0CF
:103FD000109711F0DF3F19F401968770F2CF189F08
:103FE0009001199F300D1124F901E95DFD4F4181C8
:103FF0004713F2CF40814613EFCF42814111ECCFFE
:10400000438154814A1B5B0B4436510528F780914C
:104010005C028F70806180935C02F901E45DFD4F6A
:1040200080818F708061808387E592E00E94141FF9
:10403000DF91CF911F910C94981FAF92BF92CF92B6
:10404000DF92EF92FF920F931F93CF93DF93CDB741
:10405000DEB761970FB6F894DEBF0FBECDBF8C01FF
:1040600085E0F801DE011D9601900D928A95E1F739
:10407000F80140815181E28087E5C82E82E0D82E88
:1040800060915A0270915B026115710509F461C17A
:104090009091570220915802892F82238F3F09F473
:1040A00058C1A380B480F0905902F501E61BF70BCC
:1040B000FF2009F4FCC080915C02382F307FE43689
:1040C000F10508F0B2C0311179C0FE2C251323C0D0
:1040D000941321C0E1101FC08F70806180935C0237
:1040E0000E94B91FC6010E94141F80915C02F80152
:1040F00085838F2D61960FB6F894DEBF0FBECDBFBE
:10410000DF91CF911F910F91FF90EF90DF90CF90B3
:10411000BF90AF900895AB2829F0842F85238F3F5F
:1041200009F033C180E0F82FF170DF2E80FF3CC032
:10413000809125022091260236E0821315C04D871A
:104140005E878D859E850E940924292F22952F70D8
:104150002230F0F0243018F59F70F1F0F8019581CD
:10416000907FD1F4D12C1EC090E0389FF001399F90
:10417000F00D1124E95DFD4F6181651306C060817A
:10418000641303C062816E110FC001968770D5CF92
:104190009F7011F0882331F3805E883018F3C801D6
:1041A0000E94141FFD2CA5CFEE2009F4A2CF809110
:1041B0005C02816080935C02F12C9BCF251306C0CA
:1041C000941304C0F801EE2009F48DC04D875E877A
:1041D0008D859E850E94751F882319F1EE2009F1B7
:1041E00080915C02803270F0209157023091580229
:1041F00038872F831986BB86AA868C87CE010796BF
:104200000E94141F86E0F801A7E5B2E001900D922C
:104210008A95E1F70E94C71F0E94B91FFF24F394FB
:1042200068CFC8010E94141FF9CF311113C07A2D35
:10423000B98AA88A6E2D89890E94791F87E592E044
:104240000E94141F86E0F60111928A95E9F70E94F8
:10425000B91FB2CF25130FC094130DC0E1100BC0CE
:10426000F8018583C8010E94141F86E0F6011192AF
:104270008A95E9F73ECF4D875E878D859E850E94A2
:10428000751F882371F2EE2061F280915C0280320A
:1042900008F4B8CF20915702309158023A8329830D
:1042A0001B82BD82AC828E83CE010196A9CFE436FB
:1042B000F10508F041C0FE2CEE2009F4B2CF251321
:1042C0002AC0941328C080915C0280FD1BC0982FE7
:1042D000907FC1F0F8018583903F31F0982F907F57
:1042E000905F8F70892B8583C8010E94141F86E020
:1042F000F801A7E5B2E001900D928A95E1F70E94DE
:10430000B91FF7CE86E0F801A7E5B2E001900D9263
:104310008A95E1F7EECE4D875E878D859E850E945A
:10432000751F81116FCF80915C02816080935C0268
:10433000C8010E94141FDDCE7A2DB98AA88A6E2D7D
:1043400089890E94791F86E0F60111928A95E9F722
:10435000D6CFEE2009F465CF4D875E878D859E858B
:104360000E94751FF82E882309F45BCF86E0F801C0
:10437000A7E5B2E001900D928A95E1F787E592E01A
:104380000E94451C0E94C71FBACF81E08E25CBCE6C
:104390001F93CF93DF93CDB7DEB72C970FB6F8946A
:1043A000DEBF0FBECDBF4F83588769877A878B8763
:1043B0009C87CE0107960E941D20882369F08A857C
:1043C0009B85892B39F04F815885842F85238F3F1A
:1043D00009F071C016E05FC086E0FE013796DE018D
:1043E000119601900D928A95E1F78A859B85892B1C
:1043F00089F38F81988589238F3F61F3209126026D
:1044000030E0C9010196877099274091250248172D
:10441000190671F40E94521F109226021092250272
:1044200086E0E7E5F2E0DF011D928A95E9F7D2CF59
:1044300096E0929FD001939FB00D1124A95DBD4FCE
:10444000FE01319601900D929A95E1F78093260234
:104450000E94981FBFCF819FC0011124895D9D4F8D
:104460000E941D208823E9F0E09125021E9FF001A3
:104470001124E95DFD4F4081518162817381848106
:1044800095810E94881F8091250290E00196877097
:104490009927809325028091250290912602891305
:1044A000DACF2C960FB6F894DEBF0FBECDBFDF91EA
:1044B000CF911F91089569857A858B859C850E948F
:1044C000881F88CF08950C9462220E946322609313
:1044D000890270938A0280938B0290938C020C94D1
:1044E0003C1F08950C9465220F931F93009189023D
:1044F00010918A0220918B0230918C02602B712BDB
:10450000822B932B1F910F910C9465220F931F9375
:104510000091890210918A0220918B0230918C02C5
:1045200060237123822393231F910F910C946522A2
:104530000F931F930091890210918A0220918B02A0
:1045400030918C0260277127822793271F910F914A
:104550000C9465220C9462220C94AA220E94AC2234
:1045600060938502709386028093870290938802FD
:104570000C943C1F60E070E0CB010C94AE220F93D2
:104580001F9341E050E060E070E08A019B0104C0AD
:10459000000F111F221F331F8A95D2F7C901B801DE
:1045A0001F910F910C94AE220F931F9341E050E0A6
:1045B00060E070E004C0440F551F661F771F8A95A6
:1045C000D2F78091850290918602A0918702B091E6
:1045D00088028A019B01082B192B2A2B3B2BC9012E
:1045E000B8011F910F910C94AE220F931F9341E0DD
:1045F00050E060E070E004C0440F551F661F771F55
:104600008A95D2F7CB01BA01609570958095909507
:1046100000918502109186022091870230918802D4
:1046200060237123822393231F910F910C94AE2258
:104630000F931F9341E050E060E070E004C0440F2E
:10464000551F661F771F8A95D2F78091850290913A
:104650008602A0918702B09188028A019B010827F7
:1046600019272A273B27C901B8011F910F910C94E4
:10467000AE220F931F930091850210918602209124
:10468000870230918802602B712B822B932B1F9114
:104690000F910C94AE220F931F93009185021091FD
:1046A0008602209187023091880260237123822341
:1046B00093231F910F910C94AE220F931F9300919F
:1046C000850210918602209187023091880260272E
:1046D0007127822793271F910F910C94AE22089582
:1046E000E92FEE0FE90FEE0F8E0F982F977041E034
:1046F00001C0440F9A95EAF786958695869595E0D0
:10470000899FF0011124E35AFD4F30E020E070E072
:104710005191DF011197CB01022E02C0969587952A
:104720000A94E2F7817081958527842385278C93ED
:104730002F5F3F4F2530310559F70895E92FEE0FD0
:10474000E90FEE0F8E0F982F9770869586958695B8
:1047500025E0829FF0011124E35AFD4F50E040E034
:1047600080E0219130E0092E02C0369527950A9409
:10477000E2F721703327042E01C0220F0A94EAF7D2
:10478000822B4F5F5F4F4530510559F70895BF9217
:10479000CF92DF92EF92FF920F931F93CF93DF930D
:1047A0008C01C0908502D0908602E0908702F09044
:1047B00088028091890290918A02A0918B02B09127
:1047C0008C02C82AD92AEA2AFB2ACFE1D0E0BC2EE3
:1047D000D701C6010C2E04C0B695A795979587956D
:1047E0000A94D2F780FD0EC0219788F7B12C8B2D4B
:1047F000DF91CF911F910F91FF90EF90DF90CF90BD
:10480000BF900895B8018C2F0E94880A019761F328
:10481000EECFCF93DF93EC010E94C723BE01DF915F
:10482000CF910C94880A1F93CF93DF93EB01909163
:104830002402992331F0CB01DF91CF911F910C9489
:104840000924882379F0CB010E94C723182F682FF1
:10485000CE010E947023BE01812FDF91CF911F9165
:104860000C94880ACB010E949E23182FF4CF682F46
:1048700080911F01909120010C944326682F809114
:104880001F01909120010C94452680911F01909169
:1048900020010C94472680918D02859585958595FC
:1048A000089580918D028770089590918D02977080
:1048B00081E009F480E00895809199020895909133
:1048C0009902892B8093990208958095909199027D
:1048D00098239093990208951092990208959091C7
:1048E0009802892B80939802089580959091980260
:1048F0009823909398020895109298020895109228
:104900009702089580918E02089508950C9485244D
:1049100090918E02981721F080938E020C94862439
:10492000089580918E02882329F010928E0280E0F3
:104930000C9486240895E0911F01F091200180914C
:1049400099028083E0911F01F09120018081909174
:104950009802892B8083E0911F01F09120018081D2
:1049600090919702892B808390918E02992381F0F8
:10497000E0911F01F09120018081892B808380913B
:104980001F01909120010E94FB2581110E9491241A
:1049900080911F01909120010C94071B08950C94A5
:1049A000CE2498E0899F90011124622B60938D02A0
:1049B0000E94D42280918D028595859585950C94D1
:1049C000CF2410928D0280E00C94CF2490918D0220
:1049D0008095892380938D02282F277071F4282FCA
:1049E000082E000C330B9217130639F08595859528
:1049F00085950E94F5220C94E1240895CF92DF92D0
:104A0000EF92FF926C01EE24FF2420E0C114D10448
:104A1000E104F10419F0C701B60120E1C72ED82E38
:104A2000E92EFF24C114D104E104F10419F0285F38
:104A3000C701B6016B017C0154E0F694E794D7946A
:104A4000C7945A95D1F7C114D104E104F10419F0C7
:104A50002C5FC701B6016B017C0142E0F694E7943C
:104A6000D794C7944A95D1F7C114D104E104F10455
:104A700019F02E5FC701B6019695879577956795D2
:104A8000672B682B692B09F02F5F822FFF90EF9027
:104A9000DF90CF90089590E080E00E940A3121E0FD
:104AA0008C3E9E4F09F020E0822F089582E090E036
:104AB0000C94FC3083E090E00C94FC30682F83E091
:104AC00090E00C941031CF9384E090E00E94FC3091
:104AD000C82F81E290E00E94FC30982F8C2FCF915C
:104AE0000895CF93C92F682F84E090E00E94103181
:104AF0006C2F81E290E0CF910C941031AB01BC019E
:104B00008FE090E00C942231AB01BC0183E190E096
:104B10000C94223160E070E0CB010C94842560E0BD
:104B200070E0CB010E947E250C948A256CEE7EEF0E
:104B300090E080E00E942E3160E082E090E00E94F0
:104B4000103160E083E090E00E9410311092890201
:104B500010928A0210928B0210928C0260E084E024
:104B600090E00E94103160E081E290E00E941031FC
:104B700060E085E090E00E94103160E086E090E027
:104B80000E9410316FEF87E090E00E94103140E00A
:104B900050E0BA0188E090E00E94223160E08DE0B0
:104BA00090E00E94103140E050E0BA0188E190E0CE
:104BB0000E94223160E087E190E00E94103140E0E5
:104BC00050E0BA018CE190E00E94223160E080E286
:104BD00090E00E94103140E050E0BA0188E190E09E
:104BE0000E9422310C948F250C949625682F8EE01C
:104BF00090E00C9410319C012E5F3F4FAC01485F58
:104C00005F4F80E02417350709F40895F901919169
:104C10009F019923B9F38F5FF5CF662349F0FC011B
:104C2000329608962191261729F0E817F907D1F74F
:104C300080E0089581E008959C01FC0132969FEF89
:104C400080E04191461751F09F3F19F4411101C096
:104C5000982F8F5F8630A9F79F3F09F40895290F99
:104C6000311D97FD3A95F90162830895FC01329652
:104C700008962191261303C0DF0111971C92E817B3
:104C8000F907B9F708950C941C260C943626029661
:104C900026E0FC0111922A95E9F7089508950895F8
:104CA0000C944F260E94502680912605843049F1AD
:104CB00010929B0288E190E020E40FB6F894A8954A
:104CC000809360000FBE2093600080E00E946C0A19
:104CD0000E94502683B7817F846083BF83B7816041
:104CE00083BF7894889583B78E7F83BF0FB6F8947F
:104CF000A8958091600088618093600010926000A8
:104D00000FBE08950895CF930E944E260E94F30C83
:104D10000E948226C0E08C2F0E94620C811105C087
:104D2000CF5FCA30C1F7CF91089581E0FCCF0895DD
:104D30000C9497260E94521F0E94EE1A0E946C0A41
:104D40000C9498261F921FB61F9211248F939F9345
:104D5000AF93BF9380919B02811113C080911C057A
:104D600090911D05A0911E05B0911F054196A11DB2
:104D7000B11D80931C0590931D05A0931E05B09353
:104D80001F05BF91AF919F918F911F901FBE1F90E4
:104D9000189582E084BD93E095BD9AEF97BD80930E
:104DA0006E0008952FB7F89480911C0590911D0511
:104DB000A0911E05B0911F052FBF08952FB7F8943D
:104DC00060911C0570911D0580911E0590911F0535
:104DD0002FBF08959C014FB7F89480911C059091C6
:104DE0001D05A0911E05B0911F054FBF821B930B9F
:104DF000089578941F921FB61F9211248F939F934A
:104E0000AF93BF9380911C0590911D05A0911E0545
:104E1000B0911F050196A11DB11D80931C059093B3
:104E20001D05A0931E05B0931F05BF91AF919F91E3
:104E30008F911F901FBE1F90189581E08093E00016
:104E400080E28093D8001092C9008FE19EE4019720
:104E5000F1F700C0000087E090EBDC0180932F05A4
:104E600090933005A0933105B093320588E19CE022
:104E70000FB6F894A895809360000FBE90936000E1
:104E8000FFCF0E944B25811102C00E94F4250E9491
:104E9000562580939A020E94632590932105809362
:104EA00020050E945A25682F70E090E080E00E9463
:104EB00072226091850270918602809187029091A2
:104EC00088020C94AC228091A20280FF12C06091F3
:104ED000260185E0689FB001112475956795759549
:104EE000679560387105A8F561157105A1F1862FE8
:104EF000089581FF09C06091260185E0689FB00197
:104F0000112475956795EDCF6091260182FD0AC049
:104F10008091A1028823D1F0909125016091260112
:104F2000891728F085E0689FB0011124DACF869FA9
:104F3000B001112485E0869F9001879F300D1124D8
:104F4000692F70E0C9010E94CC30CBCF65E070E0E2
:104F5000CECF8FE7089581E008958091A20280FF6F
:104F60000CC06091220170E0759567957595679505
:104F70006115710549F1862F089581FF06C0609182
:104F8000220170E075956795F3CF6091220182FD53
:104F90000BC09091A0029923A1F060912101809112
:104FA0002201961738F0682F70E06038710500F321
:104FB0008FE70895899FC001112470E00E94CC30D2
:104FC000F4CF61E070E0D7CF81E00895803F31F405
:104FD0000E94632781958093A6020895813F19F46A
:104FE0000E946327F8CF823F31F40E9463278195A6
:104FF0008093A5020895833F19F40E946327F8CF98
:10500000893F29F40E94AD278093A70208958A3F23
:1050100021F40E94AD278195F7CF8B3F31F40E9498
:10502000AD2781958093A80208958C3F19F40E94C2
:10503000AD27F8CF843F31F48091A4028160809342
:10504000A4020895853F21F48091A4028260F7CFE5
:10505000863F21F48091A4028460F1CF873F21F440
:105060008091A4028860EBCF883F21F48091A40254
:105070008061E5CF8D3F31F48091A2028160809301
:10508000A20208958E3F21F48091A2028260F7CFA0
:105090008F3FB9F78091A2028460F1CF9091A50271
:1050A000803F59F48091A60287FF0DC01092A6029E
:1050B00091110BC01092A10208C0813F81F4809130
:1050C000A60218169CF3992381F08091A702909173
:1050D000A802892B09F064C01092A0020895823FB3
:1050E00049F497FFF0CF1092A5028091A60281119A
:1050F000ECCFE0CF833F19F41916ACF3E4CF209145
:10510000A702893F29F41216F4F61092A702DBCF0A
:105110008A3F19F427FFD7CFF8CF2091A8028B3F01
:1051200029F427FFD0CF1092A802CDCF8C3F19F4DD
:105130001216CCF3C8CF843F31F48091A4028E7F45
:105140008093A402C0CF853F21F48091A4028D7F7B
:10515000F7CF863F21F48091A4028B7FF1CF873F68
:1051600021F48091A402877FEBCF883F21F48091C6
:10517000A4028F7EE5CF8D3F31F48091A2028E7F15
:105180008093A202A0CF8E3F21F48091A2028D7F56
:10519000F7CF8F3F09F097CF8091A2028B7FF0CF9E
:1051A00008950E94D2269C019091A5028091A602AA
:1051B000982B21F030939F0220939E029091A7029A
:1051C0008091A802982B21F030939D0220939C029D
:1051D00083EA92E00C94121BEF92FF920F931F93BD
:1051E000CF93DF9300D000D000D0CDB7DEB786E0FC
:1051F000E3EAF2E0DE01119601900D928A95E1F763
:10520000E090A502F090A6020091A7021091A802DA
:105210001092A5021092A6021092A7021092A80264
:105220008E2D8F2991F080919E0290919F020E9475
:10523000EA26AC019091A102992309F43FC0809124
:1052400027018417150608F447C0802F812B91F0A1
:1052500080919C0290919D020E94EA26AC0190915F
:10526000A002992309F477C08091230184171506C1
:1052700008F47FC08091A5029091A602892B90919D
:10528000A702892B9091A802892B11F00E94D128A6
:1052900086E0FE013196A3EAB2E001900D928A9574
:1052A000E1F726960FB6F894DEBF0FBECDBFDF91B3
:1052B000CF911F910F91FF90EF90089520912801B9
:1052C0008AE0289F900111242417350708F0BDCFEC
:1052D0009F5F9093A10202C09F3FD1F7EE2059F04B
:1052E0000E9463279FEF1E140CF491E0899F802D8C
:1052F00011248093A502FF2059F00E9463279FEF9D
:105300001F140CF491E0899F802D11248093A60234
:105310003091A502332309F498CF2091A6022223CD
:1053200009F493CF45EB3403C0011124992359F0BC
:105330009093A50245EB240390011124332339F007
:105340003093A60282CF81E08093A502F3CF81E063
:105350008093A6027ACF209124018AE0289F9001B1
:1053600011242417350708F085CF9F5F9093A00282
:1053700002C09F3FD1F7002359F00E94AD279FEF55
:1053800010160CF491E0899F802D11248093A702C0
:10539000112359F00E94AD279FEF11160CF491E0F4
:1053A000899F802D11248093A8023091A702332376
:1053B00009F460CF2091A802222309F45BCF45EBCA
:1053C0003403C0011124992359F09093A70245EBAF
:1053D000240390011124332339F03093A8024ACFDB
:1053E00081E08093A702F3CF81E08093A80242CFAF
:1053F00086E0E3EAF2E0DF011D928A95E9F7109278
:10540000A1021092A0021092A20208958091B1020E
:105410000895CF93DF9300D00F92CDB7DEB7909170
:105420002605943019F589837B836A8382E0809313
:10543000E9008FEF9091E800815095FD06C095ED51
:105440009A95F1F700008111F5CF8091E80085FF72
:105450000DC050E040E063E070E0CE0101960E9494
:105460001B2C8091E8008E778093E8000F900F90BE
:105470000F90DF91CF910895BC0184E00C94092A2C
:10548000BC0183E00C94092A9C0182E08093E9002E
:105490009FEF8091E800915085FD06C085ED8A95CB
:1054A000F1F700009111F5CF8091E80085FF0CC065
:1054B00050E040E066E070E0C9010E941B2C809142
:1054C000E8008E778093E8000895CF93DF93EC0196
:1054D00081E08093E9008FEF9091E800815095FD85
:1054E00006C095ED9A95F1F700008111F5CF8091F6
:1054F000E80085FF14C050E040E068E070E0CE01B5
:105500000E941B2C8091E8008E778093E80088E051
:10551000FE01A9EAB2E001900D928A95E1F7DF91D0
:10552000CF91089580912505811109C00E94AB2D6E
:105530000E94082E8091E20084608093E20008952A
:10554000109225050895089508950C949A2642E036
:1055500061EC81E00E94272D42E261EC82E00C9434
:10556000272D80912805833009F45FC030F4813005
:10557000C1F1823009F49BC008958A3009F487C0D4
:105580008B3009F46DC0893009F04EC08091270539
:10559000813209F049C080912B0590912C0502972A
:1055A00008F042C08091E800877F8093E8008091F6
:1055B000E80082FF35C09091F3008091F2000297DD
:1055C00029F48091F1008B7F813021F48091F100EA
:1055D0008093B1028091E8008B778093E8000C946F
:1055E0005B2D80912705813AF9F48091E800877F4F
:1055F0008093E80080912B0590912C05892B61F414
:1056000068E089EA92E070E00E946A2C8091E800EC
:105610008B778093E800089560E090E080E0F3CF1E
:10562000809126058111C3CF089580912705813A85
:10563000D9F780912B0590912C05892BA9F78091A2
:10564000E800877F8093E8008091E80080FFFCCF2E
:10565000809133018093F1008091E8008E77BDCF77
:1056600080912705813201F780912B0590912C05BF
:10567000892BD1F68091E800877F8093E8000E9413
:105680005B2D80912905809333010C94521F8091EA
:105690002705813249F68091E800877F8093E800F2
:1056A0000E945B2D80912A058093B202089580911B
:1056B0002705813A09F0B8CF8091E800877F809371
:1056C000E8008091E80080FFFCCF8091B202C2CF59
:1056D00084B7877F84BF0FB6F894A8958091600047
:1056E000886180936000109260000FBE80E890E0B7
:1056F0000FB6F89480936100909361000FBE0E94F2
:105700005A1B0E94AB2D0E94082E8091E2008460FB
:105710008093E20078940E9491300E94641B89E299
:1057200091E00E94E91A80912605853039F00E94A7
:10573000731B0E94621B0E94631BF5CF0E945226BE
:1057400080912405882379F30E948326882359F3C6
:105750000E94052CE8CF0C94AD2B292F3327233042
:10576000310519F168F42130310509F444C02230C3
:10577000310509F445C090E080E030E020E025C02C
:105780002132310549F122323105A9F780E490E058
:1057900023E43EE061157105C1F081E890E022EC60
:1057A0003DE06130710589F0E6CF992781309105A0
:1057B00081F0009729F00297F1F6E7E4FDE002C0DE
:1057C000E1E7FDE0849190E09F01FA0131832083BD
:1057D0000895E5E5FDE0F6CF89E090E027E83DE0BB
:1057E0006115710591F389E090E020EA3DE06130B8
:1057F000710559F3C0CF82E190E020EB3DE0E5CFA9
:105800008BE390E025E73DE0E0CF80E189BD82E1D8
:1058100089BD09B400FEFDCF8091D8008F7D8093B3
:10582000D8008091E00082608093E0008091E000E9
:1058300081FDFCCF0895AF92BF92CF92DF92FF928D
:105840000F931F93CF93DF936C01EB018A010E94AA
:105850007A2DF82E811123C00115110539F0F801B8
:1058600080819181C81BD90BC80ED91EB12CA12CE7
:105870002097A9F08091E80085FD22C08091E80082
:105880008E778093E80001151105A1F0F801808161
:105890009181A80EB91EB182A08285E0F82E8F2DCD
:1058A000DF91CF911F910F91FF90DF90CF90BF902C
:1058B000AF9008950E947A2D8823D1F2F82EEFCF71
:1058C000F60181916F018093F1002197FFEFAF1AEC
:1058D000BF0ACECFFC0180912D0590912E05861731
:1058E0009707A0F06115710529F49091E8009E7763
:1058F0009093E80090E06115710551F4911108C092
:105900008091E80082FF34C080E00895BC01F2CFAE
:10591000809126058823C1F18530C1F18091E8008E
:1059200083FD30C08091E80082FDEACF8091E800DD
:1059300080FFE1CF8091F3002091F200382F6115B4
:10594000710519F02830310558F091E02830310503
:1059500009F090E02091E8002E772093E800CBCF6B
:1059600081918093F100615071092F5F3F4FE7CF24
:1059700080912605882341F0853041F08091E80030
:1059800083FFBECF81E0089582E0089583E008950B
:10599000FC0180912D0590912E0586179707A0F0A8
:1059A0006115710529F48091E8008E778093E800F5
:1059B00090E06115710551F4911108C08091E800E3
:1059C00082FF35C080E00895BC01F2CF80912605AA
:1059D0008823C9F18530C9F18091E80083FD31C089
:1059E0008091E80082FDEACF8091E80080FFE1CF5E
:1059F0008091F3002091F200382F6115710519F0A4
:105A00002830310558F091E02830310509F090E058
:105A10008091E8008E778093E800CBCF84918093CB
:105A2000F1003196615071092F5F3F4FE6CF8091B1
:105A30002605882341F0853041F08091E80083FFFE
:105A4000BDCF81E0089582E0089583E00895982F06
:105A5000973028F08F708093E90081E0089590934B
:105A6000E900242F762F50E0981731F07091EC0068
:105A70002091ED005091F00021FD02C09F5FE8CF22
:105A80003091EB003E7F3093EB003091ED003D7F95
:105A90003093ED003091EB0031603093EB00709368
:105AA000EC002093ED005093F0002091EE0027FDD4
:105AB000E5CF80E008958091270587FF13C080918E
:105AC000E80082FF06C08091E8008B778093E800B1
:105AD00004C0809126058111F2CF0895809126059A
