:100000000C947A070C94C1070C94C1070C94541AF1
:100010000C94C1070C94C1070C94C1070C94C10740
:100020000C94C1070C94C1070C94322F0C9404302B
:100030000C949A270C94C1070C94C1070C94C10727
:100040000C94C1070C94C1070C94C1070C94C10710
:100050000C94C1070C94F3270C94C1070C94C107AE
:100060000C94C1070C94C1070C94C1070C94C107F0
:100070000C94C1070C94C1070C94C1070C94C107E0
:100080000C94C1070C94C1070C94C1070C94C107D0
:100090000C94C1070C94C1070C94C1070C94C107C0
:1000A0000C94C1070C94C1070C94C107F711FA1105
:1000B000FF1106120B12101215121A121F1224121F
:1000C00029122E1231123112311231123112311223
:1000D00031123112BA1DBA1DEC1DEC1D391E571E0E
:1000E000701F701F621EFB1E0C1F0C1F10201020A3
:1000F000222022201920222022202220102010201D
:100100001E20222022201E207130983090319830FD
:100110009031E430073190315E316D3100000000E4
:1001200000000000000000000000000000000000CF
:1001300000000000000000000000000000000000BF
:1001400000000000000000000000000000000000AF
:10015000000000000000000000000000000000009F
:10016000000000000000000000000000000000008F
:10017000000000000000000000000000000000007F
:10018000000000000000000000000000000000006F
:10019000000000000000000000000000000000005F
:1001A00000000000000000000000000000808080CF
:1001B000C0C0E060703038180C0C1E0C80000000CD
:1001C000000000000080C0E0F0381C0E07000000B6
:1001D000000000000000008080800000000000009F
:1001E000000000000000000000000000000000808F
:1001F000808080808080000080400000000000003F
:1002000000000000808080000000008080C0C0608E
:10021000603010000000000000000000000000003E
:10022000001030307078787C7C7E3E3F3F3B3B391D
:1002300039383838383838383C38188FDFF87CBED1
:10024000DFF7FBFDFEEF733B1B1FEFF7FF7E6F6FCA
:100250006F6F6DBDE1F93F3F3979797DEDEDCDC728
:10026000C787C7E3E0F87E3F37333B1B19190DED15
:10027000FFBFC7E7E3F07CDEE7FB3E3FFCE0F83E74
:10028000CFF3FC3F1F1F3C7E76F3E38101000000AB
:10029000000000000000000000000000000000005E
:1002A000000000000000000000000000000000004E
:1002B0000000000000002030181E0F0301000000A5
:1002C0000103030100000000000000000000000026
:1002D0000000000307000000000000000000000113
:1002E000E1793E1F0701000000000000000001014D
:1002F00001000001010100000000000000000000FA
:1003000000010000000000000000000101030206DF
:1003100004081810302060000000000000000000F9
:1003200000000000000000000000000000000000CD
:1003300000000002000000000000000000000000BB
:1003400000000000000000000000000000000000AD
:10035000000000000000000000000000000000019C
:10036000000000000000000000000000000000008D
:10037000000000000000000000000000000000007D
:10038000000000000000000000000000000000006D
:10039000000000000000000000000000000000005D
:1003A000000000000000000000000000000000004D
:1003B000000000000000000000000000000000003D
:1003C000000000000000000000000000000000002D
:1003D000000000000000000000000000000000001D
:1003E000000000000000000000000000000000000D
:1003F00000000000000000000000000000000000FD
:1004000000000000000000000000000000000000EC
:1004100000000000000000000000000000000000DC
:1004200000000000000000000000000000000000CC
:1004300000000000000000000000000000000000BC
:1004400000000000000000000000000000000000AC
:10045000000000000000000000000000000000009C
:10046000000000000000000000000000000000008C
:10047000000000000000000000000000000000007C
:10048000000000000000000000000000000000006C
:10049000000000000000000000000000000000005C
:1004A000000000000000000000000000000000004C
:1004B000000000000000000000000000000000003C
:1004C000000000000000000000000000000000002C
:1004D000000000000000000000000000000000001C
:1004E000000000000000000000000000000000000C
:1004F00000000000000000000000000000000000FC
:1005000000000000000000000000000000000000EB
:100510000000000000000000000000004350534CA9
:100520004B000A0A00556E6465660041646A0A0061
:100530004C6F776572005261697365004261736543
:100540000A004C41594552000A0A00556E6465661E
:1005500000517772740057494E004D414300004DE1
:100560004F4445000A0A0035001E001F00200021EC
:100570000022002B0014001A000800150017003993
:100580000004001600070009000A00E1001D001B1E
:1005900000060019000500E000E300E2002A5D2CDF
:1005A00000A8002D00270026002500240023002A93
:1005B00000130012000C0018001C00340033000F60
:1005C000000E000D000B00E500380037003600106B
:1005D000001100E4006500E6002B5D2800C35C000C
:1005E000000000000000000000000001000000000A
:1005F00000000000000000010004011601000009D5
:1006000001000001001D011B010601190129000163
:100610000001000100010001000100000000004B8A
:10062000004A00490000004C0000004E004D004C04
:10063000001C0100004F005200510050000B01014E
:100640000031000000000000000000010001000176
:100650000001000100010000003A003B003C003DA9
:10066000003E0001001E021F0220022102220201A0
:1006700000010001004600470048000100010001A0
:10068000000100010029000100010001000100013A
:10069000000100440043004200410040003F00458B
:1006A0000027022602250224022302000030002F28
:1006B0000031022E002D00010030022F0235022EE3
:1006C000022D02010001000100010001000100CD26
:1006D0005CCC5CC75CC65CC95CC85C000000000008
:1006E000000000000000000000000000000000000A
:1006F000000000005C00000000000000000100019C
:100700000001000100010001000100C35C000000C5
:10071000000000CA5CCB5C0000000000000000008C
:1007200000000000000000A900AA00A800000001CD
:10073000000000AB00AE00AC0000000100010001B1
:10074000000100010001000B0A0908070605040367
:100750000201000001010101010101010102020287
:10076000020202020202030303030303030304045D
:100770000404040404050505050506060606060727
:100780000707070708080808090909090A0A0A0BE0
:100790000B0B0C0C0C0D0D0D0E0E0E0F0F0F101081
:1007A0001111111212131314141515161617171808
:1007B0001819191A1A1B1B1C1D1D1E1E1F20202173
:1007C0002222232424252626272829292A2B2C2DBA
:1007D0002D2E2F30313232333435363738393A3BDB
:1007E0003C3D3E3F404142434445464748494A4CD0
:1007F0004D4E4F50515354555658595A5B5D5E5F9C
:10080000616264656668696B6C6D6F707273757731
:10081000787A7B7D7E8082838587888A8C8E8F9193
:10082000939596989A9C9EA0A2A3A5A7A9ABADAFBD
:10083000B1B3B5B7BABCBEC0C2C4C6C9CBCDCFD1A7
:10084000D4D6D8DBDDDFE2E4E7E9EBEEF0F3F5F850
:10085000FAFDFF00AE00AF00DA0281FFD9F1DB2024
:10086000A4A62EAF00A0C000A1C800AED580A81FCE
:10087000D300408D1420000000000000003E5B4FBC
:100880005B3E003E6B4F6B3E001C3E7C3E1C0018E6
:100890003C7E3C18001C577D571C001C5E7F5E1C74
:1008A0000000183C180000FFE7C3E7FF0000182411
:1008B000180000FFE7DBE7FF0030483A060E00268D
:1008C0002979292600407F05050700407F05253F3F
:1008D000005A3CE73C5A007F3E1C1C0800081C1CC8
:1008E0003E7F0014227F2214005F5F005F5F0006DE
:1008F000097F017F00006689956A00606060606022
:100900000094A2FFA2940008047E04080010207E38
:1009100020100008082A1C0800081C2A0808001ECD
:1009200010101010000C1E0C1E0C0030383E383019
:1009300000060E3E0E060000000000000000005FF2
:10094000000000000700070000147F147F1400243B
:100950002A7F2A1200231308646200364956205069
:1009600000000807030000001C2241000000412293
:100970001C00002A1C7F1C2A0008083E08080000F2
:10098000807030000008080808080000006060005F
:10099000002010080402003E5149453E0000427FFD
:1009A0004000007249494946002141494D33001831
:1009B00014127F10002745454539003C4A4949310A
:1009C0000041211109070036494949360046494985
:1009D000291E000000140000000040340000000048
:1009E00008142241001414141414000041221408A5
:1009F000000201590906003E415D594E007C12116A
:100A0000127C007F49494936003E41414122007F26
:100A10004141413E007F49494941007F090909019F
:100A2000003E41415173007F0808087F0000417F6C
:100A30004100002040413F01007F08142241007F17
:100A400040404040007F021C027F007F0408107F6E
:100A5000003E4141413E007F09090906003E4151E7
:100A6000215E007F091929460026494949320003C1
:100A7000017F0103003F4040403F001F2040201FF6
:100A8000003F4038403F00631408146300030478BB
:100A90000403006159494D4300007F414141000278
:100AA0000408102000004141417F000402010204BB
:100AB000004040404040000003070800002054541C
:100AC0007840007F284444380038444444280038A3
:100AD0004444287F0038545454180000087E09020A
:100AE0000018A4A49C78007F080404780000447DCA
:100AF0004000002040403D00007F102844000000DE
:100B0000417F4000007C04780478007C080404786D
:100B100000384444443800FC1824241800182424C5
:100B200018FC007C080404080048545454240004B1
:100B3000043F4424003C4040207C001C2040201CFA
:100B4000003C4030403C004428102844004C909029
:100B5000907C004464544C4400000836410000007E
:100B60000077000000004136080000020102040284
:100B7000003C2623263C00000000000000404040CE
:100B8000F0F8F8FF38FFF8F83FF8F8FF38FFF8F80A
:100B9000F040404000000000000080C0C0C0800065
:100BA00000C0C08000000080C0C000C0C000008045
:100BB000C0C00000000000C0C0C0C0C000C0C00075
:100BC0000000000000000000000000000000000025
:100BD0000000000000000000000000000000000015
:100BE0000000000000000000000000000000000005
:100BF000000000000000C0F0F8FC3E1E06010000EE
:100C0000007F4141417F007F4141417F000080C022
:100C1000E07E5B4F5BFEC00000C000DCD7DEDEDEA6
:100C2000D7DC00C000000000000000000000000051
:100C300000000000000000000000000000494949D9
:100C4000FFFFFFFFE0DFBFBF00BFBFDFE0FFFFFF31
:100C5000FF49494900000000001F3F6060E0BF1FDE
:100C6000007F7F071E381E077F7F007F7F0E1F3BA0
:100C7000716000000000007F7F0C0C0C007E7E0085
:100C80007F7E0303007F7E03037E7E03037F7E005F
:100C90000F3E703C063C703E0F00327B49493F7E60
:100CA000007F7E0303001E3F69696F26000000007D
:100CB000000000000000030F1F3F3C787060000040
:100CC000007F4141417F007F4141417F00307B7F78
:100CD0007830202030787F3B0003000F7F0F0F0F0C
:100CE0007F0F000300000000000000000000000073
:100CF00000000000000000000000000000010101F1
:100D0000070F0F7F0F7F0F0F7E0F0F7F0F7F0F0FCC
:100D100007010101000000000000000000000101C7
:100D200000000000000000000000000000000000C3
:100D300000000000000000000000000000000000B3
:100D400000000000000000000000000000000000A3
:100D50000000000000000000000000000000000093
:100D60000000000000000000000000000000000083
:100D70000000000000000000000000000000000073
:100D80000000000000000000000000000000000063
:100D90000000000000000000000000000000000053
:100DA0000000000000000000000000000000000043
:100DB000000000000000000C0353006F0066006C90
:100DC00000650000001A034A006F007300650066AA
:100DD000004100640061006D00630069006B000069
:100DE000000403090409023B00020100A0FA0904FF
:100DF000000001030101000921110100012240004E
:100E00000705810308000A0904010001030000002E
:100E10000921110100012281000705820320000A37
:100E2000120110010000000832FC870201000102DB
:100E3000000105010902A10185020901A1000509BE
:100E400019012905150025019505750181029501F6
:100E5000750381010501093009311581257F95024E
:100E60007508810609381581257F95017508810669
:100E7000050C0A38021581257F950175088106C089
:100E8000C005010980A101850319012AB7001501D8
:100E900026B700950175108100C0050C0901A1015C
:100EA000850419012AA002150126A00295017510DA
:100EB0008100C005010906A101050719E029E71510
:100EC00000250195087501810295017508810105CC
:100ED00007190029FF150026FF00950675088100F7
:100EE00005081901290595057501910295017503FC
:100EF0009101C00011241FBECFEFDAE0DEBFCDBFED
:100F000004B603FE27C080912F0590913005A09173
:100F10003105B09132058730904BA740B04BD1F4EA
:100F200010922F0510923005109231051092320563
:100F300014BE84B7877F84BF0FB6F894A8958091BC
:100F40006000886180936000109260000FBEE0E056
:100F5000F8E3099511E0A0E0B1E0ECEBF4E602C0A3
:100F600005900D92A03CB107D9F725E0A0ECB1E0C7
:100F700001C01D92AF32B207E1F70E94722C0C94AF
:100F80005C320C940000CF93C82F0E94150E811183
:100F900002C08C2F01C083E0CF9108950E94150EEE
:100FA000882309F471C060E084E695E00E94CC14C7
:100FB00060E08FE595E00E94DE1460E08EE595E04C
:100FC0000E94DE148091210560E080FF03C08AE565
:100FD00095E002C086E595E00E94DE1460918902EA
:100FE00070918A0280918B0290918C020E94F3256D
:100FF00060E0811105C081E595E00E94DE1404C027
:101000008BE495E00E94CC1460E088E495E00E94B7
:10101000CC1460E082E495E00E94DE1460918502C9
:101020007091860280918702909188020E94F32538
:10103000813099F040F0823051F0833091F460E0DB
:101040008BE295E007C060E08CE395E003C060E0D0
:1010500086E395E00E94CC1409C060E080E395E04F
:10106000F9CF60E085E295E00E94DE1460E082E264
:1010700095E00E94CC140E94781B81FB662760F9E2
:101080008CE195E00C94DE1460E074E08CE191E07A
:101090000C94E314CF93FB018B322DE59207F1F111
:1010A000C0F48C37910509F4D5C048F48A3791050E
:1010B00009F400C18B37910509F4ECC010C18932E5
:1010C0002DE5920701F138F58D37910509F4D2C06D
:1010D00006C18E322DE5920709F465C040F48C32CA
:1010E0002DE5920779F18D329D45B1F1F8C080333D
:1010F0002DE5920709F48FC008F480C081339D4527
:1011000009F496C0ECC0C281CC2309F4E9C080E0A8
:101110000E94D309DAC0C28181E002C0C28182E0AC
:10112000CC2341F00E94D72343E062E081E00E949B
:101130003B0ACBC00E94F82343E062E081E00E94BA
:101140003B0ACEC0C28183E0CC2319F00E94D72392
:10115000BCC00E94F823C4C0928180912105C82F91
:10116000C170992381F080FF07C084E00E94630C66
:101170000E94721D80E565C081E00E94630C0E94A0
:10118000721D80E526C080FF07C084E00E94630CCA
:101190000E94791D80E5A0C081E00E94630C0E943E
:1011A000791D80E528C0928180912105C82FC170EA
:1011B000992391F080FF07C084E00E94630C0E9495
:1011C000721D8FE43EC081E00E94630C0E94721D7C
:1011D0008FE40E94D01C83C080FF07C084E00E947F
:1011E000630C0E94791D8FE477C081E00E94630C3C
:1011F0000E94791D8FE40E94261D71C0C2818091DA
:101200002105CC2321F080FDB7CF8AE41AC080FDF0
:10121000C3CF8AE4F0CFC28180912105CC2321F095
:1012200080FDD1CF8DE40DC080FDDFCF8DE4E3CF15
:10123000C28181E0CC2341F00E94630C0E94721DA8
:101240008AE20E94D01C4CC00E94630C0E94791D4F
:101250008AE2D1CFC28181E0CC2331F00E94630CBD
:101260000E94721D86E02FC00E94630C0E94791DAF
:1012700086E032C0C28181E0CC2331F00E94630C51
:101280000E94721D89E11FC00E94630C0E94791D9B
:1012900089E122C0C28181E0CC2331F00E94630C3D
:1012A0000E94721D8BE10FC00E94630C0E94791D89
:1012B0008BE112C0C28181E0CC2349F00E94630C13
:1012C0000E94721D8DE10E94D01CC0E009C00E94E6
:1012D000630C0E94791D8DE10E94261D01C0C1E0B2
:1012E0008C2FCF910895811106C0662311F089EAF1
:1012F00009C08AEA07C0813039F4662311F089EF0A
:1013000001C08AEF0C945A1D089581E008950C9451
:101310004A0808950C9489091F93CF93DF9300D056
:1013200000D01F92CDB7DEB749835A836B833091CB
:10133000240289819A81311114C0662359F0222335
:1013400049F00E94CE24182F682F89819A810E942B
:10135000752403C00E94A124182F69817A81812FEE
:1013600004C00E94CE2469817A810F900F900F9063
:101370000F900F90DF91CF911F910C94BA0AFC014E
:10138000262F408151816281738184810C948C0964
:10139000CF93DF93EC0160E00E94BF09BE01DF91B3
:1013A000CF910C948A09CF93DF9361E070E0EB0159
:1013B00002C0CC0FDD1F8A95E2F78C2F0E945626C3
:1013C000BE0180E090E0DF91CF910C9477238F9263
:1013D0009F92AF92BF92CF92DF92EF92FF920F93C4
:1013E0001F936B017C0181E090E0A0E0B0E04C0134
:1013F0005D0104C0880C991CAA1CBB1C4A95D2F73D
:10140000AC01BD0104C0440F551F661F771F2A950C
:10141000D2F7482959296A297B2904C0880F991FC6
:10142000AA1FBB1F0A95D2F78A019B010C211D211F
:101430002E213F21401751076207730739F4BC0181
:10144000CD016C297D298E299F290AC08095909510
:10145000A095B095BC01CD016C217D218E219F21ED
:101460001F910F91FF90EF90DF90CF90BF90AF90C2
:101470009F908F9008950F93382F262F60918502AB
:10148000709186028091870290918802042F432FE9
:101490000E94E7090F910C94B1230E944326811109
:1014A00002C00E94EF260C94B80C0C94B40C089562
:1014B0000E94FE1F0E94570A2FEF84E39CE02150F8
:1014C00080409040E1F700C000000C9419280F9371
:1014D0001F93CF93DF93EC0161E00E94BF098C0161
:1014E000BE010E948709882379F1BE01C8010E94CC
:1014F0000F17882349F1BE01C8010E946117882394
:1015000019F1BE01C8010E948C188823E9F0BE01C0
:10151000C8010E94E0118823B9F08A81882369F00C
:1015200001158CE5180731F00F3D1C4531F40E9480
:10153000EF260AC00E94580A07C0CE01DF91CF9162
:101540001F910F910C94850980E0DF91CF911F913D
:101550000F91089508950C94AA0A81E008950C94BF
:10156000AD0ACF93C82F0E94AB0A8C2F0E94AF0AFE
:10157000CF9108952CE3829FC0011124FC0126E045
:10158000729FE00DF11D1124E60FF11DEE0FFF1FFC
:10159000E959FA4F859194910895CF93DF930E9472
:1015A000BA0A0E94CF0BEC01811521E5920708F0E1
:1015B00043C0811540E5940708F08AC0883E910534
:1015C00020F5803E910508F0E6C0883A910570F458
:1015D000853A910508F074C08130910509F4DBC0AB
:1015E00008F4D7C0049708F0D6C0D3C08F3B91054C
:1015F00008F0CFC0C85AD0E0CC0FDD1FCC5CDE4F66
:101600000990D881C02DD464C6C0C11580E2D80726
:1016100058F4C11521E0D20708F0BDC0C03FD10584
:1016200008F4B7C0D065B7C0C11540E4D40708F4CA
:10163000B0C0DF70D06AAFC0C11585E5D807A0F48F
:10164000C11524E5D20708F08AC0C11543E5D407C7
:1016500008F06FC0C11582E5D80708F054C0DC2F30
:10166000CC27C16FD06A97C0C11529E5D207A0F475
:10167000C11548E5D40708F077C0C11586E5D8073D
:1016800008F087C08C2F0E94630C8F71C82FD0E0A8
:10169000DC2FCC27D0627FC0C1152AE5D20708F421
:1016A00068C0CE0190568115904208F072C08D2F0F
:1016B0008F710E94630CDD27D0628F71D82B6BC0B5
:1016C000C55AD0E0CE59DE4FC881D0E0D06463C0A7
:1016D00074E0969587957A95E1F783709C2F9370C7
:1016E00021E030E002C0220F331F9A95E2F73C68F8
:1016F000382BCF70C695C69580E2C89FE0011124B3
:10170000C22BD32B48C0CE018370992721E030E053
:1017100002C0220F331F8A95E2F78C2F869586959B
:1017200040E2849FC0011124E901C82BD92BDC6859
:1017300032C0CE018370992721E030E002C0220F31
:10174000331F8A95E2F78C2F8695869540E2849F19
:10175000C0011124E901C82BD92BDA681CC0DC2F89
:10176000CC27C46FD06A17C0DC2FCC27C06FD06ADB
:1017700012C08C2F8F700E94630C94E0D695C79591
:101780009A95E1F7CF70D0E0DC2FCC27D069C82B39
:1017900002C0C0E0D0E0CE01DF91CF910895823841
:1017A000910569F1B0F48133910509F46DC048F4F5
:1017B0008932910509F463C08A32910509F469C040
:1017C00008958533910509F455C089339105B9F021
:1017D0000895833E910569F138F4803E9105B1F09A
:1017E000823E910509F10895863E9105A9F1873E53
:1017F0009105B9F1843E910509F064C023C02091A0
:10180000200520FD4FC021FD4DC008958091200589
:1018100080FD44C08091210580FF44C08091200557
:1018200084FD42C083EE4DC08091200582FF38C008
:10183000F5CF8091200582FD33C08091210580FD88
:1018400031C0ECCF8091210581FF32C0809120050D
:1018500084FD2AC087EE35C08091200583FF26C015
:10186000F5CF8091200583FD21C08091210581FD68
:101870001FC0ECCF8091200585FD1CC01DC080914C
:10188000200585FD19C016C08091200586FD16C073
:1018900017C08091200586FD13C010C089E311C0D8
:1018A00082EE0FC080EE0DC080E00BC086EE09C056
:1018B00084EE07C089E205C085E303C08AE201C067
:1018C00081E390E008959091200592FF0DC0282FAC
:1018D0002871283019F4877F846006C0282F24716E
:1018E000243011F48B7F886093FF0DC0282F28715E
:1018F000283119F4877E846106C0282F2471243191
:1019000011F48B7E88612091210520FF0DC0382FB6
:101910003871383019F4877F816006C0382F3171F3
:10192000313011F48E7F886021FF0DC0282F28717F
:10193000283119F4877E816106C0282F2171213159
:1019400011F48E7E886194FD877E0895E82FF0E083
:10195000E354FD4F80810895089580EA8A95F1F758
:10196000089508950C94B10C0C94B20C0C94B10C25
:101970000C94B60CF894E82FE295EF70F0E031A1EA
:10198000282F2F7081E090E001C0880F2A95EAF798
:10199000982F9095932391A392A1892B82A3789459
:1019A000089508950F931F93CF93DF930E942B0EFA
:1019B0008091000180910001811102C095E001C079
:1019C00090E09093C80285E0891B8093C70286E669
:1019D0000E94BA0C87E90E94BA0C86EC0E94BA0CED
:1019E00084E30E94BA0C85E30E94BA0CC5E6D1E0FC
:1019F0000BE611E089910E94BA0C0C171D07D1F774
:101A0000E3EBF2E0ADEBB2E011921D9282E0ED3B30
:101A1000F807D1F785E00E94C90D0E944D0ADF91B9
:101A2000CF911F910F910C943F0E0E94150E8823A9
:101A300009F18091C70290E083549D4F0E946F0E80
:101A4000811114C08091C0018F5F8093C0018630E6
:101A500078F0E091C702F0E0E354FD4F80E090E0C1
:101A60001192019685309105D9F702C01092C001FC
:101A70000C94550A8091C80290E083549D4F0E94B7
:101A8000920E0C94D10C8F929F92AF92BF92CF92F4
:101A9000DF92EF92FF920F931F93CF93DF938BE62A
:101AA000A82E81E0B82EC3EBD2E090E7E92E91E0BA
:101AB000F92E912C01E010E06501F5018081F89488
:101AC000E82FE295EF70F0E021A18F70A80102C02D
:101AD000440F551F8A95E2F7CA01922F982B91A3C4
:101AE00092A18095892382A378940E94AD0CE5E6AB
:101AF000F1E020E030E0812C4191A42FA295AF705D
:101B0000B0E090968C9190E04F7002C095958795CB
:101B10004A95E2F780FD07C0802F022E01C0880F92
:101B20000A94EAF701C080E0882A2F5F3F4F2630F1
:101B3000310511F75FEFA51AB50AF60180810E9401
:101B4000BA0C8881881619F0888281E001C080E093
:101B5000982A2196EA14FB0409F0AECF6091C802DE
:101B600070E063547D4F292D45E083EB92E00E94A5
:101B7000CA0D0E94150D892DDF91CF911F910F91F4
:101B8000FF90EF90DF90CF90BF90AF909F908F909D
:101B900008950895FF920F931F93CF93DF938C01C5
:101BA000F62ED72FC42F222349F081E08093C30162
:101BB0000E94CC279093C2018093C1018091C30100
:101BC0008823C1F08091C1019091C2010E94E42755
:101BD000069780F0EF2DFD2FD8014C2F50E0CD015E
:101BE000801B910B841795071CF48D918193F7CF7F
:101BF0001092C301DF91CF911F910F91FF90089533
:101C000088EC9091E30097FD0EC0EFE3FCE931977B
:101C1000F1F700C000008150A1F70E94B72E10928A
:101C2000260580E0089581E008958091C401811126
:101C300009C00E94000E811102C082E001C081E053
:101C40008093C40181E09091C401913009F080E05B
:101C500008950C94150E0E94290E80930001809126
:101C600000016CE0882311F080E001C08CE00E944C
:101C70003F0F0E94150E81110C94460E08950E948C
:101C8000150E811102C00C944C0E089562E070E0B4
:101C900081E091E00C94021A62E070E081E091E052
:101CA0000C940B1A0E949A11882361F08DEC91E03C
:101CB0000E94A01181E090E00E94E41A892B11F4A7
:101CC0000C949D1108958091CC01883039F460E026
:101CD0008DEC91E00E94B3111092CC010895CF9346
:101CE000DF93D82FC92F0E94520E80E090E00E940F
:101CF000E41A892B99F4ED2FFC2F80E090E0DC01B1
:101D0000AA53BE4F2C912193019685309105B9F7C6
:101D10008BEC91E00E94361381E001C080E0DF91FE
:101D2000CF910895CF93DF93D82FC92F0E94630ED0
:101D3000ED2FFC2F80E090E02191DC01AA53BE4FF3
:101D40002C93019685309105B9F78BEC91E0DF91EA
:101D5000CF910C942D13EF92FF920F931F93CF937B
:101D6000DF938B01682F11110AC0442329F0E82F5B
:101D7000F0E0ED5AF84F6491762F862F75C0212F31
:101D800030E0E82FF0E0442321F0ED5AF84FE491E1
:101D9000F0E046E0049FC0011124CFEFD0E0BE0187
:101DA0000E94D0314BEA4603C001479F900D112499
:101DB000800F911D800F911D982F990F890FAE01F3
:101DC000421B530B4E9FD0014F9FB00D5E9FB00D35
:101DD00011249B2F189FA0011124452F55278E01F8
:101DE000041B150B0E9FA0010F9F500D1E9F500D41
:101DF00011247E01E81AF108E29E8001E39E100D95
:101E0000F29E100D1124212F3327C21BD30BCE9F1E
:101E10009001CF9F300DDE9F300D1124623071058F
:101E2000A9F048F46115710569F061307105C9F4D4
:101E30008B2F752F0DC06430710581F058F066301E
:101E4000710579F47E2F8B2F932F0DC0832F7B2F5D
:101E50009E2F09C08E2F7B2F952F05C08E2F732F9D
:101E600002C07E2F852F692FDF91CF911F910F9197
:101E7000FF90EF90089541E00E94AB0E0895E1E1DC
:101E8000F1E08083618308950E943B0F0895CF9312
:101E9000DF93762FE901682F842F0E94440F798306
:101EA00068838A83DF91CF9108958091C902982F2A
:101EB0009695913021F0817082608093C9020895D7
:101EC00088E090E00C941C32CF92DF92EF92FF9268
:101ED0006B017C010E94550FB701A60188E090E0DC
:101EE000FF90EF90DF90CF900C943A32E9ECF2E063
:101EF00083E0808311828FEF828383831482A6ED37
:101F0000B1E012968C911297836012968C93608147
:101F10007181828193810C94640F9091CD029330F2
:101F200018F49F5F9093CD02882351F06091C9020D
:101F30007091CA028091CB029091CC020C94640FF4
:101F4000089581E00C948D0F9091CD02992319F0A2
:101F500091509093CD02882351F06091C902709105
:101F6000CA028091CB029091CC020C94640F089528
:101F700081E00C94A40F70E00C943612CF92DF92A3
:101F8000EF920F931F93CF93DF93CDB7DEB7C85473
:101F9000D1090FB6F894DEBF0FBECDBF609112011C
:101FA0008091C90280FF0AC0E7E4F7E0AE014F5F0D
:101FB0005F4F8E01075B1F4FCA0114C08091130150
:101FC00090911401891780F7E82FF0E09F01220F0C
:101FD000331FE20FF31FE253FD4F11821082128272
:101FE0008F5FF0CF249130E0D901AA0FBB1F2A0FD9
:101FF0003B1FD901A253BD4FCD90DD90EC90DA018B
:10200000CD92DD92ED92AD013196A017B10751F757
:1020100020911101B3E02B9F800D911D11240E948E
:10202000BB0FC85BDF4F0FB6F894DEBF0FBECDBF4E
:10203000DF91CF911F910F91EF90DF90CF90089596
:10204000E9ECF2E080818E7F808360817181828102
:1020500093810E94640FE6EDF1E0828181608283CA
:102060002FEF80E792E0215080409040E1F700C0E0
:1020700000000C94BE0FE9ECF2E080818E7F80833B
:10208000E6EDF1E08281816082832FEF80E792E0CC
:10209000215080409040E1F700C000000C94BE0F3A
:1020A0009091C90290FF16C09091130120911401E4
:1020B000921770F4E92FF0E0DF01AA0FBB1FEA0FBF
:1020C000FB1FE253FD4F8183608342839F5FF0CF0C
:1020D0000C94BE0F0895EF92FF920F931F93CF932E
:1020E000DF9300D01F92CDB7DEB79091C90290FF69
:1020F0003DC0E22E142F062FF82EE92FE695F0E0D2
:10210000EB58FE4F80818093D6019E7F923059F428
:102110009E012F5F3F4F8F2D0E94470F4B8169819A
:102120008A810E9450108091CA02F81208C08091E2
:10213000CB02081304C08091CC02181729F08091BB
:10214000D80182608093D801F092CA020093CB023A
:102150001093CC02EE2051F06091C9027091CA0236
:102160008091CB029091CC020E94640F0F900F904F
:102170000F90DF91CF911F910F91FF90EF900895F5
:10218000E9ECF2E09181282F4381628188E0890F98
:102190000C946B1081E00C94C010E9ECF2E091819A
:1021A000282F4381628188EF890F0C946B1081E0A6
:1021B0000C94CD10E9ECF2E0628121E1620F08F4A9
:1021C0006FEF282F438181810C946B1081E00C9478
:1021D000DA10E9ECF2E0628121E1621B08F460E0D0
:1021E000282F438181810C946B1081E00C94E910BD
:1021F000E9ECF2E0438121E1420F08F44FEF282F90
:10220000628181810C946B1081E00C94F810E9ECF0
:10221000F2E0438121E1421B08F440E0282F628173
:1022200081810C946B1081E00C94071120E00C94D8
:102230006B108091C90280FF1DC081708260809305
:10224000C9028091D80181608093D801662351F042
:102250006091C9027091CA028091CB029091CC0228
:102260000E94640F4091CC026091CB028091CA021F
:102270000C9416110895682F81E00C94191181E0D7
:102280000C943B11682F9091C90296958FEF890F9E
:1022900009F481E00C94191181E00C94421161E081
:1022A0000C941911E9ECF2E08081816080838695BD
:1022B0000C944F118091C90280FD0C9420100C9455
:1022C000521160E00C9419118091D501811131C037
:1022D0000E944326811104C00E94EF260E94760FBF
:1022E0000E94600F6093C9027093CA028093CB0270
:1022F0009093CC028091D80183608093D8016E7F47
:1023000061F40E94760F0E94600F6093C90270937F
:10231000CA028093CB029093CC020E94550F809109
:10232000C90280FF03C086950E94611181E08093FD
:10233000D50108958091D80108951092D80108958B
:1023400025E0E9ECF2E0DC0101900D922A95E1F73D
:102350002091D6013091D7014091D801FC0125830D
:102360003683478308951F93CF93DF93EC01162F95
:102370008F8180FF0FC0888180FF0AC08091C902D1
:1023800081608093C902888186950E94191102C0DC
:102390000E943B108F8181FF09C0212F4B816A81F0
:1023A0008981DF91CF911F910C946B10DF91CF91B8
:1023B0001F910895882311F0FA0101C0FB010994CF
:1023C0001F93CF93DF93FB01128111114AC0EC01DF
:1023D0000E944F258272FE01E35CFC45E431F10569
:1023E00020F4EA5AFF4F0C94F83111E03AC00E94F1
:1023F0005A1137C04CE451E16FE371E104C04FE37F
:1024000051E16CE471E10E94DA112BC047ED50E11B
:102410006AEC70E1F8CF4AEC50E167ED70E1F3CF80
:1024200045EF50E166EE70E1EECF46EE50E165EF2C
:1024300070E1E9CF43E151E164E071E1E4CF44E0D0
:1024400051E163E171E1DFCF48EB5FE061EA7FE0FA
:10245000DACF41EA5FE068EB7FE0D5CF81E00E9410
:102460004F11812FDF91CF911F910895539A2BB176
:10247000277F3BB138604FB7F894FC01CB01880F40
:10248000991F680F791F6E0F7F1FE617F70789F0F6
:10249000819198E03BB9000000C087FF2BB9880FFD
:1024A000000000C000C000C02BB900C09A9591F791
:1024B000ECCF4FBF8FE391E00197F1F700C0000030
:1024C00008950C94730980910001882309F447C092
:1024D00020911701A22FA295AF70B0E091963C9188
:1024E00091972F7081E090E0AC01022E01C0440F63
:1024F0000A94EAF7542F5095352391963C9391977F
:1025000092963C919297432B92964C93929740913E
:102510001601E42FE295EF70F0E031A14F70042E28
:1025200001C0880F0A94EAF7982F9095932391A3FE
:1025300092A1892B82A390968C9190E002C09595F0
:1025400087952A95E2F7817020A130E002C0359589
:1025500027954A95E2F720FD09C090E008C084EF76
:102560008093170185EF80931601B2CF92E0892BFB
:102570008093DE019091000181E098279093DA0129
:10258000891B8093D9010895CF93E091DE015E2FDE
:10259000550F550F20911701E22FE295EF70F0E0F3
:1025A00080A190E02F7002C0959587952A95E2F75B
:1025B0008170992740911601E42FE295EF70F0E0C9
:1025C00020A130E04F7002C0359527954A95E2F77B
:1025D000F901E170FF2720FF02C0E2E0F0E0E82B04
:1025E000F92BE52BE093DE01C091DA01EF70F0E00A
:1025F000E958FE4F90818091DD01890F8093DD01C4
:1026000082306CF0EC2F0C2E000CFF0BE552FE4FCD
:1026100080818F5F808360E08C2F0E9461128091A7
:10262000DD018F3F6CF4EC2F0C2E000CFF0BE552FC
:10263000FE4F80818150808361E08C2F0E94611267
:102640008091DD01082E000C990B62E070E00E9481
:10265000E4318093DD01CF910895E091DA01F0E05B
:10266000E552FE4F2081FC0120830895FF920F93D5
:102670001F93CF93DF93D091D9010D2F10E0055216
:102680001E4FFC01C081F8018081C81BFC2E1F1465
:1026900054F4FA94F80180818F5F808360E08D2F7D
:1026A0000E946112F4CF8C2FC7FD80E0C81BCC23A1
:1026B00051F0CF5FF80180818150808361E08D2FE0
:1026C0000E946112F4CFDF91CF911F910F91FF9083
:1026D0000895EF92FF920F931F93CF93DF93EC0136
:1026E0007B0164E670E088E70E94C3188C01EC0E61
:1026F000FD1ECE15DF0561F017FD0AC0FE018491B5
:1027000064E670E00E941A198C012196892B89F3E6
:102710000E949E19C801DF91CF911F910F91FF90E8
:10272000EF900895E6E1F3E080E092E0DF019C01A4
:102730001D9221503040E1F7F0931B05E0931A05FC
:102740008FEF9FEF90930B0280930A0208950E94EF
:10275000C3078093060280FD02C080E801C080E2CA
:10276000809305020E94BD186DE070E08AE698E053
:102770000E946913892B11F080E008958091060270
:1027800063E070E081FD03C087E698E002C084E664
:1027900098E00E946913892B79F76DE070E087E576
:1027A00098E00E946913892B39F70E94D827DC0131
:1027B000CB01805A9541AF4FBF4F80931605909340
:1027C0001705A0931805B09319050E94921381E094
:1027D00080930902809308021092070208952091C5
:1027E000050236E0839FC0011124629F800D911D78
:1027F0001124811522E0920714F080E090E08A5EB7
:102800009C4F90931B0580931A05089520911A05FB
:1028100030911B052051334040910502642F70E038
:10282000C9010E94D031481B463010F4240F311DDD
:10283000211582E0380710F020E030E02A5E3C4F9E
:1028400030931B0520931A050895CF93DF938A30A8
:1028500011F481E003C08D3029F480E0DF91CF9145
:102860000C949B14C62F682F80911A0590911B051C
:1028700026E0FC01AFEDB1E001900D922A95E1F761
:10288000603E30F026E0FC0111922A95E9F70AC07B
:10289000F6E06F9FB00111246958774F46E050E091
:1028A0000E94FE31C11135C0C0911A05D0911B059F
:1028B00046E050E0BE018FED91E00E940732892B87
:1028C000B1F1C651D3409E0185E0369527958A9592
:1028D000E1F781E090E0AC0102C0440F551F2A955A
:1028E000E2F720910A0230910B02242B352B25961A
:1028F00045E0D695C7954A95E1F702C0880F991F24
:10290000CA95E2F7822B932B90930B0280930A02D5
:102910000EC0E0911A05F0911B059F012A5F3F4F01
:102920002E173F0709F2808180958193F9CFDF91BF
:10293000CF910C940614CF93E82F20911A05309173
:102940001B052651334040910502642F70E0C901F8
:102950000E94D031481B842FEE2359F066E00E947C
:10296000C431C82FC150B0F060E080E20E9425144D
:10297000F9CFA901480F511D4115524018F080E0D0
:1029800020E030E0280F311D2A5E3C4F30931B05BC
:1029900020931A05CF9108951F93CF93DF93EC01F5
:1029A000162FFE018491882329F0612F0E9425149F
:1029B0002196F7CFDF91CF911F9108950E94CC14FB
:1029C00081E00C949B14EF92FF920F931F93CF938F
:1029D000DF9320911A0530911B0526513340A90140
:1029E000460F571F4130524020F060E072E0621BFA
:1029F000730BC0910A02D0910B02D901AA5EBC4FA1
:102A0000A901620F731F01E010E046175707E8F4B1
:102A1000FA01E21BF30BE80FF91FE491FC91EF17A9
:102A200081F0EC93FA01689414F8F695E795169402
:102A3000E1F7780102C0EE0CFF1CEA95E2F7CE291F
:102A4000DF294F5F5F4F1196E0CFD0930B02C09309
:102A50000A02DF91CF911F910F91FF90EF9008959F
:102A6000809109028823F9F00E94D827DC01CB016C
:102A7000805A9541AF4FBF4F80931605909317052D
:102A8000A0931805B09319058091080281110BC01D
:102A900062E070E085E598E00E946913892B19F4E3
:102AA00081E0809308028091080208956F927F92DE
:102AB0008F929F92AF92BF92CF92DF92EF92FF924E
:102AC0000F931F93CF93DF9380910902882309F41A
:102AD000DCC020910A0230910B022115310509F466
:102AE000D4C0809107028111D0C061E070E0082F4E
:102AF00010E03B01082E02C0660C771C0A94E2F736
:102B0000A90146215721452B11F48F5FF0CF9091F9
:102B10000602980165E0220F331F6A95E1F790FDE8
:102B200012C08295880F807680931A01220F232F7E
:102B3000221F330B319520931D01815E80931B0171
:102B400010921E0112C045E0369527954A95E1F78F
:102B5000220F220F220F20931A0110921D01295FCC
:102B600020931B0183E080931E0124E630E047E0C0
:102B700050E068E171E088E70E944A19892B09F06A
:102B800084C08091060280FD23C0A80195E0440F17
:102B9000551F9A95E1F74A5E5C4F04E610E020E28B
:102BA00030E060E488E70E947119892B09F06DC05C
:102BB0000E943015E301C095D09580910A02909152
:102BC0000B02C823D923D0930B02C0930A025DC025
:102BD00080E2E5EEF1E0DF011D928A95E9F785E0FC
:102BE000000F111F8A95E1F7ABE8B1E047E851E02B
:102BF000992493942D91EA018991AE01B801680F4F
:102C0000711D6A5E7C4F30E02B513E4FF90197E019
:102C10007F01E21AF30AA92C01C0AA0CEA94EAF790
:102C20007B01B12CE70189917E018A21892E8B18C5
:102C3000D82DD770CD2E0D2E000CDD08C82F01C069
:102C4000CC0FDA95EAF7D194C194D108D7E0CD2220
:102C5000DD2401C08695CA94EAF78C2BD0808D299B
:102C60008083B39488E0B812DDCF915031969F3FB6
:102C700079F6C1E0AF38BC0709F0BCCF04E610E03C
:102C800020E230E045EE51E08CCFDF91CF911F91F3
:102C90000F91FF90EF90DF90CF90BF90AF909F90FB
:102CA0008F907F906F900895809109029091080213
:102CB000882389F0992369F062E070E083E598E069
:102CC0000E946913892B19F08091080208951092CF
:102CD00008029091080281E0892708950F931F93BD
:102CE00080910902882329F160E080E00E94EF13BF
:102CF0000E94CE070E945615809108028823C9F0D1
:102D00000E94D827009116051091170520911805EB
:102D100030911905DC01CB01801B910BA20BB30B89
:102D20008F3F9F4FAF4FBF4720F41F910F910C94DF
:102D300054161F910F9108950F931F93CF93DF9314
:102D4000C42FD22FFC0182818823C9F040930E0248
:102D50000E94CC2790930D0280930C0280E28C0F8E
:102D6000883008F057C0C77081E001C0880FCA954D
:102D7000EAF7DF91CF911F910F910C94721D809112
:102D80000E02481330C080910C0290910D020E94F7
:102D9000E4278436910538F510E21D0FCD17B9F000
:102DA00080E28C0F883040F4C77081E001C0880F4A
:102DB000CA95EAF70E94791D183028F581E09D2F09
:102DC000977001C0880F9A95EAF70E94721D802FB4
:102DD0000E945A1D1830F0F4D77081E001C0880FAE
:102DE000DA95EAF70AC080E28C0F883098F4C77051
:102DF00081E001C0880FCA95EAF7DF91CF911F915A
:102E00000F910C94791D802FDF91CF911F910F911D
:102E10000C945A1DDF91CF911F910F9108950F933C
:102E20009C01CB01243F4CE5340731F188F4293D66
:102E3000FCE53F07D9F02A3D4CE5340779F1283D00
:102E40003C45A9F506E221EE41EE68ED7CE52BC09C
:102E5000263FFCE53F07E1F0A8F0273F3C4539F568
:102E600007E225EE46EE67EF7CE51DC007E225EEA2
:102E700045EE69ED7CE517C006E221EE40EE64EF19
:102E80007CE511C007E225EE44EE65EF7CE50BC062
:102E900006E221EE42EE66EF7CE505C008E221E0A5
:102EA00045EE6AED7CE50E949C1680E008C0FC01BE
:102EB0008281882319F010920E0201C081E00F91E7
:102EC0000895CF93DF93EC01FB018281882309F4FD
:102ED0001FC1C230FCE5DF0708F41BC1C6319CE509
:102EE000D90738F09E012B5F3C452930310508F0A9
:102EF00010C10E945B269093210580932005C0316C
:102F0000ECE5DE0709F4C3C008F041C0C8308CE529
:102F1000D80709F49AC0F0F4C430ECE5DE0709F4F0
:102F200087C068F4C2308CE5D80709F477C0C33095
:102F3000DC4509F0E3C080912005826076C0C63090
:102F4000ECE5DE0709F46EC008F07BC08091200537
:102F500088606BC0CC308CE5D80709F485C068F474
:102F6000CA30ECE5DE0709F474C008F079C00E94AD
:102F7000FE1F80912005806858C0CE308CE5D807B0
:102F800009F476C008F07FC0809120058BC0CC3F4B
:102F9000ECE5DE0709F44FC018F5C3318CE5D8071E
:102FA00009F47DC078F4C131ECE5DE0709F473C0A3
:102FB000C231DC4509F0A2C00E94FE1F80912005AD
:102FC0008F7733C0C5318CE5D80709F472C008F497
:102FD00086C0CB3FDC4509F091C0809121053EC001
:102FE000C115FDE5DF0709F45FC058F4CE3F9CE54D
:102FF000D90709F444C008F43FC0809121058260DC
:103000002DC0C230FDE5DF0709F475C008F45DC0CE
:10301000C330DD4509F072C080E06EC080912005AC
:10302000816003C08091200580618093200566C087
:103030008091200511C08091210582608093210537
:103040005DC0809120058062F0CF80912005806472
:10305000ECCF8091200588608460E7CF8160EECF5F
:10306000809120058E7FE1CF809120058D7FDDCF7F
:1030700080912005877FD9CF8091210518C080914C
:1030800021058D7FDBCF809120058F7ECECF809173
:1030900020058F7DCACF809120058F7BC6CF809180
:1030A0002005877F8B7FC1CF809121058D7F8E7F0B
:1030B000C5CF8091200582FB222720F991E092273D
:1030C00090FB82F990FB83F9B0CF80912105982F76
:1030D000909591708E7F892B90FB81F9AFCF0E94E4
:1030E000FE1F8091200587FB222720F991E092277F
:1030F00090FB87F99ACF81E00E94F126809120050C
:10310000909121050E946C260E94FE1F80E001C064
:1031100081E0DF91CF910895CF93DF9386319C4575
:1031200041F5EB010E944F25982F8A8120911F01C4
:1031300030912001882379F09A7A81E009F480E0C7
:1031400080930F02911102C069E201C065E3C901D9
:103150000E9438270AC080910F02811102C069E2E3
:1031600001C065E3C9010E943A270E94902580E0D2
:1031700001C081E0DF91CF9108951092B9008CE0F9
:103180008093B8000895EF92FF920F931F93CF930F
:10319000DF93182FEB011092BC0084EA8093BC00EF
:1031A0000E94CC277C018091BC0087FD0EC0CF3FE0
:1031B0008FEFD807C1F30E94CC278E199F098C1777
:1031C0009D0788F38EEF9FEF2EC08091B900887F16
:1031D000883041F08091B900887F803119F08FEFFD
:1031E0009FEF21C01093BB0084E88093BC000E9435
:1031F000CC278C018091BC0087FD0CC0CF3F8FEFA6
:10320000D807C1F30E94CC27801B910B8C179D0718
:1032100088F3D8CF8091B900887F883111F080344D
:10322000F1F680E090E0DF91CF911F910F91FF9038
:10323000EF9008950F931F93CF93DF93EB0180934B
:10324000BB0084E88093BC000E94CC278C01809155
:10325000BC0087FD0EC0CF3F8FEFD807C1F30E949F
:10326000CC27801B910B8C179D0788F38EEF9FEF67
:103270000CC02091B900287F81E090E0283211F441
:1032800080E090E0919581959109DF91CF911F9118
:103290000F910895CF92DF92EF92FF920F931F93B9
:1032A000CF93DF936B018A017901B9010E94C318A2
:1032B000E6010C0D1D1DC017D10761F424E9209310
:1032C000BC00DF91CF911F910F91FF90EF90DF90A5
:1032D000CF90089597FDF2CFB70189910E941A19F6
:1032E000EACFCF92DF92EF92FF920F931F93CF938B
:1032F000DF93C62F6A017901B8010E94C31897FDB8
:1033000011C0B8018C2F0E941A19E601EC0CFD1CAB
:10331000CE15DF0539F097FD05C0B80189910E94EF
:103320001A19F6CF24E92093BC00DF91CF911F91A9
:103330000F91FF90EF90DF90CF90089584E98093F4
:10334000BC0008958EE14A9B02C08150E1F74A9B80
:10335000FECF08955A9880E28A95F1F75A9A089517
:10336000FC012AE02A95F1F790E020E080E031E0CE
:10337000261779F040E14A95F1F7880F4A9B02C081
:103380008160932700C0000040E14A95F1F72F5F6C
:10339000EFCF20E12A95F1F729B100C0000030E11C
:1033A0003A95F1F722FB222720F992272081920FEC
:1033B00090830895EF92FF920F931F93CF93DF9323
:1033C0001F92CDB7DEB719828C017C01E60EF11C8D
:1033D0000E151F0559F00E94A21968E0CE01019652
:1033E0000E94B019F80181938F01F2CF81E0998199
:1033F000911180E00F90DF91CF911F910F91FF907D
:10340000EF9008959093120280931102609310023E
:10341000529A5A9A089590931202809311026093DF
:10342000100252985A9AEA9AE9E6F0E080818F7C7D
:1034300080830895615091E001C0990F6A95EAF781
:1034400020E031E0992361F0492F482319F05A9A7E
:10345000232701C05A9840E24A95F1F79695F2CF9A
:10346000222311F05A9A01C05A9880E28A95F1F706
:103470005A980895FF920F931F93CF93DF93EC0117
:103480008C01060F111DC017D10741F0F9900E9461
:10349000AA1968E08F2D0E941A1AF5CFDF91CF91FB
:1034A0001F910F91FF9008951F920F920FB60F92E8
:1034B00011240F931F932F933F934F935F936F9319
:1034C0007F938F939F93AF93BF93EF93FF93CF938C
:1034D000DF931F92CDB7DEB719820E94A21967E071
:1034E000CE0101960E94B019382F36953695369543
:1034F000932F96959570232F2570920F292F237067
:10350000969596958770920F891348C0898181118D
:1035100045C080911002831708F440C080E18A956D
:10352000F1F75A9A529AA2E0AA95F1F700C00091D9
:10353000110210911202B8E03B9F000D111D1124E1
:103540005A98F8016581662321F0868197810E944F
:103550003A1A0E94AA19F0E1FA95F1F75A9852988E
:103560005A9A80E18A95F1F7D80112966C911297D8
:10357000662369F013968D919C9114970E94DA1935
:10358000D801ED91FC91811105C082E004C0D80101
:10359000ED91FC9188E080830E94A2190F90DF9149
:1035A000CF91FF91EF91BF91AF919F918F917F91BB
:1035B0006F915F914F913F912F911F910F910F90BC
:1035C0000FBE0F901F9018950F931F93CF93DF930B
:1035D0002091100230E0281739070CF471C09C01CB
:1035E00093E0220F331F9A95E1F7C0911102D09119
:1035F0001202C20FD31FF894529A5A9845E04A9586
:10360000F1F70000982F969595708570890F982F87
:10361000937086958695890F8901082B0E94AA19B7
:1036200084E08A95F1F700C067E0802F0E941A1AA3
:1036300040E14A95F1F752985A9A4A9902C000C05F
:10364000FCCF87E090E04A9B0EC0019751F4529A5C
:103650005A9AE881F98181E08083789481E090E052
:1036600031C000C0F0CF6D81662381F08E819F81D3
:103670000E94DA1981110AC0529A5A9AE881F98196
:1036800082E08083789482E090E01CC00E94A219BE
:1036900080E28A95F1F75A98529A40E14A95F1F7FB
:1036A0006A81662321F08B819C810E943A1A0E94D4
:1036B000AA19E881F9811082789480E090E002C034
:1036C00084E090E0DF91CF911F910F910895909346
:1036D0001802809317020895E0911702F0911802E2
:1036E000309721F00190F081E02D099480E0089559
:1036F000E0911702F0911802309711F480E00895DC
:103700000190F081E02D09950895E0911702F09164
:103710001802309721F00280F381E02D099408957A
:10372000E0911702F0911802309739F022E0DC01A5
:103730002C930480F581E02D0994089520911502C1
:10374000309116022817390771F090931602809372
:103750001502E0911702F0911802309721F00680CF
:10376000F781E02D099408952091130230911402FD
:103770002817390771F09093140280931302E09197
:103780001702F0911802309721F00084F185E02DA6
:103790000994089585B7806885BF85B7806885BF1F
:1037A00008950C94150E08950C94D31B0C94D31B00
:1037B0000C94D61B0C94D31B0C94DA1B0C94D31BC7
:1037C0000E94CA1B0E94DE1B0C94DC1B0E94C327B4
:1037D0000E94D20C80E00E94A7130E943D280E9404
:1037E00064110E9463120C94D81B9F92AF92BF92F7
:1037F000CF92DF92EF92FF920F931F93CF93DF93BD
:10380000CDB7DEB72A970FB6F894DEBF0FBECDBF97
:103810000E94D41B0E94D31B0E94430DC82E0E94FD
:10382000D11B811111C08FEF89838A831B820E9473
:10383000CC278160782F9D838C8349815A816B814D
:103840008D810E949C1C40C08AE1A82E82E0B82E87
:1038500000E010E0902E802F0E94A60CE82EF501CB
:10386000D1905F01D82631F40F5F1F4F0A30110548
:1038700089F7D9CF80919A0281FD0E94AC0C80E03B
:10388000FF24F3949D2D9F21D1F08E839F82EF2002
:1038900081E009F480E088870E94CC278160782F3E
:1038A0009A8789874E815F8168858A850E949C1CE2
:1038B000F801E65EFD4F8081F826F08205C08F5F3B
:1038C000FF0C8630F9F6D0CF0E94C4120E946E160B
:1038D000C1100E9430150E94EC290E946C1B90912F
:1038E00019028917B9F00E946C1B809319022A965D
:1038F0000FB6F894DEBF0FBECDBFDF91CF911F9101
:103900000F91FF90EF90DF90CF90BF90AF909F907E
:103910000C94B10A2A960FB6F894DEBF0FBECDBF45
:10392000DF91CF911F910F91FF90EF90DF90CF909B
:10393000BF90AF909F900895CF93DF93CDB7DEB740
:103940002B970FB6F894DEBF0FBECDBF4F835887BD
:1039500069877A878B87DE01119686E0FD011192D7
:103960008A95E9F785E0FE01379601900D928A95D8
:10397000E1F749815A816B817C818D819E810E9412
:10398000B7222B960FB6F894DEBF0FBECDBFDF91E6
:10399000CF910895FC01808191810E9410250895A6
:1039A000CF93882309F450C0C82F8CEF8C0F813A35
:1039B000D0F46C2F80911F01909120010E9402276A
:1039C000882349F06C2F80911F01909120010E9463
:1039D0003A270E9490256C2F80911F019091200121
:1039E0000E9438270CC080E28C0F883058F4C770D2
:1039F00081E001C0880FCA95EAF70E945225CF9155
:103A00000C949025EBE5EC0FE33040F4F0E0E35448
:103A1000FE4F808190E0CF910C949E1BE8E5EC0F67
:103A2000E73150F4F0E0EE0FFF1FE157FE4F8081C9
:103A30009181CF910C94B41BC03F30F08C2F0E9429
:103A4000E128CF910C94CE29CF910895882389F154
:103A50009CEF980F913A40F4682F80911F0190914C
:103A600020010E943A270DC090E2980F983058F438
:103A7000877091E001C0990F8A95EAF7892F0E941B
:103A800058250C9490259BE5980F933020F480E006
:103A900090E00C949E1B98E5980F973120F480E0FD
:103AA00090E00C94B41B803F20F00E9449290C94B4
:103AB000CE290895CF93C82F0E94D01CC93341F45A
:103AC0002FEF87EE93E0215080409040E1F704C053
:103AD0008FE39CE90197F1F700C000008C2FCF9194
:103AE0000C94261D882321F00E9452250C949025C9
:103AF0000895882321F00E9458250C94902508955C
:103B0000CF92DF92EF92FF920F931F93CF93DF93A9
:103B10007C01D62FC72FFC01058102950F70128101
:103B200011110E946F250E944825882399F01123C6
:103B300089F08C2F807F803421F080E28D0F8830D7
:103B400048F082E00E94DA250E94482591E0D82EB4
:103B5000D92601C0D12CCC2EC2948FE0C8228C2D46
:103B600090E08C30910508F0BBC1FC01E659FF4F95
:103B70000C94F8318C2F807FCF70882311F0C29580
:103B8000C07F112399F0CC2309F491C180E28D0FFD
:103B9000883010F0D11104C08C2F0E94522503C030
:103BA0008C2F0E9462250E94902581C18D2F0E943A
:103BB000261DCC2309F494C180E28D0F883010F0CB
:103BC000D11104C08C2F0E94582503C08C2F0E9455
:103BD00068250E94902584C18C2F807FCF70803211
:103BE00011F0C295C07FDD2319F0D130C9F022C099
:103BF000112371F0002341F0013031F40E9475254A
:103C00008C2B0E947D256CC10E9475258C2B1DC0BC
:103C1000002319F0013009F463C10E94862525C0F4
:103C2000112321F0063008F05BC10EC0053008F00A
:103C300057C11BC0112361F0002331F0F7018581CA
:103C400080FF35C18F7085838C2F0E94721D48C103
:103C5000002359F0D93309F03AC1FFEF07EE13E022
:103C6000F15000401040E1F736C18C2F0E94791DC1
:103C700037C18C2F86958695837019F0813061F05D
:103C80002FC1112321F08D2F9C2F937002C080E053
:103C900090E00E949E1B2CC1112321F08D2F9C2FA0
:103CA000937002C080E090E00E94B41B21C18D2F70
:103CB000112319F00E94E12802C00E9449290E94A4
:103CC000CE2916C18C2F837009F047C011110CC189
:103CD0002D2F229526952770220F220F6D2F6F70A2
:103CE000862F90E0A0E0B0E0022E04C0880F991F5C
:103CF000AA1FBB1F0A94D2F7D4FF10C04FE050E0B8
:103D000060E070E004C0440F551F661F771F2A95BE
:103D1000D2F7409550956095709503C040E050E013
:103D2000BA01C695C695C3708A019B01082B192B51
:103D30002A2B3B2BC901B801C23049F058F4C130DD
:103D400019F00E948B23D0C00E947923CDC00E941D
:103D50009D23CAC00E947723C7C0112319F08C2F5E
:103D6000817001C08695882309F4BEC02D2F22954D
:103D700026952770220F220F6D2F6F70862F90E0EF
:103D8000A0E0B0E0022E04C0880F991FAA1FBB1F3D
:103D90000A94D2F7D4FF10C04FE050E060E070E02A
:103DA00004C0440F551F661F771F2A95D2F7409510
:103DB00050956095709503C040E050E0BA01C695FB
:103DC000C695C3708A019B01082B192B2A2B3B2B0C
:103DD000C901B801C23049F058F4C13019F00E944D
:103DE000502482C00E943E247FC00E9462247CC076
:103DF0000E94B12379C0CF70112339F08C2F0E941B
:103E0000D7238D2F0E94721D6FC08D2F0E94791DA8
:103E10008C2F0E94F82368C0D23F01F128F4D03FD4
:103E200041F0D13FA1F03FC0D33FF9F0D43F39F189
:103E30003AC0112341F0053008F052C08C2F8F7129
:103E40000E941D244DC0063008F04AC0F7CF112350
:103E500039F08C2F8F710E94D72342C01123C9F3F0
:103E60008C2F8F710E94F8233BC0112329F08C2FD7
:103E70008F710E94C22334C00E94BD2331C0112320
:103E800049F0CF718C2F0E94D72363E08C2F0E94C2
:103E9000C52526C081E00E94DA25023008F182E0C3
:103EA0000E94DA251DC0112331F0002391F28D2FDD
:103EB0000E94D01C15C0002399F2D93341F41FEFA2
:103EC00027EE33E0115020403040E1F704C08FE38B
:103ED0009CE90197F1F700C000008D2F0E94261D7C
:103EE00088EF8C0D843020F40E946C1B0E94B10A74
:103EF000DD20C9F00E94442580FD15C0F701128223
:103F00000E943E250E94D723C7010E94B41F0E9431
:103F10003E25DF91CF911F910F91FF90EF90DF90A1
:103F2000CF900C94F823DF91CF911F910F91FF90C8
:103F3000EF90DF90CF9008950F931F93CF93DF936F
:103F4000EC01688179818A810E941B258C010E9485
:103F500074240E946523B801CE010E94801DDF9168
:103F6000CF911F910F910895CF93DF93EC0198812A
:103F700089812B813C81232B31F08F3F31F481E00B
:103F80009F3F19F403C081E001C080E080FD19C0AB
:103F9000CE010E94670A81110CC00E944825882327
:103FA00081F08A81882369F082E0DF91CF910C94BF
:103FB000DA25CE010E949C1FCE01DF91CF910C9497
:103FC000C809DF91CF9108950E946F250E94722544
:103FD0000E9490250E94FF2A0E94CE2980E090E056
:103FE0000E949E1B80E090E00C94B41B80911F0106
:103FF000909120010E943C270C94E41F0E945F25B1
:104000000C94F61FE92FE295EF704E2F50E0FA0165
:104010003297EE30F105B0F4EA58FF4F0C94F831C6
:10402000803F91F018F4883E68F40EC0843F51F44C
:104030000BC0883E48F0813F29F406C093FB8827D7
:1040400080F9089580E0089581E008950E94102588
:104050000E9402200895CF93DF9300D000D01F92DA
:10406000CDB7DEB70F900F900F900F900F90DF91AC
:10407000CF910895CF93DF9300D000D000D0CDB77B
:10408000DEB726960FB6F894DEBF0FBECDBFDF9128
:10409000CF9108951F93CF93DF93C091250216E02F
:1040A00080912602C81799F0D0E01C9FF0011D9F57
:1040B000F00D1124E95DFD4F4081518162817381D2
:1040C000848195810E943A202196C770E9CFDF91C3
:1040D000CF911F91089540915702509158026091DD
:1040E000590270915A0280915B0290915C020C948B
:1040F0003A200F931F93CF93DF9380915C028295B8
:104100008F7009F05DC080915902882309F458C06E
:1041100080912502109126026091570270915802F9
:10412000C0915A02D0915B0291E06F3F09F090E09C
:10413000292F06E0811709F443C0209721F07F3F23
:1041400021F030E003C031E001C0322F90E030FDBB
:1041500034C0089FF001099FF00D1124DF01A95D13
:10416000BD4F11963C911197371327C03C913613E0
:1041700024C012963C91129731111FC013964D9195
:104180005C9114974C1B5D0B44365105B0F4809143
:104190005C028F70806180935C02E45DFD4F8081E2
:1041A0008F708061808387E592E00E94B41FDF9169
:1041B000CF911F910F910C944A2001968770BACF2E
:1041C000DF91CF911F910F9108959F92AF92BF926F
:1041D000CF92DF92EF92FF920F931F93CF93DF93D3
:1041E000CDB7DEB761970FB6F894DEBF0FBECDBF77
:1041F0008C0185E0F801DE011D9601900D928A95F3
:10420000E1F7F80140815181E2809091570260917D
:10421000580220915A0230915B022115310531F08C
:104220006F3F31F481E09F3F19F403C081E001C08A
:1042300080E0F82FF1709F2E80FD46C1F801A38029
:10424000B48087E5C82E82E0D82EF0905902F5019F
:10425000E21BF30BFF2009F4DFC080915C02E4361F
:10426000F10508F09BC0282F207F09F052C056139B
:1042700013C0491311C0FE2CE1100EC08F70806175
:1042800080935C020E946B20C6010E94B41F809143
:104290005C02F801858358C1AB2831F05F3F31F4EF
:1042A00081E04F3F19F403C081E001C080E080FD50
:1042B00003C081E08E2502C080E090E0F82FF1700D
:1042C000FF2E80FF1CC0809125022091260236E03F
:1042D000821709F417C190E0389FF001399FF00D63
:1042E0001124E95DFD4F6181561306C060814613BC
:1042F00003C06281E61203C001968770E9CFFE2CED
:10430000EE2009F421C180915C02816080935C02FF
:104310005AC0561306C0491304C0E11002C0F80188
:104320009FC04D875E878D859E850E9426208823AD
:1043300079F1EE2069F120915C02822F82958F70D5
:1043400090E0029774F080915702909158029887FC
:104350008F831986BB86AA862C87CE0107960E947A
:10436000B41F86E0F801A7E5B2E001900D928A95AE
:10437000E1F70E9479200E946B200DC0561729F1A9
:104380004D875E878D859E850E94262081112CC0D9
:10439000C8010E94B41FFF24F394D6C0282F207FA9
:1043A00069F77A2DB98AA88A6E2D89890E942B20F7
:1043B00087E592E00E94B41F86E0F60111928A958B
:1043C000E9F70E946B20F12CBFC04913D9CFE1104F
:1043D000D7CFF8018583C8010E94B41F86E0F6019B
:1043E00011928A95E9F7B0C0EE2091F220915C021B
:1043F000822F82958F7090E002970CF4B2CF80915B
:104400005702909158029A8389831B82BD82AC82A5
:104410002E83CE010196A3CFE436F10508F047C004
:10442000FE2CEE2009F4B4CF561330C049132EC031
:1044300020915C0220FD21C0822F82958F70482F31
:1044400050E041155105C9F0F80125834F30510561
:1044500041F08F5F982F9295907F822F8F70892BDC
:104460008583C8010E94B41F86E0F801A7E5B2E089
:1044700001900D928A95E1F742C086E0F801A7E528
:10448000B2E001900D928A95E1F75EC04D875E879C
:104490008D859E850E942620811163CF80915C02CC
:1044A000816080935C02C8010E94B41F4DC07A2DC8
:1044B000B98AA88A6E2D89890E942B2086E0F60190
:1044C00011928A95E9F71BC0EE2009F461CF4D8760
:1044D0005E878D859E850E942620F82E882309F40C
:1044E00057CF86E0F801A7E5B2E001900D928A95DA
:1044F000E1F787E592E00E94CA1C0E9479200E94A1
:104500006B2022C04D875E878D859E850E94102579
:10451000292F22952F70223028F49F7039F08111B5
:1045200005C00BC0243028F49F7049F4805E8830A9
:1045300020F0C8010E94B41F9F2CF92C05C0F8017F
:104540009581907F99F7F9CF8F2D61960FB6F894EA
:10455000DEBF0FBECDBFDF91CF911F910F91FF90B6
:10456000EF90DF90CF90BF90AF909F9008951F93F2
:10457000CF93DF93CDB7DEB72C970FB6F894DEBF9D
:104580000FBECDBF4F83588769877A878B879C87FB
:10459000CE0107960E94E5208823D1F09F8188856F
:1045A0002A853B85232B31F08F3F31F481E09F3FFB
:1045B00019F403C081E001C080E080FD47C04F8155
:1045C000588569857A858B859C850E943A203EC0F6
:1045D00086E0FE013796DE01119601900D928A95D4
:1045E000E1F7FF81E8856A857B856115710531F00A
:1045F000EF3F31F481E0FF3F19F403C081E001C0D7
:1046000080E080FD23C02091260230E0C9010196A0
:10461000877099274091250250E084179507F1F1A2
:10462000F983EA837D836C8396E0929FD001939F08
:10463000B00D1124A95DBD4FFE01319601900D9280
:104640009A95E1F7809326020E944A2016E0809115
:10465000250290912602891771F1189FC00111243B
:10466000895D9D4F0E94E520882329F1E091250274
:104670001E9FF0011124E95DFD4F4081518162814F
:104680007381848195810E943A208091250290E077
:1046900001968770992780932502D9CF0E94FE1F2B
:1046A0001092260210922502E7E5F2E086E0DF0193
:1046B0001D928A95E9F72C960FB6F894DEBF0FBECF
:1046C000CDBFDF91CF911F910895089508950C9467
:1046D00066230C9467230E94692360938902709378
:1046E0008A0280938B0290938C020C94E41F0C94AA
:1046F0006B230F931F930091890210918A022091DE
:104700008B0230918C02602B712B822B932B1F918B
:104710000F910C946B230F931F93009189021091BA
:104720008A0220918B0230918C02602371238223B4
:1047300093231F910F910C946B230F931F93009160
:10474000890210918A0220918B0230918C0260279D
:104750007127822793271F910F910C946B230C9440
:1047600066230E94AF236093850270938602809334
:104770008702909388020C94E41F60E070E0CB0104
:104780000C94B1230F931F9341E050E060E070E080
:104790008A019B0104C0000F111F221F331F8A953D
:1047A000D2F7C901B8011F910F910C94B1230F9357
:1047B0001F9341E050E060E070E004C0440F551FDB
:1047C000661F771F8A95D2F78091850290918602A5
:1047D000A0918702B09188028A019B01082B192BB6
:1047E0002A2B3B2BC901B8011F910F910C94B123C7
:1047F0000F931F9341E050E060E070E004C0440F6D
:10480000551F661F771F8A95D2F740955095609582
:1048100070958091850290918602A0918702B09157
:1048200088028A019B01082319232A233B23C901FB
:10483000B8011F910F910C94B1230F931F9341E086
:1048400050E060E070E004C0440F551F661F771F02
:104850008A95D2F78091850290918602A091870275
:10486000B09188028A019B01082719272A273B2734
:10487000C901B8011F910F910C94B1230F931F939D
:104880000091850210918602209187023091880262
:10489000602B712B822B932B1F910F910C94B123C2
:1048A0000F931F9300918502109186022091870239
:1048B0003091880260237123822393231F910F91EB
:1048C0000C94B1230F931F930091850210918602DF
:1048D00020918702309188026027712782279327D1
:1048E0001F910F910C94B1230895292F220F920F3D
:1048F000990F890FE82FE695E695E695877051E0C8
:1049000001C0550F8A95EAF785E0E89FF001112470
:10491000E35AFD4F20E030E070E04081CB01022EF1
:1049200002C0969587950A94E2F781708195842755
:104930008523842781932F5F3F4F2530310569F709
:104940000895292F220F920F990F890F682F6695CE
:1049500066956695982F977085E0689FB001112441
:1049600040E050E080E0FB01E40FF51FE35AFD4F0B
:10497000208130E0092E02C0369527950A94E2F78F
:1049800021703327042E01C0220F0A94EAF7822BEC
:104990004F5F5F4F4530510531F70895BF92CF9279
:1049A000DF92EF92FF920F931F93CF93DF938C01CF
:1049B000C0908502D0908602E0908702F090880235
:1049C0008091890290918A02A0918B02B0918C0211
:1049D000C82AD92AEA2AFB2ACFE1D0E0D701C601AA
:1049E0000C2E04C0B695A795979587950A94D2F793
:1049F00080FD04C0219790F7B12C07C0BC2EB801F0
:104A00008C2F0E94CD0A0197A9F38B2DDF91CF91B6
:104A10001F910F91FF90EF90DF90CF90BF9008957E
:104A2000CF93DF93EC010E94CE24BE010E94CD0AF9
:104A3000DF91CF9108951F93CF93DF93EB01909176
:104A40002402992321F0CB010E94102513C0882352
:104A500049F0CB010E94CE24182F682FCE010E946E
:104A6000752404C0CB010E94A124182FBE01812F00
:104A70000E94CD0ADF91CF911F91089580918D0200
:104A8000859585958595089580918D028770089507
:104A900090918D02977081E009F480E008958091F3
:104AA0009902089590919902892B80939902089513
:104AB000809590919902892380939902089510928C
:104AC0009902089590919802892B809398020895F5
:104AD000809590919802892380939802089510926E
:104AE0009802089510929702089580918E02089579
:104AF00008950C9478250C94792590918E0298173E
:104B000021F080938E020C947B25089580918E0273
:104B1000882329F010928E0280E00C947B25089562
:104B2000E0911F01F0912001809199028083E09132
:104B30001F01F0912001908180919802892B808340
:104B4000E0911F01F0912001908180919702892BC3
:104B5000808380918E02882381F0E0911F01F09183
:104B600020019081892B808380911F0190912001E9
:104B70000E94F62681110E94862580911F01909146
:104B800020010C94851B0C94782598E0899F900156
:104B90001124262B20938D020E94D72380918D0211
:104BA0008595859585950C94C32510928D0280E09E
:104BB0000C94C32520918D028095822380938D02D1
:104BC000982F977079F430E0482F082E000C550B81
:104BD0002417350739F08595859585950E94F8232A
:104BE0000C94D5250895CF92DF92EF92FF926C013D
:104BF000EE24FF24C114D104E104F10421F0C70123
:104C0000B60120E101C020E0C72ED82EE92EFF24F6
:104C1000C114D104E104F10419F0285FC701B60101
:104C20006B017C0154E0F694E794D794C7945A95AD
:104C3000D1F7C114D104E104F10419F02C5FC701CC
:104C4000B6016B017C0142E0F694E794D794C794D7
:104C50004A95D1F7C114D104E104F10419F02E5F93
:104C6000C701B601DC01CB01B695A795979587954D
:104C7000892B8A2B8B2B09F02F5F822FFF90EF90CF
:104C8000DF90CF90089580E090E00E94223221E0F2
:104C90008C3E9E4F09F020E0822F089582E090E044
:104CA0000C94143283E090E00C941432682F83E06B
:104CB00090E00C942832CF9384E090E00E9414326C
:104CC000C82F81E290E00E9414322C2F30E0A9011D
:104CD000582BCA01CF910895CF93C92F682F84E034
:104CE00090E00E9428326C2F81E290E0CF910C94EA
:104CF0002832AB01BC018FE090E00C943A32AB015A
:104D0000BC0183E190E00C943A3260E070E0CB01AA
:104D10000C947F2660E070E0CB010E9479260C9411
:104D200085266CEE7EEF80E090E00E94463260E0E7
:104D300082E090E00E94283260E083E090E00E94F0
:104D400028321092890210928A0210928B021092DD
:104D50008C0260E084E090E00E94283260E081E212
:104D600090E00E94283260E085E090E00E942832C6
:104D700060E086E090E00E9428326FEF87E090E0EC
:104D80000E94283240E050E0BA0188E090E00E94A2
:104D90003A3260E08DE090E00E94283240E050E03E
:104DA000BA0188E190E00E943A3260E087E190E049
:104DB0000E94283240E050E0BA018CE190E00E946D
:104DC0003A3260E080E290E00E94283240E050E019
:104DD000BA0188E190E00E943A320C948A260C9441
:104DE0009126682F8EE090E00C942832FC013296D8
:104DF00097E080E0915029F021912223D9F38F5F31
:104E0000F9CF0895662349F0FC0132960896219166
:104E1000621729F0E817F907D1F780E0089581E0DB
:104E200008959C01FC0132969FEF80E04191461766
:104E300089F09F3F19F4411101C0982F8F5F863090
:104E4000A9F79F3F39F0F901E90FF11D97FDFA9598
:104E50006283089508959C012A5F3F4FFC014281BF
:104E6000461301C01282019682179307B9F708957D
:104E70000C9411270C942B27029626E0FC0111922A
:104E80002A95E9F7089508950C9443270C94432735
:104E9000CF930E9446270E94430D0E944427C0E002
:104EA0008C2F0E94A60C811104C0CF5FCA30C1F7BD
:104EB00001C081E0CF9108950C9443270C945C27A6
:104EC0000E945E2780912605843049F110929B0252
:104ED00020E488E190E00FB6F894A89580936000F4
:104EE0000FBE2093600080E00E94B10A0E945E27FE
:104EF00083B7817F846083BF83B7816083BF7894E9
:104F0000889583B78E7F83BF0FB6F894A89580915C
:104F10006000886180936000109260000FBE089569
:104F20000C9443270E94FE1F0E946C1B0E94B10A32
:104F30000C9490271F920F920FB60F9211248F930B
:104F40009F93AF93BF9380919B02811113C0809177
:104F50001C0590911D05A0911E05B0911F0541965D
:104F6000A11DB11D80931C0590931D05A0931E05E6
:104F7000B0931F05BF91AF919F918F910F900FBE7E
:104F80000F901F90189582E084BD93E095BD9AEF35
:104F900097BD80936E0008952FB7F89480911C05FB
:104FA00090911D05A0911E05B0911F052FBF08957A
:104FB0002FB7F89460911C0570911D0580911E0516
:104FC00090911F052FBF08959C014FB7F8948091D1
:104FD0001C0590911D05A0911E05B0911F054FBFA6
:104FE000821B930B089578941F920F920FB60F9225
:104FF00011248F939F93AF93BF9380911C05909141
:105000001D05A0911E05B0911F050196A11DB11DA2
:1050100080931C0590931D05A0931E05B0931F055A
:10502000BF91AF919F918F910F900FBE0F901F90E6
:10503000189581E08093E00080E28093D800109280
:10504000C9008FE19EE40197F1F700C0000087E0FE
:1050500090EBDC0180932F0590933005A0933105F0
:10506000B09332059CE088E10FB6F894A895809340
:1050700060000FBE90936000FFCF0E944326811115
:1050800002C00E94EF260E944E2680939A020E9440
:105090005B2690932105809320050E945226682F5D
:1050A00070E080E090E00E9477236091850270912B
:1050B000860280918702909188020C94AF238091A0
:1050C000A20280FF0BC06091260185E0689FB001BD
:1050D000112475956795759567952BC081FF09C05B
:1050E0006091260185E0689FB00111247595679550
:1050F00020C082FF07C06091260185E0689FB00153
:10510000112417C09091A1029923D1F0609125013B
:10511000961788F72091260185E0289F9001112499
:10512000929FA001939F500D112470E0CA010E942C
:10513000E4316038710540F46115710519F406C059
:1051400065E070E0862F08958FE7089581E0089567
:105150008091A20280FF08C06091220170E07595E5
:1051600067957595679521C081FF06C06091220102
:1051700070E07595679519C082FF04C060912201A7
:1051800070E010C09091A002992399F060912101E4
:105190009617A0F780912201899FC001112470E029
:1051A0000E94E4316038710540F46115710519F40D
:1051B00006C061E070E0862F08958FE7089581E0D2
:1051C0000895803F21F40E945F28819504C0813FAB
:1051D00029F40E945F288093A6020895823F21F45B
:1051E0000E945F28819504C0833F29F40E945F28B4
:1051F0008093A5020895893F19F40E94A82805C04C
:105200008A3F31F40E94A82881958093A7020895CF
:105210008B3F21F40E94A828819504C08C3F29F47B
:105220000E94A8288093A8020895843F21F48091C9
:10523000A402816017C0853F21F48091A40282609E
:1052400011C0863F21F48091A40284600BC0873F87
:1052500021F48091A402886005C0883F31F48091D8
:10526000A40280618093A40208958D3F21F480916F
:10527000A20281600BC08E3F21F48091A202826065
:1052800005C08F3F29F48091A20284608093A2021E
:105290000895803F39F48091A60287FF6AC010927A
:1052A000A60267C0813F29F48091A6021816BCF3BC
:1052B00060C09091A502823F29F497FF5AC01092D6
:1052C000A50257C0833F19F41916CCF352C0909130
:1052D000A702893F31F419160CF04BC01092A702B7
:1052E00048C08A3F19F497FF44C0F8CF8B3F39F488
:1052F0008091A80287FF3DC01092A8023AC08C3F5F
:1053000029F48091A8021816BCF333C0843F21F41D
:105310008091A4028E7F17C0853F21F48091A40262
:105320008D7F11C0863F21F48091A4028B7F0BC03A
:10533000873F21F48091A402877F05C0883F31F424
:105340008091A4028F7E8093A40213C08D3F21F42C
:105350008091A2028E7F0BC08E3F21F48091A20229
:105360008D7F05C08F3F29F48091A2028B7F8093AF
:10537000A2028091A502811106C08091A60281112E
:1053800002C01092A1028091A702811106C08091F3
:10539000A802811102C01092A00208950E94CC2799
:1053A0002091A502211104C02091A602222321F000
:1053B00090939F0280939E022091A702211104C026
:1053C0002091A802222321F090939D0280939C02B9
:1053D00083EA92E00C94901BEF92FF920F931F933D
:1053E000CF93DF9300D000D000D0CDB7DEB786E0FA
:1053F000E3EAF2E0DE01119601900D928A95E1F761
:10540000E090A502F090A6020091A7021091A802D8
:105410001092A5021092A6021092A7021092A80262
:10542000E11003C0FF2009F45DC080919E029091BD
:105430009F020E94E427AC019091A102992339F0C8
:105440002091270130E02417350758F04BC02091F8
:1054500028018AE0289F900111242417350718F0AD
:1054600041C09F3F19F09F5F9093A102EE2061F031
:105470000E945F281E1414F09FEF01C091E0989FD6
:10548000902D11249093A502FF2061F00E945F28C7
:105490001F1414F09FEF01C091E0989F902D1124EC
:1054A0009093A6023091A5023323E1F02091A60249
:1054B0002223C1F045EB3403C0011124992319F0D4
:1054C0009093A50203C081E08093A50235EB2303EE
:1054D000C0011124992319F09093A60203C081E022
:1054E0008093A602011103C0112309F45DC08091CD
:1054F0009C0290919D020E94E427AC019091A00231
:10550000992339F02091230130E02417350758F012
:105510004BC0209124018AE0289F90011124241778
:10552000350718F041C09F3F19F09F5F9093A0028C
:10553000002361F00E94A828101614F09FEF01C00C
:1055400091E0989F902D11249093A702112361F070
:105550000E94A828111614F09FEF01C091E0989FB7
:10556000902D11249093A8023091A7023323E1F0EB
:105570002091A8022223C1F045EB3403C00111247D
:10558000992319F09093A70203C081E08093A702AA
:1055900035EB2303C0011124992319F09093A8023D
:1055A00003C081E08093A8028091A50281110BC005
:1055B0008091A602811107C08091A702811103C0CA
:1055C0008091A80281110E94CE29EB82FC820D837A
:1055D0001E8386E0FE013196A3EAB2E001900D92AF
:1055E0008A95E1F726960FB6F894DEBF0FBECDBFC1
:1055F000DF91CF911F910F91FF90EF900895E3EA13
:10560000F2E086E0DF011D928A95E9F71092A1028F
:105610001092A0021092A20208958091B102089502
:10562000CF93DF9300D01F92CDB7DEB790912605C0
:10563000943019F589837B836A8382E08093E90043
:105640008FEF9091E800815095FD06C095ED9A95F9
:10565000F1F700008111F5CF8091E80085FF0DC0C2
:1056600040E050E063E070E0CE0101960E94262DFC
:105670008091E8008E778093E8000F900F900F9054
:10568000DF91CF910895BC0184E00C94102BBC01F4
:1056900083E00C94102B22E02093E9002FEF30914F
:1056A000E800215035FD06C035ED3A95F1F70000D0
:1056B0002111F5CF2091E80025FF0BC040E050E01C
:1056C00066E070E00E94262D8091E8008E7780933E
:1056D000E8000895CF93DF9321E02093E9002FEFB6
:1056E0003091E800215035FD06C035ED3A95F1F7CF
:1056F00000002111F5CF2091E80025FF14C0EC0136
:1057000040E050E068E070E00E94262D8091E800C3
:105710008E778093E80088E0FE01A9EAB2E001906C
:105720000D928A95E1F7DF91CF910895809125053B
:10573000811109C00E94B72E0E94142F8091E200AF
:1057400084608093E20008951092250508950895DD
:1057500008950C94922742E061EC81E00E94302E83
:1057600042E261EC82E00C94302E80912805833077
:1057700009F460C030F4813071F0823009F499C0CE
:1057800008958A3009F485C08B3009F46BC08930E4
:1057900009F0A7C020C080912705813A09F0A1C077
:1057A0008091E800877F8093E80080912B0590919D
:1057B0002C05892B21F468E089EA92E003C060E0BF
:1057C00080E090E070E00E94712D8091E8008B777E
:1057D0008093E800089580912705813209F081C007
:1057E00080912B0590912C05029708F07AC080914A
:1057F000E800877F8093E8008091E80082FD05C083
:10580000809126058111F8CF6CC02091F300809122
:10581000F20090E0922B029729F48091F1008B7FA7
:10582000813021F48091F1008093B1028091E800F1
:105830008B7753C080912705813A09F052C080913F
:105840002B0590912C05892B09F04BC08091E80025
:10585000877F8093E8008091E80080FFFCCF8091F3
:10586000330136C0809127058132D9F580912B050F
:1058700090912C05892BA9F58091E800877F809372
:10588000E8000E94652E80912905809333010C94D5
:10589000FE1F80912705813221F58091E800877FE6
:1058A0008093E8000E94652E80912A058093B202C1
:1058B000089580912705813AA1F48091E800877FBF
:1058C0008093E8008091E80080FFFCCF8091B202D5
:1058D0008093F1008091E8008E778093E8000C942B
:1058E000652E089584B7877F84BF0FB6F894A89576
:1058F00080916000886180936000109260000FBE0C
:1059000090E080E80FB6F894809361009093610076
:105910000FBE0E94E01B0E94B72E0E94142F8091A0
:10592000E20084608093E20078940E94A9310E9492
:10593000E61B89E291E00E94671B80912605853075
:1059400069F40E946027809124058823B1F30E94A6
:105950004827882391F30E94102DEFCF0E94F51B5A
:105960000E94D41B0E94D31BE8CF0C94B72C292F84
:10597000332723303105C9F060F42130310581F03F
:105980002230310509F044C08BE390E025EE3DE084
:1059900043C021323105E1F02232310549F138C0EE
:1059A00082E190E020E23EE037C099278130910506
:1059B00049F028F0029761F5E7EBFDE005C0E1EE64
:1059C000FDE002C0E5ECFDE0849190E09F0124C081
:1059D0006115710541F061307105D1F489E090E005
:1059E00020E13EE019C089E090E027EF3DE014C0DF
:1059F0006115710541F06130710551F481E890E065
:105A000022E33EE009C080E490E023EB3EE004C0E6
:105A100080E090E020E030E0FA01318320830895B7
:105A200080E189BD82E189BD09B400FEFDCF80918E
:105A3000D8008F7D8093D8008091E00082608093B1
:105A4000E0008091E00081FDFCCF0895CF92DF92CD
:105A5000EF92FF920F931F93CF93DF93EC018B0193
:105A60007A010E94842E811133C0E114F10439F0CF
:105A7000F70180819181081B190BC80FD91FC12C18
:105A8000D12C0115110519F18091E80085FD16C092
:105A90008091E8008E778093E800E114F10449F0EA
:105AA000F70180819181C80ED91ED182C08285E024
:105AB0000FC00E94842E882321F30AC0899180930D
:105AC000F10001501109FFEFCF1ADF0ADACF80E0B1
:105AD000DF91CF911F910F91FF90EF90DF90CF90CA
